:020000040800F2
:1000000000500020B5240008D51D0008D91D0008A7
:10001000DD1D0008E11D0008E51D000800000000CE
:10002000000000000000000000000000E91D0008C2
:10003000ED1D000800000000F11D0008F51D00087E
:10004000FD240008FD240008FD240008FD2400080C
:10005000FD240008FD240008FD240008FD240008FC
:10006000FD240008FD240008FD240008511E00089E
:10007000FD240008FD240008FD240008FD240008DC
:10008000FD240008FD240008FD240008FD240008CC
:10009000FD240008FD240008FD240008F1210008CB
:1000A000FD240008FD240008FD240008FD240008AC
:1000B000891E0008FD240008FD240008FD24000816
:1000C000FD240008FD240008FD240008FD2400088C
:1000D000FD240008CD230008FD240008FD240008AD
:1000E00081220008FD240008FD2400080000000013
:1000F0000000000000000000000000000000000000
:0C01000000000000000000005FF808F1A3
:10010C0010B5054C237833B9044B13B10448AFF345
:10011C0000800123237010BD0C00002000000000A3
:10012C00D02A000808B5034B1BB103490348AFF3B1
:10013C00008008BD0000000010000020D02A00083C
:10014C00002210B5104648F210439F2101F036FAF8
:10015C0048F2104315229F21002001F02FFA48F29B
:10016C0010432A229F21002001F028FA48F2104364
:10017C003F229F21002001F021FA48F21043542223
:10018C009F21002001F01AFA48F2104369229F21A6
:10019C00002001F013FA48F210437F229F21002027
:1001AC0001F00CFA002148F2104308467F2201F0BE
:1001BC0059FA48F210437F2200211F2001F052FA15
:1001CC0048F210437F2200213F2001F04BFA48F205
:1001DC0010437F2200215F2001F044FA7F2248F275
:1001EC0010431046002101F03DFABDE8104048F2E2
:1001FC0010437F2200219F2001F034BA2548264B62
:10020C000246196810B521F0070141F0020119608E
:10021C001968196841F010011960036843F48033C0
:10022C00036013689903FCD551681A4B21F47C11B7
:10023C0041F454115160116841F0807111601A68D9
:10024C009201FCD55A68134C22F0F0025A605A689D
:10025C0022F4E06242F480625A605A6822F46052DE
:10026C005A605A6822F0030242F002025A60636834
:10027C0003F00C03082BFAD1084802F0C1FB074825
:10028C0002F0E2FB636823F4404343F48043636071
:10029C0010BD00BF0010024000200240000E2707D6
:1002AC004FF6FF012DE9F04F0024CF4DB7B0AB69ED
:1002BC00CE4843F00103AB61AA69CD4B02F00102B9
:1002CC001292129AEA69DFF8508342F08052EA6186
:1002DC00EA69012602F080521192119AC2684FF01D
:1002EC00020B0A401343C360D8F80430DFF82C9398
:1002FC0023F0E063C8F80430D8F8043043F00073FE
:10030C00C8F80430FFF77AFFCDE92F4427942894DE
:10031C00AB694FF2F00243F01003AB61AB692CA94F
:10032C0003F010031E931E9BAB69484643F0200359
:10033C00AB61AB6903F020031F931F9BAB6943F0C8
:10034C000403AB61AB6903F004032093209BAB69FE
:10035C0043F00803AB61AB692C9203F008032193C3
:10036C00219BCDE92D6B02F083F9A24B2CA9A2485D
:10037C002C93CDE92D6B2F9402F07AF99F4B2CA97D
:10038C009F482C93CDE92D662F9402F071F948F219
:10039C00800308222CA99A482C932D92309602F0B7
:1003AC0067F90822974B2CA948462D922C9330962E
:1003BC0002F05EF9D8F80C204FF4706393FAA3F3B3
:1003CC00B3FA83F322F4706206FA03F31343C8F80A
:1003DC000C30D8F810304FF00F0A23F00F039AFAB4
:1003EC00AAF2C8F81030D8F810304FF4704223F449
:1003FC00704392FAA2F2C8F81030D8F8142022F008
:10040C000F029AFAAAF34023C8F8142027AA104620
:10041C00279305938DF8A0608DF8A1408DF8A2B0BC
:10042C0002F0C8F827AA10464FF480728DF8A0602D
:10043C0027928DF8A1408DF8A2B002F0BBF827AA44
:10044C0010464FF400628DF8A06027928DF8A14001
:10045C008DF8A2B002F0AEF84FF4805227A90846EE
:10046C0027928DF8A0608DF8A1408DF8A2B002F013
:10047C00A1F86348059BC26893FAA3F3B3FA83F31C
:10048C0022F0400206FA03F31343C360D9F80C3090
:10049C005D4A92FAA2F2B2FA82F223F4802306FAAF
:1004AC0002F223F480731343C9F80C30D9F80C20F2
:1004BC004FF4812393FAA3F3B3FA83F322F481224A
:1004CC0006FA03F31343C9F80C30D9F80C204FF497
:1004DC00822393FAA3F3B3FA83F322F4822206FA6B
:1004EC0003F31343C9F80C3044F2400393FAA3F11D
:1004FC00B1FA81F193FAA3F2B2FA82F208270368F7
:10050C0001FA0BF10AFA01F102FA0BF207FA02F204
:10051C0023EA0103134303603C4991FAA1F2B2FAB6
:10052C0082F291FAA1FE3A4BBEFA8EFE93FAA3F137
:10053C00B1FA81FC93FAA3F3B3FA83F83549CDF8F9
:10054C00148091FAA1F3B3FA83F8CDF8188091FADC
:10055C00A1F3B3FA83F84FF40001CDF81C80234BC0
:10056C00DFF8BC80DB6888F81743C8F800104FF43C
:10057C008071F0201D4B02FA0BF2DB6888F82843DF
:10058C00C8F804104FF4E051C9F810001C48C0F82A
:10059C0010B001616B690AFA02F033436B61D9F850
:1005AC0004300CFA0BF223EA000368690EFA0BF123
:1005BC0000EA060CCDF874C04FF4006C07FA01F198
:1005CC000B430AFA02F2059823EA02021D9B074B21
:1005DC000699DB6800FA0BF088F80B43C8F800C0EA
:1005EC0022941A941EE000BF0010024000ED00E0BF
:1005FC000003FA0520002004001001401C001C041C
:10060C00000C01400200020400010400010001047E
:10061C00080008041000100400000140000801400C
:10062C0000E100E0CDE92744CDE929442B942D9439
:10063C002394CDE92E443094079B07FA00F001FA7D
:10064C000BF10AFA01F103FA0BF3024322EA01025D
:10065C0007FA03F313432CAA114640F20112A869BE
:10066C00C9F8043040F40070A861AB69484603F443
:10067C0000731B931B9BAB69DFF874A343F004035B
:10068C00AB61AB692C9203F004031C931C9B01F02F
:10069C00EFFFCC4B22A81A68014622F4804222F0CC
:1006AC0010021A601A68504622F4405242F400526A
:1006BC001A601A6822F020021A601A6822F04002AE
:1006CC001A601A6842F080021A601A6822F44072AA
:1006DC0042F400721A601A6822F4406242F400621A
:1006EC001A60CDE9224401F023FF4FF4C02336A950
:1006FC0041F8703D504601F0FDFE27AA4FF400234F
:10070C0011464FF4807250462B92CDE928442A941E
:10071C00279301F025FF4FF4407292FAA2F24FF4A6
:10072C000077B2FA82F2A84827FA02F250F82210A7
:10073C004FF0007321F01F0140F8221093FAA3F23E
:10074C00B2FA82F2203823FA02F2059350F8221002
:10075C004FF0F87797FAA7FC21F0070197FAA7FC5E
:10076C0040F2022C40F82210CDE92244CDE9274476
:10077C00CDE92944CDE92D44CDE92F442B94AA6928
:10078C000DF1B00E42F48062AA61AA69714602F4BE
:10079C0080621992199AAA69484642F00402AA6129
:1007AC00AA69CDF8B0C002F004021A921A9A01F0AC
:1007BC005FFF22A801468548CDE9224401F0B8FE2E
:1007CC004FF4602227A8014680482792CDE928449F
:1007DC00CDE92A4401F0C4FE4FF4407292FAA2F221
:1007EC004FF4007CB2FA82F279482CFA02F250F8FB
:1007FC002210059B21F01F01314340F8221093FA7F
:10080C00A3F2B2FA82F2DFF8ECE1D3405EF82320D7
:10081C0097FAA7FC4FF44010BCFA8CFC072120FA85
:10082C000CF001FA00F022EA000297FAA7F14EF858
:10083C002320214628222CA802F03BF9CDE92A449A
:10084C00EB69644A43F48043EB61EB6927A803F43A
:10085C0080431793179BAB69014643F00803AB61C8
:10086C00AB692792092203F0080318935A4829967A
:10087C00189B28924FF4827601F0FAFE4FF4007721
:10088C0010220A232CA80146544831972D963292F7
:10089C0035932C94CDE92E443094CDE9334401F0BA
:1008AC006DFF4FF0805C63227726CDF8B640CDF813
:1008BC00BA40CDF8B240CDF8BE40ADF8C240EB69BD
:1008CC002CA843F00103EB61EB69014603F0010333
:1008DC001693169B424B4FF080401F46DB6888F8FE
:1008EC001C43C8F800C0ADF8B0602E9201F078FF40
:1008FC004FF080434FF0005C40F2ED2E1A68A9F5E2
:10090C00823922F080021A609A682CA822F4804264
:10091C0022F007029A605A68014622F070025A606F
:10092C009A68484622F080029A60CDE92E44CDE9BF
:10093C002C443094EB692B4E43EA0B03EB61EA69D0
:10094C00294B02EA0B0215920593159AFA6888F85E
:10095C001D43C8F800C0CDF8B8E001F041FFD9F84C
:10096C000020214622F08002C9F80020D9F8082086
:10097C002CA822F4804222F00702C9F80820202279
:10098C00D9F804C04FF420772CF0700C4CEA020C10
:10099C00C9F804C0D9F808C02CF0800CC9F808C0FC
:1009AC00CDE92244CDE92444269402F082F8CDE925
:1009BC002A44EA690D4B42F00402EA61EA6927A86D
:1009CC001AE000BF080002402C240140002801401E
:1009DC002C280140A000A004000C0140003800406D
:1009EC0000ED00E000080040180800400100010480
:1009FC00002401400C28014002F004021392139AC7
:100A0C00AA69014642F00802AA61AA692793092340
:100A1C0002F0080214926A48CDE9283B149A01F0BE
:100A2C0027FE4FF4A06222A93046CDE92424ADF86C
:100A3C008840239401F0D4FE4FF0700C3168059B74
:100A4C0021F080013160B0682CAA20F4804020F0A5
:100A5C000700B0605D684FF4807145F008055D607B
:100A6C003046CDE92D443094CDF8B0C02F9701F02D
:100A7C00EDFE5146059B5A6822F004025A607368D9
:100A8C0023F070037360B36823F08003B360DAF86B
:100A9C00083043F00103CAF80830DAF8083043F0A4
:100AAC000403CAF808308B685B07FCD40A2001F0F9
:100ABC00B9FF444B1E469A6842F001029A609A684C
:100ACC0042F004029A60B46814F00404FBD10A20CA
:100ADC0001F0A8FF4FF0804101200A683A4B42F028
:100AEC0001020A601A6A01F5605142F480721A62BE
:100AFC001A6A092542F480521A621A680B90024352
:100B0C001A600B684FF6E07B43F040030B6000F07B
:100B1C003FFC204601F00CF9402040F2ED2C4FF642
:100B2C00FF712A4F2A4A3D70DFF8E0E0294D2A4F29
:100B3C00DFF8DC800F909462C2F82CC02C708EF819
:100B4C00004088F800403C70244FDFF8C8903C709F
:100B5C00234FA9F8000038802248234BA0F800B09E
:100B6C002248A24601802248224CA0F800B022481C
:100B7C00224D018022480180224801809D60DC606A
:100B8C0059682148090C090441F4A071596019688D
:100B9C0004F2FC4441F00201196019680D9441F013
:100BAC0001011960836843F480138360B36843F4D4
:100BBC008013B360136843F0010313606BE000BF54
:100BCC00000C01400028014000080040CE0C002021
:100BDC0000040040CF0C0020B8020020C607002003
:100BEC00C8070020B402002008000240CC0C0020F2
:100BFC00500F0020CC070020C40700204C240140DB
:100C0C00B6020020BA02002000240140C7070020D1
:100C1C00C0070020C2070020894A8A481188426810
:100C2C00CDE9011300920368874A6A21782000F00D
:100C3C001DFF864B1B785BB2002B00F0AD80834B05
:100C4C0080491878824B40B21A884B68CDE9012A4A
:100C5C00009301280B6800F00E827E4A752101205A
:100C6C0000F004FF7C4B774C1A886368CDE9012AAD
:100C7C0000932368794A75214B2000F0F7FE784BDE
:100C8C0075211A886368CDE9012A00932368754A97
:100C9C00782000F0EBFE744B1B78012B00F08A805F
:100CAC00724B1B785BB2002B00F0BF816F4B654918
:100CBC0018786F4B40B21A884B68CDE9012A009323
:100CCC0001280B6800F0D2816A4A6A21012000F0E9
:100CDC00CDFE694B1B785BB2002B00F0B981664BE3
:100CEC001B78012B00F0CC81634B1B78022B00F09E
:100CFC00EA81614B1B78032B00F0F3815E4B1B7870
:100D0C00042B00F0FC815C4B1B78052B00F005825A
:100D1C00594B1B78062B00F00E82574B1B78072B78
:100D2C0000F04A82544B1B78082B00F05382524B34
:100D3C001B78092B00F05C824F4B1B780A2B00F0C0
:100D4C0065824D4B3F491B784B200B2B4B4B1A8824
:100D5C004B68CDE9012A00930B680CBF484A494AFD
:100D6C006A2100F083FE484B1B785BB2002B3FF4EA
:100D7C0053AF334B33491A884B68CDE9012A0093A2
:100D8C000B68424A6A21782000F070FE2F4B1B78CA
:100D9C005BB2002B7FF453AF2D4A2A48118842686E
:100DAC00CDE9011300920368394A7521012000F046
:100DBC005DFE57E742F20F757F26364C36493748B1
:100DCC0011E0A3F1100202EB93039BB2AB42A0F82B
:100DDC0000A021D90D9BA1F800A0A34201F10201B2
:100DEC0000F1020024D054F8043F5F0DA7F110026B
:100DFC0002EB970292B2C3F34A13AA420B80E0D8DB
:100E0C007F2A98BF0280A3F1100202EB93039BB2DE
:100E1C0088BF0680AB42DDD87F2B98BF0B800D9B23
:100E2C0088BF0E80A34201F1020100F10200DAD169
:100E3C00154B1B78002B40F0318101231A4630E012
:100E4C00B602002000000020E0320008C607002097
:100E5C00CC0C002008330008BA0200201433000820
:100E6C00C407002018330008CF0C0020B802002063
:100E7C00B40200206C320008CE0C0020500F002071
:100E8C00D0320008D83200083C050020E8320008B7
:100E9C00F0320008C8070020BC020020D00C002053
:100EAC009AB2AC4BAC481B88511E30F811101BB2D7
:100EBC00994202F10103F3DBA64930F812000988CC
:100ECC0009B28842ECDA13460E92A02B38BF1C46AE
:100EDC004FF0010B28BF01240E94FFF731F958464F
:100EEC000F9A00230A2100F069FB9A4D9B4B2A882C
:100EFC0058461B880A2100F061FBA31C9BB204EB33
:100F0C000B0203FA0BF39448954C2988023BE61824
:100F1C00C71892B28BB202FA0BF20F930B9B023AE8
:100F2C005B4400EB02090C934B460596B9465E46B2
:100F3C009B4604EB02080B9BB4B218190C9B894D11
:100F4C00E218894B80B292B233F9101035F81000C8
:100F5C0033F9123035F81220CDF800A03BF8027F9F
:100F6C000134069739F8027F24B2079738F8027FCC
:100F7C0035B20A97059F089037F802CF0992284698
:100F8C0022460597674600F0BFFB2246BDF9243088
:100F9C00BDF920102846CDF800A000F0B5FB4FF4A9
:100FAC00FC62BDF91C30BDF918100092284622468F
:100FBC0000F0AAFB22464FF61F0401363BB2BDF9E6
:100FCC0028102846009400F09FFB9F2EB3D14FF4BD
:100FDC0020726149644801F061FD4FF42072604950
:100FEC00604801F05BFD08220E9B60490B93604B3F
:100FFC0081F800A05F495A600B685F4A23F0010337
:10100C000B604B681B0C1B0443F4A0734B600B6808
:10101C0043F001030B60136843F001031360574B5B
:10102C001B785BB2002B7FF441AE554A55481188B2
:10103C004268CDE9011300920368534A6A210120EA
:10104C0000F014FD514B1B785BB2002B7FF447AEC4
:10105C004F4A4C4811884268CDE90113009203684D
:10106C004C4A6A214B2000F001FD7CE64A4A6A2179
:10107C0000F0FCFC2DE6494A752100F0F7FCF1E587
:10108C00434B40491A884B68CDE9012A00930B6801
:10109C00434A6A214B2000F0E9FC64E6012301E09D
:1010AC0001339BB22B482E4C0288591E34F8111078
:1010BC0012B29142F4DB028834F8131012B291424E
:1010CC00EEDA0E9301E7324B2E491A884B68CDE9C4
:1010DC00012A00930B68334A6A214B2000F0C6FCAE
:1010EC0041E62B4B27491A884B68CDE9012A00931E
:1010FC000B682D4A6A214B2000F0B8FC33E6244BD8
:10110C0020491A884B68CDE9012A00930B68274ABD
:10111C006A214B2000F0AAFC25E61D4B19491A88C0
:10112C004B68CDE9012A00930B68214A6A214B20B8
:10113C0000F09CFC17E6164B12491A884B68CDE957
:10114C00012A00930B681B4A6A214B2000F08EFC8D
:10115C0009E600BFC8070020D00C0020C4070020FF
:10116C00BC0200204005002034000020CF0C0020E1
:10117C00000002400800024000040040B8020020B9
:10118C00B40200200000002054320008CE0C0020D5
:10119C00500F00207832000860320008FC32000842
:1011AC00803200088832000890320008983200081B
:1011BC00A0320008A83200081B4B1C491A884B6847
:1011CC00CDE9012A00930B68194A6A214B2000F0E3
:1011DC004DFCC8E5144B15491A884B68CDE9012A1A
:1011EC0000930B68134A6A214B2000F03FFCBAE5D0
:1011FC000D4B0E491A884B68CDE9012A00930B68F8
:10120C000D4A6A214B2000F031FCACE5064B074936
:10121C001A884B68CDE9012A00930B68074A6A21AA
:10122C004B2000F023FC9EE5500F00200000002016
:10123C00B0320008B8320008C0320008C8320008CA
:10124C002DE9F04F4FF480674FF480564E4C4F4DC4
:10125C00676183B06661AC68A707FCD54B4DAC6881
:10126C002606FCD42A24494E2C73B468A407FCD55A
:10127C00464DAC6814F08004FBD14FF4805ADFF873
:10128C0008914FF4806B01AED4464F46D04635469C
:10129C00C9F810A08DF807203C4A8DF804408DF851
:1012AC0005008DF806400DF1080EC9F810B015F8C0
:1012BC00014BC7F8148090688007FCD59068000635
:1012CC00FCD4147390688407FCD590680006FCD499
:1012DC00AE45C7F810C0EAD14FF480622B487A6152
:1012EC00C7F814C082689407FCD528488268120697
:1012FC00FCD42B22254C0273A2689707FCD52348FB
:10130C0082681406FCD44FF4805C1F4A4FF4806E44
:10131C00644610466746C2F810C08DF807301B4B68
:10132C008DF80510C2F810E016F8011B47619A6899
:10133C009207FCD59A681206FCD419739A68910727
:10134C00FCD59A681206FCD4B5420461ECD14FF47A
:10135C0080630E4A4361446193689807FCD50B4A3D
:10136C0093681906FCD42C23084913738B689A07CD
:10137C00FCD5064A93681B06FCD44FF48052024BF2
:10138C001A6103B0BDE8F08F000C0140003800403A
:10139C002DE9F8434FF480534FF40067824C012041
:1013AC006361676101F03EFB0F2601207F4A2546F1
:1013BC002761A4F554444FF480614FF48053696164
:1013CC006B61A3689B07FCD5A3681F06FCD4207334
:1013DC00A3689807FCD5A3681906FCD44FF4805079
:1013EC0028615778911C17F07F0811D13A0608D55F
:1013FC0008784F1CFF2808BF4FF4FA7001F012FB5D
:10140C003946013E16F0FF0623D008780A46D2E78B
:10141C004FF48063864608F1FF3C5FFA8CFC013286
:10142C008C442B6112F8019FC5F814E0A3689B074C
:10143C00FCD5A3681B06FCD484F80C90A3689B070E
:10144C00FCD5A3681B06FCD494452861EAD1414421
:10145C00CCE702262A20564A534D564C4FF4806155
:10146C004FF4805369616B61A3689B07FCD5A3683B
:10147C001F06FCD42073A3689807FCD5A368190633
:10148C00FCD44FF4805028615778911C17F07F08DA
:10149C0010D13A0608D508784F1CFF2808BF4FF426
:1014AC00FA7001F0BFFA3946012E24D008780A46AA
:1014BC000126D3E74FF48063864608F1FF3C5FFAC0
:1014CC008CFC01328C442B6112F8019FC5F814E09E
:1014DC00A3689B07FCD5A3681B06FCD484F80C906E
:1014EC00A3689B07FCD5A3681B06FCD49445286114
:1014FC00EAD14144CDE70426E0202F4A2A4D2D4C59
:10150C004FF480614FF4805369616B61A3689B0752
:10151C00FCD5A3681F06FCD42073A3689807FCD5E0
:10152C00A3681906FCD44FF4805028615778911C9D
:10153C0017F07F0811D13B0608D508784F1CFF28FF
:10154C0008BF4FF4FA7001F06DFA3946013E16F0FF
:10155C00FF0623D008780A46D2E74FF4806386460C
:10156C0008F1FF3C5FFA8CFC01328C442B6112F8C1
:10157C00019FC5F814E0A3689B07FCD5A3681B0664
:10158C00FCD484F80C90A3689B07FCD5A3681B06BD
:10159C00FCD494452861EAD14144CCE74FF4805205
:1015AC00014B1A61BDE8F883000C0140213300089F
:1015BC005D330008003800406D3300089F284BD87D
:1015CC009F2949D87F2A47D8F8B50E4604464FF4D0
:1015DC0080502249B44248611D46E0B2D3B2F1B208
:1015EC002ABF02460A4608461946FFF729FE4FF461
:1015FC008063311B194889B20361002927D04FF44D
:10160C0080542746164A2E0AEDB2476193689B0711
:10161C00FCD593681B06FCD4167393689B07FCD50A
:10162C0093681B06FCD40461446193689B07FCD54A
:10163C0093681B06FCD4157393689B07FCD59368C1
:10164C001B06FCD4013989B204610029DDD14FF4A9
:10165C008052024B1A61F8BD704700BF000C01406C
:10166C00003800402DE9F0410F4690464FF4805C65
:10167C00234E4745C2B25FFA88F1F8B24FEA132500
:10168C00DCB2C6F814C036BF0B4603460146104602
:10169C00FFF7D6FD4FF48063194EB8EB070C33619E
:1016AC0027D44FF480570020BE46164AC6F814E0E3
:1016BC0093689907FCD593681B06FCD41573936843
:1016CC009907FCD591680B06FCD43761776191685A
:1016DC008907FCD591680B06FCD4147391688907B3
:1016EC00FCD591680B06FCD4013080B260453761A3
:1016FC00DCDD4FF48052024B1A61BDE8F08100BF73
:10170C00000C0140003800402DE9F04F85B21FFA63
:10171C0082FB9646ABEB05021FFA83F91FFA81FA9E
:10172C0092B20E46A9EB0A0411B289B01FFA84FCDE
:10173C00002980461F460FFA8CF0BDF8483058DD62
:10174C00002810DC01210191002840F08081C64561
:10175C005246C7BF594628462946584609B0BDE8E7
:10176C00F04FFFF72BBF0124059401944C00039418
:10177C004400049488424FEA1324DBB20694079386
:10178C0049DCBDF81030C645A3EB0204029324B229
:10179C0000F04681CDF810B04046A64FDDF804B0FD
:1017AC00F04610E0059A80459244DDE90221A2EB57
:1017BC0001041FFA8AF91C440FFA89F624B214D0DA
:1017CC0085B21FFA86FA9F2DD14602D8BAF17F0F47
:1017DC005DD90BEB0500002C00B2A3B2E2DA029A41
:1017EC00804502EB030424B2EAD1DDF810B0804648
:1017FC0043E0002840F31781002940F01F81B742D5
:10180C00C7BF4A46514652464946284609B0BDE82C
:10181C00F04FFFF727BFBDF80C30B742A3EB0C0419
:10182C00029324B200F0FC80CDF80C90DFF804A2F7
:10183C00DDF814900EE0019A04991544029A1FFAEF
:10184C0085FB541A1C44B7420FFA8BF824B212D001
:10185C001FFA88F59F2DAB4602D8B3B27F2B55D912
:10186C004E44002C36B2A3B2E5DA029AB74202EB30
:10187C00030424B2ECD1DDF80C90BBF19F0F03D81C
:10188C00B9F17F0F40F28C8009B0BDE8F08F4FF4B6
:10189C008052C0B2F1B2684B00F1010E01F1010CA3
:1018AC005A615FFA8EF25FFA8CF3FFF7C9FC4FF4C2
:1018BC008063614A136113464FF480525A61BB68CE
:1018CC009807FCD5BB681906FCD4069B3B73BB6818
:1018DC009A07FCD5BB681B06FCD44FF48052564BC0
:1018EC001A615A61BB689807FCD5BB681906FCD411
:1018FC00079B3B73BB689A07FCD5BB681B06FCD4E3
:10190C004FF480524C4B1A611A6162E74FF48052CB
:10191C005FFA88F0F1B2484B00F1010E01F1010CB5
:10192C005A615FFA8EF25FFA8CF3FFF789FC4FF481
:10193C008063414A136113464FF480525A61DAF8BE
:10194C0008309807FBD5DAF808301906FBD4069B4B
:10195C008AF80C30DAF808309A07FBD5DAF8083038
:10196C001B06FBD44FF48052334B1A615A61DAF8E0
:10197C0008309807FBD5DAF808301906FBD4079B1A
:10198C008AF80C30DAF808309A07FBD5DAF8083008
:10199C001B06FBD44FF48052274B1A611A615FE788
:1019AC004FF48057244C5FFA88F0F1B24B1C421C68
:1019BC00DBB2D2B26761FFF743FC4FF480631D4A80
:1019CC002361676193689F07FCD51A4A93681E06CA
:1019DC00FCD4069B174913738B689D07FCD5154ADD
:1019EC0093681C06FCD44FF48051134B114A1961B7
:1019FC00596193689807FCD50E4A93681906FCD474
:101A0C00079B0C4913738B689A07FCD5094A93689A
:101A1C001B06FCD44FF48052074B1A611A6133E752
:101A2C00D146AB4629E700293FF4E9AE4FF6FF71EA
:101A3C00019189E600380040000C01400124059416
:101A4C004FF6FF74524292B211B201948EE6CCF171
:101A5C0000041FFA84FC4FF6FF7401990FFA8CF006
:101A6C0001FB02F292B211B205947FE682B02DE92D
:101A7C00F04F4FF480548FB0BDF870500592AA4AC5
:101A8C00BDF86CA05FFA83FB1993C3F3072303958E
:101A9C00079154612A0A06930BF1FF3302920B93C0
:101AAC004FEA1A22DFF88092A04B0192059A12F8A5
:101ABC0001CB0592BCF1000F00F0058100EB0B028D
:101ACC009F2A089240F32981DDE906120A4492B25A
:101ADC0007920A447F2A00F3F680BCF1200F00F035
:101AEC002081002204920A46CDF820B04FF4806089
:101AFC004FF480519DF81CE0013A1A9C7244D2B20A
:101B0C0009920A94049AC9F814000B98C9F8141095
:101B1C0002EB00085FFA88F89A689407FCD59A687B
:101B2C001006FCD42A221A739A689107FCD59A687D
:101B3C0012F08002FBD14FF480570DA8C9F8107039
:101B4C008DF834208DF836204FF4806201463C46E7
:101B5C003E46049F8DF837808DF835700EADC9F870
:101B6C00102011F8017BC9F814609A689207FCD513
:101B7C009A681206FCD41F739A689707FCD59A686A
:101B8C001206FCD48D42C9F81040EAD14FF48062A1
:101B9C00654D6A616C619A689707FCD59A68160660
:101BAC00FCD42B221A739A689507FCD59A681406F4
:101BBC00FCD44FF480524FF48064C9F810201546C1
:101BCC001646099A8DF835E08DF83720C9F8104083
:101BDC0010F8014BC9F814609A689207FCD59A6802
:101BEC001706FCD41C739A689207FCD59A681706E2
:101BFC00FCD48142C9F81050EAD14FF480624A49B2
:101C0C004A614D619A689407FCD59A681006FCD419
:101C1C002C221A739A689107FCD59A681206FCD488
:101C2C004FF480540699C9F81040002941D0ACF10A
:101C3C00200201FB02F2BBF1000F3AD026460A98B3
:101C4C0002F100480A44811E08F1FF3801EB420200
:101C5C0000EB480804920DF1360500214FF4806E1C
:101C6C0038F802CF0CFA01F217040DA834D5019AFA
:101C7C008DF835A08DF83420C9F810E010F8017BF0
:101C8C00C9F814609A689207FCD59A681206FCD4BD
:101C9C001F739A689207FCD59A681706FCD4A84261
:101CAC00C9F81040EAD101315945DBD1049A4245BB
:101CBC00D3D1059ABDF8200012F801CB0592BCF1E6
:101CCC00000F7FF4FBAE4FF48052174B1A610FB02C
:101CDC00BDE8F04F02B07047029A8DF83420039A99
:101CEC008DF83520C9F810E010F8017BC9F81460A4
:101CFC009A689207FCD59A681206FCD41F739A68EE
:101D0C009707FCD59A681206FCD48542C9F8104096
:101D1C00EAD101315945A5D1C8E7C2B20492069A5D
:101D2C00E4E60020C2E600BF000C01400038004091
:101D3C002DE9F04100214FF48057DFF888800446EC
:101D4C007F230846C8F814709F22FFF779FA4FF4E6
:101D5C0080633E4640464FF0800EC8F81030184B5A
:101D6C00250AE4B2A02146619A689207FCD59A68CC
:101D7C001206FCD41D739A689207FCD59A68120659
:101D8C00FCD4076147619A689207FCD59A681206E1
:101D9C00FCD41C739A689207FCD59A681206FCD482
:101DAC00013989B207610029DDD10EF1FF3E1FFA1E
:101DBC008EFEBEF1000FD5D1C8F81060BDE8F081E1
:101DCC0000380040000C0140704700BFFEE700BF28
:101DDC00FEE700BFFEE700BFFEE700BF704700BF95
:101DEC00704700BF704700BF134A13881BB2002B0B
:101DFC0004DD1388013B1BB2138070474FF0804108
:101E0C00CA680E4B22F00102CA601A680C4942F0F3
:101E1C0040021A601A6842F480721A601A6842F41E
:101E2C0000621A601A6842F480521A600B6823F040
:101E3C0002030B60704700BF540F002000040140E8
:101E4C0010E000E00A490B4B0A6822F001020A601C
:101E5C001A6890070AD51A68910704D502215960AF
:101E6C001A689207FBD40122034B1A70704700BF0B
:101E7C000004004000000240CF0C00204FF08043D3
:101E8C001A69D10740F1B4801A692DE9F043D207E1
:101E9C0005D56FF0010119611A69D707FBD44FF012
:101EAC00000E9B4E9B4D9C4C9C48317895F80080C5
:101EBC002378027849004FEA48085B005200DFF8AB
:101ECC0094C2974FC9B25FFA88F8DBB2D2B2DFF88E
:101EDC0054928CF800E0317085F800802370027009
:101EEC0087F800E0D9F808E01EF4807F02D10131B8
:101EFC00C9B231708B4EB668B60505D408F101082D
:101F0C005FFA88F885F80080874DAD686E0602D4BC
:101F1C000133DBB22370844CA468250602D4013251
:101F2C00D2B20270802969D0802B62D07F4A13789C
:101F3C005BB223BB7E4A9CF800001178014449B285
:101F4C00117011780C0648BF137013785BB20C2B10
:101F5C00C4BF0C23137013785BB20C2B00F23981C5
:101F6C00DFE813F0BA00C100C800CF00FA0001018D
:101F7C0008010F0116011D0124012B0131011378F9
:101F8C00012B42D06B4A9CF8001013780B445BB2C7
:101F9C00137013785BB2012BC4BF01231370137839
:101FAC00180644BF00231370634A13785BB2002BEE
:101FBC0041D1624A38781178014449B211701178D4
:101FCC00090648BF1370137810215BB2022BC4BFF3
:101FDC0002231370137820225BB2012B68D0022BE2
:101FEC0076D0002B6DD04F4B19611A61BDE8F08390
:101FFC007047002A60D1FF233B7097E7B8F1000FC0
:10200C0038D1FF218CF800108EE74D4A9CF8001057
:10201C00138849B2A3EB81031BB2138013881BB244
:10202C00032BDCBF0423138013881BB27C2BBBDD7A
:10203C007C231380B8E71378012B22D0414A3B78DC
:10204C0011885BB20B441BB2138013881BB2002B9C
:10205C00DCBF0123138013881BB27E2BC4BF7E23ED
:10206C0013801388384A1BB203EB83035B00D363E2
:10207C00BDE8F083B8F1FF0F04BF01218CF800100C
:10208C0052E7324B39781A780A4452B21A701A78DD
:10209C004021120644BF00221A701A7852B2022A4A
:1020AC00C4BF02221A701B7880225BB2012B96D11E
:1020BC001C4B19615A6199E7FF2A04BF01233B703D
:1020CC0034E703F1804303F5843319611A618DE71A
:1020DC00144B59615A6189E7632141F64B521C4BF1
:1020EC009962DA6260E7632140F6A562184B996247
:1020FC00DA6259E7632140F25272154B9962DA6247
:10210C0052E7632140F2ED22114B9962DA624BE700
:10211C0028000020290000202A0000202B0000208D
:10212C00530F002000080140000C0140C70700209D
:10213C00CE0C00203C050020C0070020B802002077
:10214C00C8070020C207002000080040C607002076
:10215C0000040040520F0020002149F27B22204B4A
:10216C009962DA6220E7002144F63D121C4B996219
:10217C00DA6219E7002141F64B52194B9962DA6287
:10218C0012E7002140F6A562154B9962DA620BE763
:10219C00002140F25272124B9962DA6204E700217C
:1021AC0040F2ED220E4B9962DA62FDE600214FF40B
:1021BC00BB720B4B9962DA62F6E60021BB22084B2C
:1021CC009962DA62F0E600214A22054B9962DA62E2
:1021DC00EAE6002140F2CF72014B9962DA62E3E643
:1021EC0000040040204B10B45A6951061AD51A68E5
:1021FC0022F040021A605A69520604D540215961F6
:10220C005A695406FBD44FF080414FF49674CB6856
:10221C00164843F00103164ACB600480136843F060
:10222C0002031360104B5A69D0051BD51A6822F4AF
:10223C0080721A605A69D10505D54FF480715961C5
:10224C005A69D205FBD44FF080414FF49674CB6899
:10225C00064843F00103064ACB600480136843F040
:10226C000203136010BC704700040140540F00209F
:10227C0010E000E0474B30B45A69120525D51A68B6
:10228C0022F400621A605A69150505D54FF40061F5
:10229C0059615A691405FBD43F4B1A78002A4FD167
:1022AC0001254FF6FF724FF6E0701D703B4C3C4918
:1022BC003C4B228008801A804FF496713A4B3B4A73
:1022CC001980136843F002031360324B5A69D0042F
:1022DC0024D51A6822F480521A605A69D10405D5A3
:1022EC004FF4805159615A69D204FBD4304B1A789F
:1022FC00B2B901254FF6FF724FF6E0701D702D4CF0
:10230C002D492E4B228008801A804FF49671264B53
:10231C00264A1980136843F00203136030BC7047DF
:10232C001A78012A1CD000254FF6FF724FF6E07484
:10233C001D7020482049214B04800A801A80E4E754
:10234C001A78012A19D000254FF6FF724FF6E07467
:10235C001D7012481249134B04800A801A80ABE797
:10236C0002254FF6FF724FF6E0711D70114C1248AA
:10237C00124B228002801980C7E702254FF6FF72AC
:10238C004FF6E0711D70054C0548064B228002800B
:10239C00198091E700040140C7070020500F00206E
:1023AC00C4070020B6020020540F002010E000E00B
:1023BC00C0070020B4020020CC0C0020BA02002080
:1023CC001D4B10B41A68910614D500221B481C49E9
:1023DC0002705A681B4C0B782478013303F03F03CE
:1023EC009C4225D01848D2B2C2540B706FF0200218
:1023FC00114B1A60104B1A68120612D5134A144965
:10240C0010780A7890420ED00A781248013202F005
:10241C003F020A70825CD2B25A606FF04002064BE7
:10242C001A6010BC7047DA6822F08002DA60F4E7B8
:10243C0001230370DAE700BF003801402C000020B4
:10244C002D0000202E000020580F00202F0000200F
:10245C0030000020980F002030B44FF41F054FF0CF
:10246C0000640E4B0E4A19680E4841F001011960C8
:10247C0059680A405A601A6822F0847222F4803239
:10248C001A601A6822F480221A605A6822F4FE023A
:10249C005A609D60846030BC704700BF00100240E1
:1024AC000000FFF800ED00E0002103E00B4B5B584F
:1024BC00435004310A480B4B42189A42F6D30A4A4D
:1024CC0002E0002342F8043B084B9A42F9D3FFF791
:1024DC00C3FF00F0BFFAFDF7E3FE7047A03300081E
:1024EC00000000200C0000200C000020D80F002061
:1024FC00FEE700000C4A0D4B92689B68134313F0E7
:10250C0001030ED10A6841682AB9134621F47021DF
:10251C0041601846704721F470210A434260184606
:10252C0070470123184670470024014000280140E1
:10253C00836813F001030FD1426810B44C6822F485
:10254C008072224342608268096822F400620A4366
:10255C00826010BC1846704701231846704700BFB4
:10256C008368DB0723D430B44C680246BCB943689B
:10257C0023F46843436093680D6823F46023C868B0
:10258C0023F4817309692B4303430B439360D36A90
:10259C00002023F470032343D36230BC704740689F
:1025AC008B6820F46840204318435060E3E7012017
:1025BC00704700BF017910B40368D1B1B3B142794F
:1025CC00012A37D021D3022A3ED10021274A146890
:1025DC001C43146054681C435460827932B3022A41
:1025EC003ED0032A1BD0012A30D00123184610BC40
:1025FC007047DC430B461D4A106820401060516840
:10260C0018462140516010BC7047184A002154688C
:10261C0024EA0304546014681C431460DDE7134A75
:10262C00906818439060D0680343D3600B4610BC8D
:10263C00184670470D4A0021146824EA03041460FC
:10264C0054681C435460C8E70121C6E7074AD068A8
:10265C0020EA0300D0609068034393600B46C5E703
:10266C00024A906820EA0300DCE700BF0004014046
:10267C002DE9F04F0D68C5F30F2595FAA5F4B4FAC2
:10268C0084F435FA04F376D04FF0010B4FF00F0CB5
:10269C004FF0030E4FF004095EE040F20113A3402B
:1026AC001E0E93FAA3FABAFA8AFA93FAA3F8B8FAB6
:1026BC0088F882594F684FEA8A0A0CFA0AFA4FEAEC
:1026CC00880807FA08F822EA0A0242EA080282514C
:1026DC00D0F80C801A0A92FAA2FABAFA8AFA28EA04
:1026EC0002080F694A6807FA0AFA22F0080248EA57
:1026FC000A08012AC0F80C802AD193FAA3FABAFA74
:10270C008AFA93FAA3F8B8FA88F882598F684FEAD4
:10271C008A0A0EFA0AFA4FEA880822EA0A0207FA2B
:10272C0008F842EA0802825193FAA3F8B8FA88F83A
:10273C0093FAA3F3B3FA83F3CF684FEA88089B00AC
:10274C0009FA08F822EA080207FA03F31A4382513D
:10275C00013435FA04F30ED00BFA04F32B42F7D004
:10276C00072C9AD94FF00112A4F1080302FA03F3D3
:10277C0043F0806394E70020BDE8F08F026812F00C
:10278C0040022AD1F0B4D1E90035044688682B43C5
:10279C00CD68034308692B434D698E690343CF69A8
:1027AC0020682B4333430E6A3B4320F47F40334372
:1027BC0020F0BF00034323606368B6F5005F23F08D
:1027CC00040343EA1543636002D0F0BC1046704723
:1027DC008B8C10462361F0BC70470120704700BF02
:1027EC0030B4194D0368A8428A680C881DD0B0F12A
:1027FC00804F11D0A5F59435A8420DD005F5806514
:10280C00A84209D00360C2628462436930BC43F0C1
:10281C0001034361002070474D6823F070032B4384
:10282C00C96823F440730B43ECE74D6823F0700345
:10283C002B43CD6823F440732B430360C262846244
:10284C000B7C0363E1E700BF002C0140102970B43E
:10285C0003466DD048D9B1F5807F24D0B1F5805FA7
:10286C0063D1006A156920F480501862196A5E6899
:10287C0021F4005141EA053121F48051D2E90005DF
:10288C00DC6941EA05315D4D24F4E644AB4244EA8F
:10289C00002400F0AC80D26800205E60DC611A6419
:1028AC0070BC19627047006A156920F48070186258
:1028BC00196A5E6821F4007141EA052121F48071E6
:1028CC00D2E90005DC6941EA05214C4D24F0730482
:1028DC00AB4244EA000475D0D26800205E60DC6133
:1028EC00DA6370BC1962704701291ED1006A156940
:1028FC0020F001001862196A5E6821F00201294378
:10290C0021F00101D2E900059C6929433B4D24F0DB
:10291C007304AB4244EA000440D0D26800205E60ED
:10292C009C615A6370BC19627047012070BC70477F
:10293C00006A156920F010001862196A5E6821F0AF
:10294C00200141EA051121F01001D2E900059C6932
:10295C0041EA0511294D24F4E644AB4244EA002433
:10296C0007D0D26800205E609C619A6370BC1962CB
:10297C00704721F0800126F48066D2E9055041EAC7
:10298C00851146EA80069568D06921F0400126F44D
:10299C00006641EA851146EAC006E2E721F008012B
:1029AC0026F48076D2E9055041EA85010643956804
:1029BC00D06921F0040126F4007641EA850146EA4B
:1029CC004006AAE721F4006126F48056D2E90550AE
:1029DC0041EA852146EA00169568D06921F48061A8
:1029EC0026F4005641EA852146EA401674E79069C0
:1029FC0026F4804646EA80164DE700BF002C0140C5
:102A0C000021052210B4054C054BA4FB00408009A5
:102A1C000138586010BC99601A607047D34D621031
:102A2C0010E000E0074B82B01B68421C0193019B35
:102A3C00044A18BF01301368DB03FCD50138FAD106
:102A4C0002B0704710E000E0014B1860704700BF07
:102A5C000800002070B500250C4E0D4CA41BA410D2
:102A6C00A54209D100F02EF800250A4E0A4CA41BF1
:102A7C00A410A54205D170BD56F8253098470135F4
:102A8C00EEE756F8253098470135F2E79833000801
:102A9C0098330008983300089C33000810B5431E87
:102AAC000A44914200D110BD11F8014B03F8014FBB
:102ABC00F7E703460244934200D1704703F8011B29
:102ACC00F9E70000F8B500BFF8BC08BC9E4670479B
:0C2ADC00F8B500BFF8BC08BC9E4670476F
:102AE80000000000000000000000000000000000DE
:102AF800000000000010001000100010001000106E
:102B08000000001000000000002800280028000035
:102B18000000000000000000000000000024002465
:102B2800007C00240048007C0048004800000000A9
:102B38000038005400500038001400540054003885
:102B480000100000002000540058003000280054F5
:102B580000140008000000000010002800280010E1
:102B68000034004800480034000000000010001045
:102B7800001000000000000000000000000000003D
:102B88000008001000200020002000200020002065
:102B980000100008002000100008000800080008C5
:102BA800000800080010002000100038001000285D
:102BB800000000000000000000000000000000000D
:102BC80000100010007C0010001000000000000041
:102BD80000000000000000000000000000000010DD
:102BE8000010001000000000000000000000003885
:102BF80000000000000000000000000000000000CD
:102C0800000000000000001000000000000800089C
:102C1800001000100010001000200020000000002C
:102C28000038004400440054004400440044003884
:102C380000000000001000300050001000100010CC
:102C48000010001000000000003800440044000498
:102C5800000800100020007C00000000003800443C
:102C680000040018000400040044003800000000BC
:102C780000080018002800280048007C0008000808
:102C880000000000007C00400040007800040004C0
:102C9800004400380000000000380044004000787C
:102CA800004400440044003800000000007C000498
:102CB8000008001000100020002000200000000084
:102CC8000038004400440038004400440044003800
:102CD800000000000038004400440044003C0004A8
:102CE8000044003800000000000000000010000050
:102CF80000000000000000100000000000000000BC
:102D0800000000100000000000000010001000107B
:102D180000000000000C003000400030000C0000F3
:102D280000000000000000000000007C0000007CA3
:102D38000000000000000000000000000060001813
:102D48000004001800600000000000000038004483
:102D5800000400080010001000000010000000002F
:102D680000380044004C0054005C0040004000382B
:102D78000000000000100028002800280028007C1F
:102D8800004400440000000000780044004400783B
:102D9800004400440044007800000000003800446B
:102DA800004000400040004000440038000000009F
:102DB800007000480044004400440044004800708B
:102DC80000000000007C00400040007C0040004003
:102DD8000040007C00000000007C004000400078BB
:102DE800004000400040004000000000003800445F
:102DF80000400040005C004400440038000000002F
:102E0800004400440044007C004400440044004462
:102E18000000000000380010001000100010001022
:102E28000010003800000000000400040004000442
:102E3800000400040044003800000000004400487A
:102E480000500060005000480048004400000000A6
:102E58000040004000400040004000400040007C2E
:102E6800000000000044006C006C00540044004462
:102E78000044004400000000004400640064005462
:102E88000054004C004C004400000000003800448E
:102E9800004400440044004400440038000000009E
:102EA800007800440044004400780040004000409E
:102EB800000000000038004400440044004400447E
:102EC8000054003800040000007800440044004426
:102ED8000078004800480044000000000038004422
:102EE80000400030000800040044003800000000E2
:102EF800007C0010001000100010001000100010DE
:102F08000000000000440044004400440044004421
:102F18000044003800000000004400440044002839
:102F280000280028001000100000000000440044A1
:102F3800005400540054006C0028002800000000D1
:102F48000044002800280010001000280028004431
:102F58000000000000440044002800280010001071
:102F68000010001000000000007C000400080010A1
:102F7800001000200040007C000000000018001035
:102F880000100010001000100010001000100018B1
:102F98000020002000100010001000100008000899
:102FA8000000000000300010001000100010001099
:102FB8000010001000100030001000280028004405
:102FC80000000000000000000000000000000000F9
:102FD800000000000000000000000000000000FEEB
:102FE80000200010000000000000000000000000A9
:102FF800000000000000000000380044003C0044CD
:10300800004C0034000000000040004000580064FC
:103018000044004400640058000000000000000064
:103028000038004400400040004400380000000020
:10303800000400040034004C00440044004C0034F8
:10304800000000000000000000380044007C004040
:103058000044003800000000000C0010007C001044
:103068000010001000100010000000000000000018
:103078000034004C00440044004C00340004007844
:1030880000400040005800640044004400440044EC
:103098000000000000100000007000100010001078
:1030A8000010001000000000001000000070001068
:1030B8000010001000100010001000E00040004058
:1030C8000048005000600050004800440000000024
:1030D8000070001000100010001000100010001008
:1030E8000000000000000000007800540054005464
:1030F8000054005400000000000000000058006464
:1031080000440044004400440000000000000000A7
:103118000038004400440044004400380000000027
:103128000000000000580064004400440064005897
:1031380000400040000000000034004C00440044FF
:10314800004C003400040004000000000058006433
:103158000040004000400040000000000000000067
:103168000038004400300008004400380000000027
:1031780000200020007800200020002000200018F7
:103188000000000000000000004400440044004427
:10319800004C00340000000000000000004400441F
:1031A800002800280028001000000000000000008F
:1031B800005400540054006C00280028000000004F
:1031C80000000000004400280010001000280044FF
:1031D800000000000000000000440044002800280F
:1031E800001000100010006000000000007C0008C3
:1031F800001000200040007C0000000000180010B3
:10320800001000100020002000100010001000180E
:103218000010001000100010001000100010001026
:103228000010001000300010001000100008000806
:1032380000100010001000300000000000000074B2
:10324800004C00000000000000000000434831204E
:1032580032562020200000004348312031562020DB
:1032680020000000434831203530306D5600000002
:103278003230306D730000003130306D7300000063
:1032880035306D732000000032306D73200000006F
:1032980031306D7320000000356D73202000000070
:1032A800326D732020000000316D73202000000073
:1032B800353030757300000032303075730000000F
:1032C8003130307573000000353075732000000010
:1032D8003230757320000000545F4348310000000D
:1032E800545F4348320000004348322032562020C1
:1032F80020000000434832203156202020000000E2
:10330800434832203530306D56000000474E4400A7
:10331800545F4C564C0000000F0180961180FFB19D
:1033280003012C2DB203012C2DB306012C2D012CE9
:103338002DB40107C003A20284C101C5C2020A005C
:10334800C3028A2AC4028AEEC5010E20003601A0F3
:103358003A010500022A040000007F2B0400000047
:103368007F00000004E010021C07123732292D29C3
:10337800252B3900010310E110031D07062E2C2907
:103388002D2E2E373F0000021013800A298064007A
:0433980031010008F7
:04339C000D01000817
:0C33A000070A0000E82A00080024F400DE
:04000005080024B516
:00000001FF
