
ST7735_mini_oscilloscope.elf:     file format elf32-littlearm

Sections:
Idx Name          Size      VMA       LMA       File off  Algn
  0 .isr_vector   0000010c  08000000  08000000  00010000  2**0
                  CONTENTS, ALLOC, LOAD, READONLY, DATA
  1 .text         000029dc  0800010c  0800010c  0001010c  2**2
                  CONTENTS, ALLOC, LOAD, READONLY, CODE
  2 .rodata       000008b0  08002ae8  08002ae8  00012ae8  2**2
                  CONTENTS, ALLOC, LOAD, READONLY, DATA
  3 .ARM.extab    00000000  08003398  08003398  0002000c  2**0
                  CONTENTS
  4 .ARM          00000000  08003398  08003398  0002000c  2**0
                  CONTENTS
  5 .preinit_array 00000000  08003398  08003398  0002000c  2**0
                  CONTENTS, ALLOC, LOAD, DATA
  6 .init_array   00000004  08003398  08003398  00013398  2**2
                  CONTENTS, ALLOC, LOAD, DATA
  7 .fini_array   00000004  0800339c  0800339c  0001339c  2**2
                  CONTENTS, ALLOC, LOAD, DATA
  8 .data         0000000c  20000000  080033a0  00020000  2**2
                  CONTENTS, ALLOC, LOAD, DATA
  9 .bss          00000fcc  2000000c  080033ac  0002000c  2**2
                  ALLOC
 10 ._user_heap_stack 00000600  20000fd8  080033ac  00020fd8  2**0
                  ALLOC
 11 .ARM.attributes 00000029  00000000  00000000  0002000c  2**0
                  CONTENTS, READONLY
 12 .debug_info   00011fe4  00000000  00000000  00020035  2**0
                  CONTENTS, READONLY, DEBUGGING
 13 .debug_abbrev 00001cdd  00000000  00000000  00032019  2**0
                  CONTENTS, READONLY, DEBUGGING
 14 .debug_aranges 00000388  00000000  00000000  00033cf8  2**3
                  CONTENTS, READONLY, DEBUGGING
 15 .debug_line   000053f1  00000000  00000000  00034080  2**0
                  CONTENTS, READONLY, DEBUGGING
 16 .debug_str    00002a19  00000000  00000000  00039471  2**0
                  CONTENTS, READONLY, DEBUGGING
 17 .comment      0000007b  00000000  00000000  0003be8a  2**0
                  CONTENTS, READONLY
 18 .debug_loc    0000a3a3  00000000  00000000  0003bf05  2**0
                  CONTENTS, READONLY, DEBUGGING
 19 .debug_ranges 000037a0  00000000  00000000  000462a8  2**3
                  CONTENTS, READONLY, DEBUGGING
 20 .debug_frame  00000954  00000000  00000000  00049a48  2**2
                  CONTENTS, READONLY, DEBUGGING

Disassembly of section .text:

0800010c <__do_global_dtors_aux>:
 800010c:	b510      	push	{r4, lr}
 800010e:	4c05      	ldr	r4, [pc, #20]	; (8000124 <__do_global_dtors_aux+0x18>)
 8000110:	7823      	ldrb	r3, [r4, #0]
 8000112:	b933      	cbnz	r3, 8000122 <__do_global_dtors_aux+0x16>
 8000114:	4b04      	ldr	r3, [pc, #16]	; (8000128 <__do_global_dtors_aux+0x1c>)
 8000116:	b113      	cbz	r3, 800011e <__do_global_dtors_aux+0x12>
 8000118:	4804      	ldr	r0, [pc, #16]	; (800012c <__do_global_dtors_aux+0x20>)
 800011a:	f3af 8000 	nop.w
 800011e:	2301      	movs	r3, #1
 8000120:	7023      	strb	r3, [r4, #0]
 8000122:	bd10      	pop	{r4, pc}
 8000124:	2000000c 	.word	0x2000000c
 8000128:	00000000 	.word	0x00000000
 800012c:	08002ad0 	.word	0x08002ad0

08000130 <frame_dummy>:
 8000130:	b508      	push	{r3, lr}
 8000132:	4b03      	ldr	r3, [pc, #12]	; (8000140 <frame_dummy+0x10>)
 8000134:	b11b      	cbz	r3, 800013e <frame_dummy+0xe>
 8000136:	4903      	ldr	r1, [pc, #12]	; (8000144 <frame_dummy+0x14>)
 8000138:	4803      	ldr	r0, [pc, #12]	; (8000148 <frame_dummy+0x18>)
 800013a:	f3af 8000 	nop.w
 800013e:	bd08      	pop	{r3, pc}
 8000140:	00000000 	.word	0x00000000
 8000144:	20000010 	.word	0x20000010
 8000148:	08002ad0 	.word	0x08002ad0

0800014c <DrawRaster>:


void DrawRaster(void)
{
	//show raster
	ST7735_HLine(0, 159, 0, ST7735_GRAY);
 800014c:	2200      	movs	r2, #0
{
 800014e:	b510      	push	{r4, lr}
	ST7735_HLine(0, 159, 0, ST7735_GRAY);
 8000150:	4610      	mov	r0, r2
 8000152:	f248 4310 	movw	r3, #33808	; 0x8410
 8000156:	219f      	movs	r1, #159	; 0x9f
 8000158:	f001 fa36 	bl	80015c8 <ST7735_HLine>
	ST7735_HLine(0, 159, 21, ST7735_GRAY);
 800015c:	f248 4310 	movw	r3, #33808	; 0x8410
 8000160:	2215      	movs	r2, #21
 8000162:	219f      	movs	r1, #159	; 0x9f
 8000164:	2000      	movs	r0, #0
 8000166:	f001 fa2f 	bl	80015c8 <ST7735_HLine>
	ST7735_HLine(0, 159, 42, ST7735_GRAY);
 800016a:	f248 4310 	movw	r3, #33808	; 0x8410
 800016e:	222a      	movs	r2, #42	; 0x2a
 8000170:	219f      	movs	r1, #159	; 0x9f
 8000172:	2000      	movs	r0, #0
 8000174:	f001 fa28 	bl	80015c8 <ST7735_HLine>
	ST7735_HLine(0, 159, 63, ST7735_GRAY);
 8000178:	f248 4310 	movw	r3, #33808	; 0x8410
 800017c:	223f      	movs	r2, #63	; 0x3f
 800017e:	219f      	movs	r1, #159	; 0x9f
 8000180:	2000      	movs	r0, #0
 8000182:	f001 fa21 	bl	80015c8 <ST7735_HLine>
	ST7735_HLine(0, 159, 84, ST7735_GRAY);
 8000186:	f248 4310 	movw	r3, #33808	; 0x8410
 800018a:	2254      	movs	r2, #84	; 0x54
 800018c:	219f      	movs	r1, #159	; 0x9f
 800018e:	2000      	movs	r0, #0
 8000190:	f001 fa1a 	bl	80015c8 <ST7735_HLine>
	ST7735_HLine(0, 159, 105, ST7735_GRAY);
 8000194:	f248 4310 	movw	r3, #33808	; 0x8410
 8000198:	2269      	movs	r2, #105	; 0x69
 800019a:	219f      	movs	r1, #159	; 0x9f
 800019c:	2000      	movs	r0, #0
 800019e:	f001 fa13 	bl	80015c8 <ST7735_HLine>
	ST7735_HLine(0, 159, 127, ST7735_GRAY);
 80001a2:	f248 4310 	movw	r3, #33808	; 0x8410
 80001a6:	227f      	movs	r2, #127	; 0x7f
 80001a8:	219f      	movs	r1, #159	; 0x9f
 80001aa:	2000      	movs	r0, #0
 80001ac:	f001 fa0c 	bl	80015c8 <ST7735_HLine>

	ST7735_VLine(0, 0, 127, ST7735_GRAY);
 80001b0:	2100      	movs	r1, #0
 80001b2:	f248 4310 	movw	r3, #33808	; 0x8410
 80001b6:	4608      	mov	r0, r1
 80001b8:	227f      	movs	r2, #127	; 0x7f
 80001ba:	f001 fa59 	bl	8001670 <ST7735_VLine>
	ST7735_VLine(31, 0, 127, ST7735_GRAY);
 80001be:	f248 4310 	movw	r3, #33808	; 0x8410
 80001c2:	227f      	movs	r2, #127	; 0x7f
 80001c4:	2100      	movs	r1, #0
 80001c6:	201f      	movs	r0, #31
 80001c8:	f001 fa52 	bl	8001670 <ST7735_VLine>
	ST7735_VLine(63, 0, 127, ST7735_GRAY);
 80001cc:	f248 4310 	movw	r3, #33808	; 0x8410
 80001d0:	227f      	movs	r2, #127	; 0x7f
 80001d2:	2100      	movs	r1, #0
 80001d4:	203f      	movs	r0, #63	; 0x3f
 80001d6:	f001 fa4b 	bl	8001670 <ST7735_VLine>
	ST7735_VLine(95, 0, 127, ST7735_GRAY);
 80001da:	f248 4310 	movw	r3, #33808	; 0x8410
 80001de:	227f      	movs	r2, #127	; 0x7f
 80001e0:	2100      	movs	r1, #0
 80001e2:	205f      	movs	r0, #95	; 0x5f
 80001e4:	f001 fa44 	bl	8001670 <ST7735_VLine>
	ST7735_VLine(127, 0, 127, ST7735_GRAY);
 80001e8:	227f      	movs	r2, #127	; 0x7f
 80001ea:	f248 4310 	movw	r3, #33808	; 0x8410
 80001ee:	4610      	mov	r0, r2
 80001f0:	2100      	movs	r1, #0
 80001f2:	f001 fa3d 	bl	8001670 <ST7735_VLine>
	ST7735_VLine(159, 0, 127, ST7735_GRAY);
}
 80001f6:	e8bd 4010 	ldmia.w	sp!, {r4, lr}
	ST7735_VLine(159, 0, 127, ST7735_GRAY);
 80001fa:	f248 4310 	movw	r3, #33808	; 0x8410
 80001fe:	227f      	movs	r2, #127	; 0x7f
 8000200:	2100      	movs	r1, #0
 8000202:	209f      	movs	r0, #159	; 0x9f
 8000204:	f001 ba34 	b.w	8001670 <ST7735_VLine>

08000208 <SystemClock_Config>:
  * @rmtoll CR           HSEON         LL_RCC_HSE_Enable
  * @retval None
  */
__STATIC_INLINE void LL_RCC_HSE_Enable(void)
{
  SET_BIT(RCC->CR, RCC_CR_HSEON);
 8000208:	4825      	ldr	r0, [pc, #148]	; (80002a0 <SystemClock_Config+0x98>)
  *         @arg @ref LL_FLASH_LATENCY_2
  * @retval None
  */
__STATIC_INLINE void LL_FLASH_SetLatency(uint32_t Latency)
{
  MODIFY_REG(FLASH->ACR, FLASH_ACR_LATENCY, Latency);
 800020a:	4b26      	ldr	r3, [pc, #152]	; (80002a4 <SystemClock_Config+0x9c>)
  * @rmtoll CR           HSERDY        LL_RCC_HSE_IsReady
  * @retval State of bit (1 or 0).
  */
__STATIC_INLINE uint32_t LL_RCC_HSE_IsReady(void)
{
  return (READ_BIT(RCC->CR, RCC_CR_HSERDY) == (RCC_CR_HSERDY));
 800020c:	4602      	mov	r2, r0
 800020e:	6819      	ldr	r1, [r3, #0]




void SystemClock_Config(void)													// XTAL 8 or 12 MHz
{
 8000210:	b510      	push	{r4, lr}
 8000212:	f021 0107 	bic.w	r1, r1, #7
 8000216:	f041 0102 	orr.w	r1, r1, #2
 800021a:	6019      	str	r1, [r3, #0]
  *         @arg @ref LL_FLASH_LATENCY_1
  *         @arg @ref LL_FLASH_LATENCY_2
  */
__STATIC_INLINE uint32_t LL_FLASH_GetLatency(void)
{
  return (uint32_t)(READ_BIT(FLASH->ACR, FLASH_ACR_LATENCY));
 800021c:	6819      	ldr	r1, [r3, #0]
  * @rmtoll FLASH_ACR    PRFTBE        LL_FLASH_EnablePrefetch
  * @retval None
  */
__STATIC_INLINE void LL_FLASH_EnablePrefetch(void)
{
  SET_BIT(FLASH->ACR, FLASH_ACR_PRFTBE);
 800021e:	6819      	ldr	r1, [r3, #0]
 8000220:	f041 0110 	orr.w	r1, r1, #16
 8000224:	6019      	str	r1, [r3, #0]
  SET_BIT(RCC->CR, RCC_CR_HSEON);
 8000226:	6803      	ldr	r3, [r0, #0]
 8000228:	f443 3380 	orr.w	r3, r3, #65536	; 0x10000
 800022c:	6003      	str	r3, [r0, #0]
  return (READ_BIT(RCC->CR, RCC_CR_HSERDY) == (RCC_CR_HSERDY));
 800022e:	6813      	ldr	r3, [r2, #0]
	LL_FLASH_SetLatency(LL_FLASH_LATENCY_2);
	if(LL_FLASH_GetLatency() != LL_FLASH_LATENCY_2) Error_Handler();
	LL_FLASH_EnablePrefetch();
	LL_RCC_HSE_Enable();
	while(LL_RCC_HSE_IsReady() != 1);
 8000230:	0399      	lsls	r1, r3, #14
 8000232:	d5fc      	bpl.n	800022e <SystemClock_Config+0x26>
  *         (*) value not defined in all devices
  * @retval None
  */
__STATIC_INLINE void LL_RCC_PLL_ConfigDomain_SYS(uint32_t Source, uint32_t PLLMul)
{
  MODIFY_REG(RCC->CFGR, RCC_CFGR_PLLSRC | RCC_CFGR_PLLXTPRE | RCC_CFGR_PLLMULL,
 8000234:	6851      	ldr	r1, [r2, #4]
  return (READ_BIT(RCC->CR, RCC_CR_PLLRDY) == (RCC_CR_PLLRDY));
 8000236:	4b1a      	ldr	r3, [pc, #104]	; (80002a0 <SystemClock_Config+0x98>)
  MODIFY_REG(RCC->CFGR, RCC_CFGR_PLLSRC | RCC_CFGR_PLLXTPRE | RCC_CFGR_PLLMULL,
 8000238:	f421 117c 	bic.w	r1, r1, #4128768	; 0x3f0000
 800023c:	f441 1154 	orr.w	r1, r1, #3473408	; 0x350000
 8000240:	6051      	str	r1, [r2, #4]
  SET_BIT(RCC->CR, RCC_CR_PLLON);
 8000242:	6811      	ldr	r1, [r2, #0]
 8000244:	f041 7180 	orr.w	r1, r1, #16777216	; 0x1000000
 8000248:	6011      	str	r1, [r2, #0]
  return (READ_BIT(RCC->CR, RCC_CR_PLLRDY) == (RCC_CR_PLLRDY));
 800024a:	681a      	ldr	r2, [r3, #0]

	LL_RCC_PLL_ConfigDomain_SYS(LL_RCC_PLLSOURCE_HSE_DIV_1, LL_RCC_PLL_MUL_15);// 120 MHz with 8 MHz xtal
	//LL_RCC_PLL_ConfigDomain_SYS(LL_RCC_PLLSOURCE_HSE_DIV_1, LL_RCC_PLL_MUL_10);	// 120 MHz with 12 MHz xtal

	LL_RCC_PLL_Enable();
	while(LL_RCC_PLL_IsReady() != 1);
 800024c:	0192      	lsls	r2, r2, #6
 800024e:	d5fc      	bpl.n	800024a <SystemClock_Config+0x42>
  MODIFY_REG(RCC->CFGR, RCC_CFGR_HPRE, Prescaler);
 8000250:	685a      	ldr	r2, [r3, #4]
  return (uint32_t)(READ_BIT(RCC->CFGR, RCC_CFGR_SWS));
 8000252:	4c13      	ldr	r4, [pc, #76]	; (80002a0 <SystemClock_Config+0x98>)
  MODIFY_REG(RCC->CFGR, RCC_CFGR_HPRE, Prescaler);
 8000254:	f022 02f0 	bic.w	r2, r2, #240	; 0xf0
 8000258:	605a      	str	r2, [r3, #4]
  MODIFY_REG(RCC->CFGR, RCC_CFGR_PPRE1, Prescaler);
 800025a:	685a      	ldr	r2, [r3, #4]
 800025c:	f422 62e0 	bic.w	r2, r2, #1792	; 0x700
 8000260:	f442 6280 	orr.w	r2, r2, #1024	; 0x400
 8000264:	605a      	str	r2, [r3, #4]
  MODIFY_REG(RCC->CFGR, RCC_CFGR_PPRE2, Prescaler);
 8000266:	685a      	ldr	r2, [r3, #4]
 8000268:	f422 5260 	bic.w	r2, r2, #14336	; 0x3800
 800026c:	605a      	str	r2, [r3, #4]
  MODIFY_REG(RCC->CFGR, RCC_CFGR_SW, Source);
 800026e:	685a      	ldr	r2, [r3, #4]
 8000270:	f022 0203 	bic.w	r2, r2, #3
 8000274:	f042 0202 	orr.w	r2, r2, #2
 8000278:	605a      	str	r2, [r3, #4]
  return (uint32_t)(READ_BIT(RCC->CFGR, RCC_CFGR_SWS));
 800027a:	6863      	ldr	r3, [r4, #4]
 800027c:	f003 030c 	and.w	r3, r3, #12
	LL_RCC_SetAHBPrescaler(LL_RCC_SYSCLK_DIV_1);
	LL_RCC_SetAPB1Prescaler(LL_RCC_APB1_DIV_2);
	LL_RCC_SetAPB2Prescaler(LL_RCC_APB2_DIV_1);
	LL_RCC_SetSysClkSource(LL_RCC_SYS_CLKSOURCE_PLL);
	while(LL_RCC_GetSysClkSource() != LL_RCC_SYS_CLKSOURCE_STATUS_PLL);
 8000280:	2b08      	cmp	r3, #8
 8000282:	d1fa      	bne.n	800027a <SystemClock_Config+0x72>
	LL_Init1msTick(120000000);
 8000284:	4808      	ldr	r0, [pc, #32]	; (80002a8 <SystemClock_Config+0xa0>)
 8000286:	f002 fbc1 	bl	8002a0c <LL_Init1msTick>
	LL_SetSystemCoreClock(120000000);											//MCU is very much overclocked (120 MHz)
 800028a:	4807      	ldr	r0, [pc, #28]	; (80002a8 <SystemClock_Config+0xa0>)
 800028c:	f002 fbe2 	bl	8002a54 <LL_SetSystemCoreClock>
  MODIFY_REG(RCC->CFGR, RCC_CFGR_ADCPRE, ADCxSource);
 8000290:	6863      	ldr	r3, [r4, #4]
 8000292:	f423 4340 	bic.w	r3, r3, #49152	; 0xc000
 8000296:	f443 4380 	orr.w	r3, r3, #16384	; 0x4000
 800029a:	6063      	str	r3, [r4, #4]
	LL_RCC_SetADCClockSource(LL_RCC_ADC_CLKSRC_PCLK2_DIV_4);					//the ADC's are overclocked too (30 MHz)
}
 800029c:	bd10      	pop	{r4, pc}
 800029e:	bf00      	nop
 80002a0:	40021000 	.word	0x40021000
 80002a4:	40022000 	.word	0x40022000
 80002a8:	07270e00 	.word	0x07270e00

080002ac <main>:
{
  uint32_t reg_value;
  uint32_t PriorityGroupTmp = (PriorityGroup & (uint32_t)0x07UL);             /* only values 0..7 are used          */

  reg_value  =  SCB->AIRCR;                                                   /* read old register configuration    */
  reg_value &= ~((uint32_t)(SCB_AIRCR_VECTKEY_Msk | SCB_AIRCR_PRIGROUP_Msk)); /* clear bits to change               */
 80002ac:	f64f 01ff 	movw	r1, #63743	; 0xf8ff
{
 80002b0:	e92d 4ff0 	stmdb	sp!, {r4, r5, r6, r7, r8, r9, sl, fp, lr}
}


static void MX_GPIO_Init(void)
{
	LL_EXTI_InitTypeDef EXTI_InitStruct = {0};
 80002b4:	2400      	movs	r4, #0
  * @retval None
*/
__STATIC_INLINE void LL_APB2_GRP1_EnableClock(uint32_t Periphs)
{
  __IO uint32_t tmpreg;
  SET_BIT(RCC->APB2ENR, Periphs);
 80002b6:	4dcf      	ldr	r5, [pc, #828]	; (80005f4 <main+0x348>)
{
 80002b8:	b0b7      	sub	sp, #220	; 0xdc
 80002ba:	69ab      	ldr	r3, [r5, #24]
  reg_value  =  SCB->AIRCR;                                                   /* read old register configuration    */
 80002bc:	48ce      	ldr	r0, [pc, #824]	; (80005f8 <main+0x34c>)
 80002be:	f043 0301 	orr.w	r3, r3, #1
 80002c2:	61ab      	str	r3, [r5, #24]
  /* Delay after an RCC peripheral clock enabling */
  tmpreg = READ_BIT(RCC->APB2ENR, Periphs);
 80002c4:	69aa      	ldr	r2, [r5, #24]
  reg_value  =  (reg_value                                   |
 80002c6:	4bcd      	ldr	r3, [pc, #820]	; (80005fc <main+0x350>)
 80002c8:	f002 0201 	and.w	r2, r2, #1
 80002cc:	9212      	str	r2, [sp, #72]	; 0x48
  (void)tmpreg;
 80002ce:	9a12      	ldr	r2, [sp, #72]	; 0x48
  SET_BIT(RCC->APB1ENR, Periphs);
 80002d0:	69ea      	ldr	r2, [r5, #28]
  * @note  NOJTAG: JTAG-DP Disabled and SW-DP Enabled
  * @retval None
  */
__STATIC_INLINE void LL_GPIO_AF_Remap_SWJ_NOJTAG(void)
{
  CLEAR_BIT(AFIO->MAPR,AFIO_MAPR_SWJ_CFG);
 80002d2:	f8df 8350 	ldr.w	r8, [pc, #848]	; 8000624 <main+0x378>
 80002d6:	f042 5280 	orr.w	r2, r2, #268435456	; 0x10000000
 80002da:	61ea      	str	r2, [r5, #28]
  tmpreg = READ_BIT(RCC->APB1ENR, Periphs);
 80002dc:	69ea      	ldr	r2, [r5, #28]
	LL_APB2_GRP1_EnableClock(LL_APB2_GRP1_PERIPH_GPIOD);
	LL_APB2_GRP1_EnableClock(LL_APB2_GRP1_PERIPH_GPIOA);
	LL_APB2_GRP1_EnableClock(LL_APB2_GRP1_PERIPH_GPIOB);

	GPIO_InitStruct.Pin = LL_GPIO_PIN_4 | LL_GPIO_PIN_5 | LL_GPIO_PIN_6 | LL_GPIO_PIN_7;
	GPIO_InitStruct.Mode = LL_GPIO_MODE_OUTPUT;									//to attenuators (CD4066)
 80002de:	2601      	movs	r6, #1
 80002e0:	f002 5280 	and.w	r2, r2, #268435456	; 0x10000000
 80002e4:	9211      	str	r2, [sp, #68]	; 0x44
  (void)tmpreg;
 80002e6:	9a11      	ldr	r2, [sp, #68]	; 0x44
  reg_value  =  SCB->AIRCR;                                                   /* read old register configuration    */
 80002e8:	68c2      	ldr	r2, [r0, #12]
	GPIO_InitStruct.Speed = LL_GPIO_SPEED_FREQ_LOW;
 80002ea:	f04f 0b02 	mov.w	fp, #2
  reg_value &= ~((uint32_t)(SCB_AIRCR_VECTKEY_Msk | SCB_AIRCR_PRIGROUP_Msk)); /* clear bits to change               */
 80002ee:	400a      	ands	r2, r1
  reg_value  =  (reg_value                                   |
 80002f0:	4313      	orrs	r3, r2
                ((uint32_t)0x5FAUL << SCB_AIRCR_VECTKEY_Pos) |
                (PriorityGroupTmp << SCB_AIRCR_PRIGROUP_Pos) );               /* Insert write key and priority group */
  SCB->AIRCR =  reg_value;
 80002f2:	60c3      	str	r3, [r0, #12]
 80002f4:	f8d8 3004 	ldr.w	r3, [r8, #4]
	GPIO_InitStruct.OutputType = LL_GPIO_OUTPUT_PUSHPULL;
	LL_GPIO_Init(GPIOA, &GPIO_InitStruct);
 80002f8:	f8df 932c 	ldr.w	r9, [pc, #812]	; 8000628 <main+0x37c>
 80002fc:	f023 63e0 	bic.w	r3, r3, #117440512	; 0x7000000
 8000300:	f8c8 3004 	str.w	r3, [r8, #4]
  SET_BIT(AFIO->MAPR, AFIO_MAPR_SWJ_CFG_JTAGDISABLE);
 8000304:	f8d8 3004 	ldr.w	r3, [r8, #4]
 8000308:	f043 7300 	orr.w	r3, r3, #33554432	; 0x2000000
 800030c:	f8c8 3004 	str.w	r3, [r8, #4]
	SystemClock_Config();
 8000310:	f7ff ff7a 	bl	8000208 <SystemClock_Config>
	LL_GPIO_InitTypeDef GPIO_InitStruct = {0};
 8000314:	e9cd 442f 	strd	r4, r4, [sp, #188]	; 0xbc
	LL_EXTI_InitTypeDef EXTI_InitStruct = {0};
 8000318:	9427      	str	r4, [sp, #156]	; 0x9c
 800031a:	9428      	str	r4, [sp, #160]	; 0xa0
  SET_BIT(RCC->APB2ENR, Periphs);
 800031c:	69ab      	ldr	r3, [r5, #24]
	GPIO_InitStruct.Pin = LL_GPIO_PIN_4 | LL_GPIO_PIN_5 | LL_GPIO_PIN_6 | LL_GPIO_PIN_7;
 800031e:	f24f 02f0 	movw	r2, #61680	; 0xf0f0
 8000322:	f043 0310 	orr.w	r3, r3, #16
 8000326:	61ab      	str	r3, [r5, #24]
  tmpreg = READ_BIT(RCC->APB2ENR, Periphs);
 8000328:	69ab      	ldr	r3, [r5, #24]
	LL_GPIO_Init(GPIOA, &GPIO_InitStruct);
 800032a:	a92c      	add	r1, sp, #176	; 0xb0
 800032c:	f003 0310 	and.w	r3, r3, #16
 8000330:	931e      	str	r3, [sp, #120]	; 0x78
  (void)tmpreg;
 8000332:	9b1e      	ldr	r3, [sp, #120]	; 0x78
  SET_BIT(RCC->APB2ENR, Periphs);
 8000334:	69ab      	ldr	r3, [r5, #24]
 8000336:	4648      	mov	r0, r9
 8000338:	f043 0320 	orr.w	r3, r3, #32
 800033c:	61ab      	str	r3, [r5, #24]
  tmpreg = READ_BIT(RCC->APB2ENR, Periphs);
 800033e:	69ab      	ldr	r3, [r5, #24]
 8000340:	f003 0320 	and.w	r3, r3, #32
 8000344:	931f      	str	r3, [sp, #124]	; 0x7c
  (void)tmpreg;
 8000346:	9b1f      	ldr	r3, [sp, #124]	; 0x7c
  SET_BIT(RCC->APB2ENR, Periphs);
 8000348:	69ab      	ldr	r3, [r5, #24]
 800034a:	f043 0304 	orr.w	r3, r3, #4
 800034e:	61ab      	str	r3, [r5, #24]
  tmpreg = READ_BIT(RCC->APB2ENR, Periphs);
 8000350:	69ab      	ldr	r3, [r5, #24]
 8000352:	f003 0304 	and.w	r3, r3, #4
 8000356:	9320      	str	r3, [sp, #128]	; 0x80
  (void)tmpreg;
 8000358:	9b20      	ldr	r3, [sp, #128]	; 0x80
  SET_BIT(RCC->APB2ENR, Periphs);
 800035a:	69ab      	ldr	r3, [r5, #24]
 800035c:	f043 0308 	orr.w	r3, r3, #8
 8000360:	61ab      	str	r3, [r5, #24]
  tmpreg = READ_BIT(RCC->APB2ENR, Periphs);
 8000362:	69ab      	ldr	r3, [r5, #24]
	GPIO_InitStruct.Pin = LL_GPIO_PIN_4 | LL_GPIO_PIN_5 | LL_GPIO_PIN_6 | LL_GPIO_PIN_7;
 8000364:	922c      	str	r2, [sp, #176]	; 0xb0
 8000366:	f003 0308 	and.w	r3, r3, #8
 800036a:	9321      	str	r3, [sp, #132]	; 0x84
  (void)tmpreg;
 800036c:	9b21      	ldr	r3, [sp, #132]	; 0x84
	GPIO_InitStruct.Speed = LL_GPIO_SPEED_FREQ_LOW;
 800036e:	e9cd 6b2d 	strd	r6, fp, [sp, #180]	; 0xb4
	LL_GPIO_Init(GPIOA, &GPIO_InitStruct);
 8000372:	f002 f983 	bl	800267c <LL_GPIO_Init>

	GPIO_InitStruct.Pin = LL_GPIO_PIN_13;										//LED for debugging
 8000376:	4ba2      	ldr	r3, [pc, #648]	; (8000600 <main+0x354>)
	GPIO_InitStruct.Mode = LL_GPIO_MODE_OUTPUT;
	GPIO_InitStruct.Speed = LL_GPIO_SPEED_FREQ_LOW;
	GPIO_InitStruct.OutputType = LL_GPIO_OUTPUT_PUSHPULL;
	LL_GPIO_Init(GPIOC, &GPIO_InitStruct);
 8000378:	a92c      	add	r1, sp, #176	; 0xb0
 800037a:	48a2      	ldr	r0, [pc, #648]	; (8000604 <main+0x358>)
	GPIO_InitStruct.Pin = LL_GPIO_PIN_13;										//LED for debugging
 800037c:	932c      	str	r3, [sp, #176]	; 0xb0
	GPIO_InitStruct.Speed = LL_GPIO_SPEED_FREQ_LOW;
 800037e:	e9cd 6b2d 	strd	r6, fp, [sp, #180]	; 0xb4
	GPIO_InitStruct.OutputType = LL_GPIO_OUTPUT_PUSHPULL;
 8000382:	942f      	str	r4, [sp, #188]	; 0xbc
	LL_GPIO_Init(GPIOC, &GPIO_InitStruct);
 8000384:	f002 f97a 	bl	800267c <LL_GPIO_Init>

	GPIO_InitStruct.Pin = LL_GPIO_PIN_10|LL_GPIO_PIN_11|LL_GPIO_PIN_12;			//SPI to display
 8000388:	4b9f      	ldr	r3, [pc, #636]	; (8000608 <main+0x35c>)
	GPIO_InitStruct.Mode = LL_GPIO_MODE_OUTPUT;
	GPIO_InitStruct.Speed = LL_GPIO_SPEED_FREQ_MEDIUM;
	GPIO_InitStruct.OutputType = LL_GPIO_OUTPUT_PUSHPULL;
	LL_GPIO_Init(GPIOB, &GPIO_InitStruct);
 800038a:	a92c      	add	r1, sp, #176	; 0xb0
 800038c:	489f      	ldr	r0, [pc, #636]	; (800060c <main+0x360>)
	GPIO_InitStruct.Pin = LL_GPIO_PIN_10|LL_GPIO_PIN_11|LL_GPIO_PIN_12;			//SPI to display
 800038e:	932c      	str	r3, [sp, #176]	; 0xb0
	GPIO_InitStruct.Speed = LL_GPIO_SPEED_FREQ_MEDIUM;
 8000390:	e9cd 662d 	strd	r6, r6, [sp, #180]	; 0xb4
	GPIO_InitStruct.OutputType = LL_GPIO_OUTPUT_PUSHPULL;
 8000394:	942f      	str	r4, [sp, #188]	; 0xbc
	LL_GPIO_Init(GPIOB, &GPIO_InitStruct);
 8000396:	f002 f971 	bl	800267c <LL_GPIO_Init>



	GPIO_InitStruct.Pin = LL_GPIO_PIN_7;										//rotary encoder1 pin B
 800039a:	f248 0380 	movw	r3, #32896	; 0x8080
	GPIO_InitStruct.Mode = LL_GPIO_MODE_INPUT;
 800039e:	2208      	movs	r2, #8
	GPIO_InitStruct.Pull = LL_GPIO_PULL_UP;
	LL_GPIO_Init(GPIOB, &GPIO_InitStruct);
 80003a0:	a92c      	add	r1, sp, #176	; 0xb0
 80003a2:	489a      	ldr	r0, [pc, #616]	; (800060c <main+0x360>)
	GPIO_InitStruct.Pin = LL_GPIO_PIN_7;										//rotary encoder1 pin B
 80003a4:	932c      	str	r3, [sp, #176]	; 0xb0
	GPIO_InitStruct.Mode = LL_GPIO_MODE_INPUT;
 80003a6:	922d      	str	r2, [sp, #180]	; 0xb4
	GPIO_InitStruct.Pull = LL_GPIO_PULL_UP;
 80003a8:	9630      	str	r6, [sp, #192]	; 0xc0
	LL_GPIO_Init(GPIOB, &GPIO_InitStruct);
 80003aa:	f002 f967 	bl	800267c <LL_GPIO_Init>

	GPIO_InitStruct.Pin = LL_GPIO_PIN_9;										//rotary encoder2 pin B
	GPIO_InitStruct.Mode = LL_GPIO_MODE_INPUT;
 80003ae:	2208      	movs	r2, #8
	GPIO_InitStruct.Pin = LL_GPIO_PIN_9;										//rotary encoder2 pin B
 80003b0:	4b97      	ldr	r3, [pc, #604]	; (8000610 <main+0x364>)
	GPIO_InitStruct.Pull = LL_GPIO_PULL_UP;
	LL_GPIO_Init(GPIOA, &GPIO_InitStruct);
 80003b2:	a92c      	add	r1, sp, #176	; 0xb0
 80003b4:	4648      	mov	r0, r9
	GPIO_InitStruct.Mode = LL_GPIO_MODE_INPUT;
 80003b6:	922d      	str	r2, [sp, #180]	; 0xb4
	GPIO_InitStruct.Pin = LL_GPIO_PIN_9;										//rotary encoder2 pin B
 80003b8:	932c      	str	r3, [sp, #176]	; 0xb0
	GPIO_InitStruct.Pull = LL_GPIO_PULL_UP;
 80003ba:	9630      	str	r6, [sp, #192]	; 0xc0
	LL_GPIO_Init(GPIOA, &GPIO_InitStruct);
 80003bc:	f002 f95e 	bl	800267c <LL_GPIO_Init>
  *         @arg @ref LL_GPIO_AF_EXTI_LINE15
  * @retval None
  */
__STATIC_INLINE void LL_GPIO_AF_SetEXTISource(uint32_t Port, uint32_t Line)
{
  MODIFY_REG(AFIO->EXTICR[Line & 0xFF], (Line >> 16), Port << POSITION_VAL((Line >> 16)));
 80003c0:	f8d8 200c 	ldr.w	r2, [r8, #12]
  uint32_t result;

#if ((defined (__ARM_ARCH_7M__      ) && (__ARM_ARCH_7M__      == 1)) || \
     (defined (__ARM_ARCH_7EM__     ) && (__ARM_ARCH_7EM__     == 1)) || \
     (defined (__ARM_ARCH_8M_MAIN__ ) && (__ARM_ARCH_8M_MAIN__ == 1))    )
   __ASM volatile ("rbit %0, %1" : "=r" (result) : "r" (value) );
 80003c4:	f44f 6370 	mov.w	r3, #3840	; 0xf00
 80003c8:	fa93 f3a3 	rbit	r3, r3
 80003cc:	fab3 f383 	clz	r3, r3
 80003d0:	f422 6270 	bic.w	r2, r2, #3840	; 0xf00
 80003d4:	fa06 f303 	lsl.w	r3, r6, r3
 80003d8:	4313      	orrs	r3, r2
 80003da:	f8c8 300c 	str.w	r3, [r8, #12]
 80003de:	f8d8 3010 	ldr.w	r3, [r8, #16]
 80003e2:	f04f 0a0f 	mov.w	sl, #15
 80003e6:	f023 030f 	bic.w	r3, r3, #15
 80003ea:	fa9a f2aa 	rbit	r2, sl
 80003ee:	f8c8 3010 	str.w	r3, [r8, #16]
 80003f2:	f8d8 3010 	ldr.w	r3, [r8, #16]
 80003f6:	f44f 4270 	mov.w	r2, #61440	; 0xf000
 80003fa:	f423 4370 	bic.w	r3, r3, #61440	; 0xf000
 80003fe:	fa92 f2a2 	rbit	r2, r2
 8000402:	f8c8 3010 	str.w	r3, [r8, #16]
 8000406:	f8d8 2014 	ldr.w	r2, [r8, #20]
 800040a:	f022 020f 	bic.w	r2, r2, #15
 800040e:	fa9a f3aa 	rbit	r3, sl
	LL_GPIO_AF_SetEXTISource(LL_GPIO_AF_EXTI_PORTB, LL_GPIO_AF_EXTI_LINE6);		//EXTI lines to rotary encoders
	LL_GPIO_AF_SetEXTISource(LL_GPIO_AF_EXTI_PORTA, LL_GPIO_AF_EXTI_LINE8);
	LL_GPIO_AF_SetEXTISource(LL_GPIO_AF_EXTI_PORTA, LL_GPIO_AF_EXTI_LINE11);
	LL_GPIO_AF_SetEXTISource(LL_GPIO_AF_EXTI_PORTA, LL_GPIO_AF_EXTI_LINE12);

	EXTI_InitStruct.Line_0_31 = LL_EXTI_LINE_6;									//rotary encoder1 pin A
 8000412:	2340      	movs	r3, #64	; 0x40
 8000414:	f8c8 2014 	str.w	r2, [r8, #20]
	EXTI_InitStruct.LineCommand = ENABLE;
	EXTI_InitStruct.Mode = LL_EXTI_MODE_IT;
	EXTI_InitStruct.Trigger = LL_EXTI_TRIGGER_FALLING;
	LL_EXTI_Init(&EXTI_InitStruct);
 8000418:	aa27      	add	r2, sp, #156	; 0x9c
 800041a:	4610      	mov	r0, r2
	EXTI_InitStruct.Line_0_31 = LL_EXTI_LINE_6;									//rotary encoder1 pin A
 800041c:	9327      	str	r3, [sp, #156]	; 0x9c
 800041e:	9305      	str	r3, [sp, #20]
	EXTI_InitStruct.LineCommand = ENABLE;
 8000420:	f88d 60a0 	strb.w	r6, [sp, #160]	; 0xa0
	EXTI_InitStruct.Mode = LL_EXTI_MODE_IT;
 8000424:	f88d 40a1 	strb.w	r4, [sp, #161]	; 0xa1
	EXTI_InitStruct.Trigger = LL_EXTI_TRIGGER_FALLING;
 8000428:	f88d b0a2 	strb.w	fp, [sp, #162]	; 0xa2
	LL_EXTI_Init(&EXTI_InitStruct);
 800042c:	f002 f8c8 	bl	80025c0 <LL_EXTI_Init>

	EXTI_InitStruct.Line_0_31 = LL_EXTI_LINE_8;									//rotary encoder2 pin A
	EXTI_InitStruct.LineCommand = ENABLE;
	EXTI_InitStruct.Mode = LL_EXTI_MODE_IT;
	EXTI_InitStruct.Trigger = LL_EXTI_TRIGGER_FALLING;
	LL_EXTI_Init(&EXTI_InitStruct);
 8000430:	aa27      	add	r2, sp, #156	; 0x9c
 8000432:	4610      	mov	r0, r2
	EXTI_InitStruct.Line_0_31 = LL_EXTI_LINE_8;									//rotary encoder2 pin A
 8000434:	f44f 7280 	mov.w	r2, #256	; 0x100
	EXTI_InitStruct.LineCommand = ENABLE;
 8000438:	f88d 60a0 	strb.w	r6, [sp, #160]	; 0xa0
	EXTI_InitStruct.Line_0_31 = LL_EXTI_LINE_8;									//rotary encoder2 pin A
 800043c:	9227      	str	r2, [sp, #156]	; 0x9c
	EXTI_InitStruct.Mode = LL_EXTI_MODE_IT;
 800043e:	f88d 40a1 	strb.w	r4, [sp, #161]	; 0xa1
	EXTI_InitStruct.Trigger = LL_EXTI_TRIGGER_FALLING;
 8000442:	f88d b0a2 	strb.w	fp, [sp, #162]	; 0xa2
	LL_EXTI_Init(&EXTI_InitStruct);
 8000446:	f002 f8bb 	bl	80025c0 <LL_EXTI_Init>

	EXTI_InitStruct.Line_0_31 = LL_EXTI_LINE_11;								//rotary encoder1 button
	EXTI_InitStruct.LineCommand = ENABLE;
	EXTI_InitStruct.Mode = LL_EXTI_MODE_IT;
	EXTI_InitStruct.Trigger = LL_EXTI_TRIGGER_FALLING;
	LL_EXTI_Init(&EXTI_InitStruct);
 800044a:	aa27      	add	r2, sp, #156	; 0x9c
 800044c:	4610      	mov	r0, r2
	EXTI_InitStruct.Line_0_31 = LL_EXTI_LINE_11;								//rotary encoder1 button
 800044e:	f44f 6200 	mov.w	r2, #2048	; 0x800
	EXTI_InitStruct.LineCommand = ENABLE;
 8000452:	f88d 60a0 	strb.w	r6, [sp, #160]	; 0xa0
	EXTI_InitStruct.Line_0_31 = LL_EXTI_LINE_11;								//rotary encoder1 button
 8000456:	9227      	str	r2, [sp, #156]	; 0x9c
	EXTI_InitStruct.Mode = LL_EXTI_MODE_IT;
 8000458:	f88d 40a1 	strb.w	r4, [sp, #161]	; 0xa1
	EXTI_InitStruct.Trigger = LL_EXTI_TRIGGER_FALLING;
 800045c:	f88d b0a2 	strb.w	fp, [sp, #162]	; 0xa2
	LL_EXTI_Init(&EXTI_InitStruct);
 8000460:	f002 f8ae 	bl	80025c0 <LL_EXTI_Init>

	EXTI_InitStruct.Line_0_31 = LL_EXTI_LINE_12;								//rotary encoder2 button
 8000464:	f44f 5280 	mov.w	r2, #4096	; 0x1000
	EXTI_InitStruct.LineCommand = ENABLE;
	EXTI_InitStruct.Mode = LL_EXTI_MODE_IT;
	EXTI_InitStruct.Trigger = LL_EXTI_TRIGGER_FALLING;
	LL_EXTI_Init(&EXTI_InitStruct);
 8000468:	a927      	add	r1, sp, #156	; 0x9c
 800046a:	4608      	mov	r0, r1
	EXTI_InitStruct.Line_0_31 = LL_EXTI_LINE_12;								//rotary encoder2 button
 800046c:	9227      	str	r2, [sp, #156]	; 0x9c
	EXTI_InitStruct.LineCommand = ENABLE;
 800046e:	f88d 60a0 	strb.w	r6, [sp, #160]	; 0xa0
	EXTI_InitStruct.Mode = LL_EXTI_MODE_IT;
 8000472:	f88d 40a1 	strb.w	r4, [sp, #161]	; 0xa1
	EXTI_InitStruct.Trigger = LL_EXTI_TRIGGER_FALLING;
 8000476:	f88d b0a2 	strb.w	fp, [sp, #162]	; 0xa2
	LL_EXTI_Init(&EXTI_InitStruct);
 800047a:	f002 f8a1 	bl	80025c0 <LL_EXTI_Init>
  MODIFY_REG(GPIOx->ODR, (Pin >> GPIO_PIN_MASK_POS), Pull << (POSITION_VAL(Pin >> GPIO_PIN_MASK_POS)));
 800047e:	4863      	ldr	r0, [pc, #396]	; (800060c <main+0x360>)
 8000480:	9b05      	ldr	r3, [sp, #20]
 8000482:	68c2      	ldr	r2, [r0, #12]
 8000484:	fa93 f3a3 	rbit	r3, r3
 8000488:	fab3 f383 	clz	r3, r3
 800048c:	f022 0240 	bic.w	r2, r2, #64	; 0x40
 8000490:	fa06 f303 	lsl.w	r3, r6, r3
 8000494:	4313      	orrs	r3, r2
 8000496:	60c3      	str	r3, [r0, #12]
 8000498:	f8d9 300c 	ldr.w	r3, [r9, #12]
 800049c:	4a5d      	ldr	r2, [pc, #372]	; (8000614 <main+0x368>)
 800049e:	fa92 f2a2 	rbit	r2, r2
 80004a2:	fab2 f282 	clz	r2, r2
 80004a6:	f423 2380 	bic.w	r3, r3, #262144	; 0x40000
 80004aa:	fa06 f202 	lsl.w	r2, r6, r2
 80004ae:	f423 7380 	bic.w	r3, r3, #256	; 0x100
 80004b2:	4313      	orrs	r3, r2
 80004b4:	f8c9 300c 	str.w	r3, [r9, #12]
 80004b8:	f8d9 200c 	ldr.w	r2, [r9, #12]
 80004bc:	f44f 2381 	mov.w	r3, #264192	; 0x40800
 80004c0:	fa93 f3a3 	rbit	r3, r3
 80004c4:	fab3 f383 	clz	r3, r3
 80004c8:	f422 2281 	bic.w	r2, r2, #264192	; 0x40800
 80004cc:	fa06 f303 	lsl.w	r3, r6, r3
 80004d0:	4313      	orrs	r3, r2
 80004d2:	f8c9 300c 	str.w	r3, [r9, #12]
 80004d6:	f8d9 200c 	ldr.w	r2, [r9, #12]
 80004da:	f44f 2382 	mov.w	r3, #266240	; 0x41000
 80004de:	fa93 f3a3 	rbit	r3, r3
 80004e2:	fab3 f383 	clz	r3, r3
 80004e6:	f422 2282 	bic.w	r2, r2, #266240	; 0x41000
 80004ea:	fa06 f303 	lsl.w	r3, r6, r3
 80004ee:	4313      	orrs	r3, r2
 80004f0:	f8c9 300c 	str.w	r3, [r9, #12]
 80004f4:	f244 0340 	movw	r3, #16448	; 0x4040
 80004f8:	fa93 f1a3 	rbit	r1, r3
  MODIFY_REG(*pReg, ((GPIO_CRL_CNF0 | GPIO_CRL_MODE0) << (POSITION_VAL(Pin) * 4U)), (Mode << (POSITION_VAL(Pin) * 4U)));
 80004fc:	fab1 f181 	clz	r1, r1
 8000500:	fa93 f2a3 	rbit	r2, r3
 8000504:	fab2 f282 	clz	r2, r2
 8000508:	2708      	movs	r7, #8
 800050a:	6803      	ldr	r3, [r0, #0]
 800050c:	fa01 f10b 	lsl.w	r1, r1, fp
 8000510:	fa0a f101 	lsl.w	r1, sl, r1
 8000514:	fa02 f20b 	lsl.w	r2, r2, fp
 8000518:	fa07 f202 	lsl.w	r2, r7, r2
 800051c:	ea23 0301 	bic.w	r3, r3, r1
 8000520:	4313      	orrs	r3, r2
 8000522:	6003      	str	r3, [r0, #0]
 8000524:	493c      	ldr	r1, [pc, #240]	; (8000618 <main+0x36c>)
 8000526:	fa91 f2a1 	rbit	r2, r1
 800052a:	fab2 f282 	clz	r2, r2
 800052e:	fa91 fea1 	rbit	lr, r1
 8000532:	4b3a      	ldr	r3, [pc, #232]	; (800061c <main+0x370>)
 8000534:	fabe fe8e 	clz	lr, lr
 8000538:	fa93 f1a3 	rbit	r1, r3
 800053c:	fab1 fc81 	clz	ip, r1
 8000540:	fa93 f3a3 	rbit	r3, r3
 8000544:	fab3 f883 	clz	r8, r3
 8000548:	4935      	ldr	r1, [pc, #212]	; (8000620 <main+0x374>)
 800054a:	f8cd 8014 	str.w	r8, [sp, #20]
 800054e:	fa91 f3a1 	rbit	r3, r1
 8000552:	fab3 f883 	clz	r8, r3
 8000556:	f8cd 8018 	str.w	r8, [sp, #24]
 800055a:	fa91 f3a1 	rbit	r3, r1
 800055e:	fab3 f883 	clz	r8, r3
 */
__STATIC_INLINE void __NVIC_EnableIRQ(IRQn_Type IRQn)
{
  if ((int32_t)(IRQn) >= 0)
  {
    NVIC->ISER[(((uint32_t)IRQn) >> 5UL)] = (uint32_t)(1UL << (((uint32_t)IRQn) & 0x1FUL));
 8000562:	f44f 0100 	mov.w	r1, #8388608	; 0x800000
 8000566:	f8cd 801c 	str.w	r8, [sp, #28]
  return ((uint32_t)((SCB->AIRCR & SCB_AIRCR_PRIGROUP_Msk) >> SCB_AIRCR_PRIGROUP_Pos));
 800056a:	4b23      	ldr	r3, [pc, #140]	; (80005f8 <main+0x34c>)
 */
__STATIC_INLINE void __NVIC_SetPriority(IRQn_Type IRQn, uint32_t priority)
{
  if ((int32_t)(IRQn) >= 0)
  {
    NVIC->IP[((uint32_t)IRQn)]               = (uint8_t)((priority << (8U - __NVIC_PRIO_BITS)) & (uint32_t)0xFFUL);
 800056c:	f8df 80bc 	ldr.w	r8, [pc, #188]	; 800062c <main+0x380>
  return ((uint32_t)((SCB->AIRCR & SCB_AIRCR_PRIGROUP_Msk) >> SCB_AIRCR_PRIGROUP_Pos));
 8000570:	68db      	ldr	r3, [r3, #12]
    NVIC->IP[((uint32_t)IRQn)]               = (uint8_t)((priority << (8U - __NVIC_PRIO_BITS)) & (uint32_t)0xFFUL);
 8000572:	f888 4317 	strb.w	r4, [r8, #791]	; 0x317
    NVIC->ISER[(((uint32_t)IRQn) >> 5UL)] = (uint32_t)(1UL << (((uint32_t)IRQn) & 0x1FUL));
 8000576:	f8c8 1000 	str.w	r1, [r8]
 800057a:	f44f 7180 	mov.w	r1, #256	; 0x100
  WRITE_REG(GPIOx->BSRR, (PinMask >> GPIO_PIN_MASK_POS) & 0x0000FFFFU);
 800057e:	20f0      	movs	r0, #240	; 0xf0
  return ((uint32_t)((SCB->AIRCR & SCB_AIRCR_PRIGROUP_Msk) >> SCB_AIRCR_PRIGROUP_Pos));
 8000580:	4b1d      	ldr	r3, [pc, #116]	; (80005f8 <main+0x34c>)
  MODIFY_REG(*pReg, ((GPIO_CRL_CNF0 | GPIO_CRL_MODE0) << (POSITION_VAL(Pin) * 4U)), (Mode << (POSITION_VAL(Pin) * 4U)));
 8000582:	fa02 f20b 	lsl.w	r2, r2, fp
 8000586:	68db      	ldr	r3, [r3, #12]
    NVIC->IP[((uint32_t)IRQn)]               = (uint8_t)((priority << (8U - __NVIC_PRIO_BITS)) & (uint32_t)0xFFUL);
 8000588:	f888 4328 	strb.w	r4, [r8, #808]	; 0x328
    NVIC->ISER[(((uint32_t)IRQn) >> 5UL)] = (uint32_t)(1UL << (((uint32_t)IRQn) & 0x1FUL));
 800058c:	f8c8 1004 	str.w	r1, [r8, #4]
  WRITE_REG(GPIOx->BSRR, (PinMask >> GPIO_PIN_MASK_POS) & 0x0000FFFFU);
 8000590:	f44f 51e0 	mov.w	r1, #7168	; 0x1c00
 8000594:	f8c9 0010 	str.w	r0, [r9, #16]
 8000598:	481c      	ldr	r0, [pc, #112]	; (800060c <main+0x360>)
 800059a:	f8c0 b010 	str.w	fp, [r0, #16]
 800059e:	6101      	str	r1, [r0, #16]
  SET_BIT(RCC->AHBENR, Periphs);
 80005a0:	696b      	ldr	r3, [r5, #20]
  MODIFY_REG(*pReg, ((GPIO_CRL_CNF0 | GPIO_CRL_MODE0) << (POSITION_VAL(Pin) * 4U)), (Mode << (POSITION_VAL(Pin) * 4U)));
 80005a2:	fa0a f002 	lsl.w	r0, sl, r2
 80005a6:	4333      	orrs	r3, r6
 80005a8:	616b      	str	r3, [r5, #20]
 80005aa:	f8d9 3004 	ldr.w	r3, [r9, #4]
 80005ae:	fa0c f20b 	lsl.w	r2, ip, fp
 80005b2:	ea23 0300 	bic.w	r3, r3, r0
  tmpreg = READ_BIT(RCC->AHBENR, Periphs);
 80005b6:	6968      	ldr	r0, [r5, #20]
 80005b8:	fa0e f10b 	lsl.w	r1, lr, fp
 80005bc:	ea00 0c06 	and.w	ip, r0, r6
 80005c0:	f8cd c074 	str.w	ip, [sp, #116]	; 0x74
 80005c4:	f44f 6c00 	mov.w	ip, #2048	; 0x800
 80005c8:	fa07 f101 	lsl.w	r1, r7, r1
 80005cc:	430b      	orrs	r3, r1
 80005ce:	fa0a f202 	lsl.w	r2, sl, r2
 80005d2:	9805      	ldr	r0, [sp, #20]
 80005d4:	ea23 0202 	bic.w	r2, r3, r2
  (void)tmpreg;
 80005d8:	9b1d      	ldr	r3, [sp, #116]	; 0x74
  return ((uint32_t)((SCB->AIRCR & SCB_AIRCR_PRIGROUP_Msk) >> SCB_AIRCR_PRIGROUP_Pos));
 80005da:	4b07      	ldr	r3, [pc, #28]	; (80005f8 <main+0x34c>)
 80005dc:	9906      	ldr	r1, [sp, #24]
 80005de:	68db      	ldr	r3, [r3, #12]
 80005e0:	fa00 f00b 	lsl.w	r0, r0, fp
    NVIC->IP[((uint32_t)IRQn)]               = (uint8_t)((priority << (8U - __NVIC_PRIO_BITS)) & (uint32_t)0xFFUL);
 80005e4:	f888 430b 	strb.w	r4, [r8, #779]	; 0x30b
    NVIC->ISER[(((uint32_t)IRQn) >> 5UL)] = (uint32_t)(1UL << (((uint32_t)IRQn) & 0x1FUL));
 80005e8:	f8c8 c000 	str.w	ip, [r8]
	LL_ADC_InitTypeDef ADC_InitStruct = {0};
 80005ec:	9422      	str	r4, [sp, #136]	; 0x88
	LL_ADC_CommonInitTypeDef ADC_CommonInitStruct = {0};
 80005ee:	941a      	str	r4, [sp, #104]	; 0x68
 80005f0:	e01e      	b.n	8000630 <main+0x384>
 80005f2:	bf00      	nop
 80005f4:	40021000 	.word	0x40021000
 80005f8:	e000ed00 	.word	0xe000ed00
 80005fc:	05fa0300 	.word	0x05fa0300
 8000600:	04200020 	.word	0x04200020
 8000604:	40011000 	.word	0x40011000
 8000608:	041c001c 	.word	0x041c001c
 800060c:	40010c00 	.word	0x40010c00
 8000610:	04020002 	.word	0x04020002
 8000614:	00040100 	.word	0x00040100
 8000618:	04010001 	.word	0x04010001
 800061c:	04080008 	.word	0x04080008
 8000620:	04100010 	.word	0x04100010
 8000624:	40010000 	.word	0x40010000
 8000628:	40010800 	.word	0x40010800
 800062c:	e000e100 	.word	0xe000e100
	LL_ADC_REG_InitTypeDef ADC_REG_InitStruct = {0};
 8000630:	e9cd 4427 	strd	r4, r4, [sp, #156]	; 0x9c
 8000634:	e9cd 4429 	strd	r4, r4, [sp, #164]	; 0xa4
 8000638:	942b      	str	r4, [sp, #172]	; 0xac
	LL_GPIO_InitTypeDef GPIO_InitStruct = {0};
 800063a:	942d      	str	r4, [sp, #180]	; 0xb4
	LL_ADC_InitTypeDef ADC_InitStruct = {0};
 800063c:	9423      	str	r4, [sp, #140]	; 0x8c
	LL_GPIO_InitTypeDef GPIO_InitStruct = {0};
 800063e:	e9cd 442e 	strd	r4, r4, [sp, #184]	; 0xb8
 8000642:	9430      	str	r4, [sp, #192]	; 0xc0
 8000644:	9b07      	ldr	r3, [sp, #28]
 8000646:	fa07 f000 	lsl.w	r0, r7, r0
 800064a:	fa01 f10b 	lsl.w	r1, r1, fp
 800064e:	fa0a f101 	lsl.w	r1, sl, r1
 8000652:	fa03 f30b 	lsl.w	r3, r3, fp
 8000656:	4302      	orrs	r2, r0
 8000658:	ea22 0201 	bic.w	r2, r2, r1
 800065c:	fa07 f303 	lsl.w	r3, r7, r3
 8000660:	4313      	orrs	r3, r2
	LL_GPIO_Init(GPIOA, &GPIO_InitStruct);
 8000662:	aa2c      	add	r2, sp, #176	; 0xb0
 8000664:	4611      	mov	r1, r2
	GPIO_InitStruct.Pin = LL_GPIO_PIN_0;
 8000666:	f240 1201 	movw	r2, #257	; 0x101
  SET_BIT(RCC->APB2ENR, Periphs);
 800066a:	69a8      	ldr	r0, [r5, #24]
 800066c:	f8c9 3004 	str.w	r3, [r9, #4]
 8000670:	f440 7000 	orr.w	r0, r0, #512	; 0x200
 8000674:	61a8      	str	r0, [r5, #24]
  tmpreg = READ_BIT(RCC->APB2ENR, Periphs);
 8000676:	69ab      	ldr	r3, [r5, #24]
	LL_GPIO_Init(GPIOA, &GPIO_InitStruct);
 8000678:	4648      	mov	r0, r9
 800067a:	f403 7300 	and.w	r3, r3, #512	; 0x200
 800067e:	931b      	str	r3, [sp, #108]	; 0x6c
  (void)tmpreg;
 8000680:	9b1b      	ldr	r3, [sp, #108]	; 0x6c
  SET_BIT(RCC->APB2ENR, Periphs);
 8000682:	69ab      	ldr	r3, [r5, #24]
	LL_ADC_Init(ADC1, &ADC_InitStruct);
 8000684:	f8df a374 	ldr.w	sl, [pc, #884]	; 80009fc <main+0x750>
 8000688:	f043 0304 	orr.w	r3, r3, #4
 800068c:	61ab      	str	r3, [r5, #24]
  tmpreg = READ_BIT(RCC->APB2ENR, Periphs);
 800068e:	69ab      	ldr	r3, [r5, #24]
	GPIO_InitStruct.Pin = LL_GPIO_PIN_0;
 8000690:	922c      	str	r2, [sp, #176]	; 0xb0
 8000692:	f003 0304 	and.w	r3, r3, #4
 8000696:	931c      	str	r3, [sp, #112]	; 0x70
  (void)tmpreg;
 8000698:	9b1c      	ldr	r3, [sp, #112]	; 0x70
	LL_GPIO_Init(GPIOA, &GPIO_InitStruct);
 800069a:	f001 ffef 	bl	800267c <LL_GPIO_Init>
  *         @arg @ref LL_DMA_DIRECTION_MEMORY_TO_MEMORY
  * @retval None
  */
__STATIC_INLINE void LL_DMA_SetDataTransferDirection(DMA_TypeDef *DMAx, uint32_t Channel, uint32_t Direction)
{
  MODIFY_REG(((DMA_Channel_TypeDef *)((uint32_t)((uint32_t)DMAx + CHANNEL_OFFSET_TAB[Channel - 1U])))->CCR,
 800069e:	4bcc      	ldr	r3, [pc, #816]	; (80009d0 <main+0x724>)
	LL_ADC_Init(ADC1, &ADC_InitStruct);
 80006a0:	a822      	add	r0, sp, #136	; 0x88
 80006a2:	681a      	ldr	r2, [r3, #0]
 80006a4:	4601      	mov	r1, r0
 80006a6:	f422 4280 	bic.w	r2, r2, #16384	; 0x4000
 80006aa:	f022 0210 	bic.w	r2, r2, #16
 80006ae:	601a      	str	r2, [r3, #0]
  *         @arg @ref LL_DMA_PRIORITY_VERYHIGH
  * @retval None
  */
__STATIC_INLINE void LL_DMA_SetChannelPriorityLevel(DMA_TypeDef *DMAx, uint32_t Channel, uint32_t Priority)
{
  MODIFY_REG(((DMA_Channel_TypeDef *)((uint32_t)((uint32_t)DMAx + CHANNEL_OFFSET_TAB[Channel - 1U])))->CCR, DMA_CCR_PL,
 80006b0:	681a      	ldr	r2, [r3, #0]
 80006b2:	4650      	mov	r0, sl
 80006b4:	f422 5240 	bic.w	r2, r2, #12288	; 0x3000
 80006b8:	f442 5200 	orr.w	r2, r2, #8192	; 0x2000
 80006bc:	601a      	str	r2, [r3, #0]
  MODIFY_REG(((DMA_Channel_TypeDef *)((uint32_t)((uint32_t)DMAx + CHANNEL_OFFSET_TAB[Channel - 1U])))->CCR, DMA_CCR_CIRC,
 80006be:	681a      	ldr	r2, [r3, #0]
 80006c0:	f022 0220 	bic.w	r2, r2, #32
 80006c4:	601a      	str	r2, [r3, #0]
  MODIFY_REG(((DMA_Channel_TypeDef *)((uint32_t)((uint32_t)DMAx + CHANNEL_OFFSET_TAB[Channel - 1U])))->CCR, DMA_CCR_PINC,
 80006c6:	681a      	ldr	r2, [r3, #0]
 80006c8:	f022 0240 	bic.w	r2, r2, #64	; 0x40
 80006cc:	601a      	str	r2, [r3, #0]
  MODIFY_REG(((DMA_Channel_TypeDef *)((uint32_t)((uint32_t)DMAx + CHANNEL_OFFSET_TAB[Channel - 1U])))->CCR, DMA_CCR_MINC,
 80006ce:	681a      	ldr	r2, [r3, #0]
 80006d0:	f042 0280 	orr.w	r2, r2, #128	; 0x80
 80006d4:	601a      	str	r2, [r3, #0]
  MODIFY_REG(((DMA_Channel_TypeDef *)((uint32_t)((uint32_t)DMAx + CHANNEL_OFFSET_TAB[Channel - 1U])))->CCR, DMA_CCR_PSIZE,
 80006d6:	681a      	ldr	r2, [r3, #0]
 80006d8:	f422 7240 	bic.w	r2, r2, #768	; 0x300
 80006dc:	f442 7200 	orr.w	r2, r2, #512	; 0x200
 80006e0:	601a      	str	r2, [r3, #0]
  MODIFY_REG(((DMA_Channel_TypeDef *)((uint32_t)((uint32_t)DMAx + CHANNEL_OFFSET_TAB[Channel - 1U])))->CCR, DMA_CCR_MSIZE,
 80006e2:	681a      	ldr	r2, [r3, #0]
 80006e4:	f422 6240 	bic.w	r2, r2, #3072	; 0xc00
 80006e8:	f442 6200 	orr.w	r2, r2, #2048	; 0x800
 80006ec:	601a      	str	r2, [r3, #0]
	ADC_InitStruct.SequencersScanMode = LL_ADC_SEQ_SCAN_DISABLE;
 80006ee:	e9cd 4422 	strd	r4, r4, [sp, #136]	; 0x88
	LL_ADC_Init(ADC1, &ADC_InitStruct);
 80006f2:	f001 ff23 	bl	800253c <LL_ADC_Init>
	ADC_CommonInitStruct.Multimode = LL_ADC_MULTI_DUAL_REG_SIMULT;
 80006f6:	f44f 23c0 	mov.w	r3, #393216	; 0x60000
 80006fa:	a936      	add	r1, sp, #216	; 0xd8
 80006fc:	f841 3d70 	str.w	r3, [r1, #-112]!
	LL_ADC_CommonInit(__LL_ADC_COMMON_INSTANCE(ADC1), &ADC_CommonInitStruct);
 8000700:	4650      	mov	r0, sl
 8000702:	f001 fefd 	bl	8002500 <LL_ADC_CommonInit>
	LL_ADC_REG_Init(ADC1, &ADC_REG_InitStruct);
 8000706:	aa27      	add	r2, sp, #156	; 0x9c
	ADC_REG_InitStruct.TriggerSource = LL_ADC_REG_TRIG_EXT_TIM3_TRGO;
 8000708:	f44f 2300 	mov.w	r3, #524288	; 0x80000
	LL_ADC_REG_Init(ADC1, &ADC_REG_InitStruct);
 800070c:	4611      	mov	r1, r2
	ADC_REG_InitStruct.DMATransfer = LL_ADC_REG_DMA_TRANSFER_UNLIMITED;
 800070e:	f44f 7280 	mov.w	r2, #256	; 0x100
	LL_ADC_REG_Init(ADC1, &ADC_REG_InitStruct);
 8000712:	4650      	mov	r0, sl
	ADC_REG_InitStruct.DMATransfer = LL_ADC_REG_DMA_TRANSFER_UNLIMITED;
 8000714:	922b      	str	r2, [sp, #172]	; 0xac
	ADC_REG_InitStruct.SequencerDiscont = LL_ADC_REG_SEQ_DISCONT_DISABLE;
 8000716:	e9cd 4428 	strd	r4, r4, [sp, #160]	; 0xa0
	ADC_REG_InitStruct.ContinuousMode = LL_ADC_REG_CONV_SINGLE;
 800071a:	942a      	str	r4, [sp, #168]	; 0xa8
	ADC_REG_InitStruct.TriggerSource = LL_ADC_REG_TRIG_EXT_TIM3_TRGO;
 800071c:	9327      	str	r3, [sp, #156]	; 0x9c
	LL_ADC_REG_Init(ADC1, &ADC_REG_InitStruct);
 800071e:	f001 ff25 	bl	800256c <LL_ADC_REG_Init>
 8000722:	f44f 7240 	mov.w	r2, #768	; 0x300
 8000726:	fa92 f2a2 	rbit	r2, r2
{
  /* Set bits with content of parameter "Channel" with bits position          */
  /* in register and register position depending on parameter "Rank".         */
  /* Parameters "Rank" and "Channel" are used with masks because containing   */
  /* other bits reserved for other purpose.                                   */
  register __IO uint32_t *preg = __ADC_PTR_REG_OFFSET(ADCx->SQR1, __ADC_MASK_SHIFT(Rank, ADC_REG_SQRX_REGOFFSET_MASK));
 800072a:	f44f 7700 	mov.w	r7, #512	; 0x200
 800072e:	fab2 f282 	clz	r2, r2
 8000732:	48a8      	ldr	r0, [pc, #672]	; (80009d4 <main+0x728>)
 8000734:	fa27 f202 	lsr.w	r2, r7, r2
  
  MODIFY_REG(*preg,
 8000738:	f850 1022 	ldr.w	r1, [r0, r2, lsl #2]
 800073c:	f04f 7300 	mov.w	r3, #33554432	; 0x2000000
 8000740:	f021 011f 	bic.w	r1, r1, #31
 8000744:	f840 1022 	str.w	r1, [r0, r2, lsl #2]
 8000748:	fa93 f2a3 	rbit	r2, r3
{
  /* Set bits with content of parameter "SamplingTime" with bits position     */
  /* in register and register position depending on parameter "Channel".      */
  /* Parameter "Channel" is used with masks because containing                */
  /* other bits reserved for other purpose.                                   */
  register __IO uint32_t *preg = __ADC_PTR_REG_OFFSET(ADCx->SMPR1, __ADC_MASK_SHIFT(Channel, ADC_CHANNEL_SMPRX_REGOFFSET_MASK));
 800074c:	fab2 f282 	clz	r2, r2
 8000750:	3820      	subs	r0, #32
 8000752:	fa23 f202 	lsr.w	r2, r3, r2
 8000756:	9305      	str	r3, [sp, #20]
  
  MODIFY_REG(*preg,
 8000758:	f850 1022 	ldr.w	r1, [r0, r2, lsl #2]
 800075c:	f04f 77f8 	mov.w	r7, #32505856	; 0x1f00000
 8000760:	fa97 fca7 	rbit	ip, r7
 8000764:	f021 0107 	bic.w	r1, r1, #7
 8000768:	fa97 fca7 	rbit	ip, r7
	GPIO_InitStruct.Pin = LL_GPIO_PIN_1;
 800076c:	f240 2c02 	movw	ip, #514	; 0x202
 8000770:	f840 1022 	str.w	r1, [r0, r2, lsl #2]
	LL_ADC_InitTypeDef ADC_InitStruct = {0};
 8000774:	e9cd 4422 	strd	r4, r4, [sp, #136]	; 0x88
	LL_ADC_REG_InitTypeDef ADC_REG_InitStruct = {0};
 8000778:	e9cd 4427 	strd	r4, r4, [sp, #156]	; 0x9c
 800077c:	e9cd 4429 	strd	r4, r4, [sp, #164]	; 0xa4
	LL_GPIO_InitTypeDef GPIO_InitStruct = {0};
 8000780:	e9cd 442d 	strd	r4, r4, [sp, #180]	; 0xb4
 8000784:	e9cd 442f 	strd	r4, r4, [sp, #188]	; 0xbc
	LL_ADC_REG_InitTypeDef ADC_REG_InitStruct = {0};
 8000788:	942b      	str	r4, [sp, #172]	; 0xac
  SET_BIT(RCC->APB2ENR, Periphs);
 800078a:	69aa      	ldr	r2, [r5, #24]
	LL_GPIO_Init(GPIOA, &GPIO_InitStruct);
 800078c:	f10d 0eb0 	add.w	lr, sp, #176	; 0xb0
 8000790:	f442 6280 	orr.w	r2, r2, #1024	; 0x400
 8000794:	61aa      	str	r2, [r5, #24]
  tmpreg = READ_BIT(RCC->APB2ENR, Periphs);
 8000796:	69aa      	ldr	r2, [r5, #24]
 8000798:	4671      	mov	r1, lr
 800079a:	f402 6280 	and.w	r2, r2, #1024	; 0x400
 800079e:	9219      	str	r2, [sp, #100]	; 0x64
  (void)tmpreg;
 80007a0:	9a19      	ldr	r2, [sp, #100]	; 0x64
  SET_BIT(RCC->APB2ENR, Periphs);
 80007a2:	69aa      	ldr	r2, [r5, #24]
 80007a4:	4648      	mov	r0, r9
 80007a6:	f042 0204 	orr.w	r2, r2, #4
 80007aa:	61aa      	str	r2, [r5, #24]
  tmpreg = READ_BIT(RCC->APB2ENR, Periphs);
 80007ac:	69aa      	ldr	r2, [r5, #24]
	GPIO_InitStruct.Pin = LL_GPIO_PIN_1;
 80007ae:	f8cd c0b0 	str.w	ip, [sp, #176]	; 0xb0
 80007b2:	f002 0204 	and.w	r2, r2, #4
 80007b6:	921a      	str	r2, [sp, #104]	; 0x68
  (void)tmpreg;
 80007b8:	9a1a      	ldr	r2, [sp, #104]	; 0x68
	LL_GPIO_Init(GPIOA, &GPIO_InitStruct);
 80007ba:	f001 ff5f 	bl	800267c <LL_GPIO_Init>
	LL_ADC_Init(ADC2, &ADC_InitStruct);
 80007be:	a822      	add	r0, sp, #136	; 0x88
 80007c0:	4601      	mov	r1, r0
 80007c2:	4885      	ldr	r0, [pc, #532]	; (80009d8 <main+0x72c>)
	ADC_InitStruct.SequencersScanMode = LL_ADC_SEQ_SCAN_DISABLE;
 80007c4:	e9cd 4422 	strd	r4, r4, [sp, #136]	; 0x88
	LL_ADC_Init(ADC2, &ADC_InitStruct);
 80007c8:	f001 feb8 	bl	800253c <LL_ADC_Init>
	ADC_REG_InitStruct.TriggerSource = LL_ADC_REG_TRIG_SOFTWARE;
 80007cc:	f44f 2260 	mov.w	r2, #917504	; 0xe0000
	LL_ADC_REG_Init(ADC2, &ADC_REG_InitStruct);
 80007d0:	a827      	add	r0, sp, #156	; 0x9c
 80007d2:	4601      	mov	r1, r0
 80007d4:	4880      	ldr	r0, [pc, #512]	; (80009d8 <main+0x72c>)
	ADC_REG_InitStruct.TriggerSource = LL_ADC_REG_TRIG_SOFTWARE;
 80007d6:	9227      	str	r2, [sp, #156]	; 0x9c
	ADC_REG_InitStruct.SequencerDiscont = LL_ADC_REG_SEQ_DISCONT_DISABLE;
 80007d8:	e9cd 4428 	strd	r4, r4, [sp, #160]	; 0xa0
	ADC_REG_InitStruct.DMATransfer = LL_ADC_REG_DMA_TRANSFER_NONE;
 80007dc:	e9cd 442a 	strd	r4, r4, [sp, #168]	; 0xa8
	LL_ADC_REG_Init(ADC2, &ADC_REG_InitStruct);
 80007e0:	f001 fec4 	bl	800256c <LL_ADC_REG_Init>
 80007e4:	f44f 7240 	mov.w	r2, #768	; 0x300
 80007e8:	fa92 f2a2 	rbit	r2, r2
  register __IO uint32_t *preg = __ADC_PTR_REG_OFFSET(ADCx->SQR1, __ADC_MASK_SHIFT(Rank, ADC_REG_SQRX_REGOFFSET_MASK));
 80007ec:	f44f 7c00 	mov.w	ip, #512	; 0x200
 80007f0:	fab2 f282 	clz	r2, r2
 80007f4:	4879      	ldr	r0, [pc, #484]	; (80009dc <main+0x730>)
 80007f6:	fa2c f202 	lsr.w	r2, ip, r2
  MODIFY_REG(*preg,
 80007fa:	f850 1022 	ldr.w	r1, [r0, r2, lsl #2]
 80007fe:	9b05      	ldr	r3, [sp, #20]
 8000800:	f021 011f 	bic.w	r1, r1, #31
 8000804:	4331      	orrs	r1, r6
 8000806:	f840 1022 	str.w	r1, [r0, r2, lsl #2]
 800080a:	fa93 f2a3 	rbit	r2, r3
  register __IO uint32_t *preg = __ADC_PTR_REG_OFFSET(ADCx->SMPR1, __ADC_MASK_SHIFT(Channel, ADC_CHANNEL_SMPRX_REGOFFSET_MASK));
 800080e:	fab2 f282 	clz	r2, r2
 8000812:	f8df e1ec 	ldr.w	lr, [pc, #492]	; 8000a00 <main+0x754>
 8000816:	40d3      	lsrs	r3, r2
  MODIFY_REG(*preg,
 8000818:	f85e 2023 	ldr.w	r2, [lr, r3, lsl #2]
 800081c:	fa97 fca7 	rbit	ip, r7
 8000820:	f44f 1040 	mov.w	r0, #3145728	; 0x300000
 8000824:	fabc fc8c 	clz	ip, ip
 8000828:	2107      	movs	r1, #7
 800082a:	fa20 f00c 	lsr.w	r0, r0, ip
 800082e:	fa01 f000 	lsl.w	r0, r1, r0
 8000832:	ea22 0200 	bic.w	r2, r2, r0
 8000836:	fa97 f1a7 	rbit	r1, r7
 800083a:	f84e 2023 	str.w	r2, [lr, r3, lsl #2]
	LL_SPI_InitTypeDef SPI_InitStruct = {0};
 800083e:	4621      	mov	r1, r4
 8000840:	2228      	movs	r2, #40	; 0x28
 8000842:	a82c      	add	r0, sp, #176	; 0xb0
 8000844:	f002 f93b 	bl	8002abe <memset>
	LL_GPIO_InitTypeDef GPIO_InitStruct = {0};
 8000848:	e9cd 442a 	strd	r4, r4, [sp, #168]	; 0xa8
  SET_BIT(RCC->APB1ENR, Periphs);
 800084c:	69eb      	ldr	r3, [r5, #28]
	GPIO_InitStruct.Pin = LL_GPIO_PIN_13|LL_GPIO_PIN_15;
 800084e:	4a64      	ldr	r2, [pc, #400]	; (80009e0 <main+0x734>)
 8000850:	f443 4380 	orr.w	r3, r3, #16384	; 0x4000
 8000854:	61eb      	str	r3, [r5, #28]
  tmpreg = READ_BIT(RCC->APB1ENR, Periphs);
 8000856:	69eb      	ldr	r3, [r5, #28]
	LL_GPIO_Init(GPIOB, &GPIO_InitStruct);
 8000858:	a827      	add	r0, sp, #156	; 0x9c
 800085a:	f403 4380 	and.w	r3, r3, #16384	; 0x4000
 800085e:	9317      	str	r3, [sp, #92]	; 0x5c
  (void)tmpreg;
 8000860:	9b17      	ldr	r3, [sp, #92]	; 0x5c
  SET_BIT(RCC->APB2ENR, Periphs);
 8000862:	69ab      	ldr	r3, [r5, #24]
 8000864:	4601      	mov	r1, r0
 8000866:	f043 0308 	orr.w	r3, r3, #8
 800086a:	61ab      	str	r3, [r5, #24]
  tmpreg = READ_BIT(RCC->APB2ENR, Periphs);
 800086c:	69ab      	ldr	r3, [r5, #24]
	GPIO_InitStruct.Pin = LL_GPIO_PIN_13|LL_GPIO_PIN_15;
 800086e:	9227      	str	r2, [sp, #156]	; 0x9c
	GPIO_InitStruct.Mode = LL_GPIO_MODE_ALTERNATE;
 8000870:	2209      	movs	r2, #9
 8000872:	f003 0308 	and.w	r3, r3, #8
 8000876:	9318      	str	r3, [sp, #96]	; 0x60
	LL_GPIO_Init(GPIOB, &GPIO_InitStruct);
 8000878:	485a      	ldr	r0, [pc, #360]	; (80009e4 <main+0x738>)
	GPIO_InitStruct.Speed = LL_GPIO_SPEED_FREQ_MEDIUM;
 800087a:	9629      	str	r6, [sp, #164]	; 0xa4
  (void)tmpreg;
 800087c:	9b18      	ldr	r3, [sp, #96]	; 0x60
	GPIO_InitStruct.Mode = LL_GPIO_MODE_ALTERNATE;
 800087e:	9228      	str	r2, [sp, #160]	; 0xa0
	SPI_InitStruct.Mode = LL_SPI_MODE_MASTER;
 8000880:	f44f 7682 	mov.w	r6, #260	; 0x104
	LL_GPIO_Init(GPIOB, &GPIO_InitStruct);
 8000884:	f001 fefa 	bl	800267c <LL_GPIO_Init>
	SPI_InitStruct.NSS = LL_SPI_NSS_SOFT;
 8000888:	f44f 7700 	mov.w	r7, #512	; 0x200
	SPI_InitStruct.BaudRate = LL_SPI_BAUDRATEPRESCALER_DIV8;
 800088c:	2210      	movs	r2, #16
	SPI_InitStruct.CRCPoly = 10;
 800088e:	230a      	movs	r3, #10
	LL_SPI_Init(SPI2, &SPI_InitStruct);
 8000890:	a82c      	add	r0, sp, #176	; 0xb0
 8000892:	4601      	mov	r1, r0
 8000894:	4854      	ldr	r0, [pc, #336]	; (80009e8 <main+0x73c>)
	SPI_InitStruct.NSS = LL_SPI_NSS_SOFT;
 8000896:	9731      	str	r7, [sp, #196]	; 0xc4
	SPI_InitStruct.Mode = LL_SPI_MODE_MASTER;
 8000898:	962d      	str	r6, [sp, #180]	; 0xb4
	SPI_InitStruct.BaudRate = LL_SPI_BAUDRATEPRESCALER_DIV8;
 800089a:	9232      	str	r2, [sp, #200]	; 0xc8
	SPI_InitStruct.CRCPoly = 10;
 800089c:	9335      	str	r3, [sp, #212]	; 0xd4
	SPI_InitStruct.TransferDirection = LL_SPI_FULL_DUPLEX;
 800089e:	942c      	str	r4, [sp, #176]	; 0xb0
	SPI_InitStruct.ClockPolarity = LL_SPI_POLARITY_LOW;
 80008a0:	e9cd 442e 	strd	r4, r4, [sp, #184]	; 0xb8
	SPI_InitStruct.ClockPhase = LL_SPI_PHASE_1EDGE;
 80008a4:	9430      	str	r4, [sp, #192]	; 0xc0
	SPI_InitStruct.CRCCalculation = LL_SPI_CRCCALCULATION_DISABLE;
 80008a6:	e9cd 4433 	strd	r4, r4, [sp, #204]	; 0xcc
	LL_SPI_Init(SPI2, &SPI_InitStruct);
 80008aa:	f001 ff6d 	bl	8002788 <LL_SPI_Init>
 80008ae:	f04f 5c80 	mov.w	ip, #268435456	; 0x10000000
	TIM_InitStruct.Autoreload = 99;												//10 kHz
 80008b2:	2263      	movs	r2, #99	; 0x63
	TIM_InitStruct.Prescaler = 119;												//1 MHz
 80008b4:	2677      	movs	r6, #119	; 0x77
	LL_TIM_InitTypeDef TIM_InitStruct = {0};
 80008b6:	f8cd 40b6 	str.w	r4, [sp, #182]	; 0xb6
 80008ba:	f8cd 40ba 	str.w	r4, [sp, #186]	; 0xba
 80008be:	f8cd 40b2 	str.w	r4, [sp, #178]	; 0xb2
 80008c2:	f8cd 40be 	str.w	r4, [sp, #190]	; 0xbe
 80008c6:	f8ad 40c2 	strh.w	r4, [sp, #194]	; 0xc2
  SET_BIT(RCC->APB1ENR, Periphs);
 80008ca:	69eb      	ldr	r3, [r5, #28]
	LL_TIM_Init(TIM2, &TIM_InitStruct);
 80008cc:	a82c      	add	r0, sp, #176	; 0xb0
 80008ce:	f043 0301 	orr.w	r3, r3, #1
 80008d2:	61eb      	str	r3, [r5, #28]
  tmpreg = READ_BIT(RCC->APB1ENR, Periphs);
 80008d4:	69eb      	ldr	r3, [r5, #28]
 80008d6:	4601      	mov	r1, r0
 80008d8:	f003 0301 	and.w	r3, r3, #1
 80008dc:	9316      	str	r3, [sp, #88]	; 0x58
  (void)tmpreg;
 80008de:	9b16      	ldr	r3, [sp, #88]	; 0x58
  return ((uint32_t)((SCB->AIRCR & SCB_AIRCR_PRIGROUP_Msk) >> SCB_AIRCR_PRIGROUP_Pos));
 80008e0:	4b42      	ldr	r3, [pc, #264]	; (80009ec <main+0x740>)
 80008e2:	f04f 4080 	mov.w	r0, #1073741824	; 0x40000000
 80008e6:	461f      	mov	r7, r3
 80008e8:	68db      	ldr	r3, [r3, #12]
    NVIC->IP[((uint32_t)IRQn)]               = (uint8_t)((priority << (8U - __NVIC_PRIO_BITS)) & (uint32_t)0xFFUL);
 80008ea:	f888 431c 	strb.w	r4, [r8, #796]	; 0x31c
    NVIC->ISER[(((uint32_t)IRQn) >> 5UL)] = (uint32_t)(1UL << (((uint32_t)IRQn) & 0x1FUL));
 80008ee:	f8c8 c000 	str.w	ip, [r8]
	TIM_InitStruct.Prescaler = 119;												//1 MHz
 80008f2:	f8ad 60b0 	strh.w	r6, [sp, #176]	; 0xb0
	TIM_InitStruct.Autoreload = 99;												//10 kHz
 80008f6:	922e      	str	r2, [sp, #184]	; 0xb8
	LL_TIM_Init(TIM2, &TIM_InitStruct);
 80008f8:	f001 ff78 	bl	80027ec <LL_TIM_Init>
  * @param  TIMx Timer instance
  * @retval None
  */
__STATIC_INLINE void LL_TIM_DisableARRPreload(TIM_TypeDef *TIMx)
{
  CLEAR_BIT(TIMx->CR1, TIM_CR1_ARPE);
 80008fc:	f04f 4380 	mov.w	r3, #1073741824	; 0x40000000
 8000900:	f04f 5c00 	mov.w	ip, #536870912	; 0x20000000
	TIM_InitStruct.Autoreload = 749;											// default setting 200us/div
 8000904:	f240 2eed 	movw	lr, #749	; 0x2ed
 8000908:	681a      	ldr	r2, [r3, #0]
	LL_TIM_Init(TIM3, &TIM_InitStruct);
 800090a:	f5a9 3982 	sub.w	r9, r9, #66560	; 0x10400
 800090e:	f022 0280 	bic.w	r2, r2, #128	; 0x80
 8000912:	601a      	str	r2, [r3, #0]
  *         @arg @ref LL_TIM_CLOCKSOURCE_EXT_MODE2
  * @retval None
  */
__STATIC_INLINE void LL_TIM_SetClockSource(TIM_TypeDef *TIMx, uint32_t ClockSource)
{
  MODIFY_REG(TIMx->SMCR, TIM_SMCR_SMS | TIM_SMCR_ECE, ClockSource);
 8000914:	689a      	ldr	r2, [r3, #8]
 8000916:	a82c      	add	r0, sp, #176	; 0xb0
 8000918:	f422 4280 	bic.w	r2, r2, #16384	; 0x4000
 800091c:	f022 0207 	bic.w	r2, r2, #7
 8000920:	609a      	str	r2, [r3, #8]
  *         @arg @ref LL_TIM_TRGO_OC4REF
  * @retval None
  */
__STATIC_INLINE void LL_TIM_SetTriggerOutput(TIM_TypeDef *TIMx, uint32_t TimerSynchronization)
{
  MODIFY_REG(TIMx->CR2, TIM_CR2_MMS, TimerSynchronization);
 8000922:	685a      	ldr	r2, [r3, #4]
 8000924:	4601      	mov	r1, r0
 8000926:	f022 0270 	bic.w	r2, r2, #112	; 0x70
 800092a:	605a      	str	r2, [r3, #4]
  * @param  TIMx Timer instance
  * @retval None
  */
__STATIC_INLINE void LL_TIM_DisableMasterSlaveMode(TIM_TypeDef *TIMx)
{
  CLEAR_BIT(TIMx->SMCR, TIM_SMCR_MSM);
 800092c:	689a      	ldr	r2, [r3, #8]
 800092e:	4648      	mov	r0, r9
 8000930:	f022 0280 	bic.w	r2, r2, #128	; 0x80
 8000934:	609a      	str	r2, [r3, #8]
	LL_TIM_InitTypeDef TIM_InitStruct = {0};
 8000936:	e9cd 442e 	strd	r4, r4, [sp, #184]	; 0xb8
 800093a:	e9cd 442c 	strd	r4, r4, [sp, #176]	; 0xb0
 800093e:	9430      	str	r4, [sp, #192]	; 0xc0
  SET_BIT(RCC->APB1ENR, Periphs);
 8000940:	69eb      	ldr	r3, [r5, #28]
	LL_TIM_Init(TIM4, &TIM_InitStruct);
 8000942:	4e2b      	ldr	r6, [pc, #172]	; (80009f0 <main+0x744>)
 8000944:	ea43 030b 	orr.w	r3, r3, fp
 8000948:	61eb      	str	r3, [r5, #28]
  tmpreg = READ_BIT(RCC->APB1ENR, Periphs);
 800094a:	69ea      	ldr	r2, [r5, #28]
  register __IO uint32_t *pReg = (__IO uint32_t *)((uint32_t)((uint32_t)(&TIMx->CCMR1) + OFFSET_TAB_CCMRx[iChannel]));
 800094c:	4b29      	ldr	r3, [pc, #164]	; (80009f4 <main+0x748>)
 800094e:	ea02 020b 	and.w	r2, r2, fp
 8000952:	9215      	str	r2, [sp, #84]	; 0x54
 8000954:	9305      	str	r3, [sp, #20]
  (void)tmpreg;
 8000956:	9a15      	ldr	r2, [sp, #84]	; 0x54
  return ((uint32_t)((SCB->AIRCR & SCB_AIRCR_PRIGROUP_Msk) >> SCB_AIRCR_PRIGROUP_Pos));
 8000958:	68fa      	ldr	r2, [r7, #12]
    NVIC->IP[((uint32_t)IRQn)]               = (uint8_t)((priority << (8U - __NVIC_PRIO_BITS)) & (uint32_t)0xFFUL);
 800095a:	f888 431d 	strb.w	r4, [r8, #797]	; 0x31d
    NVIC->ISER[(((uint32_t)IRQn) >> 5UL)] = (uint32_t)(1UL << (((uint32_t)IRQn) & 0x1FUL));
 800095e:	f8c8 c000 	str.w	ip, [r8]
	TIM_InitStruct.Autoreload = 749;											// default setting 200us/div
 8000962:	f8cd e0b8 	str.w	lr, [sp, #184]	; 0xb8
	LL_TIM_Init(TIM3, &TIM_InitStruct);
 8000966:	f001 ff41 	bl	80027ec <LL_TIM_Init>
  CLEAR_BIT(TIMx->CR1, TIM_CR1_ARPE);
 800096a:	f8d9 2000 	ldr.w	r2, [r9]
	LL_TIM_OC_InitTypeDef TIM_OC_InitStruct = {0};
 800096e:	4621      	mov	r1, r4
 8000970:	f022 0280 	bic.w	r2, r2, #128	; 0x80
 8000974:	f8c9 2000 	str.w	r2, [r9]
  MODIFY_REG(TIMx->SMCR, TIM_SMCR_SMS | TIM_SMCR_ECE, ClockSource);
 8000978:	f8d9 2008 	ldr.w	r2, [r9, #8]
 800097c:	a82c      	add	r0, sp, #176	; 0xb0
 800097e:	f422 4280 	bic.w	r2, r2, #16384	; 0x4000
 8000982:	f022 0207 	bic.w	r2, r2, #7
 8000986:	f8c9 2008 	str.w	r2, [r9, #8]
 800098a:	2220      	movs	r2, #32
  MODIFY_REG(TIMx->CR2, TIM_CR2_MMS, TimerSynchronization);
 800098c:	f8d9 c004 	ldr.w	ip, [r9, #4]
	TIM_OC_InitStruct.CompareValue = 640;
 8000990:	f44f 7720 	mov.w	r7, #640	; 0x280
 8000994:	f02c 0c70 	bic.w	ip, ip, #112	; 0x70
 8000998:	ea4c 0c02 	orr.w	ip, ip, r2
 800099c:	f8c9 c004 	str.w	ip, [r9, #4]
  CLEAR_BIT(TIMx->SMCR, TIM_SMCR_MSM);
 80009a0:	f8d9 c008 	ldr.w	ip, [r9, #8]
 80009a4:	f02c 0c80 	bic.w	ip, ip, #128	; 0x80
 80009a8:	f8c9 c008 	str.w	ip, [r9, #8]
	LL_TIM_InitTypeDef TIM_InitStruct = {0};
 80009ac:	e9cd 4422 	strd	r4, r4, [sp, #136]	; 0x88
 80009b0:	e9cd 4424 	strd	r4, r4, [sp, #144]	; 0x90
 80009b4:	9426      	str	r4, [sp, #152]	; 0x98
	LL_TIM_OC_InitTypeDef TIM_OC_InitStruct = {0};
 80009b6:	f002 f882 	bl	8002abe <memset>
	LL_GPIO_InitTypeDef GPIO_InitStruct = {0};
 80009ba:	e9cd 442a 	strd	r4, r4, [sp, #168]	; 0xa8
  SET_BIT(RCC->APB1ENR, Periphs);
 80009be:	69ea      	ldr	r2, [r5, #28]
	GPIO_InitStruct.Pin = LL_GPIO_PIN_8;
 80009c0:	4b0d      	ldr	r3, [pc, #52]	; (80009f8 <main+0x74c>)
 80009c2:	f042 0204 	orr.w	r2, r2, #4
 80009c6:	61ea      	str	r2, [r5, #28]
  tmpreg = READ_BIT(RCC->APB1ENR, Periphs);
 80009c8:	69ea      	ldr	r2, [r5, #28]
	LL_GPIO_Init(GPIOB, &GPIO_InitStruct);
 80009ca:	a827      	add	r0, sp, #156	; 0x9c
 80009cc:	e01a      	b.n	8000a04 <main+0x758>
 80009ce:	bf00      	nop
 80009d0:	40020008 	.word	0x40020008
 80009d4:	4001242c 	.word	0x4001242c
 80009d8:	40012800 	.word	0x40012800
 80009dc:	4001282c 	.word	0x4001282c
 80009e0:	04a000a0 	.word	0x04a000a0
 80009e4:	40010c00 	.word	0x40010c00
 80009e8:	40003800 	.word	0x40003800
 80009ec:	e000ed00 	.word	0xe000ed00
 80009f0:	40000800 	.word	0x40000800
 80009f4:	40000818 	.word	0x40000818
 80009f8:	04010001 	.word	0x04010001
 80009fc:	40012400 	.word	0x40012400
 8000a00:	4001280c 	.word	0x4001280c
 8000a04:	f002 0204 	and.w	r2, r2, #4
 8000a08:	9213      	str	r2, [sp, #76]	; 0x4c
  (void)tmpreg;
 8000a0a:	9a13      	ldr	r2, [sp, #76]	; 0x4c
  SET_BIT(RCC->APB2ENR, Periphs);
 8000a0c:	69aa      	ldr	r2, [r5, #24]
 8000a0e:	4601      	mov	r1, r0
 8000a10:	f042 0208 	orr.w	r2, r2, #8
 8000a14:	61aa      	str	r2, [r5, #24]
  tmpreg = READ_BIT(RCC->APB2ENR, Periphs);
 8000a16:	69aa      	ldr	r2, [r5, #24]
	GPIO_InitStruct.Pin = LL_GPIO_PIN_8;
 8000a18:	9327      	str	r3, [sp, #156]	; 0x9c
	GPIO_InitStruct.Mode = LL_GPIO_MODE_ALTERNATE;
 8000a1a:	2309      	movs	r3, #9
 8000a1c:	f002 0208 	and.w	r2, r2, #8
 8000a20:	9214      	str	r2, [sp, #80]	; 0x50
	LL_GPIO_Init(GPIOB, &GPIO_InitStruct);
 8000a22:	486a      	ldr	r0, [pc, #424]	; (8000bcc <main+0x920>)
	GPIO_InitStruct.Speed = LL_GPIO_SPEED_FREQ_LOW;
 8000a24:	e9cd 3b28 	strd	r3, fp, [sp, #160]	; 0xa0
  (void)tmpreg;
 8000a28:	9a14      	ldr	r2, [sp, #80]	; 0x50
	LL_GPIO_Init(GPIOB, &GPIO_InitStruct);
 8000a2a:	f001 fe27 	bl	800267c <LL_GPIO_Init>
	TIM_InitStruct.Autoreload = 1280;
 8000a2e:	f44f 62a0 	mov.w	r2, #1280	; 0x500
	LL_TIM_Init(TIM4, &TIM_InitStruct);
 8000a32:	a922      	add	r1, sp, #136	; 0x88
 8000a34:	4630      	mov	r0, r6
	TIM_InitStruct.Autoreload = 1280;
 8000a36:	e9cd 2424 	strd	r2, r4, [sp, #144]	; 0x90
	TIM_InitStruct.Prescaler = 0;
 8000a3a:	f8ad 4088 	strh.w	r4, [sp, #136]	; 0x88
	TIM_InitStruct.CounterMode = LL_TIM_COUNTERMODE_UP;
 8000a3e:	9423      	str	r4, [sp, #140]	; 0x8c
	LL_TIM_Init(TIM4, &TIM_InitStruct);
 8000a40:	f001 fed4 	bl	80027ec <LL_TIM_Init>
	TIM_OC_InitStruct.OCMode = LL_TIM_OCMODE_PWM2;
 8000a44:	f04f 0c70 	mov.w	ip, #112	; 0x70
  CLEAR_BIT(TIMx->CR1, TIM_CR1_ARPE);
 8000a48:	6831      	ldr	r1, [r6, #0]
  SET_BIT(*pReg, (TIM_CCMR1_OC1PE << SHIFT_TAB_OCxx[iChannel]));
 8000a4a:	9b05      	ldr	r3, [sp, #20]
  CLEAR_BIT(TIMx->CR1, TIM_CR1_ARPE);
 8000a4c:	f021 0180 	bic.w	r1, r1, #128	; 0x80
 8000a50:	6031      	str	r1, [r6, #0]
  MODIFY_REG(TIMx->SMCR, TIM_SMCR_SMS | TIM_SMCR_ECE, ClockSource);
 8000a52:	68b0      	ldr	r0, [r6, #8]
	LL_TIM_OC_Init(TIM4, LL_TIM_CHANNEL_CH3, &TIM_OC_InitStruct);
 8000a54:	aa2c      	add	r2, sp, #176	; 0xb0
 8000a56:	f420 4080 	bic.w	r0, r0, #16384	; 0x4000
 8000a5a:	f020 0007 	bic.w	r0, r0, #7
 8000a5e:	60b0      	str	r0, [r6, #8]
  SET_BIT(*pReg, (TIM_CCMR1_OC1PE << SHIFT_TAB_OCxx[iChannel]));
 8000a60:	685d      	ldr	r5, [r3, #4]
 8000a62:	f44f 7180 	mov.w	r1, #256	; 0x100
 8000a66:	f045 0508 	orr.w	r5, r5, #8
 8000a6a:	605d      	str	r5, [r3, #4]
 8000a6c:	4630      	mov	r0, r6
	TIM_OC_InitStruct.OCNState = LL_TIM_OCSTATE_DISABLE;
 8000a6e:	e9cd 442d 	strd	r4, r4, [sp, #180]	; 0xb4
	TIM_OC_InitStruct.OCPolarity = LL_TIM_OCPOLARITY_HIGH;
 8000a72:	9430      	str	r4, [sp, #192]	; 0xc0
	TIM_OC_InitStruct.OCMode = LL_TIM_OCMODE_PWM2;
 8000a74:	f8cd c0b0 	str.w	ip, [sp, #176]	; 0xb0
	TIM_OC_InitStruct.CompareValue = 640;
 8000a78:	972f      	str	r7, [sp, #188]	; 0xbc
	LL_TIM_OC_Init(TIM4, LL_TIM_CHANNEL_CH3, &TIM_OC_InitStruct);
 8000a7a:	f001 feed 	bl	8002858 <LL_TIM_OC_Init>
  * @param  ADCx ADC instance
  * @retval 0: calibration complete, 1: calibration in progress.
  */
__STATIC_INLINE uint32_t LL_ADC_IsCalibrationOnGoing(ADC_TypeDef *ADCx)
{
  return (READ_BIT(ADCx->CR2, ADC_CR2_CAL) == (ADC_CR2_CAL));
 8000a7e:	4651      	mov	r1, sl
  CLEAR_BIT(*pReg, (TIM_CCMR1_OC1FE << SHIFT_TAB_OCxx[iChannel]));
 8000a80:	9b05      	ldr	r3, [sp, #20]
 8000a82:	685a      	ldr	r2, [r3, #4]
 8000a84:	f022 0204 	bic.w	r2, r2, #4
 8000a88:	605a      	str	r2, [r3, #4]
  MODIFY_REG(TIMx->CR2, TIM_CR2_MMS, TimerSynchronization);
 8000a8a:	6873      	ldr	r3, [r6, #4]
 8000a8c:	f023 0370 	bic.w	r3, r3, #112	; 0x70
 8000a90:	6073      	str	r3, [r6, #4]
  CLEAR_BIT(TIMx->SMCR, TIM_SMCR_MSM);
 8000a92:	68b3      	ldr	r3, [r6, #8]
 8000a94:	f023 0380 	bic.w	r3, r3, #128	; 0x80
 8000a98:	60b3      	str	r3, [r6, #8]
  SET_BIT(ADCx->CR2, ADC_CR2_ADON);
 8000a9a:	f8da 3008 	ldr.w	r3, [sl, #8]
 8000a9e:	f043 0301 	orr.w	r3, r3, #1
 8000aa2:	f8ca 3008 	str.w	r3, [sl, #8]
  SET_BIT(ADCx->CR2, ADC_CR2_CAL);
 8000aa6:	f8da 3008 	ldr.w	r3, [sl, #8]
 8000aaa:	f043 0304 	orr.w	r3, r3, #4
 8000aae:	f8ca 3008 	str.w	r3, [sl, #8]
  return (READ_BIT(ADCx->CR2, ADC_CR2_CAL) == (ADC_CR2_CAL));
 8000ab2:	688b      	ldr	r3, [r1, #8]
	while (LL_ADC_IsCalibrationOnGoing(ADC1));
 8000ab4:	075b      	lsls	r3, r3, #29
 8000ab6:	d4fc      	bmi.n	8000ab2 <main+0x806>
	LL_mDelay(10);
 8000ab8:	200a      	movs	r0, #10
 8000aba:	f001 ffb9 	bl	8002a30 <LL_mDelay>
  SET_BIT(ADCx->CR2, ADC_CR2_ADON);
 8000abe:	4b44      	ldr	r3, [pc, #272]	; (8000bd0 <main+0x924>)
  return (READ_BIT(ADCx->CR2, ADC_CR2_CAL) == (ADC_CR2_CAL));
 8000ac0:	461e      	mov	r6, r3
  SET_BIT(ADCx->CR2, ADC_CR2_ADON);
 8000ac2:	689a      	ldr	r2, [r3, #8]
 8000ac4:	f042 0201 	orr.w	r2, r2, #1
 8000ac8:	609a      	str	r2, [r3, #8]
  SET_BIT(ADCx->CR2, ADC_CR2_CAL);
 8000aca:	689a      	ldr	r2, [r3, #8]
 8000acc:	f042 0204 	orr.w	r2, r2, #4
 8000ad0:	609a      	str	r2, [r3, #8]
  return (READ_BIT(ADCx->CR2, ADC_CR2_CAL) == (ADC_CR2_CAL));
 8000ad2:	68b4      	ldr	r4, [r6, #8]
	while (LL_ADC_IsCalibrationOnGoing(ADC2));
 8000ad4:	f014 0404 	ands.w	r4, r4, #4
 8000ad8:	d1fb      	bne.n	8000ad2 <main+0x826>
	LL_mDelay(10);
 8000ada:	200a      	movs	r0, #10
 8000adc:	f001 ffa8 	bl	8002a30 <LL_mDelay>
  SET_BIT(TIMx->CR1, TIM_CR1_CEN);
 8000ae0:	f04f 4180 	mov.w	r1, #1073741824	; 0x40000000
	previous_trigger_point = 1;
 8000ae4:	2001      	movs	r0, #1
 8000ae6:	680a      	ldr	r2, [r1, #0]
  SET_BIT(TIMx->CCER, Channels);
 8000ae8:	4b3a      	ldr	r3, [pc, #232]	; (8000bd4 <main+0x928>)
  SET_BIT(TIMx->CR1, TIM_CR1_CEN);
 8000aea:	f042 0201 	orr.w	r2, r2, #1
 8000aee:	600a      	str	r2, [r1, #0]
  SET_BIT(TIMx->CCER, Channels);
 8000af0:	6a1a      	ldr	r2, [r3, #32]
  * @param  SPIx SPI Instance
  * @retval None
  */
__STATIC_INLINE void LL_SPI_Enable(SPI_TypeDef *SPIx)
{
  SET_BIT(SPIx->CR1, SPI_CR1_SPE);
 8000af2:	f501 5160 	add.w	r1, r1, #14336	; 0x3800
 8000af6:	f442 7280 	orr.w	r2, r2, #256	; 0x100
 8000afa:	621a      	str	r2, [r3, #32]
 8000afc:	6a1a      	ldr	r2, [r3, #32]
	timebase = 9;																//timebase on 200us/div
 8000afe:	2509      	movs	r5, #9
 8000b00:	f442 5280 	orr.w	r2, r2, #4096	; 0x1000
 8000b04:	621a      	str	r2, [r3, #32]
  SET_BIT(TIMx->CR1, TIM_CR1_CEN);
 8000b06:	681a      	ldr	r2, [r3, #0]
	previous_trigger_point = 1;
 8000b08:	900b      	str	r0, [sp, #44]	; 0x2c
 8000b0a:	4302      	orrs	r2, r0
 8000b0c:	601a      	str	r2, [r3, #0]
 8000b0e:	680b      	ldr	r3, [r1, #0]
	attenuator_ch1_color = ST7735_YELLOW;
 8000b10:	f64f 7be0 	movw	fp, #65504	; 0xffe0
 8000b14:	f043 0340 	orr.w	r3, r3, #64	; 0x40
 8000b18:	600b      	str	r3, [r1, #0]
	ST7735_Init();
 8000b1a:	f000 fc3f 	bl	800139c <ST7735_Init>
	ST7735_FillScreen(ST7735_BLACK);
 8000b1e:	4620      	mov	r0, r4
 8000b20:	f001 f90c 	bl	8001d3c <ST7735_FillScreen>
	virtual_ground = 64;														//0V
 8000b24:	2040      	movs	r0, #64	; 0x40
  WRITE_REG(TIMx->ARR, AutoReload);
 8000b26:	f240 2ced 	movw	ip, #749	; 0x2ed
	attenuator_ch2_color = ST7735_WHITE;
 8000b2a:	f64f 71ff 	movw	r1, #65535	; 0xffff
	timebase = 9;																//timebase on 200us/div
 8000b2e:	4f2a      	ldr	r7, [pc, #168]	; (8000bd8 <main+0x92c>)
  WRITE_REG(TIMx->PSC, Prescaler);
 8000b30:	4a2a      	ldr	r2, [pc, #168]	; (8000bdc <main+0x930>)
 8000b32:	703d      	strb	r5, [r7, #0]
	function_button_encoder1 = TIMEBASE_MODE;
 8000b34:	f8df e0e0 	ldr.w	lr, [pc, #224]	; 8000c18 <main+0x96c>
	conversion_ready = 0;														//wait for conversion to complete
 8000b38:	4d29      	ldr	r5, [pc, #164]	; (8000be0 <main+0x934>)
	attenuator_ch1 = 0;															//2V/div
 8000b3a:	4f2a      	ldr	r7, [pc, #168]	; (8000be4 <main+0x938>)
	function_button_encoder2 = ATTENUATOR1_MODE;
 8000b3c:	f8df 80dc 	ldr.w	r8, [pc, #220]	; 8000c1c <main+0x970>
	previous_trigger_level = 64;
 8000b40:	900f      	str	r0, [sp, #60]	; 0x3c
 8000b42:	6294      	str	r4, [r2, #40]	; 0x28
  WRITE_REG(TIMx->ARR, AutoReload);
 8000b44:	f8c2 c02c 	str.w	ip, [r2, #44]	; 0x2c
	conversion_ready = 0;														//wait for conversion to complete
 8000b48:	702c      	strb	r4, [r5, #0]
	function_button_encoder1 = TIMEBASE_MODE;
 8000b4a:	f88e 4000 	strb.w	r4, [lr]
	function_button_encoder2 = ATTENUATOR1_MODE;
 8000b4e:	f888 4000 	strb.w	r4, [r8]
	attenuator_ch1 = 0;															//2V/div
 8000b52:	703c      	strb	r4, [r7, #0]
	attenuator_ch2 = 0;
 8000b54:	4f24      	ldr	r7, [pc, #144]	; (8000be8 <main+0x93c>)
	virtual_ground = 64;														//0V
 8000b56:	f8df 90c8 	ldr.w	r9, [pc, #200]	; 8000c20 <main+0x974>
	attenuator_ch2 = 0;
 8000b5a:	703c      	strb	r4, [r7, #0]
	trigger_level = 64;															//middle of screen
 8000b5c:	4f23      	ldr	r7, [pc, #140]	; (8000bec <main+0x940>)
	virtual_ground = 64;														//0V
 8000b5e:	f8a9 0000 	strh.w	r0, [r9]
	trigger_level = 64;															//middle of screen
 8000b62:	8038      	strh	r0, [r7, #0]
	attenuator_ch1_color = ST7735_YELLOW;
 8000b64:	4822      	ldr	r0, [pc, #136]	; (8000bf0 <main+0x944>)
  * @param  PeriphAddress Between Min_Data = 0 and Max_Data = 0xFFFFFFFF
  * @retval None
  */
__STATIC_INLINE void LL_DMA_SetPeriphAddress(DMA_TypeDef *DMAx, uint32_t Channel, uint32_t PeriphAddress)
{
  WRITE_REG(((DMA_Channel_TypeDef *)((uint32_t)((uint32_t)DMAx + CHANNEL_OFFSET_TAB[Channel - 1U])))->CPAR, PeriphAddress);
 8000b66:	4b23      	ldr	r3, [pc, #140]	; (8000bf4 <main+0x948>)
 8000b68:	f8a0 b000 	strh.w	fp, [r0]
	attenuator_ch2_color = ST7735_WHITE;
 8000b6c:	4822      	ldr	r0, [pc, #136]	; (8000bf8 <main+0x94c>)
				if (trace_1_buffer[i] > 9999) trace_1_buffer[i] = 0;			// >9999 means negative
 8000b6e:	46a2      	mov	sl, r4
	attenuator_ch2_color = ST7735_WHITE;
 8000b70:	8001      	strh	r1, [r0, #0]
	timebase_color = ST7735_YELLOW;
 8000b72:	4822      	ldr	r0, [pc, #136]	; (8000bfc <main+0x950>)
	LL_DMA_SetMemoryAddress(DMA1, LL_DMA_CHANNEL_1, (uint32_t) &adc_buffer);
 8000b74:	4c22      	ldr	r4, [pc, #136]	; (8000c00 <main+0x954>)
	timebase_color = ST7735_YELLOW;
 8000b76:	f8a0 b000 	strh.w	fp, [r0]
	trigger_level_color = ST7735_WHITE;
 8000b7a:	4822      	ldr	r0, [pc, #136]	; (8000c04 <main+0x958>)
 8000b7c:	4d22      	ldr	r5, [pc, #136]	; (8000c08 <main+0x95c>)
 8000b7e:	8001      	strh	r1, [r0, #0]
	trigger_channel_color = ST7735_WHITE;
 8000b80:	4822      	ldr	r0, [pc, #136]	; (8000c0c <main+0x960>)
 8000b82:	8001      	strh	r1, [r0, #0]
	virtual_ground_color = ST7735_WHITE;
 8000b84:	4822      	ldr	r0, [pc, #136]	; (8000c10 <main+0x964>)
 8000b86:	8001      	strh	r1, [r0, #0]
 8000b88:	609d      	str	r5, [r3, #8]
  WRITE_REG(((DMA_Channel_TypeDef *)((uint32_t)((uint32_t)DMAx + CHANNEL_OFFSET_TAB[Channel - 1U])))->CMAR, MemoryAddress);
 8000b8a:	60dc      	str	r4, [r3, #12]
  MODIFY_REG(((DMA_Channel_TypeDef *)((uint32_t)((uint32_t)DMAx + CHANNEL_OFFSET_TAB[Channel - 1U])))->CNDTR,
 8000b8c:	6859      	ldr	r1, [r3, #4]
  * @param  ADCx ADC instance
  * @retval None
  */
__STATIC_INLINE void LL_ADC_REG_StartConversionExtTrig(ADC_TypeDef *ADCx, uint32_t ExternalTriggerEdge)
{
  SET_BIT(ADCx->CR2, ExternalTriggerEdge);
 8000b8e:	4821      	ldr	r0, [pc, #132]	; (8000c14 <main+0x968>)
 8000b90:	0c09      	lsrs	r1, r1, #16
 8000b92:	0409      	lsls	r1, r1, #16
 8000b94:	f441 71a0 	orr.w	r1, r1, #320	; 0x140
 8000b98:	6059      	str	r1, [r3, #4]
  *         @arg @ref LL_DMA_CHANNEL_7
  * @retval None
  */
__STATIC_INLINE void LL_DMA_EnableIT_TC(DMA_TypeDef *DMAx, uint32_t Channel)
{
  SET_BIT(((DMA_Channel_TypeDef *)((uint32_t)((uint32_t)DMAx + CHANNEL_OFFSET_TAB[Channel - 1U])))->CCR, DMA_CCR_TCIE);
 8000b9a:	6819      	ldr	r1, [r3, #0]
 8000b9c:	f204 44fc 	addw	r4, r4, #1276	; 0x4fc
 8000ba0:	f041 0102 	orr.w	r1, r1, #2
 8000ba4:	6019      	str	r1, [r3, #0]
  SET_BIT(((DMA_Channel_TypeDef *)((uint32_t)((uint32_t)DMAx + CHANNEL_OFFSET_TAB[Channel - 1U])))->CCR, DMA_CCR_EN);
 8000ba6:	6819      	ldr	r1, [r3, #0]
 8000ba8:	940d      	str	r4, [sp, #52]	; 0x34
 8000baa:	f041 0101 	orr.w	r1, r1, #1
 8000bae:	6019      	str	r1, [r3, #0]
 8000bb0:	6883      	ldr	r3, [r0, #8]
 8000bb2:	f443 1380 	orr.w	r3, r3, #1048576	; 0x100000
 8000bb6:	6083      	str	r3, [r0, #8]
 8000bb8:	68b3      	ldr	r3, [r6, #8]
 8000bba:	f443 1380 	orr.w	r3, r3, #1048576	; 0x100000
 8000bbe:	60b3      	str	r3, [r6, #8]
  SET_BIT(TIMx->CR1, TIM_CR1_CEN);
 8000bc0:	6813      	ldr	r3, [r2, #0]
 8000bc2:	f043 0301 	orr.w	r3, r3, #1
 8000bc6:	6013      	str	r3, [r2, #0]
 8000bc8:	e06b      	b.n	8000ca2 <main+0x9f6>
 8000bca:	bf00      	nop
 8000bcc:	40010c00 	.word	0x40010c00
 8000bd0:	40012800 	.word	0x40012800
 8000bd4:	40000800 	.word	0x40000800
 8000bd8:	20000cce 	.word	0x20000cce
 8000bdc:	40000400 	.word	0x40000400
 8000be0:	20000ccf 	.word	0x20000ccf
 8000be4:	200002b8 	.word	0x200002b8
 8000be8:	200007c6 	.word	0x200007c6
 8000bec:	200007c8 	.word	0x200007c8
 8000bf0:	200002b4 	.word	0x200002b4
 8000bf4:	40020008 	.word	0x40020008
 8000bf8:	20000ccc 	.word	0x20000ccc
 8000bfc:	20000f50 	.word	0x20000f50
 8000c00:	200007cc 	.word	0x200007cc
 8000c04:	200007c4 	.word	0x200007c4
 8000c08:	4001244c 	.word	0x4001244c
 8000c0c:	200002b6 	.word	0x200002b6
 8000c10:	200002ba 	.word	0x200002ba
 8000c14:	40012400 	.word	0x40012400
 8000c18:	200007c7 	.word	0x200007c7
 8000c1c:	200007c0 	.word	0x200007c0
 8000c20:	200007c2 	.word	0x200007c2
		if (trigger_channel == 0) ST7735_WriteString(120, 106, "T_CH1", Font_7x10, trigger_channel_color, ST7735_BLACK);
 8000c24:	4a89      	ldr	r2, [pc, #548]	; (8000e4c <main+0xba0>)
 8000c26:	488a      	ldr	r0, [pc, #552]	; (8000e50 <main+0xba4>)
 8000c28:	8811      	ldrh	r1, [r2, #0]
 8000c2a:	6842      	ldr	r2, [r0, #4]
 8000c2c:	e9cd 1301 	strd	r1, r3, [sp, #4]
 8000c30:	9200      	str	r2, [sp, #0]
 8000c32:	6803      	ldr	r3, [r0, #0]
 8000c34:	4a87      	ldr	r2, [pc, #540]	; (8000e54 <main+0xba8>)
 8000c36:	216a      	movs	r1, #106	; 0x6a
 8000c38:	2078      	movs	r0, #120	; 0x78
 8000c3a:	f000 ff1d 	bl	8001a78 <ST7735_WriteString>
		if (attenuator_ch2 == 0)      ST7735_WriteString(1, 117, "CH2 2V   ", Font_7x10, attenuator_ch2_color, ST7735_BLACK);
 8000c3e:	4b86      	ldr	r3, [pc, #536]	; (8000e58 <main+0xbac>)
 8000c40:	781b      	ldrb	r3, [r3, #0]
 8000c42:	b25b      	sxtb	r3, r3
 8000c44:	2b00      	cmp	r3, #0
 8000c46:	f000 80ad 	beq.w	8000da4 <main+0xaf8>
		else if (attenuator_ch2 == 1) ST7735_WriteString(1, 117, "CH2 1V   ", Font_7x10, attenuator_ch2_color, ST7735_BLACK);
 8000c4a:	4b83      	ldr	r3, [pc, #524]	; (8000e58 <main+0xbac>)
 8000c4c:	4980      	ldr	r1, [pc, #512]	; (8000e50 <main+0xba4>)
 8000c4e:	7818      	ldrb	r0, [r3, #0]
 8000c50:	4b82      	ldr	r3, [pc, #520]	; (8000e5c <main+0xbb0>)
 8000c52:	b240      	sxtb	r0, r0
 8000c54:	881a      	ldrh	r2, [r3, #0]
 8000c56:	684b      	ldr	r3, [r1, #4]
 8000c58:	e9cd 2a01 	strd	r2, sl, [sp, #4]
 8000c5c:	9300      	str	r3, [sp, #0]
 8000c5e:	2801      	cmp	r0, #1
 8000c60:	680b      	ldr	r3, [r1, #0]
 8000c62:	f000 820e 	beq.w	8001082 <main+0xdd6>
		else                          ST7735_WriteString(1, 117, "CH2 500mV", Font_7x10, attenuator_ch2_color, ST7735_BLACK);
 8000c66:	4a7e      	ldr	r2, [pc, #504]	; (8000e60 <main+0xbb4>)
 8000c68:	2175      	movs	r1, #117	; 0x75
 8000c6a:	2001      	movs	r0, #1
 8000c6c:	f000 ff04 	bl	8001a78 <ST7735_WriteString>
		ST7735_WriteString(75, 117, "GND", Font_7x10, virtual_ground_color, ST7735_BLACK);
 8000c70:	4b7c      	ldr	r3, [pc, #496]	; (8000e64 <main+0xbb8>)
 8000c72:	4c77      	ldr	r4, [pc, #476]	; (8000e50 <main+0xba4>)
 8000c74:	881a      	ldrh	r2, [r3, #0]
 8000c76:	6863      	ldr	r3, [r4, #4]
 8000c78:	e9cd 2a01 	strd	r2, sl, [sp, #4]
 8000c7c:	9300      	str	r3, [sp, #0]
 8000c7e:	6823      	ldr	r3, [r4, #0]
 8000c80:	4a79      	ldr	r2, [pc, #484]	; (8000e68 <main+0xbbc>)
 8000c82:	2175      	movs	r1, #117	; 0x75
 8000c84:	204b      	movs	r0, #75	; 0x4b
 8000c86:	f000 fef7 	bl	8001a78 <ST7735_WriteString>
		ST7735_WriteString(120, 117, "T_LVL", Font_7x10, trigger_level_color, ST7735_BLACK);
 8000c8a:	4b78      	ldr	r3, [pc, #480]	; (8000e6c <main+0xbc0>)
 8000c8c:	2175      	movs	r1, #117	; 0x75
 8000c8e:	881a      	ldrh	r2, [r3, #0]
 8000c90:	6863      	ldr	r3, [r4, #4]
 8000c92:	e9cd 2a01 	strd	r2, sl, [sp, #4]
 8000c96:	9300      	str	r3, [sp, #0]
 8000c98:	6823      	ldr	r3, [r4, #0]
 8000c9a:	4a75      	ldr	r2, [pc, #468]	; (8000e70 <main+0xbc4>)
 8000c9c:	2078      	movs	r0, #120	; 0x78
 8000c9e:	f000 feeb 	bl	8001a78 <ST7735_WriteString>
		if (conversion_ready == 1)												//ADC's are ready
 8000ca2:	4b74      	ldr	r3, [pc, #464]	; (8000e74 <main+0xbc8>)
 8000ca4:	781b      	ldrb	r3, [r3, #0]
 8000ca6:	2b01      	cmp	r3, #1
 8000ca8:	f000 808a 	beq.w	8000dc0 <main+0xb14>
		if (attenuator_ch1 == 0)      ST7735_WriteString(1, 106, "CH1 2V   ", Font_7x10, attenuator_ch1_color, ST7735_BLACK);
 8000cac:	4b72      	ldr	r3, [pc, #456]	; (8000e78 <main+0xbcc>)
 8000cae:	781b      	ldrb	r3, [r3, #0]
 8000cb0:	b25b      	sxtb	r3, r3
 8000cb2:	2b00      	cmp	r3, #0
 8000cb4:	f000 81bf 	beq.w	8001036 <main+0xd8a>
		else if (attenuator_ch1 == 1) ST7735_WriteString(1, 106, "CH1 1V   ", Font_7x10, attenuator_ch1_color, ST7735_BLACK);
 8000cb8:	4b6f      	ldr	r3, [pc, #444]	; (8000e78 <main+0xbcc>)
 8000cba:	4965      	ldr	r1, [pc, #404]	; (8000e50 <main+0xba4>)
 8000cbc:	7818      	ldrb	r0, [r3, #0]
 8000cbe:	4b6f      	ldr	r3, [pc, #444]	; (8000e7c <main+0xbd0>)
 8000cc0:	b240      	sxtb	r0, r0
 8000cc2:	881a      	ldrh	r2, [r3, #0]
 8000cc4:	684b      	ldr	r3, [r1, #4]
 8000cc6:	e9cd 2a01 	strd	r2, sl, [sp, #4]
 8000cca:	9300      	str	r3, [sp, #0]
 8000ccc:	2801      	cmp	r0, #1
 8000cce:	680b      	ldr	r3, [r1, #0]
 8000cd0:	f000 81d2 	beq.w	8001078 <main+0xdcc>
		else                          ST7735_WriteString(1, 106, "CH1 500mV", Font_7x10, attenuator_ch1_color, ST7735_BLACK);
 8000cd4:	4a6a      	ldr	r2, [pc, #424]	; (8000e80 <main+0xbd4>)
 8000cd6:	216a      	movs	r1, #106	; 0x6a
 8000cd8:	2001      	movs	r0, #1
 8000cda:	f000 fecd 	bl	8001a78 <ST7735_WriteString>
		if (timebase == 0)       ST7735_WriteString(75, 106, "200ms", Font_7x10, timebase_color, ST7735_BLACK);
 8000cde:	4b69      	ldr	r3, [pc, #420]	; (8000e84 <main+0xbd8>)
 8000ce0:	781b      	ldrb	r3, [r3, #0]
 8000ce2:	b25b      	sxtb	r3, r3
 8000ce4:	2b00      	cmp	r3, #0
 8000ce6:	f000 81b9 	beq.w	800105c <main+0xdb0>
		else if (timebase == 1)  ST7735_WriteString(75, 106, "100ms", Font_7x10, timebase_color, ST7735_BLACK);
 8000cea:	4b66      	ldr	r3, [pc, #408]	; (8000e84 <main+0xbd8>)
 8000cec:	781b      	ldrb	r3, [r3, #0]
 8000cee:	2b01      	cmp	r3, #1
 8000cf0:	f000 81cc 	beq.w	800108c <main+0xde0>
		else if (timebase == 2)  ST7735_WriteString(75, 106, "50ms ", Font_7x10, timebase_color, ST7735_BLACK);
 8000cf4:	4b63      	ldr	r3, [pc, #396]	; (8000e84 <main+0xbd8>)
 8000cf6:	781b      	ldrb	r3, [r3, #0]
 8000cf8:	2b02      	cmp	r3, #2
 8000cfa:	f000 81ea 	beq.w	80010d2 <main+0xe26>
		else if (timebase == 3)  ST7735_WriteString(75, 106, "20ms ", Font_7x10, timebase_color, ST7735_BLACK);
 8000cfe:	4b61      	ldr	r3, [pc, #388]	; (8000e84 <main+0xbd8>)
 8000d00:	781b      	ldrb	r3, [r3, #0]
 8000d02:	2b03      	cmp	r3, #3
 8000d04:	f000 81f3 	beq.w	80010ee <main+0xe42>
		else if (timebase == 4)  ST7735_WriteString(75, 106, "10ms ", Font_7x10, timebase_color, ST7735_BLACK);
 8000d08:	4b5e      	ldr	r3, [pc, #376]	; (8000e84 <main+0xbd8>)
 8000d0a:	781b      	ldrb	r3, [r3, #0]
 8000d0c:	2b04      	cmp	r3, #4
 8000d0e:	f000 81fc 	beq.w	800110a <main+0xe5e>
		else if (timebase == 5)  ST7735_WriteString(75, 106, "5ms  ", Font_7x10, timebase_color, ST7735_BLACK);
 8000d12:	4b5c      	ldr	r3, [pc, #368]	; (8000e84 <main+0xbd8>)
 8000d14:	781b      	ldrb	r3, [r3, #0]
 8000d16:	2b05      	cmp	r3, #5
 8000d18:	f000 8205 	beq.w	8001126 <main+0xe7a>
		else if (timebase == 6)  ST7735_WriteString(75, 106, "2ms  ", Font_7x10, timebase_color, ST7735_BLACK);
 8000d1c:	4b59      	ldr	r3, [pc, #356]	; (8000e84 <main+0xbd8>)
 8000d1e:	781b      	ldrb	r3, [r3, #0]
 8000d20:	2b06      	cmp	r3, #6
 8000d22:	f000 820e 	beq.w	8001142 <main+0xe96>
		else if (timebase == 7)  ST7735_WriteString(75, 106, "1ms  ", Font_7x10, timebase_color, ST7735_BLACK);
 8000d26:	4b57      	ldr	r3, [pc, #348]	; (8000e84 <main+0xbd8>)
 8000d28:	781b      	ldrb	r3, [r3, #0]
 8000d2a:	2b07      	cmp	r3, #7
 8000d2c:	f000 824a 	beq.w	80011c4 <main+0xf18>
		else if (timebase == 8)  ST7735_WriteString(75, 106, "500us", Font_7x10, timebase_color, ST7735_BLACK);
 8000d30:	4b54      	ldr	r3, [pc, #336]	; (8000e84 <main+0xbd8>)
 8000d32:	781b      	ldrb	r3, [r3, #0]
 8000d34:	2b08      	cmp	r3, #8
 8000d36:	f000 8253 	beq.w	80011e0 <main+0xf34>
		else if (timebase == 9)  ST7735_WriteString(75, 106, "200us", Font_7x10, timebase_color, ST7735_BLACK);
 8000d3a:	4b52      	ldr	r3, [pc, #328]	; (8000e84 <main+0xbd8>)
 8000d3c:	781b      	ldrb	r3, [r3, #0]
 8000d3e:	2b09      	cmp	r3, #9
 8000d40:	f000 825c 	beq.w	80011fc <main+0xf50>
		else if (timebase == 10) ST7735_WriteString(75, 106, "100us", Font_7x10, timebase_color, ST7735_BLACK);
 8000d44:	4b4f      	ldr	r3, [pc, #316]	; (8000e84 <main+0xbd8>)
 8000d46:	781b      	ldrb	r3, [r3, #0]
 8000d48:	2b0a      	cmp	r3, #10
 8000d4a:	f000 8265 	beq.w	8001218 <main+0xf6c>
		else if (timebase == 11) ST7735_WriteString(75, 106, "50us ", Font_7x10, timebase_color, ST7735_BLACK);
 8000d4e:	4b4d      	ldr	r3, [pc, #308]	; (8000e84 <main+0xbd8>)
 8000d50:	493f      	ldr	r1, [pc, #252]	; (8000e50 <main+0xba4>)
 8000d52:	781b      	ldrb	r3, [r3, #0]
		else                     ST7735_WriteString(75, 106, "20us ", Font_7x10, timebase_color, ST7735_BLACK);
 8000d54:	204b      	movs	r0, #75	; 0x4b
		else if (timebase == 11) ST7735_WriteString(75, 106, "50us ", Font_7x10, timebase_color, ST7735_BLACK);
 8000d56:	2b0b      	cmp	r3, #11
 8000d58:	4b4b      	ldr	r3, [pc, #300]	; (8000e88 <main+0xbdc>)
 8000d5a:	881a      	ldrh	r2, [r3, #0]
 8000d5c:	684b      	ldr	r3, [r1, #4]
 8000d5e:	e9cd 2a01 	strd	r2, sl, [sp, #4]
 8000d62:	9300      	str	r3, [sp, #0]
 8000d64:	680b      	ldr	r3, [r1, #0]
 8000d66:	bf0c      	ite	eq
 8000d68:	4a48      	ldreq	r2, [pc, #288]	; (8000e8c <main+0xbe0>)
		else                     ST7735_WriteString(75, 106, "20us ", Font_7x10, timebase_color, ST7735_BLACK);
 8000d6a:	4a49      	ldrne	r2, [pc, #292]	; (8000e90 <main+0xbe4>)
 8000d6c:	216a      	movs	r1, #106	; 0x6a
 8000d6e:	f000 fe83 	bl	8001a78 <ST7735_WriteString>
		if (trigger_channel == 0) ST7735_WriteString(120, 106, "T_CH1", Font_7x10, trigger_channel_color, ST7735_BLACK);
 8000d72:	4b48      	ldr	r3, [pc, #288]	; (8000e94 <main+0xbe8>)
 8000d74:	781b      	ldrb	r3, [r3, #0]
 8000d76:	b25b      	sxtb	r3, r3
 8000d78:	2b00      	cmp	r3, #0
 8000d7a:	f43f af53 	beq.w	8000c24 <main+0x978>
		else                      ST7735_WriteString(120, 106, "T_CH2", Font_7x10, trigger_channel_color, ST7735_BLACK);
 8000d7e:	4b33      	ldr	r3, [pc, #204]	; (8000e4c <main+0xba0>)
 8000d80:	4933      	ldr	r1, [pc, #204]	; (8000e50 <main+0xba4>)
 8000d82:	881a      	ldrh	r2, [r3, #0]
 8000d84:	684b      	ldr	r3, [r1, #4]
 8000d86:	e9cd 2a01 	strd	r2, sl, [sp, #4]
 8000d8a:	9300      	str	r3, [sp, #0]
 8000d8c:	680b      	ldr	r3, [r1, #0]
 8000d8e:	4a42      	ldr	r2, [pc, #264]	; (8000e98 <main+0xbec>)
 8000d90:	216a      	movs	r1, #106	; 0x6a
 8000d92:	2078      	movs	r0, #120	; 0x78
 8000d94:	f000 fe70 	bl	8001a78 <ST7735_WriteString>
		if (attenuator_ch2 == 0)      ST7735_WriteString(1, 117, "CH2 2V   ", Font_7x10, attenuator_ch2_color, ST7735_BLACK);
 8000d98:	4b2f      	ldr	r3, [pc, #188]	; (8000e58 <main+0xbac>)
 8000d9a:	781b      	ldrb	r3, [r3, #0]
 8000d9c:	b25b      	sxtb	r3, r3
 8000d9e:	2b00      	cmp	r3, #0
 8000da0:	f47f af53 	bne.w	8000c4a <main+0x99e>
 8000da4:	4a2d      	ldr	r2, [pc, #180]	; (8000e5c <main+0xbb0>)
 8000da6:	482a      	ldr	r0, [pc, #168]	; (8000e50 <main+0xba4>)
 8000da8:	8811      	ldrh	r1, [r2, #0]
 8000daa:	6842      	ldr	r2, [r0, #4]
 8000dac:	e9cd 1301 	strd	r1, r3, [sp, #4]
 8000db0:	9200      	str	r2, [sp, #0]
 8000db2:	6803      	ldr	r3, [r0, #0]
 8000db4:	4a39      	ldr	r2, [pc, #228]	; (8000e9c <main+0xbf0>)
 8000db6:	2175      	movs	r1, #117	; 0x75
 8000db8:	2001      	movs	r0, #1
 8000dba:	f000 fe5d 	bl	8001a78 <ST7735_WriteString>
 8000dbe:	e757      	b.n	8000c70 <main+0x9c4>
				if (trace_1_buffer[i] > 9999) trace_1_buffer[i] = 0;			// >9999 means negative
 8000dc0:	f242 750f 	movw	r5, #9999	; 0x270f
				if (trace_1_buffer[i] > 127) trace_1_buffer[i] = 127;
 8000dc4:	267f      	movs	r6, #127	; 0x7f
 8000dc6:	4c36      	ldr	r4, [pc, #216]	; (8000ea0 <main+0xbf4>)
 8000dc8:	4936      	ldr	r1, [pc, #216]	; (8000ea4 <main+0xbf8>)
 8000dca:	4837      	ldr	r0, [pc, #220]	; (8000ea8 <main+0xbfc>)
 8000dcc:	e011      	b.n	8000df2 <main+0xb46>
				trace_2_buffer[i] = (temp2 + (temp2 >> 2) - 16);
 8000dce:	f1a3 0210 	sub.w	r2, r3, #16
 8000dd2:	eb02 0393 	add.w	r3, r2, r3, lsr #2
 8000dd6:	b29b      	uxth	r3, r3
				if (trace_2_buffer[i] > 9999) trace_2_buffer[i] = 0;
 8000dd8:	42ab      	cmp	r3, r5
				if (trace_1_buffer[i] > 9999) trace_1_buffer[i] = 0;			// >9999 means negative
 8000dda:	f8a0 a000 	strh.w	sl, [r0]
				if (trace_2_buffer[i] > 9999) trace_2_buffer[i] = 0;
 8000dde:	d921      	bls.n	8000e24 <main+0xb78>
			for (i = 0; i < BUFFERSIZE; i++)									//copy data from adc_buffer to display_buffer
 8000de0:	9b0d      	ldr	r3, [sp, #52]	; 0x34
				if (trace_2_buffer[i] > 9999) trace_2_buffer[i] = 0;
 8000de2:	f8a1 a000 	strh.w	sl, [r1]
			for (i = 0; i < BUFFERSIZE; i++)									//copy data from adc_buffer to display_buffer
 8000de6:	42a3      	cmp	r3, r4
 8000de8:	f101 0102 	add.w	r1, r1, #2
 8000dec:	f100 0002 	add.w	r0, r0, #2
 8000df0:	d024      	beq.n	8000e3c <main+0xb90>
				trace_1_buffer[i] = (uint16_t) (adc_buffer[i] >> 21);			//separate both channels
 8000df2:	f854 3f04 	ldr.w	r3, [r4, #4]!
 8000df6:	0d5f      	lsrs	r7, r3, #21
				trace_1_buffer[i] = (temp1 + (temp1 >> 2) - 16);
 8000df8:	f1a7 0210 	sub.w	r2, r7, #16
 8000dfc:	eb02 0297 	add.w	r2, r2, r7, lsr #2
 8000e00:	b292      	uxth	r2, r2
				trace_2_buffer[i] = (uint16_t) ((adc_buffer[i] & 0x0000FFFF) >> 5);
 8000e02:	f3c3 134a 	ubfx	r3, r3, #5, #11
				if (trace_1_buffer[i] > 9999) trace_1_buffer[i] = 0;			// >9999 means negative
 8000e06:	42aa      	cmp	r2, r5
				trace_2_buffer[i] = (uint16_t) ((adc_buffer[i] & 0x0000FFFF) >> 5);
 8000e08:	800b      	strh	r3, [r1, #0]
				if (trace_1_buffer[i] > 9999) trace_1_buffer[i] = 0;			// >9999 means negative
 8000e0a:	d8e0      	bhi.n	8000dce <main+0xb22>
				if (trace_1_buffer[i] > 127) trace_1_buffer[i] = 127;
 8000e0c:	2a7f      	cmp	r2, #127	; 0x7f
				trace_1_buffer[i] = (temp1 + (temp1 >> 2) - 16);
 8000e0e:	bf98      	it	ls
 8000e10:	8002      	strhls	r2, [r0, #0]
				trace_2_buffer[i] = (temp2 + (temp2 >> 2) - 16);
 8000e12:	f1a3 0210 	sub.w	r2, r3, #16
 8000e16:	eb02 0393 	add.w	r3, r2, r3, lsr #2
 8000e1a:	b29b      	uxth	r3, r3
				if (trace_1_buffer[i] > 127) trace_1_buffer[i] = 127;
 8000e1c:	bf88      	it	hi
 8000e1e:	8006      	strhhi	r6, [r0, #0]
				if (trace_2_buffer[i] > 9999) trace_2_buffer[i] = 0;
 8000e20:	42ab      	cmp	r3, r5
 8000e22:	d8dd      	bhi.n	8000de0 <main+0xb34>
				if (trace_2_buffer[i] > 127) trace_2_buffer[i] = 127;
 8000e24:	2b7f      	cmp	r3, #127	; 0x7f
				trace_2_buffer[i] = (temp2 + (temp2 >> 2) - 16);
 8000e26:	bf98      	it	ls
 8000e28:	800b      	strhls	r3, [r1, #0]
			for (i = 0; i < BUFFERSIZE; i++)									//copy data from adc_buffer to display_buffer
 8000e2a:	9b0d      	ldr	r3, [sp, #52]	; 0x34
				if (trace_2_buffer[i] > 127) trace_2_buffer[i] = 127;
 8000e2c:	bf88      	it	hi
 8000e2e:	800e      	strhhi	r6, [r1, #0]
			for (i = 0; i < BUFFERSIZE; i++)									//copy data from adc_buffer to display_buffer
 8000e30:	42a3      	cmp	r3, r4
 8000e32:	f101 0102 	add.w	r1, r1, #2
 8000e36:	f100 0002 	add.w	r0, r0, #2
 8000e3a:	d1da      	bne.n	8000df2 <main+0xb46>
			if (trigger_channel == 0)											//with channel 1
 8000e3c:	4b15      	ldr	r3, [pc, #84]	; (8000e94 <main+0xbe8>)
 8000e3e:	781b      	ldrb	r3, [r3, #0]
 8000e40:	2b00      	cmp	r3, #0
 8000e42:	f040 8131 	bne.w	80010a8 <main+0xdfc>
			i = 1;																//find trigger_point
 8000e46:	2301      	movs	r3, #1
 8000e48:	461a      	mov	r2, r3
 8000e4a:	e030      	b.n	8000eae <main+0xc02>
 8000e4c:	200002b6 	.word	0x200002b6
 8000e50:	20000000 	.word	0x20000000
 8000e54:	080032e0 	.word	0x080032e0
 8000e58:	200007c6 	.word	0x200007c6
 8000e5c:	20000ccc 	.word	0x20000ccc
 8000e60:	08003308 	.word	0x08003308
 8000e64:	200002ba 	.word	0x200002ba
 8000e68:	08003314 	.word	0x08003314
 8000e6c:	200007c4 	.word	0x200007c4
 8000e70:	08003318 	.word	0x08003318
 8000e74:	20000ccf 	.word	0x20000ccf
 8000e78:	200002b8 	.word	0x200002b8
 8000e7c:	200002b4 	.word	0x200002b4
 8000e80:	0800326c 	.word	0x0800326c
 8000e84:	20000cce 	.word	0x20000cce
 8000e88:	20000f50 	.word	0x20000f50
 8000e8c:	080032d0 	.word	0x080032d0
 8000e90:	080032d8 	.word	0x080032d8
 8000e94:	2000053c 	.word	0x2000053c
 8000e98:	080032e8 	.word	0x080032e8
 8000e9c:	080032f0 	.word	0x080032f0
 8000ea0:	200007c8 	.word	0x200007c8
 8000ea4:	200002bc 	.word	0x200002bc
 8000ea8:	20000cd0 	.word	0x20000cd0
				while ((trace_1_buffer[i - 1] < trigger_level) || (trace_1_buffer[i] >= trigger_level)) i++;
 8000eac:	b29a      	uxth	r2, r3
 8000eae:	4bac      	ldr	r3, [pc, #688]	; (8001160 <main+0xeb4>)
 8000eb0:	48ac      	ldr	r0, [pc, #688]	; (8001164 <main+0xeb8>)
 8000eb2:	881b      	ldrh	r3, [r3, #0]
 8000eb4:	1e51      	subs	r1, r2, #1
 8000eb6:	f830 1011 	ldrh.w	r1, [r0, r1, lsl #1]
 8000eba:	b21b      	sxth	r3, r3
 8000ebc:	4299      	cmp	r1, r3
 8000ebe:	f102 0301 	add.w	r3, r2, #1
 8000ec2:	dbf3      	blt.n	8000eac <main+0xc00>
 8000ec4:	49a6      	ldr	r1, [pc, #664]	; (8001160 <main+0xeb4>)
 8000ec6:	f830 0012 	ldrh.w	r0, [r0, r2, lsl #1]
 8000eca:	8809      	ldrh	r1, [r1, #0]
 8000ecc:	b209      	sxth	r1, r1
 8000ece:	4288      	cmp	r0, r1
 8000ed0:	daec      	bge.n	8000eac <main+0xc00>
 8000ed2:	4613      	mov	r3, r2
 8000ed4:	920e      	str	r2, [sp, #56]	; 0x38
			if (i > X_MAX) trigger_point = 1;									//if the triggerpoint isn't found
 8000ed6:	2ba0      	cmp	r3, #160	; 0xa0
 8000ed8:	bf38      	it	cc
 8000eda:	461c      	movcc	r4, r3
			previous_trigger_level = trigger_level;
 8000edc:	f04f 0b01 	mov.w	fp, #1
			if (i > X_MAX) trigger_point = 1;									//if the triggerpoint isn't found
 8000ee0:	bf28      	it	cs
 8000ee2:	2401      	movcs	r4, #1
 8000ee4:	940e      	str	r4, [sp, #56]	; 0x38
			DrawRaster();														//draw the raster before drawing the traces
 8000ee6:	f7ff f931 	bl	800014c <DrawRaster>
			ST7735_HLine(1, 10, previous_trigger_level, ST7735_BLACK);			//draw small trigger-level line
 8000eea:	4658      	mov	r0, fp
 8000eec:	9a0f      	ldr	r2, [sp, #60]	; 0x3c
 8000eee:	2300      	movs	r3, #0
 8000ef0:	210a      	movs	r1, #10
 8000ef2:	f000 fb69 	bl	80015c8 <ST7735_HLine>
			ST7735_HLine(1, 10, (trigger_level), trigger_level_color);
 8000ef6:	4d9a      	ldr	r5, [pc, #616]	; (8001160 <main+0xeb4>)
 8000ef8:	4b9b      	ldr	r3, [pc, #620]	; (8001168 <main+0xebc>)
 8000efa:	882a      	ldrh	r2, [r5, #0]
 8000efc:	4658      	mov	r0, fp
 8000efe:	881b      	ldrh	r3, [r3, #0]
 8000f00:	210a      	movs	r1, #10
 8000f02:	f000 fb61 	bl	80015c8 <ST7735_HLine>
 8000f06:	1ca3      	adds	r3, r4, #2
 8000f08:	b29b      	uxth	r3, r3
 8000f0a:	eb04 020b 	add.w	r2, r4, fp
 8000f0e:	fa03 f30b 	lsl.w	r3, r3, fp
 8000f12:	4894      	ldr	r0, [pc, #592]	; (8001164 <main+0xeb8>)
 8000f14:	4c95      	ldr	r4, [pc, #596]	; (800116c <main+0xec0>)
			previous_trigger_level = trigger_level;
 8000f16:	8829      	ldrh	r1, [r5, #0]
 8000f18:	3b02      	subs	r3, #2
 8000f1a:	18e6      	adds	r6, r4, r3
 8000f1c:	18c7      	adds	r7, r0, r3
 8000f1e:	b292      	uxth	r2, r2
 8000f20:	b28b      	uxth	r3, r1
 8000f22:	fa02 f20b 	lsl.w	r2, r2, fp
 8000f26:	930f      	str	r3, [sp, #60]	; 0x3c
 8000f28:	9b0b      	ldr	r3, [sp, #44]	; 0x2c
 8000f2a:	3a02      	subs	r2, #2
 8000f2c:	445b      	add	r3, fp
 8000f2e:	eb00 0902 	add.w	r9, r0, r2
 8000f32:	930c      	str	r3, [sp, #48]	; 0x30
 8000f34:	464b      	mov	r3, r9
 8000f36:	9605      	str	r6, [sp, #20]
 8000f38:	46b9      	mov	r9, r7
 8000f3a:	465e      	mov	r6, fp
 8000f3c:	469b      	mov	fp, r3
 8000f3e:	eb04 0802 	add.w	r8, r4, r2
				y1 = erase_1_buffer[x1];
 8000f42:	9b0b      	ldr	r3, [sp, #44]	; 0x2c
 8000f44:	b2b4      	uxth	r4, r6
 8000f46:	1918      	adds	r0, r3, r4
				y2 = erase_1_buffer[x2];
 8000f48:	9b0c      	ldr	r3, [sp, #48]	; 0x30
				z1 = erase_2_buffer[x1];
 8000f4a:	4d89      	ldr	r5, [pc, #548]	; (8001170 <main+0xec4>)
				y2 = erase_1_buffer[x2];
 8000f4c:	18e2      	adds	r2, r4, r3
				ST7735_Line(i, y1, j, y2, ST7735_BLACK);						//remove old trace
 8000f4e:	4b89      	ldr	r3, [pc, #548]	; (8001174 <main+0xec8>)
				y1 = erase_1_buffer[x1];
 8000f50:	b280      	uxth	r0, r0
				y2 = erase_1_buffer[x2];
 8000f52:	b292      	uxth	r2, r2
				ST7735_Line(i, y1, j, y2, ST7735_BLACK);						//remove old trace
 8000f54:	f933 1010 	ldrsh.w	r1, [r3, r0, lsl #1]
				z1 = erase_2_buffer[x1];
 8000f58:	f835 0010 	ldrh.w	r0, [r5, r0, lsl #1]
				ST7735_Line(i, y1, j, y2, ST7735_BLACK);						//remove old trace
 8000f5c:	f933 3012 	ldrsh.w	r3, [r3, r2, lsl #1]
				z2 = erase_2_buffer[x2];
 8000f60:	f835 2012 	ldrh.w	r2, [r5, r2, lsl #1]
				ST7735_Line(i, y1, j, y2, ST7735_BLACK);						//remove old trace
 8000f64:	f8cd a000 	str.w	sl, [sp]
				y3 = trace_1_buffer[x3];
 8000f68:	f83b 7f02 	ldrh.w	r7, [fp, #2]!
 8000f6c:	3401      	adds	r4, #1
 8000f6e:	9706      	str	r7, [sp, #24]
				y4 = trace_1_buffer[x4];
 8000f70:	f839 7f02 	ldrh.w	r7, [r9, #2]!
 8000f74:	b224      	sxth	r4, r4
 8000f76:	9707      	str	r7, [sp, #28]
				z3 = trace_2_buffer[x3];
 8000f78:	f838 7f02 	ldrh.w	r7, [r8, #2]!
				ST7735_Line(i, y1, j, y2, ST7735_BLACK);						//remove old trace
 8000f7c:	b235      	sxth	r5, r6
				z3 = trace_2_buffer[x3];
 8000f7e:	970a      	str	r7, [sp, #40]	; 0x28
				z4 = trace_2_buffer[x4];
 8000f80:	9f05      	ldr	r7, [sp, #20]
				z1 = erase_2_buffer[x1];
 8000f82:	9008      	str	r0, [sp, #32]
				z4 = trace_2_buffer[x4];
 8000f84:	f837 cf02 	ldrh.w	ip, [r7, #2]!
				z2 = erase_2_buffer[x2];
 8000f88:	9209      	str	r2, [sp, #36]	; 0x24
				ST7735_Line(i, y1, j, y2, ST7735_BLACK);						//remove old trace
 8000f8a:	4628      	mov	r0, r5
 8000f8c:	4622      	mov	r2, r4
				z4 = trace_2_buffer[x4];
 8000f8e:	9705      	str	r7, [sp, #20]
 8000f90:	4667      	mov	r7, ip
				ST7735_Line(i, y1, j, y2, ST7735_BLACK);						//remove old trace
 8000f92:	f000 fbbf 	bl	8001714 <ST7735_Line>
				ST7735_Line(i, z1, j, z2, ST7735_BLACK);						//remove old trace
 8000f96:	4622      	mov	r2, r4
 8000f98:	f9bd 3024 	ldrsh.w	r3, [sp, #36]	; 0x24
 8000f9c:	f9bd 1020 	ldrsh.w	r1, [sp, #32]
 8000fa0:	4628      	mov	r0, r5
 8000fa2:	f8cd a000 	str.w	sl, [sp]
 8000fa6:	f000 fbb5 	bl	8001714 <ST7735_Line>
				ST7735_Line(i, y3, j, y4, ST7735_GREEN);						//show new trace
 8000faa:	f44f 62fc 	mov.w	r2, #2016	; 0x7e0
 8000fae:	f9bd 301c 	ldrsh.w	r3, [sp, #28]
 8000fb2:	f9bd 1018 	ldrsh.w	r1, [sp, #24]
 8000fb6:	9200      	str	r2, [sp, #0]
 8000fb8:	4628      	mov	r0, r5
 8000fba:	4622      	mov	r2, r4
 8000fbc:	f000 fbaa 	bl	8001714 <ST7735_Line>
				ST7735_Line(i, z3, j, z4, ST7735_MAGENTA);						//show new trace
 8000fc0:	4622      	mov	r2, r4
 8000fc2:	f64f 041f 	movw	r4, #63519	; 0xf81f
 8000fc6:	3601      	adds	r6, #1
 8000fc8:	b23b      	sxth	r3, r7
 8000fca:	f9bd 1028 	ldrsh.w	r1, [sp, #40]	; 0x28
 8000fce:	4628      	mov	r0, r5
 8000fd0:	9400      	str	r4, [sp, #0]
 8000fd2:	f000 fb9f 	bl	8001714 <ST7735_Line>
			for (i = 1; i < X_MAX; i++)
 8000fd6:	2e9f      	cmp	r6, #159	; 0x9f
 8000fd8:	d1b3      	bne.n	8000f42 <main+0xc96>
 8000fda:	f44f 7220 	mov.w	r2, #640	; 0x280
 8000fde:	4961      	ldr	r1, [pc, #388]	; (8001164 <main+0xeb8>)
 8000fe0:	4864      	ldr	r0, [pc, #400]	; (8001174 <main+0xec8>)
 8000fe2:	f001 fd61 	bl	8002aa8 <memcpy>
 8000fe6:	f44f 7220 	mov.w	r2, #640	; 0x280
 8000fea:	4960      	ldr	r1, [pc, #384]	; (800116c <main+0xec0>)
 8000fec:	4860      	ldr	r0, [pc, #384]	; (8001170 <main+0xec4>)
 8000fee:	f001 fd5b 	bl	8002aa8 <memcpy>
  WRITE_REG(DMAx->IFCR, DMA_IFCR_CTEIF1);
 8000ff2:	2208      	movs	r2, #8
			previous_trigger_point = trigger_point;
 8000ff4:	9b0e      	ldr	r3, [sp, #56]	; 0x38
			conversion_ready = 0;												//start next sequence of conversion
 8000ff6:	4960      	ldr	r1, [pc, #384]	; (8001178 <main+0xecc>)
			previous_trigger_point = trigger_point;
 8000ff8:	930b      	str	r3, [sp, #44]	; 0x2c
 8000ffa:	4b60      	ldr	r3, [pc, #384]	; (800117c <main+0xed0>)
			conversion_ready = 0;												//start next sequence of conversion
 8000ffc:	f881 a000 	strb.w	sl, [r1]
  CLEAR_BIT(((DMA_Channel_TypeDef *)((uint32_t)((uint32_t)DMAx + CHANNEL_OFFSET_TAB[Channel - 1U])))->CCR, DMA_CCR_EN);
 8001000:	495f      	ldr	r1, [pc, #380]	; (8001180 <main+0xed4>)
  WRITE_REG(DMAx->IFCR, DMA_IFCR_CTEIF1);
 8001002:	605a      	str	r2, [r3, #4]
  CLEAR_BIT(((DMA_Channel_TypeDef *)((uint32_t)((uint32_t)DMAx + CHANNEL_OFFSET_TAB[Channel - 1U])))->CCR, DMA_CCR_EN);
 8001004:	680b      	ldr	r3, [r1, #0]
 8001006:	4a5f      	ldr	r2, [pc, #380]	; (8001184 <main+0xed8>)
 8001008:	f023 0301 	bic.w	r3, r3, #1
 800100c:	600b      	str	r3, [r1, #0]
  MODIFY_REG(((DMA_Channel_TypeDef *)((uint32_t)((uint32_t)DMAx + CHANNEL_OFFSET_TAB[Channel - 1U])))->CNDTR,
 800100e:	684b      	ldr	r3, [r1, #4]
 8001010:	0c1b      	lsrs	r3, r3, #16
 8001012:	041b      	lsls	r3, r3, #16
 8001014:	f443 73a0 	orr.w	r3, r3, #320	; 0x140
 8001018:	604b      	str	r3, [r1, #4]
  SET_BIT(((DMA_Channel_TypeDef *)((uint32_t)((uint32_t)DMAx + CHANNEL_OFFSET_TAB[Channel - 1U])))->CCR, DMA_CCR_EN);
 800101a:	680b      	ldr	r3, [r1, #0]
 800101c:	f043 0301 	orr.w	r3, r3, #1
 8001020:	600b      	str	r3, [r1, #0]
 8001022:	6813      	ldr	r3, [r2, #0]
 8001024:	f043 0301 	orr.w	r3, r3, #1
 8001028:	6013      	str	r3, [r2, #0]
		if (attenuator_ch1 == 0)      ST7735_WriteString(1, 106, "CH1 2V   ", Font_7x10, attenuator_ch1_color, ST7735_BLACK);
 800102a:	4b57      	ldr	r3, [pc, #348]	; (8001188 <main+0xedc>)
 800102c:	781b      	ldrb	r3, [r3, #0]
 800102e:	b25b      	sxtb	r3, r3
 8001030:	2b00      	cmp	r3, #0
 8001032:	f47f ae41 	bne.w	8000cb8 <main+0xa0c>
 8001036:	4a55      	ldr	r2, [pc, #340]	; (800118c <main+0xee0>)
 8001038:	4855      	ldr	r0, [pc, #340]	; (8001190 <main+0xee4>)
 800103a:	8811      	ldrh	r1, [r2, #0]
 800103c:	6842      	ldr	r2, [r0, #4]
 800103e:	e9cd 1301 	strd	r1, r3, [sp, #4]
 8001042:	9200      	str	r2, [sp, #0]
 8001044:	6803      	ldr	r3, [r0, #0]
 8001046:	4a53      	ldr	r2, [pc, #332]	; (8001194 <main+0xee8>)
 8001048:	216a      	movs	r1, #106	; 0x6a
 800104a:	2001      	movs	r0, #1
 800104c:	f000 fd14 	bl	8001a78 <ST7735_WriteString>
		if (timebase == 0)       ST7735_WriteString(75, 106, "200ms", Font_7x10, timebase_color, ST7735_BLACK);
 8001050:	4b51      	ldr	r3, [pc, #324]	; (8001198 <main+0xeec>)
 8001052:	781b      	ldrb	r3, [r3, #0]
 8001054:	b25b      	sxtb	r3, r3
 8001056:	2b00      	cmp	r3, #0
 8001058:	f47f ae47 	bne.w	8000cea <main+0xa3e>
 800105c:	4a4f      	ldr	r2, [pc, #316]	; (800119c <main+0xef0>)
 800105e:	484c      	ldr	r0, [pc, #304]	; (8001190 <main+0xee4>)
 8001060:	8811      	ldrh	r1, [r2, #0]
 8001062:	6842      	ldr	r2, [r0, #4]
 8001064:	e9cd 1301 	strd	r1, r3, [sp, #4]
 8001068:	9200      	str	r2, [sp, #0]
 800106a:	6803      	ldr	r3, [r0, #0]
 800106c:	4a4c      	ldr	r2, [pc, #304]	; (80011a0 <main+0xef4>)
 800106e:	216a      	movs	r1, #106	; 0x6a
 8001070:	204b      	movs	r0, #75	; 0x4b
 8001072:	f000 fd01 	bl	8001a78 <ST7735_WriteString>
 8001076:	e67c      	b.n	8000d72 <main+0xac6>
		else if (attenuator_ch1 == 1) ST7735_WriteString(1, 106, "CH1 1V   ", Font_7x10, attenuator_ch1_color, ST7735_BLACK);
 8001078:	4a4a      	ldr	r2, [pc, #296]	; (80011a4 <main+0xef8>)
 800107a:	216a      	movs	r1, #106	; 0x6a
 800107c:	f000 fcfc 	bl	8001a78 <ST7735_WriteString>
 8001080:	e62d      	b.n	8000cde <main+0xa32>
		else if (attenuator_ch2 == 1) ST7735_WriteString(1, 117, "CH2 1V   ", Font_7x10, attenuator_ch2_color, ST7735_BLACK);
 8001082:	4a49      	ldr	r2, [pc, #292]	; (80011a8 <main+0xefc>)
 8001084:	2175      	movs	r1, #117	; 0x75
 8001086:	f000 fcf7 	bl	8001a78 <ST7735_WriteString>
 800108a:	e5f1      	b.n	8000c70 <main+0x9c4>
		else if (timebase == 1)  ST7735_WriteString(75, 106, "100ms", Font_7x10, timebase_color, ST7735_BLACK);
 800108c:	4b43      	ldr	r3, [pc, #268]	; (800119c <main+0xef0>)
 800108e:	4940      	ldr	r1, [pc, #256]	; (8001190 <main+0xee4>)
 8001090:	881a      	ldrh	r2, [r3, #0]
 8001092:	684b      	ldr	r3, [r1, #4]
 8001094:	e9cd 2a01 	strd	r2, sl, [sp, #4]
 8001098:	9300      	str	r3, [sp, #0]
 800109a:	680b      	ldr	r3, [r1, #0]
 800109c:	4a43      	ldr	r2, [pc, #268]	; (80011ac <main+0xf00>)
 800109e:	216a      	movs	r1, #106	; 0x6a
 80010a0:	204b      	movs	r0, #75	; 0x4b
 80010a2:	f000 fce9 	bl	8001a78 <ST7735_WriteString>
 80010a6:	e664      	b.n	8000d72 <main+0xac6>
			i = 1;																//find trigger_point
 80010a8:	2301      	movs	r3, #1
 80010aa:	e001      	b.n	80010b0 <main+0xe04>
				while ((trace_2_buffer[i - 1] < trigger_level) || (trace_2_buffer[i] >= trigger_level)) i++;
 80010ac:	3301      	adds	r3, #1
 80010ae:	b29b      	uxth	r3, r3
 80010b0:	482b      	ldr	r0, [pc, #172]	; (8001160 <main+0xeb4>)
 80010b2:	4c2e      	ldr	r4, [pc, #184]	; (800116c <main+0xec0>)
 80010b4:	8802      	ldrh	r2, [r0, #0]
 80010b6:	1e59      	subs	r1, r3, #1
 80010b8:	f834 1011 	ldrh.w	r1, [r4, r1, lsl #1]
 80010bc:	b212      	sxth	r2, r2
 80010be:	4291      	cmp	r1, r2
 80010c0:	dbf4      	blt.n	80010ac <main+0xe00>
 80010c2:	8802      	ldrh	r2, [r0, #0]
 80010c4:	f834 1013 	ldrh.w	r1, [r4, r3, lsl #1]
 80010c8:	b212      	sxth	r2, r2
 80010ca:	4291      	cmp	r1, r2
 80010cc:	daee      	bge.n	80010ac <main+0xe00>
 80010ce:	930e      	str	r3, [sp, #56]	; 0x38
 80010d0:	e701      	b.n	8000ed6 <main+0xc2a>
		else if (timebase == 2)  ST7735_WriteString(75, 106, "50ms ", Font_7x10, timebase_color, ST7735_BLACK);
 80010d2:	4b32      	ldr	r3, [pc, #200]	; (800119c <main+0xef0>)
 80010d4:	492e      	ldr	r1, [pc, #184]	; (8001190 <main+0xee4>)
 80010d6:	881a      	ldrh	r2, [r3, #0]
 80010d8:	684b      	ldr	r3, [r1, #4]
 80010da:	e9cd 2a01 	strd	r2, sl, [sp, #4]
 80010de:	9300      	str	r3, [sp, #0]
 80010e0:	680b      	ldr	r3, [r1, #0]
 80010e2:	4a33      	ldr	r2, [pc, #204]	; (80011b0 <main+0xf04>)
 80010e4:	216a      	movs	r1, #106	; 0x6a
 80010e6:	204b      	movs	r0, #75	; 0x4b
 80010e8:	f000 fcc6 	bl	8001a78 <ST7735_WriteString>
 80010ec:	e641      	b.n	8000d72 <main+0xac6>
		else if (timebase == 3)  ST7735_WriteString(75, 106, "20ms ", Font_7x10, timebase_color, ST7735_BLACK);
 80010ee:	4b2b      	ldr	r3, [pc, #172]	; (800119c <main+0xef0>)
 80010f0:	4927      	ldr	r1, [pc, #156]	; (8001190 <main+0xee4>)
 80010f2:	881a      	ldrh	r2, [r3, #0]
 80010f4:	684b      	ldr	r3, [r1, #4]
 80010f6:	e9cd 2a01 	strd	r2, sl, [sp, #4]
 80010fa:	9300      	str	r3, [sp, #0]
 80010fc:	680b      	ldr	r3, [r1, #0]
 80010fe:	4a2d      	ldr	r2, [pc, #180]	; (80011b4 <main+0xf08>)
 8001100:	216a      	movs	r1, #106	; 0x6a
 8001102:	204b      	movs	r0, #75	; 0x4b
 8001104:	f000 fcb8 	bl	8001a78 <ST7735_WriteString>
 8001108:	e633      	b.n	8000d72 <main+0xac6>
		else if (timebase == 4)  ST7735_WriteString(75, 106, "10ms ", Font_7x10, timebase_color, ST7735_BLACK);
 800110a:	4b24      	ldr	r3, [pc, #144]	; (800119c <main+0xef0>)
 800110c:	4920      	ldr	r1, [pc, #128]	; (8001190 <main+0xee4>)
 800110e:	881a      	ldrh	r2, [r3, #0]
 8001110:	684b      	ldr	r3, [r1, #4]
 8001112:	e9cd 2a01 	strd	r2, sl, [sp, #4]
 8001116:	9300      	str	r3, [sp, #0]
 8001118:	680b      	ldr	r3, [r1, #0]
 800111a:	4a27      	ldr	r2, [pc, #156]	; (80011b8 <main+0xf0c>)
 800111c:	216a      	movs	r1, #106	; 0x6a
 800111e:	204b      	movs	r0, #75	; 0x4b
 8001120:	f000 fcaa 	bl	8001a78 <ST7735_WriteString>
 8001124:	e625      	b.n	8000d72 <main+0xac6>
		else if (timebase == 5)  ST7735_WriteString(75, 106, "5ms  ", Font_7x10, timebase_color, ST7735_BLACK);
 8001126:	4b1d      	ldr	r3, [pc, #116]	; (800119c <main+0xef0>)
 8001128:	4919      	ldr	r1, [pc, #100]	; (8001190 <main+0xee4>)
 800112a:	881a      	ldrh	r2, [r3, #0]
 800112c:	684b      	ldr	r3, [r1, #4]
 800112e:	e9cd 2a01 	strd	r2, sl, [sp, #4]
 8001132:	9300      	str	r3, [sp, #0]
 8001134:	680b      	ldr	r3, [r1, #0]
 8001136:	4a21      	ldr	r2, [pc, #132]	; (80011bc <main+0xf10>)
 8001138:	216a      	movs	r1, #106	; 0x6a
 800113a:	204b      	movs	r0, #75	; 0x4b
 800113c:	f000 fc9c 	bl	8001a78 <ST7735_WriteString>
 8001140:	e617      	b.n	8000d72 <main+0xac6>
		else if (timebase == 6)  ST7735_WriteString(75, 106, "2ms  ", Font_7x10, timebase_color, ST7735_BLACK);
 8001142:	4b16      	ldr	r3, [pc, #88]	; (800119c <main+0xef0>)
 8001144:	4912      	ldr	r1, [pc, #72]	; (8001190 <main+0xee4>)
 8001146:	881a      	ldrh	r2, [r3, #0]
 8001148:	684b      	ldr	r3, [r1, #4]
 800114a:	e9cd 2a01 	strd	r2, sl, [sp, #4]
 800114e:	9300      	str	r3, [sp, #0]
 8001150:	680b      	ldr	r3, [r1, #0]
 8001152:	4a1b      	ldr	r2, [pc, #108]	; (80011c0 <main+0xf14>)
 8001154:	216a      	movs	r1, #106	; 0x6a
 8001156:	204b      	movs	r0, #75	; 0x4b
 8001158:	f000 fc8e 	bl	8001a78 <ST7735_WriteString>
 800115c:	e609      	b.n	8000d72 <main+0xac6>
 800115e:	bf00      	nop
 8001160:	200007c8 	.word	0x200007c8
 8001164:	20000cd0 	.word	0x20000cd0
 8001168:	200007c4 	.word	0x200007c4
 800116c:	200002bc 	.word	0x200002bc
 8001170:	20000540 	.word	0x20000540
 8001174:	20000034 	.word	0x20000034
 8001178:	20000ccf 	.word	0x20000ccf
 800117c:	40020000 	.word	0x40020000
 8001180:	40020008 	.word	0x40020008
 8001184:	40000400 	.word	0x40000400
 8001188:	200002b8 	.word	0x200002b8
 800118c:	200002b4 	.word	0x200002b4
 8001190:	20000000 	.word	0x20000000
 8001194:	08003254 	.word	0x08003254
 8001198:	20000cce 	.word	0x20000cce
 800119c:	20000f50 	.word	0x20000f50
 80011a0:	08003278 	.word	0x08003278
 80011a4:	08003260 	.word	0x08003260
 80011a8:	080032fc 	.word	0x080032fc
 80011ac:	08003280 	.word	0x08003280
 80011b0:	08003288 	.word	0x08003288
 80011b4:	08003290 	.word	0x08003290
 80011b8:	08003298 	.word	0x08003298
 80011bc:	080032a0 	.word	0x080032a0
 80011c0:	080032a8 	.word	0x080032a8
		else if (timebase == 7)  ST7735_WriteString(75, 106, "1ms  ", Font_7x10, timebase_color, ST7735_BLACK);
 80011c4:	4b1b      	ldr	r3, [pc, #108]	; (8001234 <main+0xf88>)
 80011c6:	491c      	ldr	r1, [pc, #112]	; (8001238 <main+0xf8c>)
 80011c8:	881a      	ldrh	r2, [r3, #0]
 80011ca:	684b      	ldr	r3, [r1, #4]
 80011cc:	e9cd 2a01 	strd	r2, sl, [sp, #4]
 80011d0:	9300      	str	r3, [sp, #0]
 80011d2:	680b      	ldr	r3, [r1, #0]
 80011d4:	4a19      	ldr	r2, [pc, #100]	; (800123c <main+0xf90>)
 80011d6:	216a      	movs	r1, #106	; 0x6a
 80011d8:	204b      	movs	r0, #75	; 0x4b
 80011da:	f000 fc4d 	bl	8001a78 <ST7735_WriteString>
 80011de:	e5c8      	b.n	8000d72 <main+0xac6>
		else if (timebase == 8)  ST7735_WriteString(75, 106, "500us", Font_7x10, timebase_color, ST7735_BLACK);
 80011e0:	4b14      	ldr	r3, [pc, #80]	; (8001234 <main+0xf88>)
 80011e2:	4915      	ldr	r1, [pc, #84]	; (8001238 <main+0xf8c>)
 80011e4:	881a      	ldrh	r2, [r3, #0]
 80011e6:	684b      	ldr	r3, [r1, #4]
 80011e8:	e9cd 2a01 	strd	r2, sl, [sp, #4]
 80011ec:	9300      	str	r3, [sp, #0]
 80011ee:	680b      	ldr	r3, [r1, #0]
 80011f0:	4a13      	ldr	r2, [pc, #76]	; (8001240 <main+0xf94>)
 80011f2:	216a      	movs	r1, #106	; 0x6a
 80011f4:	204b      	movs	r0, #75	; 0x4b
 80011f6:	f000 fc3f 	bl	8001a78 <ST7735_WriteString>
 80011fa:	e5ba      	b.n	8000d72 <main+0xac6>
		else if (timebase == 9)  ST7735_WriteString(75, 106, "200us", Font_7x10, timebase_color, ST7735_BLACK);
 80011fc:	4b0d      	ldr	r3, [pc, #52]	; (8001234 <main+0xf88>)
 80011fe:	490e      	ldr	r1, [pc, #56]	; (8001238 <main+0xf8c>)
 8001200:	881a      	ldrh	r2, [r3, #0]
 8001202:	684b      	ldr	r3, [r1, #4]
 8001204:	e9cd 2a01 	strd	r2, sl, [sp, #4]
 8001208:	9300      	str	r3, [sp, #0]
 800120a:	680b      	ldr	r3, [r1, #0]
 800120c:	4a0d      	ldr	r2, [pc, #52]	; (8001244 <main+0xf98>)
 800120e:	216a      	movs	r1, #106	; 0x6a
 8001210:	204b      	movs	r0, #75	; 0x4b
 8001212:	f000 fc31 	bl	8001a78 <ST7735_WriteString>
 8001216:	e5ac      	b.n	8000d72 <main+0xac6>
		else if (timebase == 10) ST7735_WriteString(75, 106, "100us", Font_7x10, timebase_color, ST7735_BLACK);
 8001218:	4b06      	ldr	r3, [pc, #24]	; (8001234 <main+0xf88>)
 800121a:	4907      	ldr	r1, [pc, #28]	; (8001238 <main+0xf8c>)
 800121c:	881a      	ldrh	r2, [r3, #0]
 800121e:	684b      	ldr	r3, [r1, #4]
 8001220:	e9cd 2a01 	strd	r2, sl, [sp, #4]
 8001224:	9300      	str	r3, [sp, #0]
 8001226:	680b      	ldr	r3, [r1, #0]
 8001228:	4a07      	ldr	r2, [pc, #28]	; (8001248 <main+0xf9c>)
 800122a:	216a      	movs	r1, #106	; 0x6a
 800122c:	204b      	movs	r0, #75	; 0x4b
 800122e:	f000 fc23 	bl	8001a78 <ST7735_WriteString>
 8001232:	e59e      	b.n	8000d72 <main+0xac6>
 8001234:	20000f50 	.word	0x20000f50
 8001238:	20000000 	.word	0x20000000
 800123c:	080032b0 	.word	0x080032b0
 8001240:	080032b8 	.word	0x080032b8
 8001244:	080032c0 	.word	0x080032c0
 8001248:	080032c8 	.word	0x080032c8

0800124c <ST7735_SetAddressWindow>:
		}
	}
}

static void ST7735_SetAddressWindow(uint8_t x0, uint8_t y0, uint8_t x1, uint8_t y1)
{
 800124c:	e92d 4ff0 	stmdb	sp!, {r4, r5, r6, r7, r8, r9, sl, fp, lr}
  WRITE_REG(GPIOx->BRR, (PinMask >> GPIO_PIN_MASK_POS) & 0x0000FFFFU);
 8001250:	f44f 6780 	mov.w	r7, #1024	; 0x400
 8001254:	f44f 5680 	mov.w	r6, #4096	; 0x1000
 8001258:	4c4e      	ldr	r4, [pc, #312]	; (8001394 <ST7735_SetAddressWindow+0x148>)
  * @param  SPIx SPI Instance
  * @retval State of bit (1 or 0).
  */
__STATIC_INLINE uint32_t LL_SPI_IsActiveFlag_TXE(SPI_TypeDef *SPIx)
{
  return ((READ_BIT(SPIx->SR, SPI_SR_TXE) == (SPI_SR_TXE)) ? 1UL : 0UL);
 800125a:	4d4f      	ldr	r5, [pc, #316]	; (8001398 <ST7735_SetAddressWindow+0x14c>)
 800125c:	6167      	str	r7, [r4, #20]
 800125e:	b083      	sub	sp, #12
 8001260:	6166      	str	r6, [r4, #20]
 8001262:	68ac      	ldr	r4, [r5, #8]
 8001264:	07a7      	lsls	r7, r4, #30
 8001266:	d5fc      	bpl.n	8001262 <ST7735_SetAddressWindow+0x16>
  * @param  SPIx SPI Instance
  * @retval State of bit (1 or 0).
  */
__STATIC_INLINE uint32_t LL_SPI_IsActiveFlag_BSY(SPI_TypeDef *SPIx)
{
  return ((READ_BIT(SPIx->SR, SPI_SR_BSY) == (SPI_SR_BSY)) ? 1UL : 0UL);
 8001268:	4d4b      	ldr	r5, [pc, #300]	; (8001398 <ST7735_SetAddressWindow+0x14c>)
 800126a:	68ac      	ldr	r4, [r5, #8]
 800126c:	0626      	lsls	r6, r4, #24
 800126e:	d4fc      	bmi.n	800126a <ST7735_SetAddressWindow+0x1e>
  */
__STATIC_INLINE void LL_SPI_TransmitData8(SPI_TypeDef *SPIx, uint8_t TxData)
{
#if defined (__GNUC__)
  __IO uint8_t *spidr = ((__IO uint8_t *)&SPIx->DR);
  *spidr = TxData;
 8001270:	242a      	movs	r4, #42	; 0x2a
  return ((READ_BIT(SPIx->SR, SPI_SR_TXE) == (SPI_SR_TXE)) ? 1UL : 0UL);
 8001272:	4e49      	ldr	r6, [pc, #292]	; (8001398 <ST7735_SetAddressWindow+0x14c>)
  *spidr = TxData;
 8001274:	732c      	strb	r4, [r5, #12]
  return ((READ_BIT(SPIx->SR, SPI_SR_TXE) == (SPI_SR_TXE)) ? 1UL : 0UL);
 8001276:	68b4      	ldr	r4, [r6, #8]
 8001278:	07a4      	lsls	r4, r4, #30
 800127a:	d5fc      	bpl.n	8001276 <ST7735_SetAddressWindow+0x2a>
  return ((READ_BIT(SPIx->SR, SPI_SR_BSY) == (SPI_SR_BSY)) ? 1UL : 0UL);
 800127c:	4d46      	ldr	r5, [pc, #280]	; (8001398 <ST7735_SetAddressWindow+0x14c>)
 800127e:	68ac      	ldr	r4, [r5, #8]
 8001280:	f014 0480 	ands.w	r4, r4, #128	; 0x80
 8001284:	d1fb      	bne.n	800127e <ST7735_SetAddressWindow+0x32>
  WRITE_REG(GPIOx->BSRR, (PinMask >> GPIO_PIN_MASK_POS) & 0x0000FFFFU);
 8001286:	f44f 5a80 	mov.w	sl, #4096	; 0x1000
 800128a:	f8df 9108 	ldr.w	r9, [pc, #264]	; 8001394 <ST7735_SetAddressWindow+0x148>
 800128e:	f44f 6b80 	mov.w	fp, #1024	; 0x400
 8001292:	ae01      	add	r6, sp, #4
  WRITE_REG(GPIOx->BRR, (PinMask >> GPIO_PIN_MASK_POS) & 0x0000FFFFU);
 8001294:	46d4      	mov	ip, sl
 8001296:	464f      	mov	r7, r9
 8001298:	46d0      	mov	r8, sl
  WRITE_REG(GPIOx->BSRR, (PinMask >> GPIO_PIN_MASK_POS) & 0x0000FFFFU);
 800129a:	4635      	mov	r5, r6
 800129c:	f8c9 a010 	str.w	sl, [r9, #16]
	// column address set
	ST7735_WriteCommand(ST7735_CASET);
	uint8_t data[] = { 0x00, x0 + ST7735_XSTART, 0x00, x1 + ST7735_XSTART };
 80012a0:	f88d 2007 	strb.w	r2, [sp, #7]
  return ((READ_BIT(SPIx->SR, SPI_SR_TXE) == (SPI_SR_TXE)) ? 1UL : 0UL);
 80012a4:	4a3c      	ldr	r2, [pc, #240]	; (8001398 <ST7735_SetAddressWindow+0x14c>)
 80012a6:	f88d 4004 	strb.w	r4, [sp, #4]
 80012aa:	f88d 0005 	strb.w	r0, [sp, #5]
 80012ae:	f88d 4006 	strb.w	r4, [sp, #6]
 80012b2:	f10d 0e08 	add.w	lr, sp, #8
 80012b6:	f8c9 b010 	str.w	fp, [r9, #16]
		ST7735_Write_Byte(buff[temp++]);
 80012ba:	f815 4b01 	ldrb.w	r4, [r5], #1
  WRITE_REG(GPIOx->BRR, (PinMask >> GPIO_PIN_MASK_POS) & 0x0000FFFFU);
 80012be:	f8c7 8014 	str.w	r8, [r7, #20]
 80012c2:	6890      	ldr	r0, [r2, #8]
 80012c4:	0780      	lsls	r0, r0, #30
 80012c6:	d5fc      	bpl.n	80012c2 <ST7735_SetAddressWindow+0x76>
  return ((READ_BIT(SPIx->SR, SPI_SR_BSY) == (SPI_SR_BSY)) ? 1UL : 0UL);
 80012c8:	6890      	ldr	r0, [r2, #8]
 80012ca:	0600      	lsls	r0, r0, #24
 80012cc:	d4fc      	bmi.n	80012c8 <ST7735_SetAddressWindow+0x7c>
  *spidr = TxData;
 80012ce:	7314      	strb	r4, [r2, #12]
  return ((READ_BIT(SPIx->SR, SPI_SR_TXE) == (SPI_SR_TXE)) ? 1UL : 0UL);
 80012d0:	6890      	ldr	r0, [r2, #8]
 80012d2:	0784      	lsls	r4, r0, #30
 80012d4:	d5fc      	bpl.n	80012d0 <ST7735_SetAddressWindow+0x84>
  return ((READ_BIT(SPIx->SR, SPI_SR_BSY) == (SPI_SR_BSY)) ? 1UL : 0UL);
 80012d6:	6890      	ldr	r0, [r2, #8]
 80012d8:	0600      	lsls	r0, r0, #24
 80012da:	d4fc      	bmi.n	80012d6 <ST7735_SetAddressWindow+0x8a>
	while (temp < buff_size)
 80012dc:	45ae      	cmp	lr, r5
  WRITE_REG(GPIOx->BSRR, (PinMask >> GPIO_PIN_MASK_POS) & 0x0000FFFFU);
 80012de:	f8c7 c010 	str.w	ip, [r7, #16]
 80012e2:	d1ea      	bne.n	80012ba <ST7735_SetAddressWindow+0x6e>
  WRITE_REG(GPIOx->BRR, (PinMask >> GPIO_PIN_MASK_POS) & 0x0000FFFFU);
 80012e4:	f44f 6280 	mov.w	r2, #1024	; 0x400
  return ((READ_BIT(SPIx->SR, SPI_SR_TXE) == (SPI_SR_TXE)) ? 1UL : 0UL);
 80012e8:	482b      	ldr	r0, [pc, #172]	; (8001398 <ST7735_SetAddressWindow+0x14c>)
 80012ea:	617a      	str	r2, [r7, #20]
 80012ec:	f8c7 c014 	str.w	ip, [r7, #20]
 80012f0:	6882      	ldr	r2, [r0, #8]
 80012f2:	0794      	lsls	r4, r2, #30
 80012f4:	d5fc      	bpl.n	80012f0 <ST7735_SetAddressWindow+0xa4>
  return ((READ_BIT(SPIx->SR, SPI_SR_BSY) == (SPI_SR_BSY)) ? 1UL : 0UL);
 80012f6:	4828      	ldr	r0, [pc, #160]	; (8001398 <ST7735_SetAddressWindow+0x14c>)
 80012f8:	6882      	ldr	r2, [r0, #8]
 80012fa:	0612      	lsls	r2, r2, #24
 80012fc:	d4fc      	bmi.n	80012f8 <ST7735_SetAddressWindow+0xac>
  *spidr = TxData;
 80012fe:	222b      	movs	r2, #43	; 0x2b
  return ((READ_BIT(SPIx->SR, SPI_SR_TXE) == (SPI_SR_TXE)) ? 1UL : 0UL);
 8001300:	4c25      	ldr	r4, [pc, #148]	; (8001398 <ST7735_SetAddressWindow+0x14c>)
  *spidr = TxData;
 8001302:	7302      	strb	r2, [r0, #12]
  return ((READ_BIT(SPIx->SR, SPI_SR_TXE) == (SPI_SR_TXE)) ? 1UL : 0UL);
 8001304:	68a2      	ldr	r2, [r4, #8]
 8001306:	0797      	lsls	r7, r2, #30
 8001308:	d5fc      	bpl.n	8001304 <ST7735_SetAddressWindow+0xb8>
  return ((READ_BIT(SPIx->SR, SPI_SR_BSY) == (SPI_SR_BSY)) ? 1UL : 0UL);
 800130a:	4823      	ldr	r0, [pc, #140]	; (8001398 <ST7735_SetAddressWindow+0x14c>)
 800130c:	6882      	ldr	r2, [r0, #8]
 800130e:	0614      	lsls	r4, r2, #24
 8001310:	d4fc      	bmi.n	800130c <ST7735_SetAddressWindow+0xc0>
  WRITE_REG(GPIOx->BSRR, (PinMask >> GPIO_PIN_MASK_POS) & 0x0000FFFFU);
 8001312:	f44f 5c80 	mov.w	ip, #4096	; 0x1000
 8001316:	4a1f      	ldr	r2, [pc, #124]	; (8001394 <ST7735_SetAddressWindow+0x148>)
 8001318:	f44f 6e80 	mov.w	lr, #1024	; 0x400
  WRITE_REG(GPIOx->BRR, (PinMask >> GPIO_PIN_MASK_POS) & 0x0000FFFFU);
 800131c:	4664      	mov	r4, ip
 800131e:	4610      	mov	r0, r2
 8001320:	4667      	mov	r7, ip
  WRITE_REG(GPIOx->BSRR, (PinMask >> GPIO_PIN_MASK_POS) & 0x0000FFFFU);
 8001322:	f8c2 c010 	str.w	ip, [r2, #16]
	ST7735_WriteData(data, sizeof(data));

	// row address set
	ST7735_WriteCommand(ST7735_RASET);
	data[1] = y0 + ST7735_YSTART;
	data[3] = y1 + ST7735_YSTART;
 8001326:	f88d 3007 	strb.w	r3, [sp, #7]
  return ((READ_BIT(SPIx->SR, SPI_SR_TXE) == (SPI_SR_TXE)) ? 1UL : 0UL);
 800132a:	4b1b      	ldr	r3, [pc, #108]	; (8001398 <ST7735_SetAddressWindow+0x14c>)
	data[1] = y0 + ST7735_YSTART;
 800132c:	f88d 1005 	strb.w	r1, [sp, #5]
 8001330:	f8c2 e010 	str.w	lr, [r2, #16]
		ST7735_Write_Byte(buff[temp++]);
 8001334:	f816 1b01 	ldrb.w	r1, [r6], #1
  WRITE_REG(GPIOx->BRR, (PinMask >> GPIO_PIN_MASK_POS) & 0x0000FFFFU);
 8001338:	6147      	str	r7, [r0, #20]
 800133a:	689a      	ldr	r2, [r3, #8]
 800133c:	0792      	lsls	r2, r2, #30
 800133e:	d5fc      	bpl.n	800133a <ST7735_SetAddressWindow+0xee>
  return ((READ_BIT(SPIx->SR, SPI_SR_BSY) == (SPI_SR_BSY)) ? 1UL : 0UL);
 8001340:	689a      	ldr	r2, [r3, #8]
 8001342:	0612      	lsls	r2, r2, #24
 8001344:	d4fc      	bmi.n	8001340 <ST7735_SetAddressWindow+0xf4>
  *spidr = TxData;
 8001346:	7319      	strb	r1, [r3, #12]
  return ((READ_BIT(SPIx->SR, SPI_SR_TXE) == (SPI_SR_TXE)) ? 1UL : 0UL);
 8001348:	689a      	ldr	r2, [r3, #8]
 800134a:	0791      	lsls	r1, r2, #30
 800134c:	d5fc      	bpl.n	8001348 <ST7735_SetAddressWindow+0xfc>
  return ((READ_BIT(SPIx->SR, SPI_SR_BSY) == (SPI_SR_BSY)) ? 1UL : 0UL);
 800134e:	689a      	ldr	r2, [r3, #8]
 8001350:	0612      	lsls	r2, r2, #24
 8001352:	d4fc      	bmi.n	800134e <ST7735_SetAddressWindow+0x102>
	while (temp < buff_size)
 8001354:	42b5      	cmp	r5, r6
  WRITE_REG(GPIOx->BSRR, (PinMask >> GPIO_PIN_MASK_POS) & 0x0000FFFFU);
 8001356:	6104      	str	r4, [r0, #16]
 8001358:	d1ec      	bne.n	8001334 <ST7735_SetAddressWindow+0xe8>
  WRITE_REG(GPIOx->BRR, (PinMask >> GPIO_PIN_MASK_POS) & 0x0000FFFFU);
 800135a:	f44f 6380 	mov.w	r3, #1024	; 0x400
  return ((READ_BIT(SPIx->SR, SPI_SR_TXE) == (SPI_SR_TXE)) ? 1UL : 0UL);
 800135e:	4a0e      	ldr	r2, [pc, #56]	; (8001398 <ST7735_SetAddressWindow+0x14c>)
 8001360:	6143      	str	r3, [r0, #20]
 8001362:	6144      	str	r4, [r0, #20]
 8001364:	6893      	ldr	r3, [r2, #8]
 8001366:	0798      	lsls	r0, r3, #30
 8001368:	d5fc      	bpl.n	8001364 <ST7735_SetAddressWindow+0x118>
  return ((READ_BIT(SPIx->SR, SPI_SR_BSY) == (SPI_SR_BSY)) ? 1UL : 0UL);
 800136a:	4a0b      	ldr	r2, [pc, #44]	; (8001398 <ST7735_SetAddressWindow+0x14c>)
 800136c:	6893      	ldr	r3, [r2, #8]
 800136e:	0619      	lsls	r1, r3, #24
 8001370:	d4fc      	bmi.n	800136c <ST7735_SetAddressWindow+0x120>
  *spidr = TxData;
 8001372:	232c      	movs	r3, #44	; 0x2c
  return ((READ_BIT(SPIx->SR, SPI_SR_TXE) == (SPI_SR_TXE)) ? 1UL : 0UL);
 8001374:	4908      	ldr	r1, [pc, #32]	; (8001398 <ST7735_SetAddressWindow+0x14c>)
  *spidr = TxData;
 8001376:	7313      	strb	r3, [r2, #12]
  return ((READ_BIT(SPIx->SR, SPI_SR_TXE) == (SPI_SR_TXE)) ? 1UL : 0UL);
 8001378:	688b      	ldr	r3, [r1, #8]
 800137a:	079a      	lsls	r2, r3, #30
 800137c:	d5fc      	bpl.n	8001378 <ST7735_SetAddressWindow+0x12c>
  return ((READ_BIT(SPIx->SR, SPI_SR_BSY) == (SPI_SR_BSY)) ? 1UL : 0UL);
 800137e:	4a06      	ldr	r2, [pc, #24]	; (8001398 <ST7735_SetAddressWindow+0x14c>)
 8001380:	6893      	ldr	r3, [r2, #8]
 8001382:	061b      	lsls	r3, r3, #24
 8001384:	d4fc      	bmi.n	8001380 <ST7735_SetAddressWindow+0x134>
  WRITE_REG(GPIOx->BSRR, (PinMask >> GPIO_PIN_MASK_POS) & 0x0000FFFFU);
 8001386:	f44f 5280 	mov.w	r2, #4096	; 0x1000
 800138a:	4b02      	ldr	r3, [pc, #8]	; (8001394 <ST7735_SetAddressWindow+0x148>)
 800138c:	611a      	str	r2, [r3, #16]
	ST7735_WriteData(data, sizeof(data));

	// write to RAM
	ST7735_WriteCommand(ST7735_RAMWR);
}
 800138e:	b003      	add	sp, #12
 8001390:	e8bd 8ff0 	ldmia.w	sp!, {r4, r5, r6, r7, r8, r9, sl, fp, pc}
 8001394:	40010c00 	.word	0x40010c00
 8001398:	40003800 	.word	0x40003800

0800139c <ST7735_Init>:

void ST7735_Init()
{
 800139c:	e92d 43f8 	stmdb	sp!, {r3, r4, r5, r6, r7, r8, r9, lr}
  WRITE_REG(GPIOx->BRR, (PinMask >> GPIO_PIN_MASK_POS) & 0x0000FFFFU);
 80013a0:	f44f 5380 	mov.w	r3, #4096	; 0x1000
 80013a4:	f44f 6700 	mov.w	r7, #2048	; 0x800
 80013a8:	4c82      	ldr	r4, [pc, #520]	; (80015b4 <ST7735_Init+0x218>)
	LL_mDelay(1);
 80013aa:	2001      	movs	r0, #1
 80013ac:	6163      	str	r3, [r4, #20]
 80013ae:	6167      	str	r7, [r4, #20]
 80013b0:	f001 fb3e 	bl	8002a30 <LL_mDelay>
  WRITE_REG(GPIOx->BSRR, (PinMask >> GPIO_PIN_MASK_POS) & 0x0000FFFFU);
 80013b4:	260f      	movs	r6, #15
 80013b6:	2001      	movs	r0, #1
	numCommands = *addr++;
 80013b8:	4a7f      	ldr	r2, [pc, #508]	; (80015b8 <ST7735_Init+0x21c>)
  WRITE_REG(GPIOx->BRR, (PinMask >> GPIO_PIN_MASK_POS) & 0x0000FFFFU);
 80013ba:	4625      	mov	r5, r4
  WRITE_REG(GPIOx->BSRR, (PinMask >> GPIO_PIN_MASK_POS) & 0x0000FFFFU);
 80013bc:	6127      	str	r7, [r4, #16]
  return ((READ_BIT(SPIx->SR, SPI_SR_TXE) == (SPI_SR_TXE)) ? 1UL : 0UL);
 80013be:	f5a4 4454 	sub.w	r4, r4, #54272	; 0xd400
  WRITE_REG(GPIOx->BRR, (PinMask >> GPIO_PIN_MASK_POS) & 0x0000FFFFU);
 80013c2:	f44f 6180 	mov.w	r1, #1024	; 0x400
 80013c6:	f44f 5380 	mov.w	r3, #4096	; 0x1000
 80013ca:	6169      	str	r1, [r5, #20]
 80013cc:	616b      	str	r3, [r5, #20]
 80013ce:	68a3      	ldr	r3, [r4, #8]
 80013d0:	079b      	lsls	r3, r3, #30
 80013d2:	d5fc      	bpl.n	80013ce <ST7735_Init+0x32>
  return ((READ_BIT(SPIx->SR, SPI_SR_BSY) == (SPI_SR_BSY)) ? 1UL : 0UL);
 80013d4:	68a3      	ldr	r3, [r4, #8]
 80013d6:	061f      	lsls	r7, r3, #24
 80013d8:	d4fc      	bmi.n	80013d4 <ST7735_Init+0x38>
  *spidr = TxData;
 80013da:	7320      	strb	r0, [r4, #12]
  return ((READ_BIT(SPIx->SR, SPI_SR_TXE) == (SPI_SR_TXE)) ? 1UL : 0UL);
 80013dc:	68a3      	ldr	r3, [r4, #8]
 80013de:	0798      	lsls	r0, r3, #30
 80013e0:	d5fc      	bpl.n	80013dc <ST7735_Init+0x40>
  return ((READ_BIT(SPIx->SR, SPI_SR_BSY) == (SPI_SR_BSY)) ? 1UL : 0UL);
 80013e2:	68a3      	ldr	r3, [r4, #8]
 80013e4:	0619      	lsls	r1, r3, #24
 80013e6:	d4fc      	bmi.n	80013e2 <ST7735_Init+0x46>
  WRITE_REG(GPIOx->BSRR, (PinMask >> GPIO_PIN_MASK_POS) & 0x0000FFFFU);
 80013e8:	f44f 5080 	mov.w	r0, #4096	; 0x1000
 80013ec:	6128      	str	r0, [r5, #16]
		numArgs = *addr++;
 80013ee:	7857      	ldrb	r7, [r2, #1]
 80013f0:	1c91      	adds	r1, r2, #2
		if(numArgs) {
 80013f2:	f017 087f 	ands.w	r8, r7, #127	; 0x7f
 80013f6:	d111      	bne.n	800141c <ST7735_Init+0x80>
		if(ms)
 80013f8:	063a      	lsls	r2, r7, #24
 80013fa:	d508      	bpl.n	800140e <ST7735_Init+0x72>
			ms = *addr++;
 80013fc:	7808      	ldrb	r0, [r1, #0]
 80013fe:	1c4f      	adds	r7, r1, #1
 8001400:	28ff      	cmp	r0, #255	; 0xff
			LL_mDelay(ms);
 8001402:	bf08      	it	eq
 8001404:	f44f 70fa 	moveq.w	r0, #500	; 0x1f4
 8001408:	f001 fb12 	bl	8002a30 <LL_mDelay>
			ms = *addr++;
 800140c:	4639      	mov	r1, r7
 800140e:	3e01      	subs	r6, #1
	while(numCommands--)
 8001410:	f016 06ff 	ands.w	r6, r6, #255	; 0xff
 8001414:	d023      	beq.n	800145e <ST7735_Init+0xc2>
 8001416:	7808      	ldrb	r0, [r1, #0]
 8001418:	460a      	mov	r2, r1
 800141a:	e7d2      	b.n	80013c2 <ST7735_Init+0x26>
 800141c:	f44f 6380 	mov.w	r3, #1024	; 0x400
  WRITE_REG(GPIOx->BRR, (PinMask >> GPIO_PIN_MASK_POS) & 0x0000FFFFU);
 8001420:	4686      	mov	lr, r0
 8001422:	f108 3cff 	add.w	ip, r8, #4294967295
 8001426:	fa5f fc8c 	uxtb.w	ip, ip
 800142a:	3201      	adds	r2, #1
 800142c:	448c      	add	ip, r1
  WRITE_REG(GPIOx->BSRR, (PinMask >> GPIO_PIN_MASK_POS) & 0x0000FFFFU);
 800142e:	612b      	str	r3, [r5, #16]
		ST7735_Write_Byte(buff[temp++]);
 8001430:	f812 9f01 	ldrb.w	r9, [r2, #1]!
  WRITE_REG(GPIOx->BRR, (PinMask >> GPIO_PIN_MASK_POS) & 0x0000FFFFU);
 8001434:	f8c5 e014 	str.w	lr, [r5, #20]
  return ((READ_BIT(SPIx->SR, SPI_SR_TXE) == (SPI_SR_TXE)) ? 1UL : 0UL);
 8001438:	68a3      	ldr	r3, [r4, #8]
 800143a:	079b      	lsls	r3, r3, #30
 800143c:	d5fc      	bpl.n	8001438 <ST7735_Init+0x9c>
  return ((READ_BIT(SPIx->SR, SPI_SR_BSY) == (SPI_SR_BSY)) ? 1UL : 0UL);
 800143e:	68a3      	ldr	r3, [r4, #8]
 8001440:	061b      	lsls	r3, r3, #24
 8001442:	d4fc      	bmi.n	800143e <ST7735_Init+0xa2>
  *spidr = TxData;
 8001444:	f884 900c 	strb.w	r9, [r4, #12]
  return ((READ_BIT(SPIx->SR, SPI_SR_TXE) == (SPI_SR_TXE)) ? 1UL : 0UL);
 8001448:	68a3      	ldr	r3, [r4, #8]
 800144a:	079b      	lsls	r3, r3, #30
 800144c:	d5fc      	bpl.n	8001448 <ST7735_Init+0xac>
  return ((READ_BIT(SPIx->SR, SPI_SR_BSY) == (SPI_SR_BSY)) ? 1UL : 0UL);
 800144e:	68a3      	ldr	r3, [r4, #8]
 8001450:	061b      	lsls	r3, r3, #24
 8001452:	d4fc      	bmi.n	800144e <ST7735_Init+0xb2>
	while (temp < buff_size)
 8001454:	4594      	cmp	ip, r2
  WRITE_REG(GPIOx->BSRR, (PinMask >> GPIO_PIN_MASK_POS) & 0x0000FFFFU);
 8001456:	6128      	str	r0, [r5, #16]
 8001458:	d1ea      	bne.n	8001430 <ST7735_Init+0x94>
			addr += numArgs;
 800145a:	4441      	add	r1, r8
 800145c:	e7cc      	b.n	80013f8 <ST7735_Init+0x5c>
	while(numCommands--)
 800145e:	2602      	movs	r6, #2
 8001460:	202a      	movs	r0, #42	; 0x2a
	numCommands = *addr++;
 8001462:	4a56      	ldr	r2, [pc, #344]	; (80015bc <ST7735_Init+0x220>)
  WRITE_REG(GPIOx->BRR, (PinMask >> GPIO_PIN_MASK_POS) & 0x0000FFFFU);
 8001464:	4d53      	ldr	r5, [pc, #332]	; (80015b4 <ST7735_Init+0x218>)
  return ((READ_BIT(SPIx->SR, SPI_SR_TXE) == (SPI_SR_TXE)) ? 1UL : 0UL);
 8001466:	4c56      	ldr	r4, [pc, #344]	; (80015c0 <ST7735_Init+0x224>)
 8001468:	f44f 6180 	mov.w	r1, #1024	; 0x400
 800146c:	f44f 5380 	mov.w	r3, #4096	; 0x1000
 8001470:	6169      	str	r1, [r5, #20]
 8001472:	616b      	str	r3, [r5, #20]
 8001474:	68a3      	ldr	r3, [r4, #8]
 8001476:	079b      	lsls	r3, r3, #30
 8001478:	d5fc      	bpl.n	8001474 <ST7735_Init+0xd8>
  return ((READ_BIT(SPIx->SR, SPI_SR_BSY) == (SPI_SR_BSY)) ? 1UL : 0UL);
 800147a:	68a3      	ldr	r3, [r4, #8]
 800147c:	061f      	lsls	r7, r3, #24
 800147e:	d4fc      	bmi.n	800147a <ST7735_Init+0xde>
  *spidr = TxData;
 8001480:	7320      	strb	r0, [r4, #12]
  return ((READ_BIT(SPIx->SR, SPI_SR_TXE) == (SPI_SR_TXE)) ? 1UL : 0UL);
 8001482:	68a3      	ldr	r3, [r4, #8]
 8001484:	0798      	lsls	r0, r3, #30
 8001486:	d5fc      	bpl.n	8001482 <ST7735_Init+0xe6>
  return ((READ_BIT(SPIx->SR, SPI_SR_BSY) == (SPI_SR_BSY)) ? 1UL : 0UL);
 8001488:	68a3      	ldr	r3, [r4, #8]
 800148a:	0619      	lsls	r1, r3, #24
 800148c:	d4fc      	bmi.n	8001488 <ST7735_Init+0xec>
  WRITE_REG(GPIOx->BSRR, (PinMask >> GPIO_PIN_MASK_POS) & 0x0000FFFFU);
 800148e:	f44f 5080 	mov.w	r0, #4096	; 0x1000
 8001492:	6128      	str	r0, [r5, #16]
		numArgs = *addr++;
 8001494:	7857      	ldrb	r7, [r2, #1]
 8001496:	1c91      	adds	r1, r2, #2
		if(numArgs) {
 8001498:	f017 087f 	ands.w	r8, r7, #127	; 0x7f
 800149c:	d110      	bne.n	80014c0 <ST7735_Init+0x124>
		if(ms)
 800149e:	063a      	lsls	r2, r7, #24
 80014a0:	d508      	bpl.n	80014b4 <ST7735_Init+0x118>
			ms = *addr++;
 80014a2:	7808      	ldrb	r0, [r1, #0]
 80014a4:	1c4f      	adds	r7, r1, #1
 80014a6:	28ff      	cmp	r0, #255	; 0xff
			LL_mDelay(ms);
 80014a8:	bf08      	it	eq
 80014aa:	f44f 70fa 	moveq.w	r0, #500	; 0x1f4
 80014ae:	f001 fabf 	bl	8002a30 <LL_mDelay>
			ms = *addr++;
 80014b2:	4639      	mov	r1, r7
	while(numCommands--)
 80014b4:	2e01      	cmp	r6, #1
 80014b6:	d024      	beq.n	8001502 <ST7735_Init+0x166>
 80014b8:	7808      	ldrb	r0, [r1, #0]
 80014ba:	460a      	mov	r2, r1
 80014bc:	2601      	movs	r6, #1
 80014be:	e7d3      	b.n	8001468 <ST7735_Init+0xcc>
 80014c0:	f44f 6380 	mov.w	r3, #1024	; 0x400
  WRITE_REG(GPIOx->BRR, (PinMask >> GPIO_PIN_MASK_POS) & 0x0000FFFFU);
 80014c4:	4686      	mov	lr, r0
 80014c6:	f108 3cff 	add.w	ip, r8, #4294967295
 80014ca:	fa5f fc8c 	uxtb.w	ip, ip
 80014ce:	3201      	adds	r2, #1
 80014d0:	448c      	add	ip, r1
  WRITE_REG(GPIOx->BSRR, (PinMask >> GPIO_PIN_MASK_POS) & 0x0000FFFFU);
 80014d2:	612b      	str	r3, [r5, #16]
		ST7735_Write_Byte(buff[temp++]);
 80014d4:	f812 9f01 	ldrb.w	r9, [r2, #1]!
  WRITE_REG(GPIOx->BRR, (PinMask >> GPIO_PIN_MASK_POS) & 0x0000FFFFU);
 80014d8:	f8c5 e014 	str.w	lr, [r5, #20]
  return ((READ_BIT(SPIx->SR, SPI_SR_TXE) == (SPI_SR_TXE)) ? 1UL : 0UL);
 80014dc:	68a3      	ldr	r3, [r4, #8]
 80014de:	079b      	lsls	r3, r3, #30
 80014e0:	d5fc      	bpl.n	80014dc <ST7735_Init+0x140>
  return ((READ_BIT(SPIx->SR, SPI_SR_BSY) == (SPI_SR_BSY)) ? 1UL : 0UL);
 80014e2:	68a3      	ldr	r3, [r4, #8]
 80014e4:	061b      	lsls	r3, r3, #24
 80014e6:	d4fc      	bmi.n	80014e2 <ST7735_Init+0x146>
  *spidr = TxData;
 80014e8:	f884 900c 	strb.w	r9, [r4, #12]
  return ((READ_BIT(SPIx->SR, SPI_SR_TXE) == (SPI_SR_TXE)) ? 1UL : 0UL);
 80014ec:	68a3      	ldr	r3, [r4, #8]
 80014ee:	079b      	lsls	r3, r3, #30
 80014f0:	d5fc      	bpl.n	80014ec <ST7735_Init+0x150>
  return ((READ_BIT(SPIx->SR, SPI_SR_BSY) == (SPI_SR_BSY)) ? 1UL : 0UL);
 80014f2:	68a3      	ldr	r3, [r4, #8]
 80014f4:	061b      	lsls	r3, r3, #24
 80014f6:	d4fc      	bmi.n	80014f2 <ST7735_Init+0x156>
	while (temp < buff_size)
 80014f8:	4594      	cmp	ip, r2
  WRITE_REG(GPIOx->BSRR, (PinMask >> GPIO_PIN_MASK_POS) & 0x0000FFFFU);
 80014fa:	6128      	str	r0, [r5, #16]
 80014fc:	d1ea      	bne.n	80014d4 <ST7735_Init+0x138>
			addr += numArgs;
 80014fe:	4441      	add	r1, r8
 8001500:	e7cd      	b.n	800149e <ST7735_Init+0x102>
	while(numCommands--)
 8001502:	2604      	movs	r6, #4
 8001504:	20e0      	movs	r0, #224	; 0xe0
	numCommands = *addr++;
 8001506:	4a2f      	ldr	r2, [pc, #188]	; (80015c4 <ST7735_Init+0x228>)
  WRITE_REG(GPIOx->BRR, (PinMask >> GPIO_PIN_MASK_POS) & 0x0000FFFFU);
 8001508:	4d2a      	ldr	r5, [pc, #168]	; (80015b4 <ST7735_Init+0x218>)
  return ((READ_BIT(SPIx->SR, SPI_SR_TXE) == (SPI_SR_TXE)) ? 1UL : 0UL);
 800150a:	4c2d      	ldr	r4, [pc, #180]	; (80015c0 <ST7735_Init+0x224>)
 800150c:	f44f 6180 	mov.w	r1, #1024	; 0x400
 8001510:	f44f 5380 	mov.w	r3, #4096	; 0x1000
 8001514:	6169      	str	r1, [r5, #20]
 8001516:	616b      	str	r3, [r5, #20]
 8001518:	68a3      	ldr	r3, [r4, #8]
 800151a:	079b      	lsls	r3, r3, #30
 800151c:	d5fc      	bpl.n	8001518 <ST7735_Init+0x17c>
  return ((READ_BIT(SPIx->SR, SPI_SR_BSY) == (SPI_SR_BSY)) ? 1UL : 0UL);
 800151e:	68a3      	ldr	r3, [r4, #8]
 8001520:	061f      	lsls	r7, r3, #24
 8001522:	d4fc      	bmi.n	800151e <ST7735_Init+0x182>
  *spidr = TxData;
 8001524:	7320      	strb	r0, [r4, #12]
  return ((READ_BIT(SPIx->SR, SPI_SR_TXE) == (SPI_SR_TXE)) ? 1UL : 0UL);
 8001526:	68a3      	ldr	r3, [r4, #8]
 8001528:	0798      	lsls	r0, r3, #30
 800152a:	d5fc      	bpl.n	8001526 <ST7735_Init+0x18a>
  return ((READ_BIT(SPIx->SR, SPI_SR_BSY) == (SPI_SR_BSY)) ? 1UL : 0UL);
 800152c:	68a3      	ldr	r3, [r4, #8]
 800152e:	0619      	lsls	r1, r3, #24
 8001530:	d4fc      	bmi.n	800152c <ST7735_Init+0x190>
  WRITE_REG(GPIOx->BSRR, (PinMask >> GPIO_PIN_MASK_POS) & 0x0000FFFFU);
 8001532:	f44f 5080 	mov.w	r0, #4096	; 0x1000
 8001536:	6128      	str	r0, [r5, #16]
		numArgs = *addr++;
 8001538:	7857      	ldrb	r7, [r2, #1]
 800153a:	1c91      	adds	r1, r2, #2
		if(numArgs) {
 800153c:	f017 087f 	ands.w	r8, r7, #127	; 0x7f
 8001540:	d111      	bne.n	8001566 <ST7735_Init+0x1ca>
		if(ms)
 8001542:	063b      	lsls	r3, r7, #24
 8001544:	d508      	bpl.n	8001558 <ST7735_Init+0x1bc>
			ms = *addr++;
 8001546:	7808      	ldrb	r0, [r1, #0]
 8001548:	1c4f      	adds	r7, r1, #1
 800154a:	28ff      	cmp	r0, #255	; 0xff
			LL_mDelay(ms);
 800154c:	bf08      	it	eq
 800154e:	f44f 70fa 	moveq.w	r0, #500	; 0x1f4
 8001552:	f001 fa6d 	bl	8002a30 <LL_mDelay>
			ms = *addr++;
 8001556:	4639      	mov	r1, r7
 8001558:	3e01      	subs	r6, #1
	while(numCommands--)
 800155a:	f016 06ff 	ands.w	r6, r6, #255	; 0xff
 800155e:	d023      	beq.n	80015a8 <ST7735_Init+0x20c>
 8001560:	7808      	ldrb	r0, [r1, #0]
 8001562:	460a      	mov	r2, r1
 8001564:	e7d2      	b.n	800150c <ST7735_Init+0x170>
 8001566:	f44f 6380 	mov.w	r3, #1024	; 0x400
  WRITE_REG(GPIOx->BRR, (PinMask >> GPIO_PIN_MASK_POS) & 0x0000FFFFU);
 800156a:	4686      	mov	lr, r0
 800156c:	f108 3cff 	add.w	ip, r8, #4294967295
 8001570:	fa5f fc8c 	uxtb.w	ip, ip
 8001574:	3201      	adds	r2, #1
 8001576:	448c      	add	ip, r1
  WRITE_REG(GPIOx->BSRR, (PinMask >> GPIO_PIN_MASK_POS) & 0x0000FFFFU);
 8001578:	612b      	str	r3, [r5, #16]
		ST7735_Write_Byte(buff[temp++]);
 800157a:	f812 9f01 	ldrb.w	r9, [r2, #1]!
  WRITE_REG(GPIOx->BRR, (PinMask >> GPIO_PIN_MASK_POS) & 0x0000FFFFU);
 800157e:	f8c5 e014 	str.w	lr, [r5, #20]
  return ((READ_BIT(SPIx->SR, SPI_SR_TXE) == (SPI_SR_TXE)) ? 1UL : 0UL);
 8001582:	68a3      	ldr	r3, [r4, #8]
 8001584:	079b      	lsls	r3, r3, #30
 8001586:	d5fc      	bpl.n	8001582 <ST7735_Init+0x1e6>
  return ((READ_BIT(SPIx->SR, SPI_SR_BSY) == (SPI_SR_BSY)) ? 1UL : 0UL);
 8001588:	68a3      	ldr	r3, [r4, #8]
 800158a:	061b      	lsls	r3, r3, #24
 800158c:	d4fc      	bmi.n	8001588 <ST7735_Init+0x1ec>
  *spidr = TxData;
 800158e:	f884 900c 	strb.w	r9, [r4, #12]
  return ((READ_BIT(SPIx->SR, SPI_SR_TXE) == (SPI_SR_TXE)) ? 1UL : 0UL);
 8001592:	68a3      	ldr	r3, [r4, #8]
 8001594:	079b      	lsls	r3, r3, #30
 8001596:	d5fc      	bpl.n	8001592 <ST7735_Init+0x1f6>
  return ((READ_BIT(SPIx->SR, SPI_SR_BSY) == (SPI_SR_BSY)) ? 1UL : 0UL);
 8001598:	68a3      	ldr	r3, [r4, #8]
 800159a:	061b      	lsls	r3, r3, #24
 800159c:	d4fc      	bmi.n	8001598 <ST7735_Init+0x1fc>
	while (temp < buff_size)
 800159e:	4594      	cmp	ip, r2
  WRITE_REG(GPIOx->BSRR, (PinMask >> GPIO_PIN_MASK_POS) & 0x0000FFFFU);
 80015a0:	6128      	str	r0, [r5, #16]
 80015a2:	d1ea      	bne.n	800157a <ST7735_Init+0x1de>
			addr += numArgs;
 80015a4:	4441      	add	r1, r8
 80015a6:	e7cc      	b.n	8001542 <ST7735_Init+0x1a6>
 80015a8:	f44f 5280 	mov.w	r2, #4096	; 0x1000
 80015ac:	4b01      	ldr	r3, [pc, #4]	; (80015b4 <ST7735_Init+0x218>)
 80015ae:	611a      	str	r2, [r3, #16]
	ST7735_Reset();
	ST7735_ExecuteCommandList(init_cmds1);
	ST7735_ExecuteCommandList(init_cmds2);
	ST7735_ExecuteCommandList(init_cmds3);
	ST7735_CS_High();
}
 80015b0:	e8bd 83f8 	ldmia.w	sp!, {r3, r4, r5, r6, r7, r8, r9, pc}
 80015b4:	40010c00 	.word	0x40010c00
 80015b8:	08003321 	.word	0x08003321
 80015bc:	0800335d 	.word	0x0800335d
 80015c0:	40003800 	.word	0x40003800
 80015c4:	0800336d 	.word	0x0800336d

080015c8 <ST7735_HLine>:
{
	uint16_t i;
	uint8_t CH = color >> 8;
	uint8_t CL = (uint8_t)color;

	if((x >= ST7735_WIDTH) || (x2 >= ST7735_WIDTH) || (y >= ST7735_HEIGHT))
 80015c8:	289f      	cmp	r0, #159	; 0x9f
 80015ca:	d84b      	bhi.n	8001664 <ST7735_HLine+0x9c>
 80015cc:	299f      	cmp	r1, #159	; 0x9f
 80015ce:	d849      	bhi.n	8001664 <ST7735_HLine+0x9c>
 80015d0:	2a7f      	cmp	r2, #127	; 0x7f
 80015d2:	d847      	bhi.n	8001664 <ST7735_HLine+0x9c>
{
 80015d4:	b5f8      	push	{r3, r4, r5, r6, r7, lr}
 80015d6:	460e      	mov	r6, r1
 80015d8:	4604      	mov	r4, r0
  WRITE_REG(GPIOx->BRR, (PinMask >> GPIO_PIN_MASK_POS) & 0x0000FFFFU);
 80015da:	f44f 5080 	mov.w	r0, #4096	; 0x1000
 80015de:	4922      	ldr	r1, [pc, #136]	; (8001668 <ST7735_HLine+0xa0>)
		return;

	ST7735_CS_Low();

	if (x < x2) ST7735_SetAddressWindow(x, y, x2, y);
 80015e0:	42b4      	cmp	r4, r6
 80015e2:	6148      	str	r0, [r1, #20]
 80015e4:	461d      	mov	r5, r3
 80015e6:	b2e0      	uxtb	r0, r4
 80015e8:	b2d3      	uxtb	r3, r2
 80015ea:	b2f1      	uxtb	r1, r6
	else ST7735_SetAddressWindow(x2, y, x, y);
 80015ec:	bf2a      	itet	cs
 80015ee:	4602      	movcs	r2, r0
	if (x < x2) ST7735_SetAddressWindow(x, y, x2, y);
 80015f0:	460a      	movcc	r2, r1
	else ST7735_SetAddressWindow(x2, y, x, y);
 80015f2:	4608      	movcs	r0, r1
 80015f4:	4619      	mov	r1, r3
 80015f6:	f7ff fe29 	bl	800124c <ST7735_SetAddressWindow>
  WRITE_REG(GPIOx->BSRR, (PinMask >> GPIO_PIN_MASK_POS) & 0x0000FFFFU);
 80015fa:	f44f 6380 	mov.w	r3, #1024	; 0x400

	ST7735_DataMode();

	for(i = (x2 - x); i > 0; i--)
 80015fe:	1b31      	subs	r1, r6, r4
 8001600:	4819      	ldr	r0, [pc, #100]	; (8001668 <ST7735_HLine+0xa0>)
 8001602:	b289      	uxth	r1, r1
 8001604:	6103      	str	r3, [r0, #16]
 8001606:	2900      	cmp	r1, #0
 8001608:	d027      	beq.n	800165a <ST7735_HLine+0x92>
  WRITE_REG(GPIOx->BRR, (PinMask >> GPIO_PIN_MASK_POS) & 0x0000FFFFU);
 800160a:	f44f 5480 	mov.w	r4, #4096	; 0x1000
 800160e:	4627      	mov	r7, r4
  return ((READ_BIT(SPIx->SR, SPI_SR_TXE) == (SPI_SR_TXE)) ? 1UL : 0UL);
 8001610:	4a16      	ldr	r2, [pc, #88]	; (800166c <ST7735_HLine+0xa4>)
	uint8_t CH = color >> 8;
 8001612:	0a2e      	lsrs	r6, r5, #8
 8001614:	b2ed      	uxtb	r5, r5
 8001616:	6147      	str	r7, [r0, #20]
 8001618:	6893      	ldr	r3, [r2, #8]
 800161a:	079b      	lsls	r3, r3, #30
 800161c:	d5fc      	bpl.n	8001618 <ST7735_HLine+0x50>
  return ((READ_BIT(SPIx->SR, SPI_SR_BSY) == (SPI_SR_BSY)) ? 1UL : 0UL);
 800161e:	6893      	ldr	r3, [r2, #8]
 8001620:	061b      	lsls	r3, r3, #24
 8001622:	d4fc      	bmi.n	800161e <ST7735_HLine+0x56>
  *spidr = TxData;
 8001624:	7316      	strb	r6, [r2, #12]
  return ((READ_BIT(SPIx->SR, SPI_SR_TXE) == (SPI_SR_TXE)) ? 1UL : 0UL);
 8001626:	6893      	ldr	r3, [r2, #8]
 8001628:	079b      	lsls	r3, r3, #30
 800162a:	d5fc      	bpl.n	8001626 <ST7735_HLine+0x5e>
  return ((READ_BIT(SPIx->SR, SPI_SR_BSY) == (SPI_SR_BSY)) ? 1UL : 0UL);
 800162c:	6893      	ldr	r3, [r2, #8]
 800162e:	061b      	lsls	r3, r3, #24
 8001630:	d4fc      	bmi.n	800162c <ST7735_HLine+0x64>
  WRITE_REG(GPIOx->BSRR, (PinMask >> GPIO_PIN_MASK_POS) & 0x0000FFFFU);
 8001632:	6104      	str	r4, [r0, #16]
  WRITE_REG(GPIOx->BRR, (PinMask >> GPIO_PIN_MASK_POS) & 0x0000FFFFU);
 8001634:	6144      	str	r4, [r0, #20]
  return ((READ_BIT(SPIx->SR, SPI_SR_TXE) == (SPI_SR_TXE)) ? 1UL : 0UL);
 8001636:	6893      	ldr	r3, [r2, #8]
 8001638:	079b      	lsls	r3, r3, #30
 800163a:	d5fc      	bpl.n	8001636 <ST7735_HLine+0x6e>
  return ((READ_BIT(SPIx->SR, SPI_SR_BSY) == (SPI_SR_BSY)) ? 1UL : 0UL);
 800163c:	6893      	ldr	r3, [r2, #8]
 800163e:	061b      	lsls	r3, r3, #24
 8001640:	d4fc      	bmi.n	800163c <ST7735_HLine+0x74>
  *spidr = TxData;
 8001642:	7315      	strb	r5, [r2, #12]
  return ((READ_BIT(SPIx->SR, SPI_SR_TXE) == (SPI_SR_TXE)) ? 1UL : 0UL);
 8001644:	6893      	ldr	r3, [r2, #8]
 8001646:	079b      	lsls	r3, r3, #30
 8001648:	d5fc      	bpl.n	8001644 <ST7735_HLine+0x7c>
  return ((READ_BIT(SPIx->SR, SPI_SR_BSY) == (SPI_SR_BSY)) ? 1UL : 0UL);
 800164a:	6893      	ldr	r3, [r2, #8]
 800164c:	061b      	lsls	r3, r3, #24
 800164e:	d4fc      	bmi.n	800164a <ST7735_HLine+0x82>
	for(i = (x2 - x); i > 0; i--)
 8001650:	3901      	subs	r1, #1
 8001652:	b289      	uxth	r1, r1
  WRITE_REG(GPIOx->BSRR, (PinMask >> GPIO_PIN_MASK_POS) & 0x0000FFFFU);
 8001654:	6104      	str	r4, [r0, #16]
 8001656:	2900      	cmp	r1, #0
 8001658:	d1dd      	bne.n	8001616 <ST7735_HLine+0x4e>
 800165a:	f44f 5280 	mov.w	r2, #4096	; 0x1000
 800165e:	4b02      	ldr	r3, [pc, #8]	; (8001668 <ST7735_HLine+0xa0>)
 8001660:	611a      	str	r2, [r3, #16]
	{
		ST7735_Write_Byte(CH);
		ST7735_Write_Byte(CL);
	}
	ST7735_CS_High();
}
 8001662:	bdf8      	pop	{r3, r4, r5, r6, r7, pc}
 8001664:	4770      	bx	lr
 8001666:	bf00      	nop
 8001668:	40010c00 	.word	0x40010c00
 800166c:	40003800 	.word	0x40003800

08001670 <ST7735_VLine>:

void ST7735_VLine(uint16_t x, uint16_t y1, uint16_t y2, uint16_t color)
{
 8001670:	e92d 41f0 	stmdb	sp!, {r4, r5, r6, r7, r8, lr}
 8001674:	460f      	mov	r7, r1
 8001676:	4690      	mov	r8, r2
  WRITE_REG(GPIOx->BRR, (PinMask >> GPIO_PIN_MASK_POS) & 0x0000FFFFU);
 8001678:	f44f 5c80 	mov.w	ip, #4096	; 0x1000
 800167c:	4e23      	ldr	r6, [pc, #140]	; (800170c <ST7735_VLine+0x9c>)
	uint8_t CH = color >> 8;
	uint8_t CL = (uint8_t)color;

	ST7735_CS_Low();

	if (y1 < y2) ST7735_SetAddressWindow(x,y1,x,y2);
 800167e:	4547      	cmp	r7, r8
 8001680:	b2c2      	uxtb	r2, r0
 8001682:	fa5f f188 	uxtb.w	r1, r8
 8001686:	b2f8      	uxtb	r0, r7
	uint8_t CH = color >> 8;
 8001688:	ea4f 2513 	mov.w	r5, r3, lsr #8
	uint8_t CL = (uint8_t)color;
 800168c:	b2dc      	uxtb	r4, r3
 800168e:	f8c6 c014 	str.w	ip, [r6, #20]
	if (y1 < y2) ST7735_SetAddressWindow(x,y1,x,y2);
 8001692:	bf36      	itet	cc
 8001694:	460b      	movcc	r3, r1
	else ST7735_SetAddressWindow(x,y2,x,y1);
 8001696:	4603      	movcs	r3, r0
	if (y1 < y2) ST7735_SetAddressWindow(x,y1,x,y2);
 8001698:	4601      	movcc	r1, r0
	else ST7735_SetAddressWindow(x,y2,x,y1);
 800169a:	4610      	mov	r0, r2
 800169c:	f7ff fdd6 	bl	800124c <ST7735_SetAddressWindow>
  WRITE_REG(GPIOx->BSRR, (PinMask >> GPIO_PIN_MASK_POS) & 0x0000FFFFU);
 80016a0:	f44f 6380 	mov.w	r3, #1024	; 0x400
 80016a4:	4e19      	ldr	r6, [pc, #100]	; (800170c <ST7735_VLine+0x9c>)

	ST7735_DataMode();

	for (i = 0; i <= (y2 - y1); i++)
 80016a6:	ebb8 0c07 	subs.w	ip, r8, r7
 80016aa:	6133      	str	r3, [r6, #16]
 80016ac:	d427      	bmi.n	80016fe <ST7735_VLine+0x8e>
  WRITE_REG(GPIOx->BRR, (PinMask >> GPIO_PIN_MASK_POS) & 0x0000FFFFU);
 80016ae:	f44f 5780 	mov.w	r7, #4096	; 0x1000
 80016b2:	2000      	movs	r0, #0
 80016b4:	46be      	mov	lr, r7
  return ((READ_BIT(SPIx->SR, SPI_SR_TXE) == (SPI_SR_TXE)) ? 1UL : 0UL);
 80016b6:	4a16      	ldr	r2, [pc, #88]	; (8001710 <ST7735_VLine+0xa0>)
 80016b8:	f8c6 e014 	str.w	lr, [r6, #20]
 80016bc:	6893      	ldr	r3, [r2, #8]
 80016be:	0799      	lsls	r1, r3, #30
 80016c0:	d5fc      	bpl.n	80016bc <ST7735_VLine+0x4c>
  return ((READ_BIT(SPIx->SR, SPI_SR_BSY) == (SPI_SR_BSY)) ? 1UL : 0UL);
 80016c2:	6893      	ldr	r3, [r2, #8]
 80016c4:	061b      	lsls	r3, r3, #24
 80016c6:	d4fc      	bmi.n	80016c2 <ST7735_VLine+0x52>
  *spidr = TxData;
 80016c8:	7315      	strb	r5, [r2, #12]
  return ((READ_BIT(SPIx->SR, SPI_SR_TXE) == (SPI_SR_TXE)) ? 1UL : 0UL);
 80016ca:	6893      	ldr	r3, [r2, #8]
 80016cc:	0799      	lsls	r1, r3, #30
 80016ce:	d5fc      	bpl.n	80016ca <ST7735_VLine+0x5a>
  return ((READ_BIT(SPIx->SR, SPI_SR_BSY) == (SPI_SR_BSY)) ? 1UL : 0UL);
 80016d0:	6891      	ldr	r1, [r2, #8]
 80016d2:	060b      	lsls	r3, r1, #24
 80016d4:	d4fc      	bmi.n	80016d0 <ST7735_VLine+0x60>
  WRITE_REG(GPIOx->BSRR, (PinMask >> GPIO_PIN_MASK_POS) & 0x0000FFFFU);
 80016d6:	6137      	str	r7, [r6, #16]
  WRITE_REG(GPIOx->BRR, (PinMask >> GPIO_PIN_MASK_POS) & 0x0000FFFFU);
 80016d8:	6177      	str	r7, [r6, #20]
  return ((READ_BIT(SPIx->SR, SPI_SR_TXE) == (SPI_SR_TXE)) ? 1UL : 0UL);
 80016da:	6891      	ldr	r1, [r2, #8]
 80016dc:	0789      	lsls	r1, r1, #30
 80016de:	d5fc      	bpl.n	80016da <ST7735_VLine+0x6a>
  return ((READ_BIT(SPIx->SR, SPI_SR_BSY) == (SPI_SR_BSY)) ? 1UL : 0UL);
 80016e0:	6891      	ldr	r1, [r2, #8]
 80016e2:	060b      	lsls	r3, r1, #24
 80016e4:	d4fc      	bmi.n	80016e0 <ST7735_VLine+0x70>
  *spidr = TxData;
 80016e6:	7314      	strb	r4, [r2, #12]
  return ((READ_BIT(SPIx->SR, SPI_SR_TXE) == (SPI_SR_TXE)) ? 1UL : 0UL);
 80016e8:	6891      	ldr	r1, [r2, #8]
 80016ea:	0789      	lsls	r1, r1, #30
 80016ec:	d5fc      	bpl.n	80016e8 <ST7735_VLine+0x78>
  return ((READ_BIT(SPIx->SR, SPI_SR_BSY) == (SPI_SR_BSY)) ? 1UL : 0UL);
 80016ee:	6891      	ldr	r1, [r2, #8]
 80016f0:	060b      	lsls	r3, r1, #24
 80016f2:	d4fc      	bmi.n	80016ee <ST7735_VLine+0x7e>
 80016f4:	3001      	adds	r0, #1
 80016f6:	b280      	uxth	r0, r0
 80016f8:	4560      	cmp	r0, ip
  WRITE_REG(GPIOx->BSRR, (PinMask >> GPIO_PIN_MASK_POS) & 0x0000FFFFU);
 80016fa:	6137      	str	r7, [r6, #16]
 80016fc:	dddc      	ble.n	80016b8 <ST7735_VLine+0x48>
 80016fe:	f44f 5280 	mov.w	r2, #4096	; 0x1000
 8001702:	4b02      	ldr	r3, [pc, #8]	; (800170c <ST7735_VLine+0x9c>)
 8001704:	611a      	str	r2, [r3, #16]
	{
		ST7735_Write_Byte(CH);
		ST7735_Write_Byte(CL);
	}
	ST7735_CS_High();
}
 8001706:	e8bd 81f0 	ldmia.w	sp!, {r4, r5, r6, r7, r8, pc}
 800170a:	bf00      	nop
 800170c:	40010c00 	.word	0x40010c00
 8001710:	40003800 	.word	0x40003800

08001714 <ST7735_Line>:


void ST7735_Line(int16_t x1, int16_t y1, int16_t x2, int16_t y2, uint16_t color)
{
 8001714:	e92d 4ff0 	stmdb	sp!, {r4, r5, r6, r7, r8, r9, sl, fp, lr}
	int16_t dX = x2-x1;
 8001718:	b285      	uxth	r5, r0
 800171a:	fa1f fb82 	uxth.w	fp, r2
{
 800171e:	4696      	mov	lr, r2
	int16_t dX = x2-x1;
 8001720:	ebab 0205 	sub.w	r2, fp, r5
	int16_t dY = y2-y1;
 8001724:	fa1f f983 	uxth.w	r9, r3
 8001728:	fa1f fa81 	uxth.w	sl, r1
	int16_t dX = x2-x1;
 800172c:	b292      	uxth	r2, r2
{
 800172e:	460e      	mov	r6, r1
	int16_t dY = y2-y1;
 8001730:	eba9 040a 	sub.w	r4, r9, sl
	int16_t dX = x2-x1;
 8001734:	b211      	sxth	r1, r2
{
 8001736:	b089      	sub	sp, #36	; 0x24
	int16_t dY = y2-y1;
 8001738:	fa1f fc84 	uxth.w	ip, r4
	int16_t dXsym = (dX > 0) ? 1 : -1;
 800173c:	2900      	cmp	r1, #0
{
 800173e:	4680      	mov	r8, r0
 8001740:	461f      	mov	r7, r3
	int16_t dY = y2-y1;
 8001742:	fa0f f08c 	sxth.w	r0, ip
{
 8001746:	f8bd 3048 	ldrh.w	r3, [sp, #72]	; 0x48
	int16_t dXsym = (dX > 0) ? 1 : -1;
 800174a:	dd58      	ble.n	80017fe <ST7735_Line+0xea>
	int16_t dYsym = (dY > 0) ? 1 : -1;
 800174c:	2800      	cmp	r0, #0
 800174e:	dc10      	bgt.n	8001772 <ST7735_Line+0x5e>
 8001750:	2101      	movs	r1, #1
 8001752:	9101      	str	r1, [sp, #4]
	if (dX == 0)
	{
		if (y2>y1) ST7735_VLine(x1,y1,y2,color); else ST7735_VLine(x1,y2,y1,color);
		return;
	}
	if (dY == 0)
 8001754:	2800      	cmp	r0, #0
 8001756:	f040 8180 	bne.w	8001a5a <ST7735_Line+0x346>
	{
		if (x2>x1) ST7735_HLine(x1,x2,y1,color); else ST7735_HLine(x2,x1,y1,color);
 800175a:	45c6      	cmp	lr, r8
 800175c:	4652      	mov	r2, sl
 800175e:	bfc7      	ittee	gt
 8001760:	4659      	movgt	r1, fp
 8001762:	4628      	movgt	r0, r5
 8001764:	4629      	movle	r1, r5
 8001766:	4658      	movle	r0, fp
				x1 += dXsym;
			}
		}
	}
	ST7735_DrawPixel(x1,y1,color);
}
 8001768:	b009      	add	sp, #36	; 0x24
 800176a:	e8bd 4ff0 	ldmia.w	sp!, {r4, r5, r6, r7, r8, r9, sl, fp, lr}
		if (x2>x1) ST7735_HLine(x1,x2,y1,color); else ST7735_HLine(x2,x1,y1,color);
 800176e:	f7ff bf2b 	b.w	80015c8 <ST7735_HLine>
	int16_t dYsym = (dY > 0) ? 1 : -1;
 8001772:	2401      	movs	r4, #1
 8001774:	9405      	str	r4, [sp, #20]
 8001776:	9401      	str	r4, [sp, #4]
	int16_t dx2 = dX << 1;
 8001778:	004c      	lsls	r4, r1, #1
 800177a:	9403      	str	r4, [sp, #12]
	int16_t dy2 = dY << 1;
 800177c:	0044      	lsls	r4, r0, #1
 800177e:	9404      	str	r4, [sp, #16]
	if (dX >= dY)
 8001780:	4288      	cmp	r0, r1
 8001782:	ea4f 2413 	mov.w	r4, r3, lsr #8
 8001786:	b2db      	uxtb	r3, r3
 8001788:	9406      	str	r4, [sp, #24]
 800178a:	9307      	str	r3, [sp, #28]
 800178c:	dc49      	bgt.n	8001822 <ST7735_Line+0x10e>
		di = dy2 - dX;
 800178e:	f8bd 3010 	ldrh.w	r3, [sp, #16]
		while (x1 != x2)
 8001792:	45c6      	cmp	lr, r8
		di = dy2 - dX;
 8001794:	eba3 0402 	sub.w	r4, r3, r2
 8001798:	9302      	str	r3, [sp, #8]
 800179a:	b224      	sxth	r4, r4
		while (x1 != x2)
 800179c:	f000 8146 	beq.w	8001a2c <ST7735_Line+0x318>
  return ((READ_BIT(SPIx->SR, SPI_SR_TXE) == (SPI_SR_TXE)) ? 1UL : 0UL);
 80017a0:	f8cd b010 	str.w	fp, [sp, #16]
 80017a4:	4640      	mov	r0, r8
 80017a6:	4fa6      	ldr	r7, [pc, #664]	; (8001a40 <ST7735_Line+0x32c>)
 80017a8:	f8dd b004 	ldr.w	fp, [sp, #4]
 80017ac:	46f0      	mov	r8, lr
 80017ae:	e010      	b.n	80017d2 <ST7735_Line+0xbe>
				y1 += dYsym;
 80017b0:	9a05      	ldr	r2, [sp, #20]
		while (x1 != x2)
 80017b2:	4580      	cmp	r8, r0
				y1 += dYsym;
 80017b4:	4492      	add	sl, r2
				di += dy2 - dx2;
 80017b6:	e9dd 2102 	ldrd	r2, r1, [sp, #8]
 80017ba:	eba2 0401 	sub.w	r4, r2, r1
				y1 += dYsym;
 80017be:	fa1f f98a 	uxth.w	r9, sl
				di += dy2 - dx2;
 80017c2:	441c      	add	r4, r3
				y1 += dYsym;
 80017c4:	fa0f f689 	sxth.w	r6, r9
				di += dy2 - dx2;
 80017c8:	b224      	sxth	r4, r4
		while (x1 != x2)
 80017ca:	d014      	beq.n	80017f6 <ST7735_Line+0xe2>
 80017cc:	b285      	uxth	r5, r0
 80017ce:	fa1f fa86 	uxth.w	sl, r6
	if((x >= ST7735_WIDTH) || (y >= ST7735_HEIGHT))
 80017d2:	2d9f      	cmp	r5, #159	; 0x9f
			ST7735_DrawPixel(x1,y1,color);
 80017d4:	46d1      	mov	r9, sl
	if((x >= ST7735_WIDTH) || (y >= ST7735_HEIGHT))
 80017d6:	d802      	bhi.n	80017de <ST7735_Line+0xca>
 80017d8:	f1ba 0f7f 	cmp.w	sl, #127	; 0x7f
 80017dc:	d95d      	bls.n	800189a <ST7735_Line+0x186>
 80017de:	eb0b 0005 	add.w	r0, fp, r5
			if (di < 0)
 80017e2:	2c00      	cmp	r4, #0
 80017e4:	b200      	sxth	r0, r0
 80017e6:	b2a3      	uxth	r3, r4
 80017e8:	dae2      	bge.n	80017b0 <ST7735_Line+0x9c>
				di += dy2;
 80017ea:	9a02      	ldr	r2, [sp, #8]
		while (x1 != x2)
 80017ec:	4580      	cmp	r8, r0
				di += dy2;
 80017ee:	eb02 0403 	add.w	r4, r2, r3
 80017f2:	b224      	sxth	r4, r4
		while (x1 != x2)
 80017f4:	d1ea      	bne.n	80017cc <ST7735_Line+0xb8>
 80017f6:	f8dd b010 	ldr.w	fp, [sp, #16]
 80017fa:	4680      	mov	r8, r0
 80017fc:	e043      	b.n	8001886 <ST7735_Line+0x172>
	int16_t dYsym = (dY > 0) ? 1 : -1;
 80017fe:	2800      	cmp	r0, #0
 8001800:	f340 8117 	ble.w	8001a32 <ST7735_Line+0x31e>
	if (dX == 0)
 8001804:	2900      	cmp	r1, #0
 8001806:	f040 811f 	bne.w	8001a48 <ST7735_Line+0x334>
		if (y2>y1) ST7735_VLine(x1,y1,y2,color); else ST7735_VLine(x1,y2,y1,color);
 800180a:	42b7      	cmp	r7, r6
 800180c:	bfc7      	ittee	gt
 800180e:	464a      	movgt	r2, r9
 8001810:	4651      	movgt	r1, sl
 8001812:	4652      	movle	r2, sl
 8001814:	4649      	movle	r1, r9
 8001816:	4628      	mov	r0, r5
}
 8001818:	b009      	add	sp, #36	; 0x24
 800181a:	e8bd 4ff0 	ldmia.w	sp!, {r4, r5, r6, r7, r8, r9, sl, fp, lr}
		if (y2>y1) ST7735_VLine(x1,y1,y2,color); else ST7735_VLine(x1,y2,y1,color);
 800181e:	f7ff bf27 	b.w	8001670 <ST7735_VLine>
		di = dx2 - dY;
 8001822:	f8bd 300c 	ldrh.w	r3, [sp, #12]
		while (y1 != y2)
 8001826:	42b7      	cmp	r7, r6
		di = dx2 - dY;
 8001828:	eba3 040c 	sub.w	r4, r3, ip
 800182c:	9302      	str	r3, [sp, #8]
 800182e:	b224      	sxth	r4, r4
		while (y1 != y2)
 8001830:	f000 80fc 	beq.w	8001a2c <ST7735_Line+0x318>
 8001834:	f8cd 900c 	str.w	r9, [sp, #12]
 8001838:	f8df a204 	ldr.w	sl, [pc, #516]	; 8001a40 <ST7735_Line+0x32c>
 800183c:	f8dd 9014 	ldr.w	r9, [sp, #20]
 8001840:	e00e      	b.n	8001860 <ST7735_Line+0x14c>
				x1 += dXsym;
 8001842:	9a01      	ldr	r2, [sp, #4]
				di += dx2 - dy2;
 8001844:	9904      	ldr	r1, [sp, #16]
				x1 += dXsym;
 8001846:	4415      	add	r5, r2
				di += dx2 - dy2;
 8001848:	9a02      	ldr	r2, [sp, #8]
				x1 += dXsym;
 800184a:	fa1f fb85 	uxth.w	fp, r5
				di += dx2 - dy2;
 800184e:	1a54      	subs	r4, r2, r1
 8001850:	441c      	add	r4, r3
		while (y1 != y2)
 8001852:	42b7      	cmp	r7, r6
				x1 += dXsym;
 8001854:	fa0f f88b 	sxth.w	r8, fp
				di += dx2 - dy2;
 8001858:	b224      	sxth	r4, r4
		while (y1 != y2)
 800185a:	d012      	beq.n	8001882 <ST7735_Line+0x16e>
 800185c:	fa1f f588 	uxth.w	r5, r8
	if((x >= ST7735_WIDTH) || (y >= ST7735_HEIGHT))
 8001860:	2d9f      	cmp	r5, #159	; 0x9f
			ST7735_DrawPixel(x1,y1,color);
 8001862:	46ab      	mov	fp, r5
	if((x >= ST7735_WIDTH) || (y >= ST7735_HEIGHT))
 8001864:	d802      	bhi.n	800186c <ST7735_Line+0x158>
 8001866:	b2b3      	uxth	r3, r6
 8001868:	2b7f      	cmp	r3, #127	; 0x7f
 800186a:	d955      	bls.n	8001918 <ST7735_Line+0x204>
 800186c:	444e      	add	r6, r9
			if (di < 0)
 800186e:	2c00      	cmp	r4, #0
 8001870:	b236      	sxth	r6, r6
 8001872:	b2a3      	uxth	r3, r4
 8001874:	dae5      	bge.n	8001842 <ST7735_Line+0x12e>
				di += dx2;
 8001876:	9a02      	ldr	r2, [sp, #8]
		while (y1 != y2)
 8001878:	42b7      	cmp	r7, r6
				di += dx2;
 800187a:	eb02 0403 	add.w	r4, r2, r3
 800187e:	b224      	sxth	r4, r4
		while (y1 != y2)
 8001880:	d1ec      	bne.n	800185c <ST7735_Line+0x148>
 8001882:	f8dd 900c 	ldr.w	r9, [sp, #12]
	if((x >= ST7735_WIDTH) || (y >= ST7735_HEIGHT))
 8001886:	f1bb 0f9f 	cmp.w	fp, #159	; 0x9f
 800188a:	d803      	bhi.n	8001894 <ST7735_Line+0x180>
 800188c:	f1b9 0f7f 	cmp.w	r9, #127	; 0x7f
 8001890:	f240 808c 	bls.w	80019ac <ST7735_Line+0x298>
}
 8001894:	b009      	add	sp, #36	; 0x24
 8001896:	e8bd 8ff0 	ldmia.w	sp!, {r4, r5, r6, r7, r8, r9, sl, fp, pc}
  WRITE_REG(GPIOx->BRR, (PinMask >> GPIO_PIN_MASK_POS) & 0x0000FFFFU);
 800189a:	f44f 5280 	mov.w	r2, #4096	; 0x1000
	ST7735_SetAddressWindow(x, y, x+1, y+1);
 800189e:	b2c0      	uxtb	r0, r0
 80018a0:	b2f1      	uxtb	r1, r6
 80018a2:	4b68      	ldr	r3, [pc, #416]	; (8001a44 <ST7735_Line+0x330>)
 80018a4:	f100 0e01 	add.w	lr, r0, #1
 80018a8:	f101 0c01 	add.w	ip, r1, #1
 80018ac:	615a      	str	r2, [r3, #20]
 80018ae:	fa5f f28e 	uxtb.w	r2, lr
 80018b2:	fa5f f38c 	uxtb.w	r3, ip
 80018b6:	f7ff fcc9 	bl	800124c <ST7735_SetAddressWindow>
  WRITE_REG(GPIOx->BSRR, (PinMask >> GPIO_PIN_MASK_POS) & 0x0000FFFFU);
 80018ba:	f44f 6380 	mov.w	r3, #1024	; 0x400
 80018be:	4a61      	ldr	r2, [pc, #388]	; (8001a44 <ST7735_Line+0x330>)
 80018c0:	6113      	str	r3, [r2, #16]
  WRITE_REG(GPIOx->BRR, (PinMask >> GPIO_PIN_MASK_POS) & 0x0000FFFFU);
 80018c2:	4613      	mov	r3, r2
 80018c4:	f44f 5280 	mov.w	r2, #4096	; 0x1000
 80018c8:	615a      	str	r2, [r3, #20]
 80018ca:	68bb      	ldr	r3, [r7, #8]
 80018cc:	0798      	lsls	r0, r3, #30
 80018ce:	d5fc      	bpl.n	80018ca <ST7735_Line+0x1b6>
  return ((READ_BIT(SPIx->SR, SPI_SR_BSY) == (SPI_SR_BSY)) ? 1UL : 0UL);
 80018d0:	68bb      	ldr	r3, [r7, #8]
 80018d2:	0619      	lsls	r1, r3, #24
 80018d4:	d4fc      	bmi.n	80018d0 <ST7735_Line+0x1bc>
  *spidr = TxData;
 80018d6:	9b06      	ldr	r3, [sp, #24]
 80018d8:	733b      	strb	r3, [r7, #12]
  return ((READ_BIT(SPIx->SR, SPI_SR_TXE) == (SPI_SR_TXE)) ? 1UL : 0UL);
 80018da:	68bb      	ldr	r3, [r7, #8]
 80018dc:	079a      	lsls	r2, r3, #30
 80018de:	d5fc      	bpl.n	80018da <ST7735_Line+0x1c6>
  return ((READ_BIT(SPIx->SR, SPI_SR_BSY) == (SPI_SR_BSY)) ? 1UL : 0UL);
 80018e0:	68bb      	ldr	r3, [r7, #8]
 80018e2:	061b      	lsls	r3, r3, #24
 80018e4:	d4fc      	bmi.n	80018e0 <ST7735_Line+0x1cc>
  WRITE_REG(GPIOx->BSRR, (PinMask >> GPIO_PIN_MASK_POS) & 0x0000FFFFU);
 80018e6:	f44f 5280 	mov.w	r2, #4096	; 0x1000
 80018ea:	4b56      	ldr	r3, [pc, #344]	; (8001a44 <ST7735_Line+0x330>)
 80018ec:	611a      	str	r2, [r3, #16]
  WRITE_REG(GPIOx->BRR, (PinMask >> GPIO_PIN_MASK_POS) & 0x0000FFFFU);
 80018ee:	615a      	str	r2, [r3, #20]
  return ((READ_BIT(SPIx->SR, SPI_SR_TXE) == (SPI_SR_TXE)) ? 1UL : 0UL);
 80018f0:	68bb      	ldr	r3, [r7, #8]
 80018f2:	0798      	lsls	r0, r3, #30
 80018f4:	d5fc      	bpl.n	80018f0 <ST7735_Line+0x1dc>
  return ((READ_BIT(SPIx->SR, SPI_SR_BSY) == (SPI_SR_BSY)) ? 1UL : 0UL);
 80018f6:	68bb      	ldr	r3, [r7, #8]
 80018f8:	0619      	lsls	r1, r3, #24
 80018fa:	d4fc      	bmi.n	80018f6 <ST7735_Line+0x1e2>
  *spidr = TxData;
 80018fc:	9b07      	ldr	r3, [sp, #28]
 80018fe:	733b      	strb	r3, [r7, #12]
  return ((READ_BIT(SPIx->SR, SPI_SR_TXE) == (SPI_SR_TXE)) ? 1UL : 0UL);
 8001900:	68bb      	ldr	r3, [r7, #8]
 8001902:	079a      	lsls	r2, r3, #30
 8001904:	d5fc      	bpl.n	8001900 <ST7735_Line+0x1ec>
  return ((READ_BIT(SPIx->SR, SPI_SR_BSY) == (SPI_SR_BSY)) ? 1UL : 0UL);
 8001906:	68bb      	ldr	r3, [r7, #8]
 8001908:	061b      	lsls	r3, r3, #24
 800190a:	d4fc      	bmi.n	8001906 <ST7735_Line+0x1f2>
  WRITE_REG(GPIOx->BSRR, (PinMask >> GPIO_PIN_MASK_POS) & 0x0000FFFFU);
 800190c:	f44f 5280 	mov.w	r2, #4096	; 0x1000
 8001910:	4b4c      	ldr	r3, [pc, #304]	; (8001a44 <ST7735_Line+0x330>)
 8001912:	611a      	str	r2, [r3, #16]
 8001914:	611a      	str	r2, [r3, #16]
 8001916:	e762      	b.n	80017de <ST7735_Line+0xca>
  WRITE_REG(GPIOx->BRR, (PinMask >> GPIO_PIN_MASK_POS) & 0x0000FFFFU);
 8001918:	f44f 5280 	mov.w	r2, #4096	; 0x1000
 800191c:	fa5f f088 	uxtb.w	r0, r8
 8001920:	b2f1      	uxtb	r1, r6
 8001922:	4b48      	ldr	r3, [pc, #288]	; (8001a44 <ST7735_Line+0x330>)
 8001924:	f100 0e01 	add.w	lr, r0, #1
 8001928:	f101 0c01 	add.w	ip, r1, #1
 800192c:	615a      	str	r2, [r3, #20]
 800192e:	fa5f f28e 	uxtb.w	r2, lr
 8001932:	fa5f f38c 	uxtb.w	r3, ip
 8001936:	f7ff fc89 	bl	800124c <ST7735_SetAddressWindow>
  WRITE_REG(GPIOx->BSRR, (PinMask >> GPIO_PIN_MASK_POS) & 0x0000FFFFU);
 800193a:	f44f 6380 	mov.w	r3, #1024	; 0x400
 800193e:	4a41      	ldr	r2, [pc, #260]	; (8001a44 <ST7735_Line+0x330>)
 8001940:	6113      	str	r3, [r2, #16]
  WRITE_REG(GPIOx->BRR, (PinMask >> GPIO_PIN_MASK_POS) & 0x0000FFFFU);
 8001942:	4613      	mov	r3, r2
 8001944:	f44f 5280 	mov.w	r2, #4096	; 0x1000
 8001948:	615a      	str	r2, [r3, #20]
  return ((READ_BIT(SPIx->SR, SPI_SR_TXE) == (SPI_SR_TXE)) ? 1UL : 0UL);
 800194a:	f8da 3008 	ldr.w	r3, [sl, #8]
 800194e:	0798      	lsls	r0, r3, #30
 8001950:	d5fb      	bpl.n	800194a <ST7735_Line+0x236>
  return ((READ_BIT(SPIx->SR, SPI_SR_BSY) == (SPI_SR_BSY)) ? 1UL : 0UL);
 8001952:	f8da 3008 	ldr.w	r3, [sl, #8]
 8001956:	0619      	lsls	r1, r3, #24
 8001958:	d4fb      	bmi.n	8001952 <ST7735_Line+0x23e>
  *spidr = TxData;
 800195a:	9b06      	ldr	r3, [sp, #24]
 800195c:	f88a 300c 	strb.w	r3, [sl, #12]
  return ((READ_BIT(SPIx->SR, SPI_SR_TXE) == (SPI_SR_TXE)) ? 1UL : 0UL);
 8001960:	f8da 3008 	ldr.w	r3, [sl, #8]
 8001964:	079a      	lsls	r2, r3, #30
 8001966:	d5fb      	bpl.n	8001960 <ST7735_Line+0x24c>
  return ((READ_BIT(SPIx->SR, SPI_SR_BSY) == (SPI_SR_BSY)) ? 1UL : 0UL);
 8001968:	f8da 3008 	ldr.w	r3, [sl, #8]
 800196c:	061b      	lsls	r3, r3, #24
 800196e:	d4fb      	bmi.n	8001968 <ST7735_Line+0x254>
  WRITE_REG(GPIOx->BSRR, (PinMask >> GPIO_PIN_MASK_POS) & 0x0000FFFFU);
 8001970:	f44f 5280 	mov.w	r2, #4096	; 0x1000
 8001974:	4b33      	ldr	r3, [pc, #204]	; (8001a44 <ST7735_Line+0x330>)
 8001976:	611a      	str	r2, [r3, #16]
  WRITE_REG(GPIOx->BRR, (PinMask >> GPIO_PIN_MASK_POS) & 0x0000FFFFU);
 8001978:	615a      	str	r2, [r3, #20]
  return ((READ_BIT(SPIx->SR, SPI_SR_TXE) == (SPI_SR_TXE)) ? 1UL : 0UL);
 800197a:	f8da 3008 	ldr.w	r3, [sl, #8]
 800197e:	0798      	lsls	r0, r3, #30
 8001980:	d5fb      	bpl.n	800197a <ST7735_Line+0x266>
  return ((READ_BIT(SPIx->SR, SPI_SR_BSY) == (SPI_SR_BSY)) ? 1UL : 0UL);
 8001982:	f8da 3008 	ldr.w	r3, [sl, #8]
 8001986:	0619      	lsls	r1, r3, #24
 8001988:	d4fb      	bmi.n	8001982 <ST7735_Line+0x26e>
  *spidr = TxData;
 800198a:	9b07      	ldr	r3, [sp, #28]
 800198c:	f88a 300c 	strb.w	r3, [sl, #12]
  return ((READ_BIT(SPIx->SR, SPI_SR_TXE) == (SPI_SR_TXE)) ? 1UL : 0UL);
 8001990:	f8da 3008 	ldr.w	r3, [sl, #8]
 8001994:	079a      	lsls	r2, r3, #30
 8001996:	d5fb      	bpl.n	8001990 <ST7735_Line+0x27c>
  return ((READ_BIT(SPIx->SR, SPI_SR_BSY) == (SPI_SR_BSY)) ? 1UL : 0UL);
 8001998:	f8da 3008 	ldr.w	r3, [sl, #8]
 800199c:	061b      	lsls	r3, r3, #24
 800199e:	d4fb      	bmi.n	8001998 <ST7735_Line+0x284>
  WRITE_REG(GPIOx->BSRR, (PinMask >> GPIO_PIN_MASK_POS) & 0x0000FFFFU);
 80019a0:	f44f 5280 	mov.w	r2, #4096	; 0x1000
 80019a4:	4b27      	ldr	r3, [pc, #156]	; (8001a44 <ST7735_Line+0x330>)
 80019a6:	611a      	str	r2, [r3, #16]
 80019a8:	611a      	str	r2, [r3, #16]
 80019aa:	e75f      	b.n	800186c <ST7735_Line+0x158>
  WRITE_REG(GPIOx->BRR, (PinMask >> GPIO_PIN_MASK_POS) & 0x0000FFFFU);
 80019ac:	f44f 5780 	mov.w	r7, #4096	; 0x1000
 80019b0:	4c24      	ldr	r4, [pc, #144]	; (8001a44 <ST7735_Line+0x330>)
 80019b2:	fa5f f088 	uxtb.w	r0, r8
 80019b6:	b2f1      	uxtb	r1, r6
 80019b8:	1c4b      	adds	r3, r1, #1
 80019ba:	1c42      	adds	r2, r0, #1
 80019bc:	b2db      	uxtb	r3, r3
 80019be:	b2d2      	uxtb	r2, r2
 80019c0:	6167      	str	r7, [r4, #20]
 80019c2:	f7ff fc43 	bl	800124c <ST7735_SetAddressWindow>
  WRITE_REG(GPIOx->BSRR, (PinMask >> GPIO_PIN_MASK_POS) & 0x0000FFFFU);
 80019c6:	f44f 6380 	mov.w	r3, #1024	; 0x400
  return ((READ_BIT(SPIx->SR, SPI_SR_TXE) == (SPI_SR_TXE)) ? 1UL : 0UL);
 80019ca:	4a1d      	ldr	r2, [pc, #116]	; (8001a40 <ST7735_Line+0x32c>)
 80019cc:	6123      	str	r3, [r4, #16]
  WRITE_REG(GPIOx->BRR, (PinMask >> GPIO_PIN_MASK_POS) & 0x0000FFFFU);
 80019ce:	6167      	str	r7, [r4, #20]
 80019d0:	6893      	ldr	r3, [r2, #8]
 80019d2:	079f      	lsls	r7, r3, #30
 80019d4:	d5fc      	bpl.n	80019d0 <ST7735_Line+0x2bc>
  return ((READ_BIT(SPIx->SR, SPI_SR_BSY) == (SPI_SR_BSY)) ? 1UL : 0UL);
 80019d6:	4a1a      	ldr	r2, [pc, #104]	; (8001a40 <ST7735_Line+0x32c>)
 80019d8:	6893      	ldr	r3, [r2, #8]
 80019da:	061e      	lsls	r6, r3, #24
 80019dc:	d4fc      	bmi.n	80019d8 <ST7735_Line+0x2c4>
  *spidr = TxData;
 80019de:	9b06      	ldr	r3, [sp, #24]
  return ((READ_BIT(SPIx->SR, SPI_SR_TXE) == (SPI_SR_TXE)) ? 1UL : 0UL);
 80019e0:	4917      	ldr	r1, [pc, #92]	; (8001a40 <ST7735_Line+0x32c>)
  *spidr = TxData;
 80019e2:	7313      	strb	r3, [r2, #12]
  return ((READ_BIT(SPIx->SR, SPI_SR_TXE) == (SPI_SR_TXE)) ? 1UL : 0UL);
 80019e4:	688b      	ldr	r3, [r1, #8]
 80019e6:	079d      	lsls	r5, r3, #30
 80019e8:	d5fc      	bpl.n	80019e4 <ST7735_Line+0x2d0>
  return ((READ_BIT(SPIx->SR, SPI_SR_BSY) == (SPI_SR_BSY)) ? 1UL : 0UL);
 80019ea:	4a15      	ldr	r2, [pc, #84]	; (8001a40 <ST7735_Line+0x32c>)
 80019ec:	6893      	ldr	r3, [r2, #8]
 80019ee:	061c      	lsls	r4, r3, #24
 80019f0:	d4fc      	bmi.n	80019ec <ST7735_Line+0x2d8>
  WRITE_REG(GPIOx->BSRR, (PinMask >> GPIO_PIN_MASK_POS) & 0x0000FFFFU);
 80019f2:	f44f 5180 	mov.w	r1, #4096	; 0x1000
 80019f6:	4b13      	ldr	r3, [pc, #76]	; (8001a44 <ST7735_Line+0x330>)
  return ((READ_BIT(SPIx->SR, SPI_SR_TXE) == (SPI_SR_TXE)) ? 1UL : 0UL);
 80019f8:	4a11      	ldr	r2, [pc, #68]	; (8001a40 <ST7735_Line+0x32c>)
 80019fa:	6119      	str	r1, [r3, #16]
  WRITE_REG(GPIOx->BRR, (PinMask >> GPIO_PIN_MASK_POS) & 0x0000FFFFU);
 80019fc:	6159      	str	r1, [r3, #20]
 80019fe:	6893      	ldr	r3, [r2, #8]
 8001a00:	0798      	lsls	r0, r3, #30
 8001a02:	d5fc      	bpl.n	80019fe <ST7735_Line+0x2ea>
  return ((READ_BIT(SPIx->SR, SPI_SR_BSY) == (SPI_SR_BSY)) ? 1UL : 0UL);
 8001a04:	4a0e      	ldr	r2, [pc, #56]	; (8001a40 <ST7735_Line+0x32c>)
 8001a06:	6893      	ldr	r3, [r2, #8]
 8001a08:	0619      	lsls	r1, r3, #24
 8001a0a:	d4fc      	bmi.n	8001a06 <ST7735_Line+0x2f2>
  *spidr = TxData;
 8001a0c:	9b07      	ldr	r3, [sp, #28]
  return ((READ_BIT(SPIx->SR, SPI_SR_TXE) == (SPI_SR_TXE)) ? 1UL : 0UL);
 8001a0e:	490c      	ldr	r1, [pc, #48]	; (8001a40 <ST7735_Line+0x32c>)
  *spidr = TxData;
 8001a10:	7313      	strb	r3, [r2, #12]
  return ((READ_BIT(SPIx->SR, SPI_SR_TXE) == (SPI_SR_TXE)) ? 1UL : 0UL);
 8001a12:	688b      	ldr	r3, [r1, #8]
 8001a14:	079a      	lsls	r2, r3, #30
 8001a16:	d5fc      	bpl.n	8001a12 <ST7735_Line+0x2fe>
  return ((READ_BIT(SPIx->SR, SPI_SR_BSY) == (SPI_SR_BSY)) ? 1UL : 0UL);
 8001a18:	4a09      	ldr	r2, [pc, #36]	; (8001a40 <ST7735_Line+0x32c>)
 8001a1a:	6893      	ldr	r3, [r2, #8]
 8001a1c:	061b      	lsls	r3, r3, #24
 8001a1e:	d4fc      	bmi.n	8001a1a <ST7735_Line+0x306>
  WRITE_REG(GPIOx->BSRR, (PinMask >> GPIO_PIN_MASK_POS) & 0x0000FFFFU);
 8001a20:	f44f 5280 	mov.w	r2, #4096	; 0x1000
 8001a24:	4b07      	ldr	r3, [pc, #28]	; (8001a44 <ST7735_Line+0x330>)
 8001a26:	611a      	str	r2, [r3, #16]
 8001a28:	611a      	str	r2, [r3, #16]
 8001a2a:	e733      	b.n	8001894 <ST7735_Line+0x180>
		while (y1 != y2)
 8001a2c:	46d1      	mov	r9, sl
 8001a2e:	46ab      	mov	fp, r5
 8001a30:	e729      	b.n	8001886 <ST7735_Line+0x172>
	if (dX == 0)
 8001a32:	2900      	cmp	r1, #0
 8001a34:	f43f aee9 	beq.w	800180a <ST7735_Line+0xf6>
 8001a38:	f64f 71ff 	movw	r1, #65535	; 0xffff
 8001a3c:	9101      	str	r1, [sp, #4]
 8001a3e:	e689      	b.n	8001754 <ST7735_Line+0x40>
 8001a40:	40003800 	.word	0x40003800
 8001a44:	40010c00 	.word	0x40010c00
 8001a48:	2401      	movs	r4, #1
 8001a4a:	9405      	str	r4, [sp, #20]
 8001a4c:	f64f 74ff 	movw	r4, #65535	; 0xffff
 8001a50:	4252      	negs	r2, r2
 8001a52:	b292      	uxth	r2, r2
 8001a54:	b211      	sxth	r1, r2
 8001a56:	9401      	str	r4, [sp, #4]
 8001a58:	e68e      	b.n	8001778 <ST7735_Line+0x64>
 8001a5a:	f1cc 0400 	rsb	r4, ip, #0
 8001a5e:	fa1f fc84 	uxth.w	ip, r4
	if (dY == 0)
 8001a62:	f64f 74ff 	movw	r4, #65535	; 0xffff
 8001a66:	9901      	ldr	r1, [sp, #4]
 8001a68:	fa0f f08c 	sxth.w	r0, ip
 8001a6c:	fb01 f202 	mul.w	r2, r1, r2
 8001a70:	b292      	uxth	r2, r2
 8001a72:	b211      	sxth	r1, r2
 8001a74:	9405      	str	r4, [sp, #20]
 8001a76:	e67f      	b.n	8001778 <ST7735_Line+0x64>

08001a78 <ST7735_WriteString>:
	}
}


void ST7735_WriteString(uint16_t x, uint16_t y, const char* str, FontDef font, uint16_t color, uint16_t bgcolor)
{
 8001a78:	b082      	sub	sp, #8
 8001a7a:	e92d 4ff0 	stmdb	sp!, {r4, r5, r6, r7, r8, r9, sl, fp, lr}
  WRITE_REG(GPIOx->BRR, (PinMask >> GPIO_PIN_MASK_POS) & 0x0000FFFFU);
 8001a7e:	f44f 5480 	mov.w	r4, #4096	; 0x1000
 8001a82:	b08f      	sub	sp, #60	; 0x3c
 8001a84:	f8bd 5070 	ldrh.w	r5, [sp, #112]	; 0x70
 8001a88:	9205      	str	r2, [sp, #20]
 8001a8a:	4aaa      	ldr	r2, [pc, #680]	; (8001d34 <ST7735_WriteString+0x2bc>)
 8001a8c:	f8bd a06c 	ldrh.w	sl, [sp, #108]	; 0x6c
 8001a90:	fa5f fb83 	uxtb.w	fp, r3
 8001a94:	9319      	str	r3, [sp, #100]	; 0x64
 8001a96:	f3c3 2307 	ubfx	r3, r3, #8, #8
 8001a9a:	9503      	str	r5, [sp, #12]
 8001a9c:	9107      	str	r1, [sp, #28]
 8001a9e:	6154      	str	r4, [r2, #20]
				uint8_t data[] = { bgcolor >> 8, bgcolor & 0xFF };
 8001aa0:	0a2a      	lsrs	r2, r5, #8
 8001aa2:	9306      	str	r3, [sp, #24]
	ST7735_SetAddressWindow(x, y, x+font.width-1, y+font.height-1);
 8001aa4:	f10b 33ff 	add.w	r3, fp, #4294967295
				uint8_t data[] = { bgcolor >> 8, bgcolor & 0xFF };
 8001aa8:	9202      	str	r2, [sp, #8]
	ST7735_SetAddressWindow(x, y, x+font.width-1, y+font.height-1);
 8001aaa:	930b      	str	r3, [sp, #44]	; 0x2c
				uint8_t data[] = { color >> 8, color & 0xFF };
 8001aac:	ea4f 221a 	mov.w	r2, sl, lsr #8
 8001ab0:	f8df 9280 	ldr.w	r9, [pc, #640]	; 8001d34 <ST7735_WriteString+0x2bc>
  return ((READ_BIT(SPIx->SR, SPI_SR_TXE) == (SPI_SR_TXE)) ? 1UL : 0UL);
 8001ab4:	4ba0      	ldr	r3, [pc, #640]	; (8001d38 <ST7735_WriteString+0x2c0>)
 8001ab6:	9201      	str	r2, [sp, #4]
	ST7735_CS_Low();

	while(*str)
 8001ab8:	9a05      	ldr	r2, [sp, #20]
 8001aba:	f812 cb01 	ldrb.w	ip, [r2], #1
 8001abe:	9205      	str	r2, [sp, #20]
 8001ac0:	f1bc 0f00 	cmp.w	ip, #0
 8001ac4:	f000 8105 	beq.w	8001cd2 <ST7735_WriteString+0x25a>
	{
		if(x + font.width >= ST7735_WIDTH)
 8001ac8:	eb00 020b 	add.w	r2, r0, fp
 8001acc:	2a9f      	cmp	r2, #159	; 0x9f
 8001ace:	9208      	str	r2, [sp, #32]
 8001ad0:	f340 8129 	ble.w	8001d26 <ST7735_WriteString+0x2ae>
		{
			x = 0;
			y += font.height;
 8001ad4:	e9dd 1206 	ldrd	r1, r2, [sp, #24]
 8001ad8:	440a      	add	r2, r1
 8001ada:	b292      	uxth	r2, r2
 8001adc:	9207      	str	r2, [sp, #28]
			if(y + font.height >= ST7735_HEIGHT)
 8001ade:	440a      	add	r2, r1
 8001ae0:	2a7f      	cmp	r2, #127	; 0x7f
 8001ae2:	f300 80f6 	bgt.w	8001cd2 <ST7735_WriteString+0x25a>
			{
				break;
			}

			if(*str == ' ')
 8001ae6:	f1bc 0f20 	cmp.w	ip, #32
 8001aea:	f000 8120 	beq.w	8001d2e <ST7735_WriteString+0x2b6>
			x = 0;
 8001aee:	2200      	movs	r2, #0
 8001af0:	9204      	str	r2, [sp, #16]
 8001af2:	460a      	mov	r2, r1
 8001af4:	f8cd b020 	str.w	fp, [sp, #32]
 8001af8:	f44f 6080 	mov.w	r0, #1024	; 0x400
 8001afc:	f44f 5180 	mov.w	r1, #4096	; 0x1000
	ST7735_SetAddressWindow(x, y, x+font.width-1, y+font.height-1);
 8001b00:	f89d e01c 	ldrb.w	lr, [sp, #28]
 8001b04:	3a01      	subs	r2, #1
				str++;
				continue;
			}
		}

		ST7735_WriteChar(x, y, *str, font, color, bgcolor);
 8001b06:	9c1a      	ldr	r4, [sp, #104]	; 0x68
	ST7735_SetAddressWindow(x, y, x+font.width-1, y+font.height-1);
 8001b08:	4472      	add	r2, lr
 8001b0a:	b2d2      	uxtb	r2, r2
 8001b0c:	9209      	str	r2, [sp, #36]	; 0x24
		ST7735_WriteChar(x, y, *str, font, color, bgcolor);
 8001b0e:	940a      	str	r4, [sp, #40]	; 0x28
	ST7735_SetAddressWindow(x, y, x+font.width-1, y+font.height-1);
 8001b10:	9a04      	ldr	r2, [sp, #16]
 8001b12:	f8c9 0014 	str.w	r0, [r9, #20]
 8001b16:	980b      	ldr	r0, [sp, #44]	; 0x2c
 8001b18:	f8c9 1014 	str.w	r1, [r9, #20]
 8001b1c:	eb02 0800 	add.w	r8, r2, r0
 8001b20:	fa5f f888 	uxtb.w	r8, r8
 8001b24:	689a      	ldr	r2, [r3, #8]
 8001b26:	0794      	lsls	r4, r2, #30
 8001b28:	d5fc      	bpl.n	8001b24 <ST7735_WriteString+0xac>
  return ((READ_BIT(SPIx->SR, SPI_SR_BSY) == (SPI_SR_BSY)) ? 1UL : 0UL);
 8001b2a:	689a      	ldr	r2, [r3, #8]
 8001b2c:	0610      	lsls	r0, r2, #24
 8001b2e:	d4fc      	bmi.n	8001b2a <ST7735_WriteString+0xb2>
  *spidr = TxData;
 8001b30:	222a      	movs	r2, #42	; 0x2a
 8001b32:	731a      	strb	r2, [r3, #12]
  return ((READ_BIT(SPIx->SR, SPI_SR_TXE) == (SPI_SR_TXE)) ? 1UL : 0UL);
 8001b34:	689a      	ldr	r2, [r3, #8]
 8001b36:	0791      	lsls	r1, r2, #30
 8001b38:	d5fc      	bpl.n	8001b34 <ST7735_WriteString+0xbc>
  return ((READ_BIT(SPIx->SR, SPI_SR_BSY) == (SPI_SR_BSY)) ? 1UL : 0UL);
 8001b3a:	689a      	ldr	r2, [r3, #8]
 8001b3c:	f012 0280 	ands.w	r2, r2, #128	; 0x80
 8001b40:	d1fb      	bne.n	8001b3a <ST7735_WriteString+0xc2>
  WRITE_REG(GPIOx->BSRR, (PinMask >> GPIO_PIN_MASK_POS) & 0x0000FFFFU);
 8001b42:	f44f 5780 	mov.w	r7, #4096	; 0x1000
 8001b46:	a80d      	add	r0, sp, #52	; 0x34
 8001b48:	f8c9 7010 	str.w	r7, [r9, #16]
	uint8_t data[] = { 0x00, x0 + ST7735_XSTART, 0x00, x1 + ST7735_XSTART };
 8001b4c:	f88d 2034 	strb.w	r2, [sp, #52]	; 0x34
 8001b50:	f88d 2036 	strb.w	r2, [sp, #54]	; 0x36
 8001b54:	f44f 6280 	mov.w	r2, #1024	; 0x400
 8001b58:	4601      	mov	r1, r0
  WRITE_REG(GPIOx->BRR, (PinMask >> GPIO_PIN_MASK_POS) & 0x0000FFFFU);
 8001b5a:	463c      	mov	r4, r7
 8001b5c:	463e      	mov	r6, r7
 8001b5e:	9f04      	ldr	r7, [sp, #16]
 8001b60:	f88d 8037 	strb.w	r8, [sp, #55]	; 0x37
 8001b64:	f88d 7035 	strb.w	r7, [sp, #53]	; 0x35
 8001b68:	ad0e      	add	r5, sp, #56	; 0x38
  WRITE_REG(GPIOx->BSRR, (PinMask >> GPIO_PIN_MASK_POS) & 0x0000FFFFU);
 8001b6a:	f8c9 2010 	str.w	r2, [r9, #16]
		ST7735_Write_Byte(buff[temp++]);
 8001b6e:	f811 7b01 	ldrb.w	r7, [r1], #1
  WRITE_REG(GPIOx->BRR, (PinMask >> GPIO_PIN_MASK_POS) & 0x0000FFFFU);
 8001b72:	f8c9 6014 	str.w	r6, [r9, #20]
  return ((READ_BIT(SPIx->SR, SPI_SR_TXE) == (SPI_SR_TXE)) ? 1UL : 0UL);
 8001b76:	689a      	ldr	r2, [r3, #8]
 8001b78:	0792      	lsls	r2, r2, #30
 8001b7a:	d5fc      	bpl.n	8001b76 <ST7735_WriteString+0xfe>
  return ((READ_BIT(SPIx->SR, SPI_SR_BSY) == (SPI_SR_BSY)) ? 1UL : 0UL);
 8001b7c:	689a      	ldr	r2, [r3, #8]
 8001b7e:	0612      	lsls	r2, r2, #24
 8001b80:	d4fc      	bmi.n	8001b7c <ST7735_WriteString+0x104>
  *spidr = TxData;
 8001b82:	731f      	strb	r7, [r3, #12]
  return ((READ_BIT(SPIx->SR, SPI_SR_TXE) == (SPI_SR_TXE)) ? 1UL : 0UL);
 8001b84:	689a      	ldr	r2, [r3, #8]
 8001b86:	0797      	lsls	r7, r2, #30
 8001b88:	d5fc      	bpl.n	8001b84 <ST7735_WriteString+0x10c>
  return ((READ_BIT(SPIx->SR, SPI_SR_BSY) == (SPI_SR_BSY)) ? 1UL : 0UL);
 8001b8a:	689a      	ldr	r2, [r3, #8]
 8001b8c:	0612      	lsls	r2, r2, #24
 8001b8e:	d4fc      	bmi.n	8001b8a <ST7735_WriteString+0x112>
	while (temp < buff_size)
 8001b90:	428d      	cmp	r5, r1
  WRITE_REG(GPIOx->BSRR, (PinMask >> GPIO_PIN_MASK_POS) & 0x0000FFFFU);
 8001b92:	f8c9 4010 	str.w	r4, [r9, #16]
 8001b96:	d1ea      	bne.n	8001b6e <ST7735_WriteString+0xf6>
  WRITE_REG(GPIOx->BRR, (PinMask >> GPIO_PIN_MASK_POS) & 0x0000FFFFU);
 8001b98:	f44f 6280 	mov.w	r2, #1024	; 0x400
 8001b9c:	4d65      	ldr	r5, [pc, #404]	; (8001d34 <ST7735_WriteString+0x2bc>)
 8001b9e:	616a      	str	r2, [r5, #20]
 8001ba0:	616c      	str	r4, [r5, #20]
  return ((READ_BIT(SPIx->SR, SPI_SR_TXE) == (SPI_SR_TXE)) ? 1UL : 0UL);
 8001ba2:	689a      	ldr	r2, [r3, #8]
 8001ba4:	0797      	lsls	r7, r2, #30
 8001ba6:	d5fc      	bpl.n	8001ba2 <ST7735_WriteString+0x12a>
  return ((READ_BIT(SPIx->SR, SPI_SR_BSY) == (SPI_SR_BSY)) ? 1UL : 0UL);
 8001ba8:	689a      	ldr	r2, [r3, #8]
 8001baa:	0616      	lsls	r6, r2, #24
 8001bac:	d4fc      	bmi.n	8001ba8 <ST7735_WriteString+0x130>
  *spidr = TxData;
 8001bae:	222b      	movs	r2, #43	; 0x2b
 8001bb0:	731a      	strb	r2, [r3, #12]
  return ((READ_BIT(SPIx->SR, SPI_SR_TXE) == (SPI_SR_TXE)) ? 1UL : 0UL);
 8001bb2:	689a      	ldr	r2, [r3, #8]
 8001bb4:	0795      	lsls	r5, r2, #30
 8001bb6:	d5fc      	bpl.n	8001bb2 <ST7735_WriteString+0x13a>
  return ((READ_BIT(SPIx->SR, SPI_SR_BSY) == (SPI_SR_BSY)) ? 1UL : 0UL);
 8001bb8:	689a      	ldr	r2, [r3, #8]
 8001bba:	0614      	lsls	r4, r2, #24
 8001bbc:	d4fc      	bmi.n	8001bb8 <ST7735_WriteString+0x140>
  WRITE_REG(GPIOx->BSRR, (PinMask >> GPIO_PIN_MASK_POS) & 0x0000FFFFU);
 8001bbe:	f44f 5280 	mov.w	r2, #4096	; 0x1000
 8001bc2:	f44f 6480 	mov.w	r4, #1024	; 0x400
 8001bc6:	f8c9 2010 	str.w	r2, [r9, #16]
  WRITE_REG(GPIOx->BRR, (PinMask >> GPIO_PIN_MASK_POS) & 0x0000FFFFU);
 8001bca:	4615      	mov	r5, r2
 8001bcc:	4616      	mov	r6, r2
	data[3] = y1 + ST7735_YSTART;
 8001bce:	9a09      	ldr	r2, [sp, #36]	; 0x24
	data[1] = y0 + ST7735_YSTART;
 8001bd0:	f88d e035 	strb.w	lr, [sp, #53]	; 0x35
	data[3] = y1 + ST7735_YSTART;
 8001bd4:	f88d 2037 	strb.w	r2, [sp, #55]	; 0x37
  WRITE_REG(GPIOx->BSRR, (PinMask >> GPIO_PIN_MASK_POS) & 0x0000FFFFU);
 8001bd8:	f8c9 4010 	str.w	r4, [r9, #16]
		ST7735_Write_Byte(buff[temp++]);
 8001bdc:	f810 4b01 	ldrb.w	r4, [r0], #1
  WRITE_REG(GPIOx->BRR, (PinMask >> GPIO_PIN_MASK_POS) & 0x0000FFFFU);
 8001be0:	f8c9 6014 	str.w	r6, [r9, #20]
  return ((READ_BIT(SPIx->SR, SPI_SR_TXE) == (SPI_SR_TXE)) ? 1UL : 0UL);
 8001be4:	689a      	ldr	r2, [r3, #8]
 8001be6:	0792      	lsls	r2, r2, #30
 8001be8:	d5fc      	bpl.n	8001be4 <ST7735_WriteString+0x16c>
  return ((READ_BIT(SPIx->SR, SPI_SR_BSY) == (SPI_SR_BSY)) ? 1UL : 0UL);
 8001bea:	689a      	ldr	r2, [r3, #8]
 8001bec:	0617      	lsls	r7, r2, #24
 8001bee:	d4fc      	bmi.n	8001bea <ST7735_WriteString+0x172>
  *spidr = TxData;
 8001bf0:	731c      	strb	r4, [r3, #12]
  return ((READ_BIT(SPIx->SR, SPI_SR_TXE) == (SPI_SR_TXE)) ? 1UL : 0UL);
 8001bf2:	689a      	ldr	r2, [r3, #8]
 8001bf4:	0792      	lsls	r2, r2, #30
 8001bf6:	d5fc      	bpl.n	8001bf2 <ST7735_WriteString+0x17a>
  return ((READ_BIT(SPIx->SR, SPI_SR_BSY) == (SPI_SR_BSY)) ? 1UL : 0UL);
 8001bf8:	689a      	ldr	r2, [r3, #8]
 8001bfa:	0617      	lsls	r7, r2, #24
 8001bfc:	d4fc      	bmi.n	8001bf8 <ST7735_WriteString+0x180>
	while (temp < buff_size)
 8001bfe:	4281      	cmp	r1, r0
  WRITE_REG(GPIOx->BSRR, (PinMask >> GPIO_PIN_MASK_POS) & 0x0000FFFFU);
 8001c00:	f8c9 5010 	str.w	r5, [r9, #16]
 8001c04:	d1ea      	bne.n	8001bdc <ST7735_WriteString+0x164>
  WRITE_REG(GPIOx->BRR, (PinMask >> GPIO_PIN_MASK_POS) & 0x0000FFFFU);
 8001c06:	f44f 6280 	mov.w	r2, #1024	; 0x400
 8001c0a:	494a      	ldr	r1, [pc, #296]	; (8001d34 <ST7735_WriteString+0x2bc>)
 8001c0c:	614a      	str	r2, [r1, #20]
 8001c0e:	614d      	str	r5, [r1, #20]
  return ((READ_BIT(SPIx->SR, SPI_SR_TXE) == (SPI_SR_TXE)) ? 1UL : 0UL);
 8001c10:	689a      	ldr	r2, [r3, #8]
 8001c12:	0794      	lsls	r4, r2, #30
 8001c14:	d5fc      	bpl.n	8001c10 <ST7735_WriteString+0x198>
  return ((READ_BIT(SPIx->SR, SPI_SR_BSY) == (SPI_SR_BSY)) ? 1UL : 0UL);
 8001c16:	689a      	ldr	r2, [r3, #8]
 8001c18:	0610      	lsls	r0, r2, #24
 8001c1a:	d4fc      	bmi.n	8001c16 <ST7735_WriteString+0x19e>
  *spidr = TxData;
 8001c1c:	222c      	movs	r2, #44	; 0x2c
 8001c1e:	731a      	strb	r2, [r3, #12]
  return ((READ_BIT(SPIx->SR, SPI_SR_TXE) == (SPI_SR_TXE)) ? 1UL : 0UL);
 8001c20:	689a      	ldr	r2, [r3, #8]
 8001c22:	0791      	lsls	r1, r2, #30
 8001c24:	d5fc      	bpl.n	8001c20 <ST7735_WriteString+0x1a8>
  return ((READ_BIT(SPIx->SR, SPI_SR_BSY) == (SPI_SR_BSY)) ? 1UL : 0UL);
 8001c26:	689a      	ldr	r2, [r3, #8]
 8001c28:	0612      	lsls	r2, r2, #24
 8001c2a:	d4fc      	bmi.n	8001c26 <ST7735_WriteString+0x1ae>
  WRITE_REG(GPIOx->BSRR, (PinMask >> GPIO_PIN_MASK_POS) & 0x0000FFFFU);
 8001c2c:	f44f 5480 	mov.w	r4, #4096	; 0x1000
	for(i = 0; i < font.height; i++)
 8001c30:	9906      	ldr	r1, [sp, #24]
 8001c32:	f8c9 4010 	str.w	r4, [r9, #16]
 8001c36:	2900      	cmp	r1, #0
 8001c38:	d041      	beq.n	8001cbe <ST7735_WriteString+0x246>
		b = font.data[(ch - 32) * font.height + i];
 8001c3a:	f1ac 0220 	sub.w	r2, ip, #32
 8001c3e:	fb01 f202 	mul.w	r2, r1, r2
 8001c42:	f1bb 0f00 	cmp.w	fp, #0
 8001c46:	d03a      	beq.n	8001cbe <ST7735_WriteString+0x246>
  WRITE_REG(GPIOx->BRR, (PinMask >> GPIO_PIN_MASK_POS) & 0x0000FFFFU);
 8001c48:	4626      	mov	r6, r4
 8001c4a:	980a      	ldr	r0, [sp, #40]	; 0x28
 8001c4c:	f102 4800 	add.w	r8, r2, #2147483648	; 0x80000000
 8001c50:	440a      	add	r2, r1
 8001c52:	1e81      	subs	r1, r0, #2
 8001c54:	f108 38ff 	add.w	r8, r8, #4294967295
 8001c58:	eb01 0242 	add.w	r2, r1, r2, lsl #1
 8001c5c:	eb00 0848 	add.w	r8, r0, r8, lsl #1
 8001c60:	9204      	str	r2, [sp, #16]
 8001c62:	f10d 0536 	add.w	r5, sp, #54	; 0x36
		for(j = 0; j < font.width; j++)
 8001c66:	2100      	movs	r1, #0
  WRITE_REG(GPIOx->BSRR, (PinMask >> GPIO_PIN_MASK_POS) & 0x0000FFFFU);
 8001c68:	f44f 6e80 	mov.w	lr, #1024	; 0x400
		b = font.data[(ch - 32) * font.height + i];
 8001c6c:	f838 cf02 	ldrh.w	ip, [r8, #2]!
			if((b << j) & 0x8000)
 8001c70:	fa0c f201 	lsl.w	r2, ip, r1
 8001c74:	0417      	lsls	r7, r2, #16
 8001c76:	a80d      	add	r0, sp, #52	; 0x34
 8001c78:	d534      	bpl.n	8001ce4 <ST7735_WriteString+0x26c>
				uint8_t data[] = { color >> 8, color & 0xFF };
 8001c7a:	9a01      	ldr	r2, [sp, #4]
 8001c7c:	f88d a035 	strb.w	sl, [sp, #53]	; 0x35
 8001c80:	f88d 2034 	strb.w	r2, [sp, #52]	; 0x34
 8001c84:	f8c9 e010 	str.w	lr, [r9, #16]
		ST7735_Write_Byte(buff[temp++]);
 8001c88:	f810 7b01 	ldrb.w	r7, [r0], #1
  WRITE_REG(GPIOx->BRR, (PinMask >> GPIO_PIN_MASK_POS) & 0x0000FFFFU);
 8001c8c:	f8c9 6014 	str.w	r6, [r9, #20]
  return ((READ_BIT(SPIx->SR, SPI_SR_TXE) == (SPI_SR_TXE)) ? 1UL : 0UL);
 8001c90:	689a      	ldr	r2, [r3, #8]
 8001c92:	0792      	lsls	r2, r2, #30
 8001c94:	d5fc      	bpl.n	8001c90 <ST7735_WriteString+0x218>
  return ((READ_BIT(SPIx->SR, SPI_SR_BSY) == (SPI_SR_BSY)) ? 1UL : 0UL);
 8001c96:	689a      	ldr	r2, [r3, #8]
 8001c98:	0612      	lsls	r2, r2, #24
 8001c9a:	d4fc      	bmi.n	8001c96 <ST7735_WriteString+0x21e>
  *spidr = TxData;
 8001c9c:	731f      	strb	r7, [r3, #12]
  return ((READ_BIT(SPIx->SR, SPI_SR_TXE) == (SPI_SR_TXE)) ? 1UL : 0UL);
 8001c9e:	689a      	ldr	r2, [r3, #8]
 8001ca0:	0792      	lsls	r2, r2, #30
 8001ca2:	d5fc      	bpl.n	8001c9e <ST7735_WriteString+0x226>
  return ((READ_BIT(SPIx->SR, SPI_SR_BSY) == (SPI_SR_BSY)) ? 1UL : 0UL);
 8001ca4:	689a      	ldr	r2, [r3, #8]
 8001ca6:	0617      	lsls	r7, r2, #24
 8001ca8:	d4fc      	bmi.n	8001ca4 <ST7735_WriteString+0x22c>
	while (temp < buff_size)
 8001caa:	42a8      	cmp	r0, r5
  WRITE_REG(GPIOx->BSRR, (PinMask >> GPIO_PIN_MASK_POS) & 0x0000FFFFU);
 8001cac:	f8c9 4010 	str.w	r4, [r9, #16]
 8001cb0:	d1ea      	bne.n	8001c88 <ST7735_WriteString+0x210>
		for(j = 0; j < font.width; j++)
 8001cb2:	3101      	adds	r1, #1
 8001cb4:	4559      	cmp	r1, fp
 8001cb6:	d1db      	bne.n	8001c70 <ST7735_WriteString+0x1f8>
	for(i = 0; i < font.height; i++)
 8001cb8:	9a04      	ldr	r2, [sp, #16]
 8001cba:	4542      	cmp	r2, r8
 8001cbc:	d1d3      	bne.n	8001c66 <ST7735_WriteString+0x1ee>
	while(*str)
 8001cbe:	9a05      	ldr	r2, [sp, #20]
		x += font.width;
 8001cc0:	f8bd 0020 	ldrh.w	r0, [sp, #32]
	while(*str)
 8001cc4:	f812 cb01 	ldrb.w	ip, [r2], #1
 8001cc8:	9205      	str	r2, [sp, #20]
 8001cca:	f1bc 0f00 	cmp.w	ip, #0
 8001cce:	f47f aefb 	bne.w	8001ac8 <ST7735_WriteString+0x50>
 8001cd2:	f44f 5280 	mov.w	r2, #4096	; 0x1000
 8001cd6:	4b17      	ldr	r3, [pc, #92]	; (8001d34 <ST7735_WriteString+0x2bc>)
 8001cd8:	611a      	str	r2, [r3, #16]
		str++;
	}

	ST7735_CS_High();
}
 8001cda:	b00f      	add	sp, #60	; 0x3c
 8001cdc:	e8bd 4ff0 	ldmia.w	sp!, {r4, r5, r6, r7, r8, r9, sl, fp, lr}
 8001ce0:	b002      	add	sp, #8
 8001ce2:	4770      	bx	lr
				uint8_t data[] = { bgcolor >> 8, bgcolor & 0xFF };
 8001ce4:	9a02      	ldr	r2, [sp, #8]
 8001ce6:	f88d 2034 	strb.w	r2, [sp, #52]	; 0x34
 8001cea:	9a03      	ldr	r2, [sp, #12]
 8001cec:	f88d 2035 	strb.w	r2, [sp, #53]	; 0x35
 8001cf0:	f8c9 e010 	str.w	lr, [r9, #16]
		ST7735_Write_Byte(buff[temp++]);
 8001cf4:	f810 7b01 	ldrb.w	r7, [r0], #1
  WRITE_REG(GPIOx->BRR, (PinMask >> GPIO_PIN_MASK_POS) & 0x0000FFFFU);
 8001cf8:	f8c9 6014 	str.w	r6, [r9, #20]
  return ((READ_BIT(SPIx->SR, SPI_SR_TXE) == (SPI_SR_TXE)) ? 1UL : 0UL);
 8001cfc:	689a      	ldr	r2, [r3, #8]
 8001cfe:	0792      	lsls	r2, r2, #30
 8001d00:	d5fc      	bpl.n	8001cfc <ST7735_WriteString+0x284>
  return ((READ_BIT(SPIx->SR, SPI_SR_BSY) == (SPI_SR_BSY)) ? 1UL : 0UL);
 8001d02:	689a      	ldr	r2, [r3, #8]
 8001d04:	0612      	lsls	r2, r2, #24
 8001d06:	d4fc      	bmi.n	8001d02 <ST7735_WriteString+0x28a>
  *spidr = TxData;
 8001d08:	731f      	strb	r7, [r3, #12]
  return ((READ_BIT(SPIx->SR, SPI_SR_TXE) == (SPI_SR_TXE)) ? 1UL : 0UL);
 8001d0a:	689a      	ldr	r2, [r3, #8]
 8001d0c:	0797      	lsls	r7, r2, #30
 8001d0e:	d5fc      	bpl.n	8001d0a <ST7735_WriteString+0x292>
  return ((READ_BIT(SPIx->SR, SPI_SR_BSY) == (SPI_SR_BSY)) ? 1UL : 0UL);
 8001d10:	689a      	ldr	r2, [r3, #8]
 8001d12:	0612      	lsls	r2, r2, #24
 8001d14:	d4fc      	bmi.n	8001d10 <ST7735_WriteString+0x298>
	while (temp < buff_size)
 8001d16:	4285      	cmp	r5, r0
  WRITE_REG(GPIOx->BSRR, (PinMask >> GPIO_PIN_MASK_POS) & 0x0000FFFFU);
 8001d18:	f8c9 4010 	str.w	r4, [r9, #16]
 8001d1c:	d1ea      	bne.n	8001cf4 <ST7735_WriteString+0x27c>
		for(j = 0; j < font.width; j++)
 8001d1e:	3101      	adds	r1, #1
 8001d20:	4559      	cmp	r1, fp
 8001d22:	d1a5      	bne.n	8001c70 <ST7735_WriteString+0x1f8>
 8001d24:	e7c8      	b.n	8001cb8 <ST7735_WriteString+0x240>
 8001d26:	b2c2      	uxtb	r2, r0
 8001d28:	9204      	str	r2, [sp, #16]
 8001d2a:	9a06      	ldr	r2, [sp, #24]
 8001d2c:	e6e4      	b.n	8001af8 <ST7735_WriteString+0x80>
			x = 0;
 8001d2e:	2000      	movs	r0, #0
 8001d30:	e6c2      	b.n	8001ab8 <ST7735_WriteString+0x40>
 8001d32:	bf00      	nop
 8001d34:	40010c00 	.word	0x40010c00
 8001d38:	40003800 	.word	0x40003800

08001d3c <ST7735_FillScreen>:
	ST7735_CS_High();
}


void ST7735_FillScreen(uint16_t color)
{
 8001d3c:	e92d 41f0 	stmdb	sp!, {r4, r5, r6, r7, r8, lr}
	ST7735_SetAddressWindow(x, y, x+w-1, y+h-1);
 8001d40:	2100      	movs	r1, #0
  WRITE_REG(GPIOx->BRR, (PinMask >> GPIO_PIN_MASK_POS) & 0x0000FFFFU);
 8001d42:	f44f 5780 	mov.w	r7, #4096	; 0x1000
 8001d46:	f8df 8088 	ldr.w	r8, [pc, #136]	; 8001dd0 <ST7735_FillScreen+0x94>
{
 8001d4a:	4604      	mov	r4, r0
	ST7735_SetAddressWindow(x, y, x+w-1, y+h-1);
 8001d4c:	237f      	movs	r3, #127	; 0x7f
 8001d4e:	4608      	mov	r0, r1
 8001d50:	f8c8 7014 	str.w	r7, [r8, #20]
 8001d54:	229f      	movs	r2, #159	; 0x9f
 8001d56:	f7ff fa79 	bl	800124c <ST7735_SetAddressWindow>
  WRITE_REG(GPIOx->BSRR, (PinMask >> GPIO_PIN_MASK_POS) & 0x0000FFFFU);
 8001d5a:	f44f 6380 	mov.w	r3, #1024	; 0x400
  WRITE_REG(GPIOx->BRR, (PinMask >> GPIO_PIN_MASK_POS) & 0x0000FFFFU);
 8001d5e:	463e      	mov	r6, r7
 8001d60:	4640      	mov	r0, r8
  WRITE_REG(GPIOx->BSRR, (PinMask >> GPIO_PIN_MASK_POS) & 0x0000FFFFU);
 8001d62:	f04f 0e80 	mov.w	lr, #128	; 0x80
 8001d66:	f8c8 3010 	str.w	r3, [r8, #16]
  return ((READ_BIT(SPIx->SR, SPI_SR_TXE) == (SPI_SR_TXE)) ? 1UL : 0UL);
 8001d6a:	4b18      	ldr	r3, [pc, #96]	; (8001dcc <ST7735_FillScreen+0x90>)
	uint8_t CH = color >> 8;
 8001d6c:	0a25      	lsrs	r5, r4, #8
	uint8_t CL = (uint8_t)color;
 8001d6e:	b2e4      	uxtb	r4, r4
{
 8001d70:	21a0      	movs	r1, #160	; 0xa0
  WRITE_REG(GPIOx->BRR, (PinMask >> GPIO_PIN_MASK_POS) & 0x0000FFFFU);
 8001d72:	6146      	str	r6, [r0, #20]
 8001d74:	689a      	ldr	r2, [r3, #8]
 8001d76:	0792      	lsls	r2, r2, #30
 8001d78:	d5fc      	bpl.n	8001d74 <ST7735_FillScreen+0x38>
  return ((READ_BIT(SPIx->SR, SPI_SR_BSY) == (SPI_SR_BSY)) ? 1UL : 0UL);
 8001d7a:	689a      	ldr	r2, [r3, #8]
 8001d7c:	0612      	lsls	r2, r2, #24
 8001d7e:	d4fc      	bmi.n	8001d7a <ST7735_FillScreen+0x3e>
  *spidr = TxData;
 8001d80:	731d      	strb	r5, [r3, #12]
  return ((READ_BIT(SPIx->SR, SPI_SR_TXE) == (SPI_SR_TXE)) ? 1UL : 0UL);
 8001d82:	689a      	ldr	r2, [r3, #8]
 8001d84:	0792      	lsls	r2, r2, #30
 8001d86:	d5fc      	bpl.n	8001d82 <ST7735_FillScreen+0x46>
  return ((READ_BIT(SPIx->SR, SPI_SR_BSY) == (SPI_SR_BSY)) ? 1UL : 0UL);
 8001d88:	689a      	ldr	r2, [r3, #8]
 8001d8a:	0612      	lsls	r2, r2, #24
 8001d8c:	d4fc      	bmi.n	8001d88 <ST7735_FillScreen+0x4c>
  WRITE_REG(GPIOx->BSRR, (PinMask >> GPIO_PIN_MASK_POS) & 0x0000FFFFU);
 8001d8e:	6107      	str	r7, [r0, #16]
  WRITE_REG(GPIOx->BRR, (PinMask >> GPIO_PIN_MASK_POS) & 0x0000FFFFU);
 8001d90:	6147      	str	r7, [r0, #20]
  return ((READ_BIT(SPIx->SR, SPI_SR_TXE) == (SPI_SR_TXE)) ? 1UL : 0UL);
 8001d92:	689a      	ldr	r2, [r3, #8]
 8001d94:	0792      	lsls	r2, r2, #30
 8001d96:	d5fc      	bpl.n	8001d92 <ST7735_FillScreen+0x56>
  return ((READ_BIT(SPIx->SR, SPI_SR_BSY) == (SPI_SR_BSY)) ? 1UL : 0UL);
 8001d98:	689a      	ldr	r2, [r3, #8]
 8001d9a:	0612      	lsls	r2, r2, #24
 8001d9c:	d4fc      	bmi.n	8001d98 <ST7735_FillScreen+0x5c>
  *spidr = TxData;
 8001d9e:	731c      	strb	r4, [r3, #12]
  return ((READ_BIT(SPIx->SR, SPI_SR_TXE) == (SPI_SR_TXE)) ? 1UL : 0UL);
 8001da0:	689a      	ldr	r2, [r3, #8]
 8001da2:	0792      	lsls	r2, r2, #30
 8001da4:	d5fc      	bpl.n	8001da0 <ST7735_FillScreen+0x64>
  return ((READ_BIT(SPIx->SR, SPI_SR_BSY) == (SPI_SR_BSY)) ? 1UL : 0UL);
 8001da6:	689a      	ldr	r2, [r3, #8]
 8001da8:	0612      	lsls	r2, r2, #24
 8001daa:	d4fc      	bmi.n	8001da6 <ST7735_FillScreen+0x6a>
 8001dac:	3901      	subs	r1, #1
 8001dae:	b289      	uxth	r1, r1
  WRITE_REG(GPIOx->BSRR, (PinMask >> GPIO_PIN_MASK_POS) & 0x0000FFFFU);
 8001db0:	6107      	str	r7, [r0, #16]
		for(x = w; x > 0; x--)
 8001db2:	2900      	cmp	r1, #0
 8001db4:	d1dd      	bne.n	8001d72 <ST7735_FillScreen+0x36>
 8001db6:	f10e 3eff 	add.w	lr, lr, #4294967295
 8001dba:	fa1f fe8e 	uxth.w	lr, lr
	for(y = h; y > 0; y--)
 8001dbe:	f1be 0f00 	cmp.w	lr, #0
 8001dc2:	d1d5      	bne.n	8001d70 <ST7735_FillScreen+0x34>
 8001dc4:	f8c8 6010 	str.w	r6, [r8, #16]
	ST7735_FillRectangle(0, 0, ST7735_WIDTH, ST7735_HEIGHT, color);
}
 8001dc8:	e8bd 81f0 	ldmia.w	sp!, {r4, r5, r6, r7, r8, pc}
 8001dcc:	40003800 	.word	0x40003800
 8001dd0:	40010c00 	.word	0x40010c00

08001dd4 <NMI_Handler>:


void NMI_Handler(void)
{

}
 8001dd4:	4770      	bx	lr
 8001dd6:	bf00      	nop

08001dd8 <HardFault_Handler>:


void HardFault_Handler(void)
{
 8001dd8:	e7fe      	b.n	8001dd8 <HardFault_Handler>
 8001dda:	bf00      	nop

08001ddc <MemManage_Handler>:
	}
}


void MemManage_Handler(void)
{
 8001ddc:	e7fe      	b.n	8001ddc <MemManage_Handler>
 8001dde:	bf00      	nop

08001de0 <BusFault_Handler>:
	}
}


void BusFault_Handler(void)
{
 8001de0:	e7fe      	b.n	8001de0 <BusFault_Handler>
 8001de2:	bf00      	nop

08001de4 <UsageFault_Handler>:
	}
}


void UsageFault_Handler(void)
{
 8001de4:	e7fe      	b.n	8001de4 <UsageFault_Handler>
 8001de6:	bf00      	nop

08001de8 <SVC_Handler>:
 8001de8:	4770      	bx	lr
 8001dea:	bf00      	nop

08001dec <DebugMon_Handler>:
 8001dec:	4770      	bx	lr
 8001dee:	bf00      	nop

08001df0 <PendSV_Handler>:
 8001df0:	4770      	bx	lr
 8001df2:	bf00      	nop

08001df4 <SysTick_Handler>:
}


void SysTick_Handler(void)
{
	if (timeout > 0) timeout--;													//when enabled: every 1 ms
 8001df4:	4a13      	ldr	r2, [pc, #76]	; (8001e44 <SysTick_Handler+0x50>)
 8001df6:	8813      	ldrh	r3, [r2, #0]
 8001df8:	b21b      	sxth	r3, r3
 8001dfa:	2b00      	cmp	r3, #0
 8001dfc:	dd04      	ble.n	8001e08 <SysTick_Handler+0x14>
 8001dfe:	8813      	ldrh	r3, [r2, #0]
 8001e00:	3b01      	subs	r3, #1
 8001e02:	b21b      	sxth	r3, r3
 8001e04:	8013      	strh	r3, [r2, #0]
 8001e06:	4770      	bx	lr
  * @param  TIMx Timer instance
  * @retval None
  */
__STATIC_INLINE void LL_TIM_DisableIT_UPDATE(TIM_TypeDef *TIMx)
{
  CLEAR_BIT(TIMx->DIER, TIM_DIER_UIE);
 8001e08:	f04f 4180 	mov.w	r1, #1073741824	; 0x40000000
 8001e0c:	68ca      	ldr	r2, [r1, #12]
  * @note   Please check each device line mapping for EXTI Line availability
  * @retval None
  */
__STATIC_INLINE void LL_EXTI_EnableIT_0_31(uint32_t ExtiLine)
{
  SET_BIT(EXTI->IMR, ExtiLine);
 8001e0e:	4b0e      	ldr	r3, [pc, #56]	; (8001e48 <SysTick_Handler+0x54>)
 8001e10:	f022 0201 	bic.w	r2, r2, #1
 8001e14:	60ca      	str	r2, [r1, #12]
 8001e16:	681a      	ldr	r2, [r3, #0]
  * @rmtoll STK_CTRL     TICKINT       LL_SYSTICK_DisableIT
  * @retval None
  */
__STATIC_INLINE void LL_SYSTICK_DisableIT(void)
{
  CLEAR_BIT(SysTick->CTRL, SysTick_CTRL_TICKINT_Msk);
 8001e18:	490c      	ldr	r1, [pc, #48]	; (8001e4c <SysTick_Handler+0x58>)
 8001e1a:	f042 0240 	orr.w	r2, r2, #64	; 0x40
 8001e1e:	601a      	str	r2, [r3, #0]
 8001e20:	681a      	ldr	r2, [r3, #0]
 8001e22:	f442 7280 	orr.w	r2, r2, #256	; 0x100
 8001e26:	601a      	str	r2, [r3, #0]
 8001e28:	681a      	ldr	r2, [r3, #0]
 8001e2a:	f442 6200 	orr.w	r2, r2, #2048	; 0x800
 8001e2e:	601a      	str	r2, [r3, #0]
 8001e30:	681a      	ldr	r2, [r3, #0]
 8001e32:	f442 5280 	orr.w	r2, r2, #4096	; 0x1000
 8001e36:	601a      	str	r2, [r3, #0]
 8001e38:	680b      	ldr	r3, [r1, #0]
 8001e3a:	f023 0302 	bic.w	r3, r3, #2
 8001e3e:	600b      	str	r3, [r1, #0]
		LL_EXTI_EnableIT_0_31(LL_EXTI_LINE_11);
		LL_EXTI_EnableIT_0_31(LL_EXTI_LINE_12);

		LL_SYSTICK_DisableIT();													//disable THIS interrupt
	}
}
 8001e40:	4770      	bx	lr
 8001e42:	bf00      	nop
 8001e44:	20000f54 	.word	0x20000f54
 8001e48:	40010400 	.word	0x40010400
 8001e4c:	e000e010 	.word	0xe000e010

08001e50 <DMA1_Channel1_IRQHandler>:
  CLEAR_BIT(TIMx->CR1, TIM_CR1_CEN);
 8001e50:	490a      	ldr	r1, [pc, #40]	; (8001e7c <DMA1_Channel1_IRQHandler+0x2c>)
  return (READ_BIT(DMAx->ISR, DMA_ISR_TCIF1) == (DMA_ISR_TCIF1));
 8001e52:	4b0b      	ldr	r3, [pc, #44]	; (8001e80 <DMA1_Channel1_IRQHandler+0x30>)
 8001e54:	680a      	ldr	r2, [r1, #0]
 8001e56:	f022 0201 	bic.w	r2, r2, #1
 8001e5a:	600a      	str	r2, [r1, #0]
 8001e5c:	681a      	ldr	r2, [r3, #0]


void DMA1_Channel1_IRQHandler(void)
{																				//as soon as DMA is ready stop TIM3
	LL_TIM_DisableCounter(TIM3);												//so no more triggering of the ADCs
	if (LL_DMA_IsActiveFlag_TC1(DMA1))
 8001e5e:	0790      	lsls	r0, r2, #30
 8001e60:	d50a      	bpl.n	8001e78 <DMA1_Channel1_IRQHandler+0x28>
 8001e62:	681a      	ldr	r2, [r3, #0]
	{
		while(LL_DMA_IsActiveFlag_TC1(DMA1)) LL_DMA_ClearFlag_TC1(DMA1);
 8001e64:	0791      	lsls	r1, r2, #30
 8001e66:	d504      	bpl.n	8001e72 <DMA1_Channel1_IRQHandler+0x22>
  WRITE_REG(DMAx->IFCR, DMA_IFCR_CTCIF1);
 8001e68:	2102      	movs	r1, #2
 8001e6a:	6059      	str	r1, [r3, #4]
  return (READ_BIT(DMAx->ISR, DMA_ISR_TCIF1) == (DMA_ISR_TCIF1));
 8001e6c:	681a      	ldr	r2, [r3, #0]
 8001e6e:	0792      	lsls	r2, r2, #30
 8001e70:	d4fb      	bmi.n	8001e6a <DMA1_Channel1_IRQHandler+0x1a>
		conversion_ready = 1;
 8001e72:	2201      	movs	r2, #1
 8001e74:	4b03      	ldr	r3, [pc, #12]	; (8001e84 <DMA1_Channel1_IRQHandler+0x34>)
 8001e76:	701a      	strb	r2, [r3, #0]
	}
}
 8001e78:	4770      	bx	lr
 8001e7a:	bf00      	nop
 8001e7c:	40000400 	.word	0x40000400
 8001e80:	40020000 	.word	0x40020000
 8001e84:	20000ccf 	.word	0x20000ccf

08001e88 <TIM2_IRQHandler>:
  return ((READ_BIT(TIMx->SR, TIM_SR_UIF) == (TIM_SR_UIF)) ? 1UL : 0UL);
 8001e88:	f04f 4380 	mov.w	r3, #1073741824	; 0x40000000
 8001e8c:	691a      	ldr	r2, [r3, #16]
 8001e8e:	07d1      	lsls	r1, r2, #31
 8001e90:	f140 80b4 	bpl.w	8001ffc <TIM2_IRQHandler+0x174>
 8001e94:	691a      	ldr	r2, [r3, #16]


void TIM2_IRQHandler(void)														//10 kHz when enabled
{
 8001e96:	e92d 43f0 	stmdb	sp!, {r4, r5, r6, r7, r8, r9, lr}
 8001e9a:	07d2      	lsls	r2, r2, #31
 8001e9c:	d505      	bpl.n	8001eaa <TIM2_IRQHandler+0x22>
  WRITE_REG(TIMx->SR, ~(TIM_SR_UIF));
 8001e9e:	f06f 0101 	mvn.w	r1, #1
 8001ea2:	6119      	str	r1, [r3, #16]
  return ((READ_BIT(TIMx->SR, TIM_SR_UIF) == (TIM_SR_UIF)) ? 1UL : 0UL);
 8001ea4:	691a      	ldr	r2, [r3, #16]
 8001ea6:	07d7      	lsls	r7, r2, #31
 8001ea8:	d4fb      	bmi.n	8001ea2 <TIM2_IRQHandler+0x1a>

	if (LL_TIM_IsActiveFlag_UPDATE(TIM2))
	{
		while (LL_TIM_IsActiveFlag_UPDATE(TIM2)) LL_TIM_ClearFlag_UPDATE(TIM2);

		rotary_1_updown = 0;
 8001eaa:	f04f 0e00 	mov.w	lr, #0
		rotary_2_updown = 0;

		rotary_1_pinA <<= 1;
 8001eae:	4e9b      	ldr	r6, [pc, #620]	; (800211c <TIM2_IRQHandler+0x294>)
		rotary_1_pinB <<= 1;
 8001eb0:	4d9b      	ldr	r5, [pc, #620]	; (8002120 <TIM2_IRQHandler+0x298>)
		rotary_2_pinA <<= 1;
 8001eb2:	4c9c      	ldr	r4, [pc, #624]	; (8002124 <TIM2_IRQHandler+0x29c>)
		rotary_2_pinB <<= 1;
 8001eb4:	489c      	ldr	r0, [pc, #624]	; (8002128 <TIM2_IRQHandler+0x2a0>)
		rotary_1_pinA <<= 1;
 8001eb6:	7831      	ldrb	r1, [r6, #0]
		rotary_1_pinB <<= 1;
 8001eb8:	f895 8000 	ldrb.w	r8, [r5]
		rotary_2_pinA <<= 1;
 8001ebc:	7823      	ldrb	r3, [r4, #0]
		rotary_2_pinB <<= 1;
 8001ebe:	7802      	ldrb	r2, [r0, #0]
		rotary_1_pinA <<= 1;
 8001ec0:	0049      	lsls	r1, r1, #1
		rotary_1_pinB <<= 1;
 8001ec2:	ea4f 0848 	mov.w	r8, r8, lsl #1
		rotary_2_pinA <<= 1;
 8001ec6:	005b      	lsls	r3, r3, #1
		rotary_2_pinB <<= 1;
 8001ec8:	0052      	lsls	r2, r2, #1
		rotary_1_updown = 0;
 8001eca:	f8df c294 	ldr.w	ip, [pc, #660]	; 8002160 <TIM2_IRQHandler+0x2d8>
		rotary_2_updown = 0;
 8001ece:	4f97      	ldr	r7, [pc, #604]	; (800212c <TIM2_IRQHandler+0x2a4>)
		rotary_1_pinA <<= 1;
 8001ed0:	b2c9      	uxtb	r1, r1
		rotary_1_pinB <<= 1;
 8001ed2:	fa5f f888 	uxtb.w	r8, r8
		rotary_2_pinA <<= 1;
 8001ed6:	b2db      	uxtb	r3, r3
		rotary_2_pinB <<= 1;
 8001ed8:	b2d2      	uxtb	r2, r2
  return (READ_BIT(GPIOx->IDR, (PinMask >> GPIO_PIN_MASK_POS) & 0x0000FFFFU) == ((PinMask >> GPIO_PIN_MASK_POS) & 0x0000FFFFU));
 8001eda:	f8df 9254 	ldr.w	r9, [pc, #596]	; 8002130 <TIM2_IRQHandler+0x2a8>
		rotary_1_updown = 0;
 8001ede:	f88c e000 	strb.w	lr, [ip]
		rotary_1_pinA <<= 1;
 8001ee2:	7031      	strb	r1, [r6, #0]
		rotary_1_pinB <<= 1;
 8001ee4:	f885 8000 	strb.w	r8, [r5]
		rotary_2_pinA <<= 1;
 8001ee8:	7023      	strb	r3, [r4, #0]
		rotary_2_pinB <<= 1;
 8001eea:	7002      	strb	r2, [r0, #0]
		rotary_2_updown = 0;
 8001eec:	f887 e000 	strb.w	lr, [r7]
 8001ef0:	f8d9 e008 	ldr.w	lr, [r9, #8]

		if (LL_GPIO_IsInputPinSet(GPIOA, LL_GPIO_PIN_8) == 0) rotary_1_pinA++;
 8001ef4:	f41e 7f80 	tst.w	lr, #256	; 0x100
 8001ef8:	d102      	bne.n	8001f00 <TIM2_IRQHandler+0x78>
 8001efa:	3101      	adds	r1, #1
 8001efc:	b2c9      	uxtb	r1, r1
 8001efe:	7031      	strb	r1, [r6, #0]
 8001f00:	4e8b      	ldr	r6, [pc, #556]	; (8002130 <TIM2_IRQHandler+0x2a8>)
 8001f02:	68b6      	ldr	r6, [r6, #8]
		if (LL_GPIO_IsInputPinSet(GPIOA, LL_GPIO_PIN_9) == 0) rotary_1_pinB++;
 8001f04:	05b6      	lsls	r6, r6, #22
 8001f06:	d405      	bmi.n	8001f14 <TIM2_IRQHandler+0x8c>
 8001f08:	f108 0801 	add.w	r8, r8, #1
 8001f0c:	fa5f f888 	uxtb.w	r8, r8
 8001f10:	f885 8000 	strb.w	r8, [r5]
 8001f14:	4d87      	ldr	r5, [pc, #540]	; (8002134 <TIM2_IRQHandler+0x2ac>)
 8001f16:	68ad      	ldr	r5, [r5, #8]
		if (LL_GPIO_IsInputPinSet(GPIOB, LL_GPIO_PIN_6) == 0) rotary_2_pinA++;
 8001f18:	066e      	lsls	r6, r5, #25
 8001f1a:	d402      	bmi.n	8001f22 <TIM2_IRQHandler+0x9a>
 8001f1c:	3301      	adds	r3, #1
 8001f1e:	b2db      	uxtb	r3, r3
 8001f20:	7023      	strb	r3, [r4, #0]
 8001f22:	4c84      	ldr	r4, [pc, #528]	; (8002134 <TIM2_IRQHandler+0x2ac>)
 8001f24:	68a4      	ldr	r4, [r4, #8]
		if (LL_GPIO_IsInputPinSet(GPIOB, LL_GPIO_PIN_7) == 0) rotary_2_pinB++;
 8001f26:	0625      	lsls	r5, r4, #24
 8001f28:	d402      	bmi.n	8001f30 <TIM2_IRQHandler+0xa8>
 8001f2a:	3201      	adds	r2, #1
 8001f2c:	b2d2      	uxtb	r2, r2
 8001f2e:	7002      	strb	r2, [r0, #0]

		if (rotary_1_pinA == 0x80)
 8001f30:	2980      	cmp	r1, #128	; 0x80
 8001f32:	d069      	beq.n	8002008 <TIM2_IRQHandler+0x180>
		{
			if (rotary_1_pinB == 0x00) rotary_1_updown = -1;
			if (rotary_1_pinB == 0xFF) rotary_1_updown = 1;
		}

		if (rotary_2_pinA == 0x80)
 8001f34:	2b80      	cmp	r3, #128	; 0x80
 8001f36:	d062      	beq.n	8001ffe <TIM2_IRQHandler+0x176>
			if (rotary_2_pinB == 0x00) rotary_2_updown = -1;
			if (rotary_2_pinB == 0xFF) rotary_2_updown = 1;
		}


		if (function_button_encoder1 == TIMEBASE_MODE)							//TIMEBASE_MODE
 8001f38:	4a7f      	ldr	r2, [pc, #508]	; (8002138 <TIM2_IRQHandler+0x2b0>)
 8001f3a:	7813      	ldrb	r3, [r2, #0]
 8001f3c:	b25b      	sxtb	r3, r3
 8001f3e:	bb23      	cbnz	r3, 8001f8a <TIM2_IRQHandler+0x102>
		{
			timebase += rotary_1_updown;
 8001f40:	4a7e      	ldr	r2, [pc, #504]	; (800213c <TIM2_IRQHandler+0x2b4>)
 8001f42:	f89c 0000 	ldrb.w	r0, [ip]
 8001f46:	7811      	ldrb	r1, [r2, #0]
 8001f48:	4401      	add	r1, r0
 8001f4a:	b249      	sxtb	r1, r1
 8001f4c:	7011      	strb	r1, [r2, #0]
			if (timebase < 0) timebase = 0;
 8001f4e:	7811      	ldrb	r1, [r2, #0]
 8001f50:	060c      	lsls	r4, r1, #24
 8001f52:	bf48      	it	mi
 8001f54:	7013      	strbmi	r3, [r2, #0]
			if (timebase > 12) timebase = 12;
 8001f56:	7813      	ldrb	r3, [r2, #0]
 8001f58:	b25b      	sxtb	r3, r3
 8001f5a:	2b0c      	cmp	r3, #12
 8001f5c:	bfc4      	itt	gt
 8001f5e:	230c      	movgt	r3, #12
 8001f60:	7013      	strbgt	r3, [r2, #0]

			switch(timebase)													//set TIM3 to required timebase setting
 8001f62:	7813      	ldrb	r3, [r2, #0]
 8001f64:	b25b      	sxtb	r3, r3
 8001f66:	2b0c      	cmp	r3, #12
 8001f68:	f200 8139 	bhi.w	80021de <TIM2_IRQHandler+0x356>
 8001f6c:	e8df f013 	tbh	[pc, r3, lsl #1]
 8001f70:	00c100ba 	.word	0x00c100ba
 8001f74:	00cf00c8 	.word	0x00cf00c8
 8001f78:	010100fa 	.word	0x010100fa
 8001f7c:	010f0108 	.word	0x010f0108
 8001f80:	011d0116 	.word	0x011d0116
 8001f84:	012b0124 	.word	0x012b0124
 8001f88:	0131      	.short	0x0131
				LL_TIM_SetPrescaler(TIM3, 0);
				LL_TIM_SetAutoReload(TIM3, 1999);
				break;
			}
		}
		else if (function_button_encoder1 == TRIGGER_LEVEL_MODE)				//TRIGGER_LEVEL_MODE																//function_button_encoder1 == TRIGGER_LEVEL_MODE
 8001f8a:	7813      	ldrb	r3, [r2, #0]
 8001f8c:	2b01      	cmp	r3, #1
 8001f8e:	d042      	beq.n	8002016 <TIM2_IRQHandler+0x18e>
			if (trigger_level > 124) trigger_level = 124;
		}

		else																	//TRIGGER_CHANNEL_MODE
		{
			trigger_channel += rotary_1_updown;
 8001f90:	4a6b      	ldr	r2, [pc, #428]	; (8002140 <TIM2_IRQHandler+0x2b8>)
 8001f92:	f89c 1000 	ldrb.w	r1, [ip]
 8001f96:	7813      	ldrb	r3, [r2, #0]
 8001f98:	440b      	add	r3, r1
 8001f9a:	b25b      	sxtb	r3, r3
 8001f9c:	7013      	strb	r3, [r2, #0]
			if (trigger_channel > 1) trigger_channel = 1;
 8001f9e:	7813      	ldrb	r3, [r2, #0]
 8001fa0:	b25b      	sxtb	r3, r3
 8001fa2:	2b01      	cmp	r3, #1
 8001fa4:	bfc4      	itt	gt
 8001fa6:	2301      	movgt	r3, #1
 8001fa8:	7013      	strbgt	r3, [r2, #0]
			if (trigger_channel < 0) trigger_channel = 0;
 8001faa:	7813      	ldrb	r3, [r2, #0]
 8001fac:	0618      	lsls	r0, r3, #24
 8001fae:	bf44      	itt	mi
 8001fb0:	2300      	movmi	r3, #0
 8001fb2:	7013      	strbmi	r3, [r2, #0]
		}




		if (function_button_encoder2 == ATTENUATOR1_MODE)						//ATTENUATOR1_MODE
 8001fb4:	4a63      	ldr	r2, [pc, #396]	; (8002144 <TIM2_IRQHandler+0x2bc>)
 8001fb6:	7813      	ldrb	r3, [r2, #0]
 8001fb8:	b25b      	sxtb	r3, r3
 8001fba:	2b00      	cmp	r3, #0
 8001fbc:	d141      	bne.n	8002042 <TIM2_IRQHandler+0x1ba>
		{
			attenuator_ch1 += rotary_2_updown;									//attenuator levels 0, 1, 2
 8001fbe:	4a62      	ldr	r2, [pc, #392]	; (8002148 <TIM2_IRQHandler+0x2c0>)
 8001fc0:	7838      	ldrb	r0, [r7, #0]
 8001fc2:	7811      	ldrb	r1, [r2, #0]
 8001fc4:	4401      	add	r1, r0
 8001fc6:	b249      	sxtb	r1, r1
 8001fc8:	7011      	strb	r1, [r2, #0]
			if (attenuator_ch1 < 0) attenuator_ch1 = 0;							//500mV, 1V, 2V/division
 8001fca:	7811      	ldrb	r1, [r2, #0]
 8001fcc:	0609      	lsls	r1, r1, #24
 8001fce:	bf48      	it	mi
 8001fd0:	7013      	strbmi	r3, [r2, #0]
			if (attenuator_ch1 > 2) attenuator_ch1 = 2;
 8001fd2:	7813      	ldrb	r3, [r2, #0]
  WRITE_REG(GPIOx->BSRR, (PinMask >> GPIO_PIN_MASK_POS) & 0x0000FFFFU);
 8001fd4:	2110      	movs	r1, #16
 8001fd6:	b25b      	sxtb	r3, r3
 8001fd8:	2b02      	cmp	r3, #2
 8001fda:	bfc4      	itt	gt
 8001fdc:	2302      	movgt	r3, #2
 8001fde:	7013      	strbgt	r3, [r2, #0]

			switch(attenuator_ch1)
 8001fe0:	7813      	ldrb	r3, [r2, #0]
  WRITE_REG(GPIOx->BRR, (PinMask >> GPIO_PIN_MASK_POS) & 0x0000FFFFU);
 8001fe2:	2220      	movs	r2, #32
 8001fe4:	b25b      	sxtb	r3, r3
 8001fe6:	2b01      	cmp	r3, #1
 8001fe8:	d068      	beq.n	80020bc <TIM2_IRQHandler+0x234>
		{
			attenuator_ch2 += rotary_2_updown;
			if (attenuator_ch2 < 0) attenuator_ch2 = 0;
			if (attenuator_ch2 > 2) attenuator_ch2 = 2;

			switch(attenuator_ch2)
 8001fea:	2b02      	cmp	r3, #2
 8001fec:	d076      	beq.n	80020dc <TIM2_IRQHandler+0x254>
 8001fee:	2b00      	cmp	r3, #0
 8001ff0:	d06d      	beq.n	80020ce <TIM2_IRQHandler+0x246>
  WRITE_REG(GPIOx->BSRR, (PinMask >> GPIO_PIN_MASK_POS) & 0x0000FFFFU);
 8001ff2:	4b4f      	ldr	r3, [pc, #316]	; (8002130 <TIM2_IRQHandler+0x2a8>)
 8001ff4:	6119      	str	r1, [r3, #16]
 8001ff6:	611a      	str	r2, [r3, #16]
			if (virtual_ground > 126) virtual_ground = 126;

			LL_TIM_OC_SetCompareCH3(TIM4, (virtual_ground * 10));
		}
	}
}
 8001ff8:	e8bd 83f0 	ldmia.w	sp!, {r4, r5, r6, r7, r8, r9, pc}
 8001ffc:	4770      	bx	lr
			if (rotary_2_pinB == 0x00) rotary_2_updown = -1;
 8001ffe:	2a00      	cmp	r2, #0
 8002000:	d160      	bne.n	80020c4 <TIM2_IRQHandler+0x23c>
 8002002:	23ff      	movs	r3, #255	; 0xff
 8002004:	703b      	strb	r3, [r7, #0]
 8002006:	e797      	b.n	8001f38 <TIM2_IRQHandler+0xb0>
			if (rotary_1_pinB == 0x00) rotary_1_updown = -1;
 8002008:	f1b8 0f00 	cmp.w	r8, #0
 800200c:	d138      	bne.n	8002080 <TIM2_IRQHandler+0x1f8>
 800200e:	21ff      	movs	r1, #255	; 0xff
 8002010:	f88c 1000 	strb.w	r1, [ip]
 8002014:	e78e      	b.n	8001f34 <TIM2_IRQHandler+0xac>
			trigger_level -= (4 * rotary_1_updown);								//trigger_level 4 .. 124 in steps of 4
 8002016:	4a4d      	ldr	r2, [pc, #308]	; (800214c <TIM2_IRQHandler+0x2c4>)
 8002018:	f89c 1000 	ldrb.w	r1, [ip]
 800201c:	8813      	ldrh	r3, [r2, #0]
 800201e:	b249      	sxtb	r1, r1
 8002020:	eba3 0381 	sub.w	r3, r3, r1, lsl #2
 8002024:	b21b      	sxth	r3, r3
 8002026:	8013      	strh	r3, [r2, #0]
			if (trigger_level < 4) trigger_level = 4;							//from top to bottom of screen
 8002028:	8813      	ldrh	r3, [r2, #0]
 800202a:	b21b      	sxth	r3, r3
 800202c:	2b03      	cmp	r3, #3
 800202e:	bfdc      	itt	le
 8002030:	2304      	movle	r3, #4
 8002032:	8013      	strhle	r3, [r2, #0]
			if (trigger_level > 124) trigger_level = 124;
 8002034:	8813      	ldrh	r3, [r2, #0]
 8002036:	b21b      	sxth	r3, r3
 8002038:	2b7c      	cmp	r3, #124	; 0x7c
 800203a:	ddbb      	ble.n	8001fb4 <TIM2_IRQHandler+0x12c>
 800203c:	237c      	movs	r3, #124	; 0x7c
 800203e:	8013      	strh	r3, [r2, #0]
