Archive member included to satisfy reference by file (symbol)

c:/st/stm32cubeide/stm32cubeide/plugins/com.st.stm32cube.ide.mcu.externaltools.gnu-tools-for-stm32.7-2018-q2-update.win32_1.0.0.201904181610/tools/bin/../lib/gcc/arm-none-eabi/7.3.1/../../../../arm-none-eabi/lib/thumb/v7-m\libc_nano.a(lib_a-errno.o)
                              Core/Src/syscalls.o (__errno)
c:/st/stm32cubeide/stm32cubeide/plugins/com.st.stm32cube.ide.mcu.externaltools.gnu-tools-for-stm32.7-2018-q2-update.win32_1.0.0.201904181610/tools/bin/../lib/gcc/arm-none-eabi/7.3.1/../../../../arm-none-eabi/lib/thumb/v7-m\libc_nano.a(lib_a-exit.o)
                              c:/st/stm32cubeide/stm32cubeide/plugins/com.st.stm32cube.ide.mcu.externaltools.gnu-tools-for-stm32.7-2018-q2-update.win32_1.0.0.201904181610/tools/bin/../lib/gcc/arm-none-eabi/7.3.1/../../../../arm-none-eabi/lib/thumb/v7-m/crt0.o (exit)
c:/st/stm32cubeide/stm32cubeide/plugins/com.st.stm32cube.ide.mcu.externaltools.gnu-tools-for-stm32.7-2018-q2-update.win32_1.0.0.201904181610/tools/bin/../lib/gcc/arm-none-eabi/7.3.1/../../../../arm-none-eabi/lib/thumb/v7-m\libc_nano.a(lib_a-impure.o)
                              c:/st/stm32cubeide/stm32cubeide/plugins/com.st.stm32cube.ide.mcu.externaltools.gnu-tools-for-stm32.7-2018-q2-update.win32_1.0.0.201904181610/tools/bin/../lib/gcc/arm-none-eabi/7.3.1/../../../../arm-none-eabi/lib/thumb/v7-m\libc_nano.a(lib_a-exit.o) (_global_impure_ptr)
c:/st/stm32cubeide/stm32cubeide/plugins/com.st.stm32cube.ide.mcu.externaltools.gnu-tools-for-stm32.7-2018-q2-update.win32_1.0.0.201904181610/tools/bin/../lib/gcc/arm-none-eabi/7.3.1/../../../../arm-none-eabi/lib/thumb/v7-m\libc_nano.a(lib_a-init.o)
                              c:/st/stm32cubeide/stm32cubeide/plugins/com.st.stm32cube.ide.mcu.externaltools.gnu-tools-for-stm32.7-2018-q2-update.win32_1.0.0.201904181610/tools/bin/../lib/gcc/arm-none-eabi/7.3.1/../../../../arm-none-eabi/lib/thumb/v7-m/crt0.o (__libc_init_array)
c:/st/stm32cubeide/stm32cubeide/plugins/com.st.stm32cube.ide.mcu.externaltools.gnu-tools-for-stm32.7-2018-q2-update.win32_1.0.0.201904181610/tools/bin/../lib/gcc/arm-none-eabi/7.3.1/../../../../arm-none-eabi/lib/thumb/v7-m\libc_nano.a(lib_a-memcpy-stub.o)
                              Core/Src/main.o (memcpy)
c:/st/stm32cubeide/stm32cubeide/plugins/com.st.stm32cube.ide.mcu.externaltools.gnu-tools-for-stm32.7-2018-q2-update.win32_1.0.0.201904181610/tools/bin/../lib/gcc/arm-none-eabi/7.3.1/../../../../arm-none-eabi/lib/thumb/v7-m\libc_nano.a(lib_a-memset.o)
                              c:/st/stm32cubeide/stm32cubeide/plugins/com.st.stm32cube.ide.mcu.externaltools.gnu-tools-for-stm32.7-2018-q2-update.win32_1.0.0.201904181610/tools/bin/../lib/gcc/arm-none-eabi/7.3.1/../../../../arm-none-eabi/lib/thumb/v7-m/crt0.o (memset)

Allocating common symbols
Common symbol       size              file

erase_1_buffer      0x280             Core/Src/main.o
attenuator_ch1_color
                    0x2               Core/Src/main.o
trigger_channel_color
                    0x2               Core/Src/main.o
attenuator_ch1      0x1               Core/Src/main.o
virtual_ground_color
                    0x2               Core/Src/main.o
USART_rxbuff        0x40              Core/Src/stm32f1xx_usart.o
rotary_1_updown     0x1               Core/Src/stm32f1xx_it.o
trace_2_buffer      0x280             Core/Src/main.o
trigger_channel     0x1               Core/Src/main.o
erase_2_buffer      0x280             Core/Src/main.o
function_button_encoder2
                    0x1               Core/Src/main.o
USART_txbuff        0x40              Core/Src/stm32f1xx_usart.o
virtual_ground      0x2               Core/Src/main.o
trigger_level_color
                    0x2               Core/Src/main.o
attenuator_ch2      0x1               Core/Src/main.o
rotary_2_updown     0x1               Core/Src/stm32f1xx_it.o
function_button_encoder1
                    0x1               Core/Src/main.o
trigger_level       0x2               Core/Src/main.o
adc_buffer          0x500             Core/Src/main.o
timeout             0x2               Core/Src/stm32f1xx_it.o
attenuator_ch2_color
                    0x2               Core/Src/main.o
timebase            0x1               Core/Src/main.o
conversion_ready    0x1               Core/Src/main.o
trace_1_buffer      0x280             Core/Src/main.o
timebase_color      0x2               Core/Src/main.o

Discarded input sections

 .text          0x0000000000000000        0x0 c:/st/stm32cubeide/stm32cubeide/plugins/com.st.stm32cube.ide.mcu.externaltools.gnu-tools-for-stm32.7-2018-q2-update.win32_1.0.0.201904181610/tools/bin/../lib/gcc/arm-none-eabi/7.3.1/thumb/v7-m/crti.o
 .data          0x0000000000000000        0x0 c:/st/stm32cubeide/stm32cubeide/plugins/com.st.stm32cube.ide.mcu.externaltools.gnu-tools-for-stm32.7-2018-q2-update.win32_1.0.0.201904181610/tools/bin/../lib/gcc/arm-none-eabi/7.3.1/thumb/v7-m/crti.o
 .bss           0x0000000000000000        0x0 c:/st/stm32cubeide/stm32cubeide/plugins/com.st.stm32cube.ide.mcu.externaltools.gnu-tools-for-stm32.7-2018-q2-update.win32_1.0.0.201904181610/tools/bin/../lib/gcc/arm-none-eabi/7.3.1/thumb/v7-m/crti.o
 .data          0x0000000000000000        0x4 c:/st/stm32cubeide/stm32cubeide/plugins/com.st.stm32cube.ide.mcu.externaltools.gnu-tools-for-stm32.7-2018-q2-update.win32_1.0.0.201904181610/tools/bin/../lib/gcc/arm-none-eabi/7.3.1/thumb/v7-m/crtbegin.o
 .text          0x0000000000000000       0x74 c:/st/stm32cubeide/stm32cubeide/plugins/com.st.stm32cube.ide.mcu.externaltools.gnu-tools-for-stm32.7-2018-q2-update.win32_1.0.0.201904181610/tools/bin/../lib/gcc/arm-none-eabi/7.3.1/../../../../arm-none-eabi/lib/thumb/v7-m/crt0.o
 .data          0x0000000000000000        0x0 c:/st/stm32cubeide/stm32cubeide/plugins/com.st.stm32cube.ide.mcu.externaltools.gnu-tools-for-stm32.7-2018-q2-update.win32_1.0.0.201904181610/tools/bin/../lib/gcc/arm-none-eabi/7.3.1/../../../../arm-none-eabi/lib/thumb/v7-m/crt0.o
 .bss           0x0000000000000000        0x0 c:/st/stm32cubeide/stm32cubeide/plugins/com.st.stm32cube.ide.mcu.externaltools.gnu-tools-for-stm32.7-2018-q2-update.win32_1.0.0.201904181610/tools/bin/../lib/gcc/arm-none-eabi/7.3.1/../../../../arm-none-eabi/lib/thumb/v7-m/crt0.o
 .ARM.extab     0x0000000000000000        0x0 c:/st/stm32cubeide/stm32cubeide/plugins/com.st.stm32cube.ide.mcu.externaltools.gnu-tools-for-stm32.7-2018-q2-update.win32_1.0.0.201904181610/tools/bin/../lib/gcc/arm-none-eabi/7.3.1/../../../../arm-none-eabi/lib/thumb/v7-m/crt0.o
 .ARM.exidx     0x0000000000000000        0x8 c:/st/stm32cubeide/stm32cubeide/plugins/com.st.stm32cube.ide.mcu.externaltools.gnu-tools-for-stm32.7-2018-q2-update.win32_1.0.0.201904181610/tools/bin/../lib/gcc/arm-none-eabi/7.3.1/../../../../arm-none-eabi/lib/thumb/v7-m/crt0.o
 .ARM.attributes
                0x0000000000000000       0x1b c:/st/stm32cubeide/stm32cubeide/plugins/com.st.stm32cube.ide.mcu.externaltools.gnu-tools-for-stm32.7-2018-q2-update.win32_1.0.0.201904181610/tools/bin/../lib/gcc/arm-none-eabi/7.3.1/../../../../arm-none-eabi/lib/thumb/v7-m/crt0.o
 .text          0x0000000000000000        0x0 Core/Src/fonts.o
 .data          0x0000000000000000        0x0 Core/Src/fonts.o
 .bss           0x0000000000000000        0x0 Core/Src/fonts.o
 .data.Font_11x18
                0x0000000000000000        0x8 Core/Src/fonts.o
 .data.Font_16x26
                0x0000000000000000        0x8 Core/Src/fonts.o
Memory Configuration

Name             Origin             Length             Attributes
RAM              0x0000000020000000 0x0000000000005000 xrw
FLASH            0x0000000008000000 0x0000000000010000 xr
*default*        0x0000000000000000 0xffffffffffffffff

Linker script and memory map

LOAD c:/st/stm32cubeide/stm32cubeide/plugins/com.st.stm32cube.ide.mcu.externaltools.gnu-tools-for-stm32.7-2018-q2-update.win32_1.0.0.201904181610/tools/bin/../lib/gcc/arm-none-eabi/7.3.1/thumb/v7-m/crti.o
LOAD c:/st/stm32cubeide/stm32cubeide/plugins/com.st.stm32cube.ide.mcu.externaltools.gnu-tools-for-stm32.7-2018-q2-update.win32_1.0.0.201904181610/tools/bin/../lib/gcc/arm-none-eabi/7.3.1/thumb/v7-m/crtbegin.o
LOAD c:/st/stm32cubeide/stm32cubeide/plugins/com.st.stm32cube.ide.mcu.externaltools.gnu-tools-for-stm32.7-2018-q2-update.win32_1.0.0.201904181610/tools/bin/../lib/gcc/arm-none-eabi/7.3.1/../../../../arm-none-eabi/lib/thumb/v7-m/crt0.o
LOAD Core/Src/fonts.o
LOAD Core/Src/main.o
LOAD Core/Src/st7735.o
LOAD Core/Src/stm32f1xx_it.o
LOAD Core/Src/stm32f1xx_usart.o
LOAD Core/Src/syscalls.o
LOAD Core/Src/sysmem.o
LOAD Core/Src/system_stm32f1xx.o
LOAD Core/Startup/startup_stm32f103c8tx.o
LOAD Drivers/STM32F1xx_HAL_Driver/Src/stm32f1xx_ll_adc.o
LOAD Drivers/STM32F1xx_HAL_Driver/Src/stm32f1xx_ll_dma.o
LOAD Drivers/STM32F1xx_HAL_Driver/Src/stm32f1xx_ll_exti.o
LOAD Drivers/STM32F1xx_HAL_Driver/Src/stm32f1xx_ll_gpio.o
LOAD Drivers/STM32F1xx_HAL_Driver/Src/stm32f1xx_ll_pwr.o
LOAD Drivers/STM32F1xx_HAL_Driver/Src/stm32f1xx_ll_rcc.o
LOAD Drivers/STM32F1xx_HAL_Driver/Src/stm32f1xx_ll_spi.o
LOAD Drivers/STM32F1xx_HAL_Driver/Src/stm32f1xx_ll_tim.o
LOAD Drivers/STM32F1xx_HAL_Driver/Src/stm32f1xx_ll_usart.o
LOAD Drivers/STM32F1xx_HAL_Driver/Src/stm32f1xx_ll_utils.o
START GROUP
LOAD c:/st/stm32cubeide/stm32cubeide/plugins/com.st.stm32cube.ide.mcu.externaltools.gnu-tools-for-stm32.7-2018-q2-update.win32_1.0.0.201904181610/tools/bin/../lib/gcc/arm-none-eabi/7.3.1/../../../../arm-none-eabi/lib/thumb/v7-m\libc_nano.a
LOAD c:/st/stm32cubeide/stm32cubeide/plugins/com.st.stm32cube.ide.mcu.externaltools.gnu-tools-for-stm32.7-2018-q2-update.win32_1.0.0.201904181610/tools/bin/../lib/gcc/arm-none-eabi/7.3.1/../../../../arm-none-eabi/lib/thumb/v7-m\libm.a
END GROUP
START GROUP
LOAD c:/st/stm32cubeide/stm32cubeide/plugins/com.st.stm32cube.ide.mcu.externaltools.gnu-tools-for-stm32.7-2018-q2-update.win32_1.0.0.201904181610/tools/bin/../lib/gcc/arm-none-eabi/7.3.1/thumb/v7-m\libgcc.a
LOAD c:/st/stm32cubeide/stm32cubeide/plugins/com.st.stm32cube.ide.mcu.externaltools.gnu-tools-for-stm32.7-2018-q2-update.win32_1.0.0.201904181610/tools/bin/../lib/gcc/arm-none-eabi/7.3.1/../../../../arm-none-eabi/lib/thumb/v7-m\libc_nano.a
END GROUP
START GROUP
LOAD c:/st/stm32cubeide/stm32cubeide/plugins/com.st.stm32cube.ide.mcu.externaltools.gnu-tools-for-stm32.7-2018-q2-update.win32_1.0.0.201904181610/tools/bin/../lib/gcc/arm-none-eabi/7.3.1/thumb/v7-m\libgcc.a
LOAD c:/st/stm32cubeide/stm32cubeide/plugins/com.st.stm32cube.ide.mcu.externaltools.gnu-tools-for-stm32.7-2018-q2-update.win32_1.0.0.201904181610/tools/bin/../lib/gcc/arm-none-eabi/7.3.1/../../../../arm-none-eabi/lib/thumb/v7-m\libc_nano.a
LOAD c:/st/stm32cubeide/stm32cubeide/plugins/com.st.stm32cube.ide.mcu.externaltools.gnu-tools-for-stm32.7-2018-q2-update.win32_1.0.0.201904181610/tools/bin/../lib/gcc/arm-none-eabi/7.3.1/../../../../arm-none-eabi/lib/thumb/v7-m\libnosys.a
END GROUP
START GROUP
LOAD c:/st/stm32cubeide/stm32cubeide/plugins/com.st.stm32cube.ide.mcu.externaltools.gnu-tools-for-stm32.7-2018-q2-update.win32_1.0.0.201904181610/tools/bin/../lib/gcc/arm-none-eabi/7.3.1/thumb/v7-m\libgcc.a
LOAD c:/st/stm32cubeide/stm32cubeide/plugins/com.st.stm32cube.ide.mcu.externaltools.gnu-tools-for-stm32.7-2018-q2-update.win32_1.0.0.201904181610/tools/bin/../lib/gcc/arm-none-eabi/7.3.1/../../../../arm-none-eabi/lib/thumb/v7-m\libc_nano.a
LOAD c:/st/stm32cubeide/stm32cubeide/plugins/com.st.stm32cube.ide.mcu.externaltools.gnu-tools-for-stm32.7-2018-q2-update.win32_1.0.0.201904181610/tools/bin/../lib/gcc/arm-none-eabi/7.3.1/../../../../arm-none-eabi/lib/thumb/v7-m\libnosys.a
END GROUP
LOAD c:/st/stm32cubeide/stm32cubeide/plugins/com.st.stm32cube.ide.mcu.externaltools.gnu-tools-for-stm32.7-2018-q2-update.win32_1.0.0.201904181610/tools/bin/../lib/gcc/arm-none-eabi/7.3.1/thumb/v7-m/crtend.o
LOAD c:/st/stm32cubeide/stm32cubeide/plugins/com.st.stm32cube.ide.mcu.externaltools.gnu-tools-for-stm32.7-2018-q2-update.win32_1.0.0.201904181610/tools/bin/../lib/gcc/arm-none-eabi/7.3.1/thumb/v7-m/crtn.o
                0x0000000020005000                _estack = (ORIGIN (RAM) + LENGTH (RAM))
                0x0000000000000200                _Min_Heap_Size = 0x200
                0x0000000000000400                _Min_Stack_Size = 0x400

.isr_vector     0x0000000008000000      0x10c
                0x0000000008000000                . = ALIGN (0x4)
 *(.isr_vector)
 .isr_vector    0x0000000008000000      0x10c Core/Startup/startup_stm32f103c8tx.o
                0x0000000008000000                g_pfnVectors
                0x000000000800010c                . = ALIGN (0x4)

.text           0x000000000800010c     0x29dc
                0x000000000800010c                . = ALIGN (0x4)
 *(.text)
 .text          0x000000000800010c       0x40 c:/st/stm32cubeide/stm32cubeide/plugins/com.st.stm32cube.ide.mcu.externaltools.gnu-tools-for-stm32.7-2018-q2-update.win32_1.0.0.201904181610/tools/bin/../lib/gcc/arm-none-eabi/7.3.1/thumb/v7-m/crtbegin.o
 *(.text*)
 .text.DrawRaster
                0x000000000800014c       0xbc Core/Src/main.o
                0x000000000800014c                DrawRaster
 .text.SystemClock_Config
                0x0000000008000208       0xa4 Core/Src/main.o
                0x0000000008000208                SystemClock_Config
 .text.startup.main
                0x00000000080002ac      0xfa0 Core/Src/main.o
                0x00000000080002ac                main
 .text.ST7735_SetAddressWindow
                0x000000000800124c      0x150 Core/Src/st7735.o
 .text.ST7735_Init
                0x000000000800139c      0x22c Core/Src/st7735.o
                0x000000000800139c                ST7735_Init
 .text.ST7735_HLine
                0x00000000080015c8       0xa8 Core/Src/st7735.o
                0x00000000080015c8                ST7735_HLine
 .text.ST7735_VLine
                0x0000000008001670       0xa4 Core/Src/st7735.o
                0x0000000008001670                ST7735_VLine
 .text.ST7735_Line
                0x0000000008001714      0x364 Core/Src/st7735.o
                0x0000000008001714                ST7735_Line
 .text.ST7735_WriteString
                0x0000000008001a78      0x2c4 Core/Src/st7735.o
                0x0000000008001a78                ST7735_WriteString
 .text.ST7735_FillScreen
                0x0000000008001d3c       0x98 Core/Src/st7735.o
                0x0000000008001d3c                ST7735_FillScreen
 .text.NMI_Handler
                0x0000000008001dd4        0x4 Core/Src/stm32f1xx_it.o
                0x0000000008001dd4                NMI_Handler
 .text.HardFault_Handler
                0x0000000008001dd8        0x4 Core/Src/stm32f1xx_it.o
                0x0000000008001dd8                HardFault_Handler
 .text.MemManage_Handler
                0x0000000008001ddc        0x4 Core/Src/stm32f1xx_it.o
                0x0000000008001ddc                MemManage_Handler
 .text.BusFault_Handler
                0x0000000008001de0        0x4 Core/Src/stm32f1xx_it.o
                0x0000000008001de0                BusFault_Handler
 .text.UsageFault_Handler
                0x0000000008001de4        0x4 Core/Src/stm32f1xx_it.o
                0x0000000008001de4                UsageFault_Handler
 .text.SVC_Handler
                0x0000000008001de8        0x4 Core/Src/stm32f1xx_it.o
                0x0000000008001de8                SVC_Handler
 .text.DebugMon_Handler
                0x0000000008001dec        0x4 Core/Src/stm32f1xx_it.o
                0x0000000008001dec                DebugMon_Handler
 .text.PendSV_Handler
                0x0000000008001df0        0x4 Core/Src/stm32f1xx_it.o
                0x0000000008001df0                PendSV_Handler
 .text.SysTick_Handler
                0x0000000008001df4       0x5c Core/Src/stm32f1xx_it.o
                0x0000000008001df4                SysTick_Handler
 .text.DMA1_Channel1_IRQHandler
                0x0000000008001e50       0x38 Core/Src/stm32f1xx_it.o
                0x0000000008001e50                DMA1_Channel1_IRQHandler
 .text.TIM2_IRQHandler
                0x0000000008001e88      0x368 Core/Src/stm32f1xx_it.o
                0x0000000008001e88                TIM2_IRQHandler
 .text.EXTI9_5_IRQHandler
                0x00000000080021f0       0x90 Core/Src/stm32f1xx_it.o
                0x00000000080021f0                EXTI9_5_IRQHandler
 .text.EXTI15_10_IRQHandler
                0x0000000008002280      0x14c Core/Src/stm32f1xx_it.o
                0x0000000008002280                EXTI15_10_IRQHandler
 .text.USART1_IRQHandler
                0x00000000080023cc       0x98 Core/Src/stm32f1xx_usart.o
                0x00000000080023cc                USART1_IRQHandler
 .text.SystemInit
                0x0000000008002464       0x50 Core/Src/system_stm32f1xx.o
                0x0000000008002464                SystemInit
 .text.Reset_Handler
                0x00000000080024b4       0x48 Core/Startup/startup_stm32f103c8tx.o
                0x00000000080024b4                Reset_Handler
 .text.Default_Handler
                0x00000000080024fc        0x2 Core/Startup/startup_stm32f103c8tx.o
                0x00000000080024fc                RTC_Alarm_IRQHandler
                0x00000000080024fc                EXTI2_IRQHandler
                0x00000000080024fc                TIM1_CC_IRQHandler
                0x00000000080024fc                PVD_IRQHandler
                0x00000000080024fc                EXTI3_IRQHandler
                0x00000000080024fc                EXTI0_IRQHandler
                0x00000000080024fc                I2C2_EV_IRQHandler
                0x00000000080024fc                ADC1_2_IRQHandler
                0x00000000080024fc                SPI1_IRQHandler
                0x00000000080024fc                TAMPER_IRQHandler
                0x00000000080024fc                DMA1_Channel4_IRQHandler
                0x00000000080024fc                USART3_IRQHandler
                0x00000000080024fc                RTC_IRQHandler
                0x00000000080024fc                DMA1_Channel7_IRQHandler
                0x00000000080024fc                CAN1_RX1_IRQHandler
                0x00000000080024fc                TIM4_IRQHandler
                0x00000000080024fc                I2C1_EV_IRQHandler
                0x00000000080024fc                DMA1_Channel6_IRQHandler
                0x00000000080024fc                TIM3_IRQHandler
                0x00000000080024fc                RCC_IRQHandler
                0x00000000080024fc                TIM1_TRG_COM_IRQHandler
                0x00000000080024fc                Default_Handler
                0x00000000080024fc                SPI2_IRQHandler
                0x00000000080024fc                DMA1_Channel5_IRQHandler
                0x00000000080024fc                EXTI4_IRQHandler
                0x00000000080024fc                USB_LP_CAN1_RX0_IRQHandler
                0x00000000080024fc                USB_HP_CAN1_TX_IRQHandler
                0x00000000080024fc                DMA1_Channel3_IRQHandler
                0x00000000080024fc                TIM1_UP_IRQHandler
                0x00000000080024fc                WWDG_IRQHandler
                0x00000000080024fc                TIM1_BRK_IRQHandler
                0x00000000080024fc                EXTI1_IRQHandler
                0x00000000080024fc                USART2_IRQHandler
                0x00000000080024fc                I2C2_ER_IRQHandler
                0x00000000080024fc                DMA1_Channel2_IRQHandler
                0x00000000080024fc                CAN1_SCE_IRQHandler
                0x00000000080024fc                FLASH_IRQHandler
                0x00000000080024fc                I2C1_ER_IRQHandler
                0x00000000080024fc                USBWakeUp_IRQHandler
 *fill*         0x00000000080024fe        0x2 
 .text.LL_ADC_CommonInit
                0x0000000008002500       0x3c Drivers/STM32F1xx_HAL_Driver/Src/stm32f1xx_ll_adc.o
                0x0000000008002500                LL_ADC_CommonInit
 .text.LL_ADC_Init
                0x000000000800253c       0x30 Drivers/STM32F1xx_HAL_Driver/Src/stm32f1xx_ll_adc.o
                0x000000000800253c                LL_ADC_Init
 .text.LL_ADC_REG_Init
                0x000000000800256c       0x54 Drivers/STM32F1xx_HAL_Driver/Src/stm32f1xx_ll_adc.o
                0x000000000800256c                LL_ADC_REG_Init
 .text.LL_EXTI_Init
                0x00000000080025c0       0xbc Drivers/STM32F1xx_HAL_Driver/Src/stm32f1xx_ll_exti.o
                0x00000000080025c0                LL_EXTI_Init
 .text.LL_GPIO_Init
                0x000000000800267c      0x10c Drivers/STM32F1xx_HAL_Driver/Src/stm32f1xx_ll_gpio.o
                0x000000000800267c                LL_GPIO_Init
 .text.LL_SPI_Init
                0x0000000008002788       0x64 Drivers/STM32F1xx_HAL_Driver/Src/stm32f1xx_ll_spi.o
                0x0000000008002788                LL_SPI_Init
 .text.LL_TIM_Init
                0x00000000080027ec       0x6c Drivers/STM32F1xx_HAL_Driver/Src/stm32f1xx_ll_tim.o
                0x00000000080027ec                LL_TIM_Init
 .text.LL_TIM_OC_Init
                0x0000000008002858      0x1b4 Drivers/STM32F1xx_HAL_Driver/Src/stm32f1xx_ll_tim.o
                0x0000000008002858                LL_TIM_OC_Init
 .text.LL_Init1msTick
                0x0000000008002a0c       0x24 Drivers/STM32F1xx_HAL_Driver/Src/stm32f1xx_ll_utils.o
                0x0000000008002a0c                LL_Init1msTick
 .text.LL_mDelay
                0x0000000008002a30       0x24 Drivers/STM32F1xx_HAL_Driver/Src/stm32f1xx_ll_utils.o
                0x0000000008002a30                LL_mDelay
 .text.LL_SetSystemCoreClock
                0x0000000008002a54        0xc Drivers/STM32F1xx_HAL_Driver/Src/stm32f1xx_ll_utils.o
                0x0000000008002a54                LL_SetSystemCoreClock
 .text.__libc_init_array
                0x0000000008002a60       0x48 c:/st/stm32cubeide/stm32cubeide/plugins/com.st.stm32cube.ide.mcu.externaltools.gnu-tools-for-stm32.7-2018-q2-update.win32_1.0.0.201904181610/tools/bin/../lib/gcc/arm-none-eabi/7.3.1/../../../../arm-none-eabi/lib/thumb/v7-m\libc_nano.a(lib_a-init.o)
                0x0000000008002a60                __libc_init_array
 .text.memcpy   0x0000000008002aa8       0x16 c:/st/stm32cubeide/stm32cubeide/plugins/com.st.stm32cube.ide.mcu.externaltools.gnu-tools-for-stm32.7-2018-q2-update.win32_1.0.0.201904181610/tools/bin/../lib/gcc/arm-none-eabi/7.3.1/../../../../arm-none-eabi/lib/thumb/v7-m\libc_nano.a(lib_a-memcpy-stub.o)
                0x0000000008002aa8                memcpy
 .text.memset   0x0000000008002abe       0x10 c:/st/stm32cubeide/stm32cubeide/plugins/com.st.stm32cube.ide.mcu.externaltools.gnu-tools-for-stm32.7-2018-q2-update.win32_1.0.0.201904181610/tools/bin/../lib/gcc/arm-none-eabi/7.3.1/../../../../arm-none-eabi/lib/thumb/v7-m\libc_nano.a(lib_a-memset.o)
                0x0000000008002abe                memset
 *(.glue_7)
 .glue_7        0x0000000008002ace        0x0 linker stubs
 *(.glue_7t)
 .glue_7t       0x0000000008002ace        0x0 linker stubs
 *(.eh_frame)
 *fill*         0x0000000008002ace        0x2 
 .eh_frame      0x0000000008002ad0        0x0 c:/st/stm32cubeide/stm32cubeide/plugins/com.st.stm32cube.ide.mcu.externaltools.gnu-tools-for-stm32.7-2018-q2-update.win32_1.0.0.201904181610/tools/bin/../lib/gcc/arm-none-eabi/7.3.1/thumb/v7-m/crtbegin.o
 *(.init)
 .init          0x0000000008002ad0        0x4 c:/st/stm32cubeide/stm32cubeide/plugins/com.st.stm32cube.ide.mcu.externaltools.gnu-tools-for-stm32.7-2018-q2-update.win32_1.0.0.201904181610/tools/bin/../lib/gcc/arm-none-eabi/7.3.1/thumb/v7-m/crti.o
                0x0000000008002ad0                _init
 .init          0x0000000008002ad4        0x8 c:/st/stm32cubeide/stm32cubeide/plugins/com.st.stm32cube.ide.mcu.externaltools.gnu-tools-for-stm32.7-2018-q2-update.win32_1.0.0.201904181610/tools/bin/../lib/gcc/arm-none-eabi/7.3.1/thumb/v7-m/crtn.o
 *(.fini)
 .fini          0x0000000008002adc        0x4 c:/st/stm32cubeide/stm32cubeide/plugins/com.st.stm32cube.ide.mcu.externaltools.gnu-tools-for-stm32.7-2018-q2-update.win32_1.0.0.201904181610/tools/bin/../lib/gcc/arm-none-eabi/7.3.1/thumb/v7-m/crti.o
                0x0000000008002adc                _fini
 .fini          0x0000000008002ae0        0x8 c:/st/stm32cubeide/stm32cubeide/plugins/com.st.stm32cube.ide.mcu.externaltools.gnu-tools-for-stm32.7-2018-q2-update.win32_1.0.0.201904181610/tools/bin/../lib/gcc/arm-none-eabi/7.3.1/thumb/v7-m/crtn.o
                0x0000000008002ae8                . = ALIGN (0x4)
                0x0000000008002ae8                _etext = .

.vfp11_veneer   0x0000000008002ae8        0x0
 .vfp11_veneer  0x0000000008002ae8        0x0 linker stubs

.v4_bx          0x0000000008002ae8        0x0
 .v4_bx         0x0000000008002ae8        0x0 linker stubs

.iplt           0x0000000008002ae8        0x0
 .iplt          0x0000000008002ae8        0x0 c:/st/stm32cubeide/stm32cubeide/plugins/com.st.stm32cube.ide.mcu.externaltools.gnu-tools-for-stm32.7-2018-q2-update.win32_1.0.0.201904181610/tools/bin/../lib/gcc/arm-none-eabi/7.3.1/thumb/v7-m/crtbegin.o

.rodata         0x0000000008002ae8      0x8b0
                0x0000000008002ae8                . = ALIGN (0x4)
 *(.rodata)
 *(.rodata*)
 .rodata.Font7x10
                0x0000000008002ae8      0x76c Core/Src/fonts.o
 .rodata.main.str1.4
                0x0000000008003254       0xcc Core/Src/main.o
                                         0xca (size before relaxing)
 .rodata.init_cmds1
                0x0000000008003320       0x3b Core/Src/st7735.o
 *fill*         0x000000000800335b        0x1 
 .rodata.init_cmds2
                0x000000000800335c        0xd Core/Src/st7735.o
 *fill*         0x0000000008003369        0x3 
 .rodata.init_cmds3
                0x000000000800336c       0x2b Core/Src/st7735.o
                0x0000000008003398                . = ALIGN (0x4)
 *fill*         0x0000000008003397        0x1 

.rel.dyn        0x0000000008003398        0x0
 .rel.iplt      0x0000000008003398        0x0 c:/st/stm32cubeide/stm32cubeide/plugins/com.st.stm32cube.ide.mcu.externaltools.gnu-tools-for-stm32.7-2018-q2-update.win32_1.0.0.201904181610/tools/bin/../lib/gcc/arm-none-eabi/7.3.1/thumb/v7-m/crtbegin.o

.ARM.extab      0x0000000008003398        0x0
                0x0000000008003398                . = ALIGN (0x4)
 *(.ARM.extab* .gnu.linkonce.armextab.*)
                0x0000000008003398                . = ALIGN (0x4)

.ARM            0x0000000008003398        0x0
                0x0000000008003398                . = ALIGN (0x4)
                0x0000000008003398                __exidx_start = .
 *(.ARM.exidx*)
                0x0000000008003398                __exidx_end = .
                0x0000000008003398                . = ALIGN (0x4)

.preinit_array  0x0000000008003398        0x0
                0x0000000008003398                . = ALIGN (0x4)
                0x0000000008003398                PROVIDE (__preinit_array_start = .)
 *(.preinit_array*)
                0x0000000008003398                PROVIDE (__preinit_array_end = .)
                0x0000000008003398                . = ALIGN (0x4)

.init_array     0x0000000008003398        0x4
                0x0000000008003398                . = ALIGN (0x4)
                0x0000000008003398                PROVIDE (__init_array_start = .)
 *(SORT_BY_NAME(.init_array.*))
 *(.init_array*)
 .init_array    0x0000000008003398        0x4 c:/st/stm32cubeide/stm32cubeide/plugins/com.st.stm32cube.ide.mcu.externaltools.gnu-tools-for-stm32.7-2018-q2-update.win32_1.0.0.201904181610/tools/bin/../lib/gcc/arm-none-eabi/7.3.1/thumb/v7-m/crtbegin.o
                0x000000000800339c                PROVIDE (__init_array_end = .)
                0x000000000800339c                . = ALIGN (0x4)

.fini_array     0x000000000800339c        0x4
                0x000000000800339c                . = ALIGN (0x4)
                [!provide]                        PROVIDE (__fini_array_start = .)
 *(SORT_BY_NAME(.fini_array.*))
 *(.fini_array*)
 .fini_array    0x000000000800339c        0x4 c:/st/stm32cubeide/stm32cubeide/plugins/com.st.stm32cube.ide.mcu.externaltools.gnu-tools-for-stm32.7-2018-q2-update.win32_1.0.0.201904181610/tools/bin/../lib/gcc/arm-none-eabi/7.3.1/thumb/v7-m/crtbegin.o
                [!provide]                        PROVIDE (__fini_array_end = .)
                0x00000000080033a0                . = ALIGN (0x4)
                0x00000000080033a0                _sidata = LOADADDR (.data)

.data           0x0000000020000000        0xc load address 0x00000000080033a0
                0x0000000020000000                . = ALIGN (0x4)
                0x0000000020000000                _sdata = .
 *(.data)
 *(.data*)
 .data.Font_7x10
                0x0000000020000000        0x8 Core/Src/fonts.o
                0x0000000020000000                Font_7x10
 .data.SystemCoreClock
                0x0000000020000008        0x4 Core/Src/system_stm32f1xx.o
                0x0000000020000008                SystemCoreClock
                0x000000002000000c                . = ALIGN (0x4)
                0x000000002000000c                _edata = .

.igot.plt       0x000000002000000c        0x0 load address 0x00000000080033ac
 .igot.plt      0x000000002000000c        0x0 c:/st/stm32cubeide/stm32cubeide/plugins/com.st.stm32cube.ide.mcu.externaltools.gnu-tools-for-stm32.7-2018-q2-update.win32_1.0.0.201904181610/tools/bin/../lib/gcc/arm-none-eabi/7.3.1/thumb/v7-m/crtbegin.o
                0x000000002000000c                . = ALIGN (0x4)

.bss            0x000000002000000c      0xfcc load address 0x00000000080033ac
                0x000000002000000c                _sbss = .
                0x000000002000000c                __bss_start__ = _sbss
 *(.bss)
 .bss           0x000000002000000c       0x1c c:/st/stm32cubeide/stm32cubeide/plugins/com.st.stm32cube.ide.mcu.externaltools.gnu-tools-for-stm32.7-2018-q2-update.win32_1.0.0.201904181610/tools/bin/../lib/gcc/arm-none-eabi/7.3.1/thumb/v7-m/crtbegin.o
 *(.bss*)
 .bss.rotary_1_pinA.9399
                0x0000000020000028        0x1 Core/Src/stm32f1xx_it.o
 .bss.rotary_1_pinB.9400
                0x0000000020000029        0x1 Core/Src/stm32f1xx_it.o
 .bss.rotary_2_pinA.9397
                0x000000002000002a        0x1 Core/Src/stm32f1xx_it.o
 .bss.rotary_2_pinB.9398
                0x000000002000002b        0x1 Core/Src/stm32f1xx_it.o
 .bss.USART_RX_ERROR
                0x000000002000002c        0x1 Core/Src/stm32f1xx_usart.o
                0x000000002000002c                USART_RX_ERROR
 .bss.USART_rxhead
                0x000000002000002d        0x1 Core/Src/stm32f1xx_usart.o
                0x000000002000002d                USART_rxhead
 .bss.USART_rxtail
                0x000000002000002e        0x1 Core/Src/stm32f1xx_usart.o
                0x000000002000002e                USART_rxtail
 .bss.USART_txhead
                0x000000002000002f        0x1 Core/Src/stm32f1xx_usart.o
                0x000000002000002f                USART_txhead
 .bss.USART_txtail
                0x0000000020000030        0x1 Core/Src/stm32f1xx_usart.o
                0x0000000020000030                USART_txtail
 *(COMMON)
 *fill*         0x0000000020000031        0x3 
 COMMON         0x0000000020000034      0xf1e Core/Src/main.o
                0x0000000020000034                erase_1_buffer
                0x00000000200002b4                attenuator_ch1_color
                0x00000000200002b6                trigger_channel_color
                0x00000000200002b8                attenuator_ch1
                0x00000000200002ba                virtual_ground_color
                0x00000000200002bc                trace_2_buffer
                0x000000002000053c                trigger_channel
                0x0000000020000540                erase_2_buffer
                0x00000000200007c0                function_button_encoder2
                0x00000000200007c2                virtual_ground
                0x00000000200007c4                trigger_level_color
                0x00000000200007c6                attenuator_ch2
                0x00000000200007c7                function_button_encoder1
                0x00000000200007c8                trigger_level
                0x00000000200007cc                adc_buffer
                0x0000000020000ccc                attenuator_ch2_color
                0x0000000020000cce                timebase
                0x0000000020000ccf                conversion_ready
                0x0000000020000cd0                trace_1_buffer
                0x0000000020000f50                timebase_color
 COMMON         0x0000000020000f52        0x4 Core/Src/stm32f1xx_it.o
                0x0000000020000f52                rotary_1_updown
                0x0000000020000f53                rotary_2_updown
                0x0000000020000f54                timeout
 *fill*         0x0000000020000f56        0x2 
 COMMON         0x0000000020000f58       0x80 Core/Src/stm32f1xx_usart.o
                0x0000000020000f58                USART_rxbuff
                0x0000000020000f98                USART_txbuff
                0x0000000020000fd8                . = ALIGN (0x4)
                0x0000000020000fd8                _ebss = .
                0x0000000020000fd8                __bss_end__ = _ebss

._user_heap_stack
                0x0000000020000fd8      0x600 load address 0x00000000080033ac
                0x0000000020000fd8                . = ALIGN (0x8)
                0x0000000020000fd8                PROVIDE (end = .)
                [!provide]                        PROVIDE (_end = .)
                0x00000000200011d8                . = (. + _Min_Heap_Size)
 *fill*         0x0000000020000fd8      0x200 
                0x00000000200015d8                . = (. + _Min_Stack_Size)
 *fill*         0x00000000200011d8      0x400 
                0x00000000200015d8                . = ALIGN (0x8)

/DISCARD/
 libc.a(*)
 libm.a(*)
 libgcc.a(*)

.ARM.attributes
                0x0000000000000000       0x29
 *(.ARM.attributes)
 .ARM.attributes
                0x0000000000000000       0x1d c:/st/stm32cubeide/stm32cubeide/plugins/com.st.stm32cube.ide.mcu.externaltools.gnu-tools-for-stm32.7-2018-q2-update.win32_1.0.0.201904181610/tools/bin/../lib/gcc/arm-none-eabi/7.3.1/thumb/v7-m/crti.o
 .ARM.attributes
                0x000000000000001d       0x2d c:/st/stm32cubeide/stm32cubeide/plugins/com.st.stm32cube.ide.mcu.externaltools.gnu-tools-for-stm32.7-2018-q2-update.win32_1.0.0.201904181610/tools/bin/../lib/gcc/arm-none-eabi/7.3.1/thumb/v7-m/crtbegin.o
 .ARM.attributes
                0x000000000000004a       0x2f Core/Src/fonts.o
 .ARM.attributes
                0x0000000000000079       0x2f Core/Src/main.o
 .ARM.attributes
                0x00000000000000a8       0x2f Core/Src/st7735.o
 .ARM.attributes
                0x00000000000000d7       0x2f Core/Src/stm32f1xx_it.o
 .ARM.attributes
                0x0000000000000106       0x2f Core/Src/stm32f1xx_usart.o
 .ARM.attributes
                0x0000000000000135       0x2f Core/Src/system_stm32f1xx.o
 .ARM.attributes
                0x0000000000000164       0x21 Core/Startup/startup_stm32f103c8tx.o
 .ARM.attributes
                0x0000000000000185       0x2f Drivers/STM32F1xx_HAL_Driver/Src/stm32f1xx_ll_adc.o
 .ARM.attributes
                0x00000000000001b4       0x2f Drivers/STM32F1xx_HAL_Driver/Src/stm32f1xx_ll_exti.o
 .ARM.attributes
                0x00000000000001e3       0x2f Drivers/STM32F1xx_HAL_Driver/Src/stm32f1xx_ll_gpio.o
 .ARM.attributes
                0x0000000000000212       0x2f Drivers/STM32F1xx_HAL_Driver/Src/stm32f1xx_ll_spi.o
 .ARM.attributes
                0x0000000000000241       0x2f Drivers/STM32F1xx_HAL_Driver/Src/stm32f1xx_ll_tim.o
 .ARM.attributes
                0x0000000000000270       0x2f Drivers/STM32F1xx_HAL_Driver/Src/stm32f1xx_ll_utils.o
 .ARM.attributes
                0x000000000000029f       0x2d c:/st/stm32cubeide/stm32cubeide/plugins/com.st.stm32cube.ide.mcu.externaltools.gnu-tools-for-stm32.7-2018-q2-update.win32_1.0.0.201904181610/tools/bin/../lib/gcc/arm-none-eabi/7.3.1/../../../../arm-none-eabi/lib/thumb/v7-m\libc_nano.a(lib_a-init.o)
 .ARM.attributes
                0x00000000000002cc       0x2d c:/st/stm32cubeide/stm32cubeide/plugins/com.st.stm32cube.ide.mcu.externaltools.gnu-tools-for-stm32.7-2018-q2-update.win32_1.0.0.201904181610/tools/bin/../lib/gcc/arm-none-eabi/7.3.1/../../../../arm-none-eabi/lib/thumb/v7-m\libc_nano.a(lib_a-memcpy-stub.o)
 .ARM.attributes
                0x00000000000002f9       0x2d c:/st/stm32cubeide/stm32cubeide/plugins/com.st.stm32cube.ide.mcu.externaltools.gnu-tools-for-stm32.7-2018-q2-update.win32_1.0.0.201904181610/tools/bin/../lib/gcc/arm-none-eabi/7.3.1/../../../../arm-none-eabi/lib/thumb/v7-m\libc_nano.a(lib_a-memset.o)
 .ARM.attributes
                0x0000000000000326       0x1d c:/st/stm32cubeide/stm32cubeide/plugins/com.st.stm32cube.ide.mcu.externaltools.gnu-tools-for-stm32.7-2018-q2-update.win32_1.0.0.201904181610/tools/bin/../lib/gcc/arm-none-eabi/7.3.1/thumb/v7-m/crtn.o
OUTPUT(ST7735_mini_oscilloscope.elf elf32-littlearm)

.debug_info     0x0000000000000000    0x11fe4
 .debug_info    0x0000000000000000      0x198 Core/Src/fonts.o
 .debug_info    0x0000000000000198     0x4401 Core/Src/main.o
 .debug_info    0x0000000000004599     0x7ddb Core/Src/st7735.o
 .debug_info    0x000000000000c374     0x1b4e Core/Src/stm32f1xx_it.o
 .debug_info    0x000000000000dec2      0x576 Core/Src/stm32f1xx_usart.o
 .debug_info    0x000000000000e438      0x3e4 Core/Src/system_stm32f1xx.o
 .debug_info    0x000000000000e81c       0x22 Core/Startup/startup_stm32f103c8tx.o
 .debug_info    0x000000000000e83e      0x8ef Drivers/STM32F1xx_HAL_Driver/Src/stm32f1xx_ll_adc.o
 .debug_info    0x000000000000f12d      0x498 Drivers/STM32F1xx_HAL_Driver/Src/stm32f1xx_ll_exti.o
 .debug_info    0x000000000000f5c5      0x7f2 Drivers/STM32F1xx_HAL_Driver/Src/stm32f1xx_ll_gpio.o
 .debug_info    0x000000000000fdb7      0x4f1 Drivers/STM32F1xx_HAL_Driver/Src/stm32f1xx_ll_spi.o
 .debug_info    0x00000000000102a8     0x10b4 Drivers/STM32F1xx_HAL_Driver/Src/stm32f1xx_ll_tim.o
 .debug_info    0x000000000001135c      0xc88 Drivers/STM32F1xx_HAL_Driver/Src/stm32f1xx_ll_utils.o

.debug_abbrev   0x0000000000000000     0x1cdd
 .debug_abbrev  0x0000000000000000       0x9e Core/Src/fonts.o
 .debug_abbrev  0x000000000000009e      0x42f Core/Src/main.o
 .debug_abbrev  0x00000000000004cd      0x423 Core/Src/st7735.o
 .debug_abbrev  0x00000000000008f0      0x31d Core/Src/stm32f1xx_it.o
 .debug_abbrev  0x0000000000000c0d      0x246 Core/Src/stm32f1xx_usart.o
 .debug_abbrev  0x0000000000000e53      0x131 Core/Src/system_stm32f1xx.o
 .debug_abbrev  0x0000000000000f84       0x12 Core/Startup/startup_stm32f103c8tx.o
 .debug_abbrev  0x0000000000000f96      0x201 Drivers/STM32F1xx_HAL_Driver/Src/stm32f1xx_ll_adc.o
 .debug_abbrev  0x0000000000001197      0x1db Drivers/STM32F1xx_HAL_Driver/Src/stm32f1xx_ll_exti.o
 .debug_abbrev  0x0000000000001372      0x253 Drivers/STM32F1xx_HAL_Driver/Src/stm32f1xx_ll_gpio.o
 .debug_abbrev  0x00000000000015c5      0x1cb Drivers/STM32F1xx_HAL_Driver/Src/stm32f1xx_ll_spi.o
 .debug_abbrev  0x0000000000001790      0x28e Drivers/STM32F1xx_HAL_Driver/Src/stm32f1xx_ll_tim.o
 .debug_abbrev  0x0000000000001a1e      0x2bf Drivers/STM32F1xx_HAL_Driver/Src/stm32f1xx_ll_utils.o

.debug_aranges  0x0000000000000000      0x388
 .debug_aranges
                0x0000000000000000       0x18 Core/Src/fonts.o
 .debug_aranges
                0x0000000000000018       0x38 Core/Src/main.o
 .debug_aranges
                0x0000000000000050       0x78 Core/Src/st7735.o
 .debug_aranges
                0x00000000000000c8       0x68 Core/Src/stm32f1xx_it.o
 .debug_aranges
                0x0000000000000130       0x50 Core/Src/stm32f1xx_usart.o
 .debug_aranges
                0x0000000000000180       0x28 Core/Src/system_stm32f1xx.o
 .debug_aranges
                0x00000000000001a8       0x28 Core/Startup/startup_stm32f103c8tx.o
 .debug_aranges
                0x00000000000001d0       0x68 Drivers/STM32F1xx_HAL_Driver/Src/stm32f1xx_ll_adc.o
 .debug_aranges
                0x0000000000000238       0x30 Drivers/STM32F1xx_HAL_Driver/Src/stm32f1xx_ll_exti.o
 .debug_aranges
                0x0000000000000268       0x30 Drivers/STM32F1xx_HAL_Driver/Src/stm32f1xx_ll_gpio.o
 .debug_aranges
                0x0000000000000298       0x30 Drivers/STM32F1xx_HAL_Driver/Src/stm32f1xx_ll_spi.o
 .debug_aranges
                0x00000000000002c8       0x80 Drivers/STM32F1xx_HAL_Driver/Src/stm32f1xx_ll_tim.o
 .debug_aranges
                0x0000000000000348       0x40 Drivers/STM32F1xx_HAL_Driver/Src/stm32f1xx_ll_utils.o

.debug_line     0x0000000000000000     0x53f1
 .debug_line    0x0000000000000000      0x1ca Core/Src/fonts.o
 .debug_line    0x00000000000001ca      0xf6a Core/Src/main.o
 .debug_line    0x0000000000001134     0x1722 Core/Src/st7735.o
 .debug_line    0x0000000000002856      0x941 Core/Src/stm32f1xx_it.o
 .debug_line    0x0000000000003197      0x3b4 Core/Src/stm32f1xx_usart.o
 .debug_line    0x000000000000354b      0x2a2 Core/Src/system_stm32f1xx.o
 .debug_line    0x00000000000037ed       0x84 Core/Startup/startup_stm32f103c8tx.o
 .debug_line    0x0000000000003871      0x473 Drivers/STM32F1xx_HAL_Driver/Src/stm32f1xx_ll_adc.o
 .debug_line    0x0000000000003ce4      0x36d Drivers/STM32F1xx_HAL_Driver/Src/stm32f1xx_ll_exti.o
 .debug_line    0x0000000000004051      0x41f Drivers/STM32F1xx_HAL_Driver/Src/stm32f1xx_ll_gpio.o
 .debug_line    0x0000000000004470      0x355 Drivers/STM32F1xx_HAL_Driver/Src/stm32f1xx_ll_spi.o
 .debug_line    0x00000000000047c5      0x6c5 Drivers/STM32F1xx_HAL_Driver/Src/stm32f1xx_ll_tim.o
 .debug_line    0x0000000000004e8a      0x567 Drivers/STM32F1xx_HAL_Driver/Src/stm32f1xx_ll_utils.o

.debug_str      0x0000000000000000     0x2a19
 .debug_str     0x0000000000000000      0x1d0 Core/Src/fonts.o
                                        0x21a (size before relaxing)
 .debug_str     0x00000000000001d0     0x1647 Core/Src/main.o
                                       0x19c4 (size before relaxing)
 .debug_str     0x0000000000001817      0x212 Core/Src/st7735.o
                                        0x9d6 (size before relaxing)
 .debug_str     0x0000000000001a29      0x2ff Core/Src/stm32f1xx_it.o
                                        0xc0b (size before relaxing)
 .debug_str     0x0000000000001d28      0x1c3 Core/Src/stm32f1xx_usart.o
                                        0x3cd (size before relaxing)
 .debug_str     0x0000000000001eeb       0x52 Core/Src/system_stm32f1xx.o
                                        0x2ef (size before relaxing)
 .debug_str     0x0000000000001f3d       0x36 Core/Startup/startup_stm32f103c8tx.o
                                         0x82 (size before relaxing)
 .debug_str     0x0000000000001f73      0x1f1 Drivers/STM32F1xx_HAL_Driver/Src/stm32f1xx_ll_adc.o
                                        0x5ce (size before relaxing)
 .debug_str     0x0000000000002164      0x109 Drivers/STM32F1xx_HAL_Driver/Src/stm32f1xx_ll_exti.o
                                        0x3ea (size before relaxing)
 .debug_str     0x000000000000226d       0xa1 Drivers/STM32F1xx_HAL_Driver/Src/stm32f1xx_ll_gpio.o
                                        0x3dd (size before relaxing)
 .debug_str     0x000000000000230e       0xb2 Drivers/STM32F1xx_HAL_Driver/Src/stm32f1xx_ll_spi.o
                                        0x418 (size before relaxing)
 .debug_str     0x00000000000023c0      0x408 Drivers/STM32F1xx_HAL_Driver/Src/stm32f1xx_ll_tim.o
                                        0x8d4 (size before relaxing)
 .debug_str     0x00000000000027c8      0x251 Drivers/STM32F1xx_HAL_Driver/Src/stm32f1xx_ll_utils.o
                                        0x653 (size before relaxing)

.comment        0x0000000000000000       0x7b
 .comment       0x0000000000000000       0x7b Core/Src/fonts.o
                                         0x7c (size before relaxing)
 .comment       0x000000000000007b       0x7c Core/Src/main.o
 .comment       0x000000000000007b       0x7c Core/Src/st7735.o
 .comment       0x000000000000007b       0x7c Core/Src/stm32f1xx_it.o
 .comment       0x000000000000007b       0x7c Core/Src/stm32f1xx_usart.o
 .comment       0x000000000000007b       0x7c Core/Src/system_stm32f1xx.o
 .comment       0x000000000000007b       0x7c Drivers/STM32F1xx_HAL_Driver/Src/stm32f1xx_ll_adc.o
 .comment       0x000000000000007b       0x7c Drivers/STM32F1xx_HAL_Driver/Src/stm32f1xx_ll_exti.o
 .comment       0x000000000000007b       0x7c Drivers/STM32F1xx_HAL_Driver/Src/stm32f1xx_ll_gpio.o
 .comment       0x000000000000007b       0x7c Drivers/STM32F1xx_HAL_Driver/Src/stm32f1xx_ll_spi.o
 .comment       0x000000000000007b       0x7c Drivers/STM32F1xx_HAL_Driver/Src/stm32f1xx_ll_tim.o
 .comment       0x000000000000007b       0x7c Drivers/STM32F1xx_HAL_Driver/Src/stm32f1xx_ll_utils.o

.debug_loc      0x0000000000000000     0xa3a3
 .debug_loc     0x0000000000000000     0x1401 Core/Src/main.o
 .debug_loc     0x0000000000001401     0x62d6 Core/Src/st7735.o
 .debug_loc     0x00000000000076d7      0xa25 Core/Src/stm32f1xx_it.o
 .debug_loc     0x00000000000080fc      0x1c1 Core/Src/stm32f1xx_usart.o
 .debug_loc     0x00000000000082bd       0xcd Core/Src/system_stm32f1xx.o
 .debug_loc     0x000000000000838a      0x416 Drivers/STM32F1xx_HAL_Driver/Src/stm32f1xx_ll_adc.o
 .debug_loc     0x00000000000087a0      0x10e Drivers/STM32F1xx_HAL_Driver/Src/stm32f1xx_ll_exti.o
 .debug_loc     0x00000000000088ae      0x361 Drivers/STM32F1xx_HAL_Driver/Src/stm32f1xx_ll_gpio.o
 .debug_loc     0x0000000000008c0f      0x206 Drivers/STM32F1xx_HAL_Driver/Src/stm32f1xx_ll_spi.o
 .debug_loc     0x0000000000008e15      0xe8d Drivers/STM32F1xx_HAL_Driver/Src/stm32f1xx_ll_tim.o
 .debug_loc     0x0000000000009ca2      0x701 Drivers/STM32F1xx_HAL_Driver/Src/stm32f1xx_ll_utils.o

.debug_ranges   0x0000000000000000     0x37a0
 .debug_ranges  0x0000000000000000      0xb48 Core/Src/main.o
 .debug_ranges  0x0000000000000b48     0x1e10 Core/Src/st7735.o
 .debug_ranges  0x0000000000002958      0x550 Core/Src/stm32f1xx_it.o
 .debug_ranges  0x0000000000002ea8       0xa8 Core/Src/stm32f1xx_usart.o
 .debug_ranges  0x0000000000002f50       0x18 Core/Src/system_stm32f1xx.o
 .debug_ranges  0x0000000000002f68       0x20 Core/Startup/startup_stm32f103c8tx.o
 .debug_ranges  0x0000000000002f88       0xd0 Drivers/STM32F1xx_HAL_Driver/Src/stm32f1xx_ll_adc.o
 .debug_ranges  0x0000000000003058       0xd0 Drivers/STM32F1xx_HAL_Driver/Src/stm32f1xx_ll_exti.o
 .debug_ranges  0x0000000000003128      0x108 Drivers/STM32F1xx_HAL_Driver/Src/stm32f1xx_ll_gpio.o
 .debug_ranges  0x0000000000003230       0x50 Drivers/STM32F1xx_HAL_Driver/Src/stm32f1xx_ll_spi.o
 .debug_ranges  0x0000000000003280      0x1e8 Drivers/STM32F1xx_HAL_Driver/Src/stm32f1xx_ll_tim.o
 .debug_ranges  0x0000000000003468      0x338 Drivers/STM32F1xx_HAL_Driver/Src/stm32f1xx_ll_utils.o

.debug_frame    0x0000000000000000      0x954
 .debug_frame   0x0000000000000000       0x84 Core/Src/main.o
 .debug_frame   0x0000000000000084      0x208 Core/Src/st7735.o
 .debug_frame   0x000000000000028c      0x12c Core/Src/stm32f1xx_it.o
 .debug_frame   0x00000000000003b8       0xac Core/Src/stm32f1xx_usart.o
 .debug_frame   0x0000000000000464       0x3c Core/Src/system_stm32f1xx.o
 .debug_frame   0x00000000000004a0       0xe4 Drivers/STM32F1xx_HAL_Driver/Src/stm32f1xx_ll_adc.o
 .debug_frame   0x0000000000000584       0x5c Drivers/STM32F1xx_HAL_Driver/Src/stm32f1xx_ll_exti.o
 .debug_frame   0x00000000000005e0       0x64 Drivers/STM32F1xx_HAL_Driver/Src/stm32f1xx_ll_gpio.o
 .debug_frame   0x0000000000000644       0x5c Drivers/STM32F1xx_HAL_Driver/Src/stm32f1xx_ll_spi.o
 .debug_frame   0x00000000000006a0      0x184 Drivers/STM32F1xx_HAL_Driver/Src/stm32f1xx_ll_tim.o
 .debug_frame   0x0000000000000824       0xbc Drivers/STM32F1xx_HAL_Driver/Src/stm32f1xx_ll_utils.o
 .debug_frame   0x00000000000008e0       0x2c c:/st/stm32cubeide/stm32cubeide/plugins/com.st.stm32cube.ide.mcu.externaltools.gnu-tools-for-stm32.7-2018-q2-update.win32_1.0.0.201904181610/tools/bin/../lib/gcc/arm-none-eabi/7.3.1/../../../../arm-none-eabi/lib/thumb/v7-m\libc_nano.a(lib_a-init.o)
 .debug_frame   0x000000000000090c       0x28 c:/st/stm32cubeide/stm32cubeide/plugins/com.st.stm32cube.ide.mcu.externaltools.gnu-tools-for-stm32.7-2018-q2-update.win32_1.0.0.201904181610/tools/bin/../lib/gcc/arm-none-eabi/7.3.1/../../../../arm-none-eabi/lib/thumb/v7-m\libc_nano.a(lib_a-memcpy-stub.o)
 .debug_frame   0x0000000000000934       0x20 c:/st/stm32cubeide/stm32cubeide/plugins/com.st.stm32cube.ide.mcu.externaltools.gnu-tools-for-stm32.7-2018-q2-update.win32_1.0.0.201904181610/tools/bin/../lib/gcc/arm-none-eabi/7.3.1/../../../../arm-none-eabi/lib/thumb/v7-m\libc_nano.a(lib_a-memset.o)
