:020000040800F2
:100000000050002095250008B51E0008B91E000804
:10001000BD1E0008C11E0008C51E0008000000002B
:10002000000000000000000000000000C91E0008E1
:10003000CD1E000800000000D11E0008D51E0008DB
:10004000DD250008DD250008DD250008DD25000888
:10005000DD250008DD250008DD250008DD25000878
:10006000DD250008DD250008DD250008311F00081A
:10007000DD250008DD250008DD250008DD25000858
:10008000DD250008DD250008DD250008DD25000848
:10009000DD250008DD250008DD250008D122000847
:1000A000DD250008DD250008DD250008DD25000828
:1000B000691F0008DD250008DD250008DD25000892
:1000C000DD250008DD250008DD250008DD25000808
:1000D000DD250008AD240008DD250008DD25000829
:1000E00061230008DD250008DD2500080000000070
:1000F0000000000000000000000000000000000000
:0C01000000000000000000005FF808F1A3
:1001100010B5054C237833B9044B13B10448AFF341
:1001200000800123237010BD0C000020000000009F
:10013000C82B000808B5034B1BB103490348AFF3B4
:10014000008008BD0000000010000020C82B00083F
:10015000002210B5104648F210439F2101F070FABA
:1001600048F2104315229F21002001F069FA48F25D
:1001700010432A229F21002001F062FA48F2104326
:100180003F229F21002001F05BFA48F210435422E5
:100190009F21002001F054FA48F2104369229F2168
:1001A000002001F04DFA48F210437F229F210020E9
:1001B00001F046FA002148F2104308467F2201F080
:1001C00091FA48F210437F2200211F2001F08AFAA1
:1001D00048F210437F2200213F2001F083FA48F2C9
:1001E00010437F2200215F2001F07CFA7F2248F239
:1001F00010431046002101F075FABDE8104048F2A6
:1002000010437F2200219F2001F06CBA2548264B25
:1002100001461A6810B522F0070242F002021A6085
:100220001A681A6842F010021A60036843F48033B7
:1002300003600B689A03FCD54B681A4A23F47C13BD
:1002400043F454134B600B6843F080730B601368E6
:100250009B01FCD55368134C23F0F00353605368A3
:1002600023F4E06343F480635360536823F46053E2
:100270005360536823F0030343F002035360636841
:1002800003F00C03082BFAD1084802F039FC0748A8
:1002900002F05AFC636823F4404343F480436360F4
:1002A00010BD00BF0010024000200240000E2707D2
:1002B0004FF6FF012DE9F04F0024C54DB9B0AA69F2
:1002C000C44842F00102AA61AA69C34B02F00102CC
:1002D0001292129AEA69C14F42F08052EA61EA69C9
:1002E0004FF2F00A02F080521192119AC2684FF058
:1002F000010B0A401343C3607B68B94E23F0E063EF
:100300007B607B68DFF8F48243F000737B60FFF76B
:100310007DFF289432942994AB692EA943F01003F1
:10032000AB61AB69304603F010031E931E9BAB69B3
:100330004FF0010943F02003AB61AB6903F02003E8
:100340001F931F9BAB6943F00403AB61AB6903F0E0
:1003500004032093209BAB6943F00803AB61AB69B6
:10036000CDE92EAB4FF0020A4FF0000B03F008036B
:100370002193CDE930AB219B02F0F0F90123994A9A
:100380002EA99948CDE930ABCDE92E234FF0010BD2
:1003900002F0E4F98CA3D3E900234FF0000C2EA95E
:1003A0004046CDE930BCCDE92E2302F0D7F948F222
:1003B000800208232EA94046CDE92E23CDF8C8900F
:1003C00002F0CCF90823894A30462EA9CDE92E2324
:1003D000CDF8C89002F0C2F9FA684FF4706393FA4E
:1003E000A3F3B3FA83F322F4706209FA03F313431D
:1003F000FB603A694FF00F0A22F00F029AFAAAF155
:100400003A613A694FF4704122F4704291FAA1F1D5
:100410003A61796921F00F019AFAAAF240224FF06D
:10042000020B28AB796118462892ADF8A4908DF89C
:10043000A6B002F037F928AB18464FF48073ADF838
:10044000A49028938DF8A6B002F02CF928AB18469A
:100450004FF40063ADF8A49028938DF8A6B002F095
:1004600021F94FF4805128AB18462891ADF8A4909B
:100470008DF8A6B002F016F9D8F80C10402292FAC6
:10048000A2F2B2FA82F221F0400109FA02F20A4322
:10049000C8F80C20F268564991FAA1F1B1FA81F13D
:1004A00022F4802209FA01F122F480720A43F260F8
:1004B000F1684FF4812292FAA2F2B2FA82F221F4A8
:1004C000812109FA02F20A43F260F2684FF48221B4
:1004D00091FAA1F1B1FA81F122F4822209FA01F92B
:1004E00042EA0902F26044F2400292FAA2F0B0FA43
:1004F00080F092FAA2F7B7FA87F70821D8F800201F
:1005000000FA0BF00AFA00F007FA0BF722EA0002F1
:1005100001FA07F73A43C8F80020364890FAA0F7E6
:10052000B7FA87F790FAA0F0B0FA80F3324A059351
:1005300092FAA2F0B0FA80FC92FAA2F0B0FA80F33C
:1005400002F10812069392FAA2F0B0FA80FECDF8FA
:100550001CE092FAA2F2B2FA82F31E4A4FF40000B3
:1005600008931346DFF89890D26889F81743C9F8C2
:100570000000DA684FF4807289F828434FF4E05E97
:10058000C9F80420F0223261C8F810B0C8F810E0B1
:100590006A6907FA0BF742F001026A6172680AFAA7
:1005A00007FE22EA0E024FF4006E6F69059807F00D
:1005B000010700FA0BF01D9701FA00F010431D9A95
:1005C000044A069BD2681DE01C001C0401000000C8
:1005D0000010024000ED00E00003FA0500000140B9
:1005E0000008014020002004001001400200020425
:1005F000000104000100010408000804000C01408F
:1006000000E100E00CFA0BFC89F80B430AFA0CF746
:10061000C9F800E003FA0BFCCDE92844CDE92A44EF
:10062000CDE9314422941A942C9430942394079B5E
:1006300020EA070203FA0BFE089B01FA0CFC03FAFE
:100640000BF70AFA0EF34FF0000B40F2011AA869FB
:1006500042EA0C02B94022EA03030B4340F4007063
:10066000A8617360AB692EA903F400731B931B9BF5
:10067000AB69304643F00403AB61AB69CDE92EAB07
:1006800003F004031C931C9B02F068F8C14B4FF06D
:10069000000C1A684FF0000B22F4804222F0100286
:1006A0001A601A68DFF814A322F4405242F4005290
:1006B0001A601A6822A922F020021A601A685046AD
:1006C00022F040021A601A684FF4807742F08002EC
:1006D0001A601A6822F4407242F400721A601A68B2
:1006E00022F4406242F400621A60CDE922BC01F0BB
:1006F00099FF4FF4C0231AA950461A934FF0000BEC
:1007000001F06EFF4FF4002200234FF0000C504622
:1007100028A9CDE92823CDE92ABC2C9701F098FF20
:100720004FF4407393FAA3F24FF40073B2FA82F2DB
:10073000994823FA02F250F822104FF0007B21F082
:100740001F0140F822109BFAABF2B2FA82F2203875
:100750002BFA02F250F822104FF0F87393FAA3FC30
:1007600021F0070193FAA3FC002740F8221030463D
:1007700040F20226CDE92244CDE92844CDE92A44BD
:10078000CDE930442C943294AA692EA942F48062B7
:10079000AA61AA6902F480621992199AAA6942F0C0
:1007A0000402AA61AA69CDE92E670026002702F09B
:1007B00004021A921A9A01F0D1FF22A97748CDE9D2
:1007C000226701F02FFF4FF46022002328A973480D
:1007D000CDE92823CDE92A672C9401F039FF4FF4A5
:1007E000407393FAA3F24FF40077B2FA82F26C49A5
:1007F00027FA02F351F8232022F01F0242F00102EF
:1008000041F823209BFAABF3B3FA83F3654F2BFA3D
:1008100003F357F823204FF0F87C9CFAACF64FF422
:100820004010B6FA86F60721F040814022EA010125
:100830009CFAACF247F823102EAB2822214618462A
:10084000092702F0B9F94FF0010B4FF0000C2C947E
:10085000EB69554E43F48043EB61EB69404603F48A
:1008600080431793179BAB6928A943F00803AB613A
:10087000AB69CDE9286703F0080300260027189329
:10088000CDE92ABC189B01F069FF00224FF4827366
:10089000CDE9306700260A274FF0000CCDE92E2362
:1008A0004FF0100B00224FF40073CDE936672EA9EC
:1008B0004FF080573D48CDE934BCCDE9322377264F
:1008C00001F0D2FF6322CDE92E44CDE930443294C9
:1008D000EB692EA943F00103EB61EB694FF0804017
:1008E00003F001031693169B314BDFF8D4B0DB689D
:1008F00089F81C43C9F80070ADF8B86030922F94A5
:10090000319401F0E1FF4FF080434FF0005C40F282
:10091000ED2E1A68584622F080021A609A682EA9B5
:1009200022F4804222F007029A605A68214E22F097
:1009300070025A609A68204F22F080029A60CDE9D6
:100940002E44CDE930443294EB69194A43F0020356
:10095000EB61EB6903F002031593159BD36889F8EB
:100960001D43C9F800C0CDE930E4ADF8B8402F947C
:1009700001F0AAFF2022DBF80030214623F080039B
:10098000CBF80030DBF808302EA823F4804323F0A6
:10099000070317E0080002402C2401400028014012
:1009A0002C2801400C280140A000A0040038004081
:1009B00000ED00E00008004018080040002401405D
:1009C00000040040CBF80830DBF804304FF0000999
:1009D00023F070031343CBF80430DBF8083023F026
:1009E0008003CBF80830CDE92844CDE92A442C9483
:1009F00002F0E2F82694E869092340F00400E86177
:100A000040464FF00208D5F81CC0774A0CF0040CA1
:100A1000CDF84CC0DDF84CC0D5F818C022A94CF078
:100A2000080CC5F818C0AD69CDE9222305F008050A
:100A30001495CDE92489149D01F090FE4FF4A06334
:100A400028A93046CDE92A344FF0700B4FF000084A
:100A50004FF42079ADF8A040299401F035FF4FF014
:100A6000000C33682EAA23F080033360B3684FF480
:100A7000807123F4804323F00703B3607B68304622
:100A800043F008037B60CDE92EBCCDE93089329478
:100A900001F05CFF52467B6823F004037B607368BF
:100AA00023F070037360B36823F08003B360DAF857
:100AB000083043F00103CAF80830DAF8083043F090
:100AC0000403CAF8083093685B07FCD40A2002F0DC
:100AD00029F8464B1E469A6842F001029A609A68CD
:100AE00042F004029A60B46814F00404FBD10A20B6
:100AF00002F018F84FF080414FF0010B0A683C4BB0
:100B000042F001020A601A6A01F5605142F48072F3
:100B10001A621A6A092542F480521A621A68DFF8CA
:100B2000148142EA0B021A600B68DFF80C9143F063
:100B300040030B6000F056FC204601F065F94022AE
:100B400040F2ED2E0F922B482B4A05709462C2F8AA
:100B50002CE04FF0400E4FF6E07C4FF6FF71274837
:100B6000DFF8D8A00470264888F8004089F80040D3
:100B700004702448244B04702448AAF800E0A0F82C
:100B800000E023482746A0F800C02248224C0180FC
:100B90002248234DA0F800C022480180224801804D
:100BA000224801809D60DC6059682148090C0904D5
:100BB00041F4A0715960196804F2FC4441F002014B
:100BC000196019680D9441EA0B011960836843F4B8
:100BD00080138360B36843F48013B360136843EAFF
:100BE0000B0313606FE000BF010001040028014007
:100BF00000080040CE0C002000040040CF0C002074
:100C0000B8020020C607002008000240C8070020E4
:100C1000B4020020CC0C0020CC070020500F002094
:100C20004C240140C4070020B6020020BA02002074
:100C300000240140C7070020C0070020C207002091
:100C40008C4B8D481B8841689BB2CDE901320091E5
:100C500003688A4A6A21782000F048FF884B1B7895
:100C60005AB2002B00F0B580854B83491B784A6847
:100C700058B2012B834B1B8800929BB2CDE9013700
:100C80000B6800F01082752101207F4A00F02EFFD2
:100C90007E4B794C1B8862689BB2CDE9013700928C
:100CA00075214B2023687A4A00F020FF794B626857
:100CB0001B8800929BB2CDE901377521782023680B
:100CC000754A00F013FF754B1B78012B00F09080E4
:100CD000734B1B785AB2002B00F0C281704B6649EF
:100CE0001B784A6858B2012B6E4B1B8800929BB24E
:100CF000CDE901370B6800F0DB816A2101206A4AE7
:100D000000F0F4FE694B1B785AB2002B00F0BC8156
:100D1000664B1B78012B00F0D081644B1B78022BB3
:100D200000F0DA81614B1B78032B00F0F9815F4BF7
:100D30001B78042B00F003825C4B1B78052B00F022
:100D40000D825A4B1B78062B00F04882574B1B78BC
:100D5000072B00F05282554B1B78082B00F05C8269
:100D6000524B1B78092B00F06682504B1B780A2BE4
:100D700000F070824D4B40491B784A680B2B4C4B5E
:100D80004FF04B001B8800929BB2CDE9013708BFA2
:100D9000484A0B6818BF484A6A2100F0A7FE474B33
:100DA0001B785AB2002B3FF44BAF324B32491B88B1
:100DB0004A689BB2CDE9013700920B68404A6A212C
:100DC000782000F093FE2E4B1B785AB2002B7FF454
:100DD0004BAF2C4B28481B8841689BB2CDE90132B0
:100DE0000091036875210120364A00F07FFE4FE72D
:100DF00042F20F757F26344C344835490FE0A2F19A
:100E0000100303EB920292B2AA420F801ED90D9BEF
:100E10000780A34200F1020001F1020121D054F841
:100E2000042F530D103B03EBD2539BB2AB42C2F3E2
:100E30004A12E4D87F2B98BF0B80A2F1100303EB7A
:100E4000920292B288BF0E80AA42E0D80D9B7F2A00
:100E500094BF02800680A34200F1020001F102016A
:100E6000DDD1164B1B78002B40F0458101231A463B
:100E700031E000BFB602002000000020D833000897
:100E8000C6070020CC0C002000340008BA02002065
:100E90000C340008C407002010340008CF0C0020D8
:100EA000B8020020B402002064330008CE0C0020F9
:100EB000500F0020C8330008D03300083C05002044
:100EC000E0330008E8330008C8070020BC02002017
:100ED000D00C00208AB2A948A94C0388511E34F8CE
:100EE00011101BB2994202F10101F3DB038834F8BF
:100EF00012001BB29842EDDA13460E92A02B34BFBB
:100F00001C4601244FF0020A0E94FFF721F900233A
:100F10000A2101200F9A00F093FB984D994B2A88E3
:100F20001B880A21012092B29BB200F089FB621C4F
:100F300004EB0A0392B29BB229889148924D520069
:100F40005B00023A023B00EB020905EB0208C618FF
:100F5000CDE90686C846D146EB180BEB0A0405938B
:100F60008BB2A4B20F93894A631E9BB232F813105E
:100F700032F8142000970B92854A0A91164632F9EE
:100F8000131038F8023F09F1FF300893079B0FFA5E
:100F900089FA33F8025F0FFA80FB079336F91430B1
:100FA000069E099536F8025F58460696059E0C95F2
:100FB00036F8025F5246059600F0E0FB584652466E
:100FC000BDF92810BDF92C30009700F0D7FB4FF485
:100FD000FC625846BDF92430BDF9201000925246FB
:100FE00000F0CCFB2BB24FF61F0558465246BDF918
:100FF0003010009509F1010900F0C0FB0134B9F18E
:10100000A00FA4B2AFD14FF420725D49604801F047
:10101000C5FD4FF420725C495C4801F0BFFD082219
:101020005C495D4B0F705D49DDF838B05A600B6864
:101030005B4A23F001030B604B681B0C1B0443F459
:10104000A0734B600B6843F001030B60136843F01F
:1010500001031360534B1B785AB2002B7FF43EAE52
:10106000514B52481B8841689BB2CDE90132009137
:1010700003684F4A6A21012000F038FD4D4B1B7870
:101080005AB2002B7FF444AE4B4B48481B88416852
:101090009BB2CDE90132009103686A214B20474A97
:1010A00000F024FD7BE67521454A00F01FFDEFE5C9
:1010B0006A21444A00F01AFD24E63F4B3B491B8855
:1010C0004A689BB2CDE9013700920B684B206A2138
:1010D0003D4A00F00BFD62E6374B34491B884A68F5
:1010E0009BB2CDE9013700920B684B206A21374A49
:1010F00000F0FCFC53E6012301E001339BB21F48E2
:10110000214C0288591E34F8111012B29142F4DBBE
:10111000028834F8131012B29142EEDA0E93EDE623
:10112000254B22491B884A689BB2CDE901370092C2
:101130000B684B206A21264A00F0D8FC2FE61E4B94
:101140001A491B884A689BB2CDE9013700920B68A7
:101150004B206A211F4A00F0C9FC20E6164B1349B8
:101160001B884A689BB2CDE9013700920B684B207F
:101170006A21194A00F0BAFC11E600BFC807002036
:10118000D00C0020C4070020BC0200204005002035
:1011900034000020CF0C0020000002400800024074
:1011A00000040040B8020020B4020020000000202B
:1011B0004C330008CE0C0020500F00207033000884
:1011C000F4330008583300087833000880330008EF
:1011D000883300089033000898330008254B2649CF
:1011E0001B884A689BB2CDE9013700920B684B20FF
:1011F0006A21224A00F07AFCD1E51E4B1E491B8869
:101200004A689BB2CDE9013700920B684B206A21F6
:101210001B4A00F06BFCC2E5164B17491B884A6855
:101220009BB2CDE9013700920B684B206A21154A29
:1012300000F05CFCB3E50F4B0F491B884A689BB27A
:10124000CDE9013700920B684B206A210E4A00F06D
:101250004DFCA4E5074B08491B884A689BB2CDE9C1
:10126000013700920B684B206A21084A00F03EFCCF
:1012700095E500BF500F002000000020A0330008BB
:10128000A8330008B0330008B8330008C0330008A2
:101290002DE9F04F4FF480664FF4805591464F4A48
:1012A0004F4C566183B05561A2689707FCD54C4AF4
:1012B00094682606FCD42A25494C1573A268950724
:1012C000FCD5474A946814F0800CFBD14FF4805A47
:1012D0004FF4806B01ACD646D04625463F4A02AF5C
:1012E000C2F810A016468DF804C08DF805008DF8E0
:1012F00006C08DF80790C2F810B0A2F5544215F858
:1013000001CBC6F8148090688007FCD59068000671
:10131000FCD482F80CC090688007FCD59068000669
:10132000FCD4AF42C6F810E0E9D14FF480622C48FB
:101330007261C6F814E082689507FCD5284A906867
:101340000006FCD42B252648157382689607FCD529
:10135000234882681506FCD44FF4805C1F484FF484
:10136000806E654602466646C0F810C08DF80730AC
:101370001B4B8DF80510C0F810E014F8010B5661F6
:1013800099688907FCD599680906FCD4187399688F
:101390008807FCD599680906FCD4BC421561ECD1DC
:1013A0004FF480630E49536155618B689C07FCD5EF
:1013B0000B4B9A681006FCD42C21094A19739368C8
:1013C0009907FCD5064A93681B06FCD44FF480525B
:1013D000024B1A6103B0BDE8F08F00BF000C014062
:1013E000003800402DE9F8434FF480534FF4006576
:1013F0008E4C01206361656101F094FB26462561F6
:101400000F2701228A4B8B4D11E0230609D50C468C
:1014100014F8010BFF2808BF4FF4FA7001F082FBAB
:101420002146013F17F0FF0745D00B460A784FF4DD
:1014300080604FF4805170617161A9688C07FCD5A0
:10144000A9680806FCD42A73AA689107FCD5AA6883
:101450001206FCD44FF4805030615C78991C14F073
:101460007F0CD2D04FF4806E80460CF1FF32D2B2A6
:1014700001330A44C6F810E013F801EFC6F81480EF
:10148000D5F8089019F0020FFAD0D5F8089019F0A5
:10149000800FFAD185F80CE0D5F808E01EF0020FB5
:1014A000FAD0D5F808E01EF0800FFAD193423061EF
:1014B000E2D16144A9E702272A225F495B4E5D4DD4
:1014C00010E0240609D51C4614F8010BFF2808BFBC
:1014D0004FF4FA7001F026FB2346012F46D019463F
:1014E00001271A784FF480604FF480537061736164
:1014F000AB689C07FCD5AB681806FCD42A73AB68B4
:101500009A07FCD5AB681B06FCD44FF480503061C1
:101510004C788B1C14F07F0CD3D04FF4806E804637
:101520000CF1FF32D2B201311A44C6F810E011F8C2
:1015300001EFC6F81480D5F8089019F0020FFAD020
:10154000D5F8089019F0800FFAD185F80CE0D5F89D
:1015500008E01EF0020FFAD0D5F808E01EF0800F68
:10156000FAD18A423061E2D16344AAE70427E0223B
:1015700032492E4E2F4D12E01CF0800F09D01C4630
:1015800014F8010BFF2808BF4FF4FA7001F0CAFAF3
:1015900023467A1E12F0FF0741D019461A784FF4FD
:1015A00080604FF4805370617361AB689807FCD51D
:1015B000AB681B06FCD42A73AB689C07FCD5AB68F0
:1015C0001806FCD44FF48050306191F801C08B1C98
:1015D0001CF07F0ED0D04FF4806881460EF1FF32B0
:1015E000D2B201319C18C6F8108011F8012FC6F84C
:1015F0001490D5F8088018F0020FFAD0D5F80880BA
:1016000018F0800FFAD12A73AA689207FCD5AA684D
:101610001206FCD4A1423061E7D17344ACE74FF429
:101620008052024B1A61BDE8F88300BF000C0140F4
:1016300019340008003800405534000865340008AB
:101640009F284AD89F29F8B50C4645D87F2A43D809
:101650004FF4805106461D46204BA0425961D3B23B
:10166000194635BFC0B2E0B2E2B2F2B2FFF710FEE7
:101670004FF480631948A11B89B20361002927D068
:101680004FF480542746164A2E0AEBB247619568FC
:10169000AD07FCD595682D06FCD416739568AD078B
:1016A000FCD595682D06FCD4046144619568AD07AE
:1016B000FCD595682D06FCD413739568AD07FCD551
:1016C00095682D06FCD4013989B204610029DDD169
:1016D0004FF48052014B1A61F8BD7047000C014075
:1016E00000380040F8B50C4617464FF48051214AA7
:1016F000BC425161C2B24FEA1326DDB239BFE1B23A
:10170000FBB2E3B2F9B21046FFF7C2FD4FF48063BB
:1017100018493F1B0B6127D44FF4805000228446A8
:10172000154BC1F814C09C68A407FCD59C6824061E
:10173000FCD41E739C68A407FCD59C682406FCD4CA
:10174000086148619C68A407FCD59C682406FCD409
:101750001D739C68A407FCD59C682406FCD4013248
:1017600092B2BA420861DCDD4FF48052014B1A613B
:10177000F8BD00BF000C0140003800402DE9F04FDB
:101780000D4687B21FFA82FCACEB070699B21FFA2E
:1017900085F9044630B289B090460028A1EB0902D1
:1017A00003931FFA82FEBA46CB46BDF84830B6B264
:1017B00012B240F3E480002A40F3D080012100916E
:1017C00002914100069182424FEA4201079100F3E3
:1017D000E8808AB2961BA045019236B2424600F0DC
:1017E0006381190ADBB22046DFF8E8821446DDF88F
:1017F00008A0049105930FE006998442A3EB01032E
:1018000000991E4409EB01051FFA85FB36B22DB283
:101810005BD087B21FFA85F99F2FCB464AD8B9F122
:101820007F0F47D84FF48052A94BC0B2E9B200F104
:10183000010E01F1010C5A615FFA8EF25FFA8CF32E
:10184000FFF726FD4FF48063A14A136113464FF45E
:1018500080525A61D8F808309B07FBD5D8F8083079
:101860001806FBD4049B88F80C30D8F80830990788
:10187000FBD5D8F808301A06FBD44FF48052944BAD
:101880001A615A61D8F808309B07FBD5D8F80830A0
:101890001806FBD4059B88F80C30D8F80830990757
:1018A000FBD5D8F808301A06FBD44FF48052884B89
:1018B0001A611A6107EB0A00002E82B2019B00B286
:1018C0009ADA1E44844236B2A3D192460446BAF153
:1018D0009F0F40D8BBF17F0F3DD84FF480577C4E0F
:1018E000E0B2E9B24B1C421CDBB2D2B27761FFF727
:1018F000CFFC4FF48063774A3361776193689B072D
:10190000FCD5744B9A681706FCD40499714A197374
:1019100093689E07FCD56F4A93681D06FCD44FF46C
:1019200080526B4B6B491A615A618B689C07FCD5DE
:10193000684B9A681006FCD40599664A1973936837
:101940009907FCD5634A93681B06FCD44FF4805278
:101950005F4B1A611A6109B0BDE8F08F0120029057
:10196000002A40F0A680A0454A46C7BF61463846D7
:101970003946604609B0BDE8F04FFFF761BE002A66
:1019800040F38B80002840F0A780039A3846AA4293
:10199000CABF0A464A46494609B0BDE8F04FFFF7BC
:1019A000A1BEBDF81820A2EB0E060192039A36B232
:1019B000AA4279D093461A0ADBB2DFF81491DFF815
:1019C0001481049205930DE00799AB45A3EB010345
:1019D00002991E4407EB01041FFA84FA36B224B2BE
:1019E00059D0A7B29F2FBA464AD8ABB27F2B47D85F
:1019F0004FF48053E0B2E9B2421C01F1010CC9F886
:101A00001430D2B25FFA8CF3FFF742FC4FF48063DC
:101A1000C9F810304FF48053C9F81430D8F80830A2
:101A20009B07FBD5D8F808301806FBD4049B88F830
:101A30000C30D8F808309907FBD5D8F808301A06CA
:101A4000FBD44FF48053C9F81030C9F81430D8F8DB
:101A500008309B07FBD5D8F808301806FBD4059B47
:101A600088F80C30D8F808309907FBD5D8F808303A
:101A70001A06FBD44FF48053C9F81030C9F810305F
:101A8000009B002E1D44AAB2019B2DB29CDA1E447D
:101A9000AB4536B2A5D1934619E700283FF475AFA0
:101AA0004FF6FF7002905BE71A0ADBB204920593CF
:101AB0000DE7029A02FB06F0A9EB01024FF6FF7157
:101AC00086B21FFA82FE00B212B2009179E600BF20
:101AD000000C014000380040012100914FF6FF71D9
:101AE000A7EB0C0086B2029100B26AE682B02DE943
:101AF000F04F4FF480578DB0BDF86440C04E06944F
:101B0000BDF86850179377611478C3F30728002C49
:101B100000F03B81B3468E465FFA83F9531C019374
:101B20002B0A0893EBB20993069BDFF8D8A21B0A95
:101B3000079300EB090CBCF19F0F40F35F810EEBA4
:101B400008031FFA83FE0EEB08037F2B00F31D81B1
:101B5000202C4FF0000000F01181CC464FF4806142
:101B60004FF480525FFA8EF608F1FF3509F1FF332A
:101B7000029635440344189EEDB2DBB205960495F7
:101B8000CBF814100393CBF81420DAF808309E0732
:101B9000FBD5DAF808301D06FBD42A228AF80C207F
:101BA000DAF808309907FBD5DAF8082012F080023D
:101BB000FAD14FF48053CBF810301E46039B0BA98B
:101BC0008DF82F304FF480630D468DF82C208DF862
:101BD0002D008DF82E200CAFCBF810304FF4805232
:101BE00015F8013BCBF81420DAF808209207FBD552
:101BF000DAF808201006FBD48AF80C30DAF808303E
:101C00009A07FBD5DAF808301B06FBD4BD42CBF8A7
:101C10001060E3D14FF48063CBF81430CBF814603C
:101C2000DAF808309D07FBD5DAF808301806FBD43F
:101C30002B238AF80C30DAF808309A07FBD5DAF84B
:101C400008301B06FBD44FF480524FF48065CBF86C
:101C5000102013461046029A8DF82D20049A8DF814
:101C60002F20CBF8105011F8012BCBF81400DAF824
:101C70000850AE07FBD5DAF808502D06FBD48AF8D9
:101C80000C20DAF808209607FBD5DAF808201506AC
:101C9000FBD4B942CBF81030E5D14FF48062CBF8D9
:101CA0001420CBF81430DAF808309807FBD5DAF8AE
:101CB00008301906FBD42C238AF80C30DAF80830E7
:101CC0009A07FBD5DAF808301B06FBD44FF4805393
:101CD000CBF81030B8F1000F4ED0203C08FB04F4D4
:101CE000B9F1000F48D04FF48060059904F100422B
:101CF000013A444401EB4202023901EB4404002161
:101D000032F8026F9DF8185006FA01F73F04CBF83D
:101D10001000CBF8143041D5DAF80870BF07FBD5B6
:101D2000DAF808703F06FBD4079F8AF80C70DAF8DF
:101D30000870BF07FBD5DAF808703F06FBD4CBF874
:101D40001030CBF81430DAF80870BF07FBD5DAF89A
:101D500008703F06FBD48AF80C50DAF80870BF0709
:101D6000FBD5DAF808703F06FBD401314945CBF8C2
:101D70001030C9D1A242C2D11FFA8CF0019B13F8D6
:101D8000014B0193002C7FF4D4AE4FF480521C4BD6
:101D90001A610DB0BDE8F04F02B07047DAF8087074
:101DA000BF07FBD5DAF808703F06FBD4089F8AF816
:101DB0000C70DAF80870BF07FBD5DAF808703F0638
:101DC000FBD4CBF81030CBF81430DAF80870BF072A
:101DD000FBD5DAF808703F06FBD4099F8AF80C702F
:101DE000DAF80870BF07FBD5DAF808703F06FBD4B5
:101DF00001314945CBF8103086D1BBE7C0B2ADE622
:101E0000000C0140003800402DE9F04100214FF462
:101E10008055264E04467F2308469F227561FFF7B2
:101E200037FA4FF480632A46304680213361204BD5
:101E3000270A5FFA84F8A0244561D3F808C01CF093
:101E4000020FFAD0D3F808C01CF0800FFAD11F732C
:101E5000D3F808C01CF0020FFAD0D3F808C01CF069
:101E6000800FFAD102614261D3F808C01CF0020F62
:101E7000FAD0D3F808C01CF0800FFAD183F80C8098
:101E8000D3F808C01CF0020FFAD0D3F808C01CF039
:101E9000800FFAD1013CA4B20261002CCCD10139EF
:101EA00089B20029C7D13561BDE8F081000C01403D
:101EB00000380040704700BFFEE700BFFEE700BFEC
:101EC000FEE700BFFEE700BF704700BF704700BFDE
:101ED000704700BF134A13881BB2002B04DD138820
:101EE000013B1BB2138070474FF08041CA680E4B14
:101EF00022F00102CA601A680C4942F040021A60DE
:101F00001A6842F480721A601A6842F400621A6019
:101F10001A6842F480521A600B6823F002030B60C7
:101F2000704700BF540F00200004014010E000E0A3
:101F30000A490B4B0A6822F001020A601A689007EE
:101F40000AD51A68910704D5022159601A689207C8
:101F5000FBD40122034B1A70704700BF00040040FD
:101F600000000240CF0C00204FF080431A69D007D8
:101F700040F1B0801A692DE9F043D10705D56FF023
:101F8000010119611A69D207FBD44FF0000C9B4F75
:101F90009B4E9C4D9C4C397830782B782278DFF81A
:101FA0009C82DFF89CE2490040005B005200DFF8B1
:101FB0005C92C9B2C0B2DBB2D2B288F800C039704C
:101FC00030702B7022708EF800C0D9F808C01CF455
:101FD000807F02D10131C9B239708C4FBF68BF0513
:101FE00002D40130C0B23070894EB668770602D490
:101FF0000133DBB22B70864DAD682E0602D4013260
:10200000D2B2227080296CD0802B64D0814A1378A0
:1020100059B223BB804B98F800001A78024452B2A0
:102020001A701A78150648BF19701A7852B20C2A1D
:10203000C4BF0C221A701B785BB20C2B00F23F81DC
:10204000DFE813F0BF00C600CD00D4000001070197
:102050000E0115011C0123012A01310137011378FA
:10206000012B44D06D4A98F8001013780B445BB2F2
:10207000137013785BB2012BC4BF01231370137864
:102080001C0644BF00231370654A137859B2002B15
:1020900043D1644B9EF800001A78024452B21A7081
:1020A0001A78100648BF19701A78102152B2022A05
:1020B000C4BF02221A701A78012A53B24FF02002CC
:1020C0006AD0022B79D0002B70D0504B19611A6165
:1020D000BDE8F0837047002A62D1FF238EF80030FC
:1020E00094E7002839D1FF2188F800108CE74E4B87
:1020F00098F800101A8849B2A2EB810212B21A8035
:102100001A8812B2032ADCBF04221A801A8812B27B
:102110007C2AB9DD7C221A80B6E71378012B22D005
:10212000424A9EF8003011885BB20B441BB2138008
:1021300013881BB2002BDCBF0123138013881BB252
:102140007E2BC4BF7E2313801388394A1BB203EB56
:1021500083035B00D363BDE8F083FF2804BF012144
:1021600088F8001050E7334B9EF800101A780A44A4
:1021700052B21A701A784021120644BF00221A7017
:102180001A7852B2022AC4BF02221A701A78012A9F
:1021900053B24FF0800294D11C4B19615A6197E7FA
:1021A000FF2A04BF01238EF800302FE703F180439C
:1021B00003F5843319611A618AE7144B59615A6136
:1021C00086E7632141F64B521B4B9962DA625BE76B
:1021D000632140F6A562184B9962DA6254E76321E5
:1021E00040F25272144B9962DA624DE7632140F279
:1021F000ED22114B9962DA6246E700BF2800002009
:10220000290000202A0000202B00002000080140A7
:10221000000C0140C7070020CE0C00203C05002028
:10222000C0070020B8020020C8070020C207002015
:1022300000080040C607002000040040520F0020A4
:10224000530F0020002149F27B22204B9962DA6271
:102250001AE7002144F63D121C4B9962DA6213E73B
:10226000002141F64B52194B9962DA620CE70021CA
:1022700040F6A562154B9962DA6205E7002140F24B
:102280005272124B9962DA62FEE6002140F2ED22B0
:102290000E4B9962DA62F7E600214FF4BB720B4BEA
:1022A0009962DA62F0E60021BB22084B9962DA6299
:1022B000EAE600214A22054B9962DA62E4E600214F
:1022C00040F2CF72014B9962DA62DDE60004004011
:1022D000204B10B45A6951061AD51A6822F04002F0
:1022E0001A605A69520604D5402159615A69540648
:1022F000FBD44FF080414FF49674CB681648174AD0
:1023000043F00103CB600480136843F002031360C1
:10231000104B5A69D0051BD51A6822F480721A60D6
:102320005A69D10505D54FF4807159615A69D205B2
:10233000FBD44FF080414FF49674CB680648074AAF
:1023400043F00103CB600480136843F00203136081
:1023500010BC704700040140540F002010E000E062
:10236000474B30B45A69120525D51A6822F4006229
:102370001A605A69150505D54FF4006159615A690B
:102380001405FBD43F4B1A78002A3FD101254FF6A4
:10239000FF724FF6E0701D703B4C3C493C4B228075
:1023A00008801A804FF496713A4B3B4A19801368A3
:1023B00043F002031360324B5A69D00424D51A68E3
:1023C00022F480521A605A69D10405D54FF4805125
:1023D00059615A69D204FBD4304B1A7832BB0125BB
:1023E0004FF6FF724FF6E0701D702D4C2D492E4BAD
:1023F000228008801A804FF49671264B264A198055
:10240000136843F00203136030BC70471A78012A46
:1024100029D000254FF6FF724FF6E0741D701A4860
:102420001A491B4B04800A801A80BBE71A78012ADC
:102430000CD000254FF6FF724FF6E0741D7018485F
:102440001849194B04800A801A80D4E702254FF6F8
:10245000FF724FF6E0711D70114C1248124B228032
:1024600002801980C7E702254FF6FF724FF6E07130
:102470001D70054C0548064B22800280198091E7AB
:1024800000040140C7070020500F0020C4070020AF
:10249000B6020020540F002010E000E0C00700202A
:1024A000B4020020CC0C0020BA0200201D4B10B456
:1024B0001A68910614D500221B481C4902705A68FC
:1024C0001B4C0B782478013303F03F039C4225D04A
:1024D0001848D2B2C2540B706FF02002114B1A6030
:1024E000104B1A68120612D5134A144910780A784C
:1024F00090420ED00A781248013202F03F020A7070
:10250000825CD2B25A606FF04002064B1A6010BC77
:102510007047DA6822F08002DA60F4E70123037082
:10252000DAE700BF003801402C0000202D00002019
:102530002E000020580F00202F0000203000002027
:10254000980F002030B44FF41F054FF000640E4B7D
:102550000E4A19680E4841F00101196059680A4095
:102560005A601A6822F0847222F480321A601A6863
:1025700022F480221A605A6822F4FE025A609D609A
:10258000846030BC704700BF001002400000FFF8BC
:1025900000ED00E0002103E00B4B5B584350043199
:1025A0000A480B4B42189A42F6D30A4A02E000232B
:1025B00042F8043B084B9A42F9D3FFF7C3FF00F0FF
:1025C000C9FAFDF775FE7047983400080000002036
:1025D0000C0000200C000020D80F0020FEE70000B7
:1025E0000E4A0F4B10B494689B68234313F0010309
:1025F0000AD10968024651B14468184624F4702390
:10260000194310BC51607047012010BC70474368EB
:1026100010BC23F470230846536070470024014027
:10262000002801400246806810F001000ED1536876
:1026300010B44C6823F48073234353609368096893
:1026400023F400630B4310BC936070470120704774
:102650008268D3071BD430B44C680346CCB94268B7
:1026600022F4684242609A680D6822F46022C868C9
:1026700022F4817209692A4302430A439A60DA6AA2
:10268000002022F470022243DA6230BC704701203D
:10269000704740688A6820F46840204310435860BF
:1026A000E1E700BF10B403460079A0B1186880B11B
:1026B0005A79012A2DD0022A19D00AB301229B7916
:1026C000002B38D0022B2ED0032B41D0012B35D03C
:1026D000012010BC7047204A1C68116821EA0401DF
:1026E0001160536823EA0403536010BC70471A4911
:1026F00000220C6804430C604C6804434C60DEE725
:1027000015494C6824EA00044C600C6804430C60D2
:10271000D5E7114900220C6824EA00040C604C68DB
:1027200004434C60CBE70C4B996821EA00019960A7
:10273000D9680843D860104610BC7047064BD9686A
:1027400021EA0001D9609968084398601046C0E703
:10275000014B99680143EAE7000401402DE9F04F7D
:102760000C68C4F30F2494FAA4F3B3FA83F334FA95
:1027700003F276D04FF0010B4FF00F0C4FF0030E29
:102780004FF004095EE040F201129A40160E92FAF0
:10279000A2FABAFA8AFA92FAA2F8B8FA88F885592F
:1027A0004F684FEA8A0A0CFA0AFA4FEA880807FAD1
:1027B00008F825EA0A0545EA08058551D0F80C8095
:1027C000150A95FAA5FABAFA8AFA0F6928EA0508ED
:1027D0004D6807FA0AFA25F0080548EA0A08012DAB
:1027E000C0F80C802AD192FAA2FABAFA8AFA92FABE
:1027F000A2F8B8FA88F885598F684FEA8A0A0EFA63
:102800000AFA4FEA880825EA0A0507FA08F845EAAD
:102810000805855192FAA2F8B8FA88F892FAA2F25D
:10282000B2FA82F2CF684FEA8808920009FA08F8F3
:1028300025EA080507FA02F215438551013334FAF7
:1028400003F20ED00BFA03F22242F7D0072B9AD9EB
:102850004FF00115A3F1080205FA02F242F080627E
:1028600094E70020BDE8F08F0246006810F04000B9
:1028700023D1F0B4D1E900358C682B43CD682343D4
:102880000C692B434D698E692343CF6914682B4330
:1028900033430E6A3B4324F47F44334324F0BF04A4
:1028A000234313605368B6F5005F23F0040343EA43
:1028B0001543536003D0F0BC7047012070478B8CE8
:1028C000F0BC1361704700BF1F4A0368904225D0D7
:1028D000B0F1804F30B413D0A2F5943290420FD0B3
:1028E00002F5806290420BD08C680A880360C46253
:1028F0008262436930BC43F00103436100207047AA
:102900004A6823F07003CD6813438C680A8823F467
:1029100040732B430360C4628262EAE74A6823F093
:1029200070031343CA6823F44073134303608A6837
:102930000B88C26283620B7C0363436943F001032B
:1029400043610020704700BF002C0140B1F5807F3B
:10295000034670B468D025D8012900F0868010297C
:1029600044D1006A156920F010001862196A5E6887
:1029700021F0200141EA051121F01001D2E9000502
:102980009C6941EA05115D4D24F4E644AB4244EAFA
:10299000002434D0D26800205E609C619A6370BCD1
:1029A00019627047B1F5805F20D1006A156920F483
:1029B00080501862196A5E6821F4005141EA0531BD
:1029C00021F48051D2E90005DC6941EA05314B4D23
:1029D00024F4E644AB4244EA00240AD0D268002042
:1029E0005E60DC611A6470BC19627047012070BCC3
:1029F0007047906926F4804646EA8016EEE721F09B
:102A0000800126F48066D2E9055041EA851146EA44
:102A100080069568D06921F0400126F4006641EAFD
:102A2000851146EAC006B5E7006A156920F4807092
:102A30001862196A5E6821F4007141EA052121F4E7
:102A40008071D2E90005DC6941EA05212B4D24F0B3
:102A50007304AB4244EA000426D0D26800205E60D2
:102A6000DC61DA6370BC19627047006A156920F096
:102A700001001862196A5E6821F00201294321F001
:102A80000101D2E900059C6929431C4D24F073041F
:102A9000AB4244EA00041CD0D26800205E609C6116
:102AA0005A6370BC1962704721F4006126F48056A5
:102AB000D2E9055041EA852146EA00169568D069B9
:102AC00021F4806126F4005641EA852146EA401649
:102AD000C3E721F0080126F48076D2E9055041EAE7
:102AE000850106439568D06921F0040126F400763B
:102AF00041EA850146EA4006CEE700BF002C0140CE
:102B000010B405210024054B054AA3FB00039B09D3
:102B1000013B5360946010BC11607047D34D62104C
:102B200010E000E0074B82B01B68421C0193019B40
:102B3000044A18BF01301368DB03FCD50138FAD111
:102B400002B0704710E000E0014B1860704700BF12
:102B50000800002070B500260C4D0D4C641BA4101D
:102B6000A64209D100F030F800260A4D0A4C641B39
:102B7000A410A64205D170BD55F8043B9847013614
:102B8000EEE755F8043B98470136F2E79034000829
:102B90009034000890340008943400080A449142AC
:102BA00000F1FF3300D1704710B511F8014B91428D
:102BB00003F8014FF9D110BD03460244934200D1FE
:102BC000704703F8011BF9E7F8B500BFF8BC08BC73
:102BD0009E467047F8B500BFF8BC08BC9E467047DB
:102BE00000000000000000000000000000000000E5
:102BF0000000000000100010001000100010001075
:102C0000000000100000000000280028002800003C
:102C1000000000000000000000000000002400246C
:102C2000007C00240048007C0048004800000000B0
:102C3000003800540050003800140054005400388C
:102C400000100000002000540058003000280054FC
:102C500000140008000000000010002800280010E8
:102C6000003400480048003400000000001000104C
:102C70000010000000000000000000000000000044
:102C8000000800100020002000200020002000206C
:102C900000100008002000100008000800080008CC
:102CA0000008000800100020001000380010002864
:102CB0000000000000000000000000000000000014
:102CC00000100010007C0010001000000000000048
:102CD00000000000000000000000000000000010E4
:102CE000001000100000000000000000000000388C
:102CF00000000000000000000000000000000000D4
:102D000000000000000000100000000000080008A3
:102D10000010001000100010002000200000000033
:102D2000003800440044005400440044004400388B
:102D300000000000001000300050001000100010D3
:102D4000001000100000000000380044004400049F
:102D5000000800100020007C000000000038004443
:102D600000040018000400040044003800000000C3
:102D700000080018002800280048007C000800080F
:102D800000000000007C00400040007800040004C7
:102D90000044003800000000003800440040007883
:102DA000004400440044003800000000007C00049F
:102DB000000800100010002000200020000000008B
:102DC0000038004400440038004400440044003807
:102DD000000000000038004400440044003C0004AF
:102DE0000044003800000000000000000010000057
:102DF00000000000000000100000000000000000C3
:102E00000000001000000000000000100010001082
:102E100000000000000C003000400030000C0000FA
:102E200000000000000000000000007C0000007CAA
:102E3000000000000000000000000000006000181A
:102E4000000400180060000000000000003800448A
:102E50000004000800100010000000100000000036
:102E600000380044004C0054005C00400040003832
:102E70000000000000100028002800280028007C26
:102E80000044004400000000007800440044007842
:102E90000044004400440078000000000038004472
:102EA00000400040004000400044003800000000A6
:102EB0000070004800440044004400440048007092
:102EC00000000000007C00400040007C004000400A
:102ED0000040007C00000000007C004000400078C2
:102EE0000040004000400040000000000038004466
:102EF00000400040005C0044004400380000000036
:102F0000004400440044007C004400440044004469
:102F10000000000000380010001000100010001029
:102F20000010003800000000000400040004000449
:102F30000004000400440038000000000044004881
:102F400000500060005000480048004400000000AD
:102F50000040004000400040004000400040007C35
:102F6000000000000044006C006C00540044004469
:102F70000044004400000000004400640064005469
:102F80000054004C004C0044000000000038004495
:102F900000440044004400440044003800000000A5
:102FA00000780044004400440078004000400040A5
:102FB0000000000000380044004400440044004485
:102FC000005400380004000000780044004400442D
:102FD0000078004800480044000000000038004429
:102FE00000400030000800040044003800000000E9
:102FF000007C0010001000100010001000100010E5
:103000000000000000440044004400440044004428
:103010000044003800000000004400440044002840
:1030200000280028001000100000000000440044A8
:10303000005400540054006C0028002800000000D8
:103040000044002800280010001000280028004438
:103050000000000000440044002800280010001078
:103060000010001000000000007C000400080010A8
:10307000001000200040007C00000000001800103C
:1030800000100010001000100010001000100018B8
:1030900000200020001000100010001000080008A0
:1030A00000000000003000100010001000100010A0
:1030B000001000100010003000100028002800440C
:1030C0000000000000000000000000000000000000
:1030D000000000000000000000000000000000FEF2
:1030E00000200010000000000000000000000000B0
:1030F000000000000000000000380044003C0044D4
:10310000004C003400000000004000400058006403
:10311000004400440064005800000000000000006B
:103120000038004400400040004400380000000027
:10313000000400040034004C00440044004C0034FF
:10314000000000000000000000380044007C004047
:103150000044003800000000000C0010007C00104B
:10316000001000100010001000000000000000001F
:103170000034004C00440044004C0034000400784B
:1031800000400040005800640044004400440044F3
:10319000000000000010000000700010001000107F
:1031A000001000100000000000100000007000106F
:1031B0000010001000100010001000E0004000405F
:1031C000004800500060005000480044000000002B
:1031D000007000100010001000100010001000100F
:1031E000000000000000000000780054005400546B
:1031F000005400540000000000000000005800646B
:1032000000440044004400440000000000000000AE
:10321000003800440044004400440038000000002E
:10322000000000000058006400440044006400589E
:1032300000400040000000000034004C0044004406
:10324000004C00340004000400000000005800643A
:10325000004000400040004000000000000000006E
:10326000003800440030000800440038000000002E
:1032700000200020007800200020002000200018FE
:10328000000000000000000000440044004400442E
:10329000004C003400000000000000000044004426
:1032A0000028002800280010000000000000000096
:1032B000005400540054006C002800280000000056
:1032C0000000000000440028001000100028004406
:1032D0000000000000000000004400440028002816
:1032E000001000100010006000000000007C0008CA
:1032F000001000200040007C0000000000180010BA
:103300000010001000200020001000100010001815
:10331000001000100010001000100010001000102D
:10332000001000100030001000100010000800080D
:1033300000100010001000300000000000000074B9
:10334000004C000000000000000000004348312055
:1033500032562020200000004348312031562020E2
:1033600020000000434831203530306D5600000009
:103370003230306D730000003130306D730000006A
:1033800035306D732000000032306D732000000076
:1033900031306D7320000000356D73202000000077
:1033A000326D732020000000316D7320200000007A
:1033B0003530307573000000323030757300000016
:1033C0003130307573000000353075732000000017
:1033D0003230757320000000545F43483100000014
:1033E000545F4348320000004348322032562020C8
:1033F00020000000434832203156202020000000E9
:10340000434832203530306D56000000474E4400AE
:10341000545F4C564C0000000F0180961180FFB1A4
:1034200003012C2DB203012C2DB306012C2D012CF0
:103430002DB40107C003A20284C101C5C2020A0063
:10344000C3028A2AC4028AEEC5010E20003601A0FA
:103450003A010500022A040000007F2B040000004E
:103460007F00000004E010021C07123732292D29CA
:10347000252B3900010310E110031D07062E2C290E
:103480002D2E2E373F0000021013800A2980640081
:0434900035010008FA
:04349400110100081A
:0C349800070A0000E02B00080024F400EC
:040000050800259535
:00000001FF
