:020000040800F2
:1000000000500020DD3300088729000893290008EC
:10001000992900089F290008A52900080000000070
:10002000000000000000000000000000AB290008F4
:10003000B729000800000000C3290008D1290008E2
:10004000253400082534000825340008253400082C
:10005000253400082534000825340008253400081C
:10006000253400082534000825340008252A000816
:1000700025340008253400082534000825340008FC
:1000800025340008253400082534000825340008EC
:10009000253400082534000825340008C52F000841
:1000A00025340008253400082534000825340008CC
:1000B000652A000825340008253400082534000886
:1000C00025340008253400082534000825340008AC
:1000D00025340008A1320008253400082534000822
:1000E0004D300008253400082534000800000000C9
:1000F0000000000000000000000000000000000000
:0C01000000000000000000005FF808F1A3
:10010C0010B5054C237833B9044B13B10448AFF345
:10011C0000800123237010BD0C00002000000000A3
:10012C002041000808B5034B1BB103490348AFF34A
:10013C00008008BD000000001000002020410008D5
:10014C0080B485B000AF78607B6803F00703FB6078
:10015C000C4BDB68BB60BA684FF6FF031340BB6007
:10016C00FB681A02BB68134343F0BF6343F40033CC
:10017C00BB60044ABB68D36000BF1437BD4680BC6B
:10018C00704700BF00ED00E080B400AF044BDB68AB
:10019C001B0A03F007031846BD4680BC704700BF1E
:1001AC0000ED00E080B483B000AF0346FB7197F91B
:1001BC000730002B0BDBFB7903F01F02064997F984
:1001CC0007305B09012000FA02F241F8232000BF3E
:1001DC000C37BD4680BC704700E100E080B483B0B2
:1001EC0000AF03463960FB7197F90730002B0ADB2F
:1001FC003B68DAB20C4997F907301201D2B20B44C2
:10020C0083F800230AE03B68DAB20849FB7903F073
:10021C000F03043B1201D2B20B441A7600BF0C3709
:10022C00BD4680BC704700BF00E100E000ED00E07F
:10023C0080B489B000AFF860B9607A60FB6803F0F5
:10024C000703FB61FB69C3F10703042B28BF0423DD
:10025C00BB61FB690433062B02D9FB69033B00E04D
:10026C0000237B614FF0FF32BB6902FA03F3DA43E0
:10027C00BB681A407B699A404FF0FF317B6901FAE9
:10028C0003F3D9437B680B40134318462437BD4610
:10029C0080BC704780B489B000AFF860B9607A60F8
:1002AC00FB682C331946BB6803F440734FF440725F
:1002BC00BA61BA6992FAA2F27A617A69B2FA82F2F6
:1002CC00D2B2D3409B000B44FB61FB691A68BB683C
:1002DC0003F01F031F2101FA03F3DB431A407B6871
:1002EC0003F01F01BB6803F01F0301FA03F31A4369
:1002FC00FB691A6000BF2437BD4680BC704780B4D0
:10030C008DB000AFF860B9607A60FB680C331946A9
:10031C00BB6803F000734FF00072BA61BA6992FACD
:10032C00A2F27A617A69B2FA82F2D2B2D3409B001D
:10033C000B44FB62FB6A1A68BB6803F0F8734FF05E
:10034C00F8713962396A91FAA1F1F961F969B1FA76
:10035C0081F1C9B2CB40072101FA03F3DB431A4008
:10036C00BB6803F0F8734FF0F871B962B96A91FA8F
:10037C00A1F17962796AB1FA81F1C9B2CB4079689D
:10038C0001FA03F31A43FB6A1A6000BF3437BD4607
:10039C0080BC704780B483B000AF78607B689B688A
:1003AC0043F001027B689A6000BF0C37BD4680BCED
:1003BC00704780B483B000AF78607B689B6843F073
:1003CC0004027B689A6000BF0C37BD4680BC704746
:1003DC0080B483B000AF78607B689B6803F0040343
:1003EC00042B0CBF01230023DBB218460C37BD468F
:1003FC0080BC704780B483B000AF786039607B6894
:10040C009A683B681A437B689A6000BF0C37BD46FC
:10041C0080BC704780B483B000AF786039603B68B3
:10042C00013B0A4AD35C1A467B6813441B683A6842
:10043C00013A06498A5C11467A680A4443F0010382
:10044C00136000BF0C37BD4680BC70477049000874
:10045C0080B483B000AF786039603B68013B0A4AD6
:10046C00D35C1A467B6813441B683A68013A064908
:10047C008A5C11467A680A4423F00103136000BFBA
:10048C000C37BD4680BC70477049000880B485B0FD
:10049C0000AFF860B9607A60BB68013B0C4AD35C72
:1004AC001A46FB6813441B6823F4804323F01003A3
:1004BC00BA68013A06498A5C1146FA680A44114640
:1004CC007A6813430B6000BF1437BD4680BC70477D
:1004DC007049000880B485B000AFF860B9607A60EC
:1004EC00BB68013B0B4AD35C1A46FB6813441B6880
:1004FC0023F02002BB68013B0649CB5C1946FB6824
:10050C000B4419467B6813430B6000BF1437BD4680
:10051C0080BC70477049000880B485B000AFF860AB
:10052C00B9607A60BB68013B0B4AD35C1A46FB6826
:10053C0013441B6823F04002BB68013B0649CB5CAB
:10054C001946FB680B4419467B6813430B6000BFCC
:10055C001437BD4680BC70477049000880B485B024
:10056C0000AFF860B9607A60BB68013B0B4AD35CA2
:10057C001A46FB6813441B6823F08002BB68013BDE
:10058C000649CB5C1946FB680B4419467B68134340
:10059C000B6000BF1437BD4680BC70477049000823
:1005AC0080B485B000AFF860B9607A60BB68013B7D
:1005BC000B4AD35C1A46FB6813441B6823F4407245
:1005CC00BB68013B0649CB5C1946FB680B441946DA
:1005DC007B6813430B6000BF1437BD4680BC70476B
:1005EC007049000880B485B000AFF860B9607A60DB
:1005FC00BB68013B0B4AD35C1A46FB6813441B686F
:10060C0023F44062BB68013B0649CB5C1946FB688E
:10061C000B4419467B6813430B6000BF1437BD466F
:10062C0080BC70477049000880B485B000AFF8609A
:10063C00B9607A60BB68013B0B4AD35C1A46FB6815
:10064C0013441B6823F44052BB68013B0649CB5C46
:10065C001946FB680B4419467B6813430B6000BFBB
:10066C001437BD4680BC70477049000880B485B013
:10067C0000AFF860B9607A60BB68013B0B4AD35C91
:10068C001A46FB6813445B681B0C1B04BA68013ADE
:10069C0006498A5C1146FA680A4411467A68134383
:1006AC004B6000BF1437BD4680BC704770490008D2
:1006BC0080B485B000AFF860B9607A60BB68013B6C
:1006CC00064AD35C1A46FB6813441A467B68D3600F
:1006DC0000BF1437BD4680BC704700BF704900088E
:1006EC0080B485B000AFF860B9607A60BB68013B3C
:1006FC00064AD35C1A46FB6813441A467B6893601F
:10070C0000BF1437BD4680BC704700BF704900085D
:10071C0080B483B000AF78607B6808225A6000BF59
:10072C000C37BD4680BC704780B483B000AF786096
:10073C0039603B68013B0A4AD35C1A467B68134418
:10074C001B683A68013A06498A5C11467A680A4481
:10075C0043F00203136000BF0C37BD4680BC7047EA
:10076C007049000880B400AF044B1B68034A43F483
:10077C008033136000BFBD4680BC70470010024040
:10078C0080B400AF064B1B6803F40033B3F5003F95
:10079C000CBF01230023DBB21846BD4680BC70475A
:1007AC000010024080B483B000AF7860064B5B68E9
:1007BC0023F0030204497B6813434B6000BF0C37E2
:1007CC00BD4680BC704700BF0010024080B400AF33
:1007DC00034B5B6803F00C031846BD4680BC7047A6
:1007EC000010024080B483B000AF7860064B5B68A9
:1007FC0023F0F00204497B6813434B6000BF0C37B5
:10080C00BD4680BC704700BF0010024080B483B06E
:10081C0000AF7860064B5B6823F4E06204497B68A8
:10082C0013434B6000BF0C37BD4680BC704700BF04
:10083C000010024080B483B000AF7860064B5B6858
:10084C0023F4605204497B6813434B6000BF0C37A0
:10085C00BD4680BC704700BF0010024080B483B01E
:10086C0000AF7860064B5B6823F4404204497B6818
:10087C0013434B6000BF0C37BD4680BC704700BFB4
:10088C000010024080B400AF044B1B68034A43F0D5
:10089C008073136000BFBD4680BC704700100240DF
:1008AC0080B400AF064B1B6803F00073B3F1007FFC
:1008BC000CBF01230023DBB21846BD4680BC704739
:1008CC000010024080B483B000AF78603960084BF0
:1008DC005B6823F47C127B6803F440313B680B4368
:1008EC00034913434B6000BF0C37BD4680BC7047B7
:1008FC000010024080B485B000AF7860084B5A6994
:10090C0007497B6813434B61054B5A697B6813405D
:10091C00FB60FB6800BF1437BD4680BC704700BF4E
:10092C000010024080B485B000AF7860084BDA69E3
:10093C0007497B681343CB61054BDA697B6813402D
:10094C00FB60FB6800BF1437BD4680BC704700BF1E
:10095C000010024080B485B000AF7860084B9A69F3
:10096C0007497B6813438B61054B9A697B6813407D
:10097C00FB60FB6800BF1437BD4680BC704700BFEE
:10098C000010024080B483B000AF7860064B1B6847
:10099C0023F0070204497B6813430B6000BF0C373C
:1009AC00BD4680BC704700BF0020024080B400AF41
:1009BC00034B1B6803F007031846BD4680BC704709
:1009CC000020024080B400AF044B1B68034A43F084
:1009DC001003136000BFBD4680BC7047002002406E
:1009EC0080B483B000AF78607B681B6843F0400232
:1009FC007B681A6000BF0C37BD4680BC704780B462
:100A0C0083B000AF78607B681B6843F001027B68A1
:100A1C001A6000BF0C37BD4680BC704780B483B0F1
:100A2C0000AF78607B681B6823F080027B681A60DB
:100A3C0000BF0C37BD4680BC704780B483B000AF9C
:100A4C00786039607B683A689A6200BF0C37BD46A3
:100A5C0080BC704780B483B000AF786039607B682D
:100A6C003A68DA6200BF0C37BD4680BC704780B470
:100A7C0083B000AF786039607B681A6A3B681A43B0
:100A8C007B681A6200BF0C37BD4680BC7047000003
:100A9C0080B485B000AF786039603B68012B1CD006
:100AAC003B68042B17D03B68102B12D03B68402BB3
:100ABC000DD03B68B3F5807F07D03B68B3F5806FF2
:100ACC0001D105230AE0062308E0042306E00323F2
:100ADC0004E0022302E0012300E00023FB737B68A7
:100AEC0018331946FB7B0A4AD35C0B44BB60BB68CA
:100AFC001A68FB7B0749CB5C194604238B40DB430C
:100B0C001A40BB681A6000BF1437BD4680BC7047E2
:100B1C00784900088049000880B485B000AF78603F
:100B2C0039603B68012B1CD03B68042B17D03B6809
:100B3C00102B12D03B68402B0DD03B68B3F5807F57
:100B4C0007D03B68B3F5806F01D105230AE006237B
:100B5C0008E0042306E0032304E0022302E001235F
:100B6C0000E00023FB737B6818331946FB7B0A4AB1
:100B7C00D35C0B44BB60BB681A68FB7B0749CB5C3E
:100B8C00194608238B401A43BB681A6000BF143700
:100B9C00BD4680BC704700BF7849000880490008FA
:100BAC0080B483B000AF786039607B689B6823F4B5
:100BBC00804323F007033A681A437B689A6000BFAE
:100BCC000C37BD4680BC704780B483B000AF7860F2
:100BDC0039607B685B6823F070023B681A437B6862
:100BEC005A6000BF0C37BD4680BC704780B483B0E0
:100BFC0000AF78607B689B6823F080027B689A600A
:100C0C0000BF0C37BD4680BC704790B488B000AFB5
:100C1C00F860B9607A60FB681A46BB681B0E134417
:100C2C001C462268BB687B617B6993FAA3F33B612A
:100C3C003B69B3FA83F3DBB29B000F2101FA03F398
:100C4C00DB431A40BB68FB61FB6993FAA3F3BB61FE
:100C5C00BB69B3FA83F3DBB29B00796801FA03F347
:100C6C001343236000BF2037BD4690BC704780B44F
:100C7C0087B000AFF860B9607A60FB68DA68BB686F
:100C8C001B0ADB431A40BB681B0A7B617B6993FA26
:100C9C00A3F33B613B69B3FA83F3DBB219467B6880
:100CAC008B401A43FB68DA6000BF1C37BD4680BC22
:100CBC00704780B483B000AF786039603B681B0A22
:100CCC009AB27B681A6100BF0C37BD4680BC704776
:100CDC0080B400AF074B5B68064A23F0E0635360B7
:100CEC00044B5B68034A43F00073536000BFBD467E
:100CFC0080BC70470000014080B485B000AF7860C4
:100D0C003960134A3B68DBB2023352F823203B684C
:100D1C001B0CDB4302EA03013B681B0CFB60FB680A
:100D2C0093FAA3F3BB60BB68B3FA83F3DBB21A4646
:100D3C007B6803FA02F206483B68DBB20A430233D3
:100D4C0040F8232000BF1437BD4680BC704700BF5D
:100D5C000000014090B58FB004AF0120FFF7FAFD01
:100D6C004FF08050FFF7DEFD0320FFF7E9F9FFF7A6
:100D7C00AFFF00F0C1FC00F03FFF00F025FF00F0DA
:100D8C0001FD00F08BFD00F0E1FD00F02BFE00F00A
:100D9C006BFE00F0A9FEAB48FFF7FCFAA948FFF781
:100DAC0008FB00BFA748FFF713FB0346002BF9D144
:100DBC000A2003F051F9A448FFF7ECFAA248FFF718
:100DCC00F8FA00BFA048FFF703FB0346002BF9D14C
:100DDC000A2003F041F94FF08040FFF710FE4FF46A
:100DEC0080719A48FFF743FE4FF480519748FFF704
:100DFC003EFE9648FFF703FE9548FFF7F1FD01F024
:100E0C008BF9002001F07EFC924B09221A70002114
:100E1C009148FFF712FE40F2ED218F48FFF71AFEC2
:100E2C008E4B00221A708E4B00221A708D4B0022B2
:100E3C001A708D4B00221A708C4B00221A708C4B3E
:100E4C0040221A808B4B40221A8040233B84012382
:100E5C00BB8401237B84884B4FF6E0721A80874B4E
:100E6C004FF6FF721A80864B4FF6E0721A80854B54
:100E7C004FF6FF721A80844B4FF6FF721A80834B29
:100E8C004FF6FF721A80824A01218248FFF728FC34
:100E9C00814B1A4601217F48FFF70AFC4FF4A072E0
:100EAC0001217C48FFF7E2FB01217A48FFF73CFC6B
:100EBC0001217848FFF7AEFA4FF480116148FFF733
:100ECC0099FA4FF480116048FFF794FA6248FFF7E3
:100EDC0096FD624B1B785BB2012B40F08C8100239A
:100EEC00FB846BE0FB8C6C4A52F823305A0DFB8C64
:100EFC0091B26A4A22F81310FB8C674A52F82330DD
:100F0C005B099AB2FB8CC2F30A0291B2644A22F8D2
:100F1C001310FB8C614A32F81330BB80BB889B08E2
:100F2C009AB2BB8813449AB2FB8C103A91B25B4ACA
:100F3C0022F81310FB8C594A32F8133042F20F721C
:100F4C00934204D9FB8C554A002122F81310FB8CD8
:100F5C00524A32F813307F2B04D9FB8C4F4A7F2135
:100F6C0022F81310FB8C4E4A32F813307B807B88AE
:100F7C009B089AB27B8813449AB2FB8C103A91B2BC
:100F8C00474A22F81310FB8C454A32F8133042F2D0
:100F9C000F72934204D9FB8C414A002122F81310A2
:100FAC00FB8C3F4A32F813307F2B04D9FB8C3C4A24
:100FBC007F2122F81310FB8C0133FB84FB8CB3F5DF
:100FCC00A07F8FD30123FB84364B1B785BB2002BA5
:100FDC001CD102E0FB8C0133FB84FB8C013B2F4AC0
:100FEC0032F813301A46234B1B881BB29A42F1DBA2
:100FFC00FB8C2A4A32F813301A461E4B1B881BB244
:10100C009A42E7DA17E0FB8C0133FB84FB8C013B43
:10101C00234A32F813301A46164B1B881BB29A42DD
:10102C00F1DBFB8C1E4A32F813301A46114B1B882D
:10103C001BB29A42E7DAFB8C9F2B35D90123BB8478
:10104C0034E000BF002401400028014000080040AB
:10105C00003800402B0F002000040040280F002017
:10106C00290F00202A0F00202F0F0020300F002006
:10107C00320F00202C0F0020340F0020360F0020E0
:10108C00380F00203A0F00203C0F00203E0F0020AC
:10109C004C240140000002402800002028050020BC
:1010AC00A80700202E0F0020FB8CBB8400F0C4FA94
:1010BC003A8C00230A21012001F07EF8944B1B8806
:1010CC001BB29AB2934B1B889BB20A21012001F0F0
:1010DC0073F88F4B1B881BB23B840123FB8454E0B9
:1010EC00FB8C0133FB83FA8C7B8C1344BB83BB8B53
:1010FC0001337B83FA8CBB8C13443B833B8B0133D6
:10110C00FB82BB8B844A32F81330BB827B8B824AC6
:10111C0032F813307B823B8B804A32F813303B829F
:10112C00FB8A7E4A32F81330FB81BB8B7C4A32F847
:10113C001330BB817B8B7A4A32F813307B813B8B2B
:10114C00784A32F813303B81FB8A764A32F81330F6
:10115C00FB80B7F91400B7F90C10B7F91220B7F9E6
:10116C000A300024009401F0C8F8B7F91000B7F960
:10117C000810B7F90E20B7F906304FF4FC64009450
:10118C0001F0BBF8FB8C0133FB84FB8C9E2BA7D9A5
:10119C000023FB8412E0FA8CFB8C604931F81210AE
:1011AC005D4A22F81310FA8CFB8C5E4931F8121050
:1011BC005B4A22F81310FB8C0133FB84FB8CB3F5D8
:1011CC00A07FE8D3BB8C7B84574B00221A70574806
:1011DC00FFF79EFA01215548FFF73AF94FF4A07238
:1011EC0001215248FFF742FA01215048FFF712F94A
:1011FC004F48FFF704FC4F4B1B785BB2002B0FD111
:10120C004D4B1B889AB24D4B0021029101925A68AA
:10121C0000921B684A4A6A21012001F0C0F923E0C0
:10122C00444B1B785BB2012B0FD1434B1B889AB2FA
:10123C00424B0021029101925A6800921B68414A6C
:10124C006A21012001F0ABF90EE03B4B1B889AB2EE
:10125C003A4B0021029101925A6800921B683A4A5B
:10126C006A21012001F09BF9384B1B785BB2002BF3
:10127C000FD1374B1B889AB2304B0021029101924F
:10128C005A6800921B68334A6A214B2001F087F997
:10129C001FE12E4B1B785BB2012B0FD12C4B1B8803
:1012AC009AB2264B0021029101925A6800921B6857
:1012BC00294A6A214B2001F072F90AE1234B1B7871
:1012CC005BB2022B0FD1224B1B889AB21B4B002115
:1012DC00029101925A6800921B68204A6A214B20A5
:1012EC0001F05DF9F5E0194B1B785BB2032B39D19A
:1012FC00174B1B889AB2114B0021029101925A682C
:10130C0000921B68164A6A214B2001F048F9E0E074
:10131C002C0F00203A0F0020280A0020280500205E
:10132C00A80C0020A8070020280F00200000024075
:10133C00000400402F0F0020340F0020000000207C
:10134C003841000844410008504100082B0F002090
:10135C00380F00205C410008644100086C41000813
:10136C0074410008824B1B785BB2042B0FD1814B6C
:10137C001B889AB2804B0021029101925A6800920C
:10138C001B687E4A6A214B2001F009F9A1E0784BD9
:10139C001B785BB2052B0FD1764B1B889AB2764B20
:1013AC000021029101925A6800921B68744A6A21CA
:1013BC004B2001F0F4F88CE06D4B1B785BB2062BE4
:1013CC000FD16C4B1B889AB26B4B0021029101928E
:1013DC005A6800921B686B4A6A214B2001F0DFF8B7
:1013EC0077E0634B1B785BB2072B0FD1614B1B88EB
:1013FC009AB2614B0021029101925A6800921B68CB
:10140C00614A6A214B2001F0CAF862E0584B1B7804
:10141C005BB2082B0FD1574B1B889AB2564B00214D
:10142C00029101925A6800921B68584A6A214B201B
:10143C0001F0B5F84DE04E4B1B785BB2092B0FD188
:10144C004C4B1B889AB24C4B0021029101925A686A
:10145C0000921B684E4A6A214B2001F0A0F838E03C
:10146C00434B1B785BB20A2B0FD1424B1B889AB2B1
:10147C00414B0021029101925A6800921B68454A27
:10148C006A214B2001F08BF823E0394B1B785BB2BF
:10149C000B2B0FD1374B1B889AB2374B0021029183
:1014AC0001925A6800921B683B4A6A214B2001F05A
:1014BC0076F80EE02F4B1B889AB22F4B002102912D
:1014CC0001925A6800921B68344A6A214B2001F041
:1014DC0066F8334B1B785BB2002B0FD1314B1B885A
:1014EC009AB2254B0021029101925A6800921B6816
:1014FC002D4A6A21782001F052F80EE0294B1B8806
:10150C009AB21D4B0021029101925A6800921B68FD
:10151C00264A6A21782001F042F8254B1B785BB2F1
:10152C00002B0FD1234B1B889AB2134B0021029135
:10153C0001925A6800921B681F4A7521012001F024
:10154C002EF84CE01A4B1B785BB2012B38D1194B9F
:10155C001B889AB2084B0021029101925A680092A2
:10156C001B68164A7521012001F019F837E000BFFD
:10157C002B0F0020380F0020000000207C410008B9
:10158C00844100088C410008944100089C410008EB
:10159C00A4410008AC410008B4410008BC4100085B
:1015AC002E0F00203C0F0020C4410008CC41000845
:1015BC00300F0020360F0020D4410008E041000815
:1015CC00164B1B889AB2164B0021029101925A6855
:1015DC0000921B68134A7521012000F0E0FF124BAA
:1015EC001B889AB20E4B0021029101925A6800920C
:1015FC001B680E4A75214B2000F0D1FF0C4B1B8849
:10160C009AB2074B0021029101925A6800921B6812
:10161C00084A7521782000F0C2FF5AE4360F0020EA
:10162C0000000020EC4100083E0F0020F8410008AB
:10163C003A0F0020FC41000880B500AF48F210437F
:10164C0000229F21002000F0B7FD48F21043152224
:10165C009F21002000F0B0FD48F210432A229F2168
:10166C00002000F0A9FD48F210433F229F210020EA
:10167C0000F0A2FD48F2104354229F21002000F0FC
:10168C009BFD48F2104369229F21002000F094FD3D
:10169C0048F210437F229F21002000F08DFD48F27C
:1016AC0010437F220021002000F0DBFD48F21043A4
:1016BC007F2200211F2000F0D4FD48F210437F222E
:1016CC0000213F2000F0CDFD48F210437F22002185
:1016DC005F2000F0C6FD48F210437F2200217F20DE
:1016EC0000F0BFFD48F210437F2200219F2000F044
:1016FC00B8FD00BF80BD000080B500AF0220FFF731
:10170C0041F9FFF753F90346022B01D000F08CFB93
:10171C00FFF758F9FFF726F800BFFFF731F803463B
:10172C00012BFAD14FF450114FF48030FFF7CAF867
:10173C00FFF7A8F800BFFFF7B3F80346012BFAD167
:10174C000020FFF74FF84FF48060FFF75FF80020A0
:10175C00FFF770F80220FFF725F800BFFFF736F807
:10176C000346082BFAD1064802F068FC044802F044
:10177C0097FC4FF48040FFF771F800BF80BD00BFAD
:10178C00000E270780B58EB000AF07F130030022A2
:10179C001A605A600023FB6207F1180300221A60DA
:1017AC005A609A60DA601A613B1D00221A605A6016
:1017BC009A60DA601A614FF40070FFF7CBF80420DE
:1017CC00FFF7C8F840F201137B600023BB603B1DA0
:1017DC0019462F4802F0AFF8002201212D48FEF7E0
:1017EC0055FE4FF4005201212A48FEF71DFF00223E
:1017FC0001212848FEF76EFE002201212548FEF744
:10180C008BFE802201212348FEF7A8FE4FF40072C4
:10181C0001212048FEF7C4FE4FF4006201211D484F
:10182C00FEF7E0FE00233B6300237B6307F13003EC
:10183C001946194801F048FE4FF4C023FB6207F12A
:10184C002C031946144801F00DFE4FF40023BB6124
:10185C000023FB6100233B6200237B624FF4807307
:10186C00BB6207F1180319460B4801F054FE4FF008
:10187C0000724FF400710848FEF70CFD00224FF087
:10188C0000710548FEF73BFD00BF3837BD4680BDF3
:10189C0000080140000002400024014080B58CB0DB
:1018AC0000AF07F1280300221A605A6007F11403F5
:1018BC0000221A605A609A60DA601A613B46002274
:1018CC001A605A609A60DA601A614FF48060FFF710
:1018DC0041F80420FFF73EF840F202233B6000235E
:1018EC007B603B461946164802F025F80023BB6284
:1018FC000023FB6207F128031946124801F0E4FDAE
:10190C004FF460237B610023BB610023FB61002348
:10191C003B6200237B6207F114031946094801F06E
:10192C00FAFD094A4FF400710648FEF7B3FC002299
:10193C0005490448FEF7E3FC00BF3037BD4680BDC7
:10194C0000080140002801400100300280B590B031
:10195C0000AF07F1180328220021184602F0D2FB31
:10196C003B1D00221A605A609A60DA601A614FF4CB
:10197C008040FEF7D7FF0820FEF7ECFF164B7B608C
:10198C000923BB600123FB6000233B613B1D19460F
:10199C00124801F0D0FF0023BB614FF48273FB614E
:1019AC0000233B6200237B620023BB624FF4007375
:1019BC00FB6210233B6300237B630023BB630A237E
:1019CC00FB6307F118031946054802F03BF800BF0A
:1019DC004037BD4680BD00BFA000A004000C0140F4
:1019EC000038004080B586B000AF3B1D00221A6065
:1019FC005A609A60DA601A610120FEF793FFFEF7D5
:101A0C00C3FB0346002200211846FEF711FC0346D7
:101A1C0019461C20FEF7E2FB1C20FEF7C3FB7723C4
:101A2C00BB800023BB606323FB6000233B613B1D39
:101A3C0019464FF0804002F0BBF84FF08040FEF7A3
:101A4C00EDFF00214FF08040FFF7AAF800214FF086
:101A5C008040FFF7B9F84FF08040FFF7C7F800BFA0
:101A6C001837BD4680BD000080B586B000AF3B1D69
:101A7C0000221A605A609A60DA601A610220FEF73E
:101A8C0051FFFEF781FB0346002200211846FEF7AA
:101A9C00CFFB034619461D20FEF7A0FB1D20FEF7C9
:101AAC0081FB0023BB800023BB6040F2ED23FB6075
:101ABC0000233B613B1D19460A4802F079F809489E
:101ACC00FEF7ACFF00210748FFF76AF82021054814
:101ADC00FFF77AF80348FFF789F800BF1837BD46BF
:101AEC0080BD00BF0004004080B592B000AF07F18C
:101AFC00340300221A605A609A60DA601A6107F1A6
:101B0C00140320220021184602F0FCFA3B46002266
:101B1C001A605A609A60DA601A610420FEF702FFBC
:101B2C000820FEF717FF254B3B6009237B6002233F
:101B3C00BB600023FB603B461946214801F0FBFECD
:101B4C000023BB860023BB634FF4A063FB6300231D
:101B5C003B6407F1340319461A4802F029F8194876
:101B6C00FEF75CFF00211748FFF71AF84FF480715D
:101B7C001448FEF7D1FF70237B610023BB61002367
:101B8C00FB614FF420733B6200237B6207F114036B
:101B9C001A464FF480710B4802F068F84FF48071CC
:101BAC000848FEF775FF00210648FFF70DF80548B9
:101BBC00FFF71CF800BF4837BD4680BD010001048B
:101BCC00000C01400008004080B500AF0120FEF77A
:101BDC0091FEFEF7D9FA0346002200211846FEF7C3
:101BEC0027FB034619460B20FEF7F8FA0B20FEF7ED
:101BFC00D9FA00BF80BD000080B588B000AF07F1F6
:101C0C00180300221A605A603B1D00221A605A60A9
:101C1C009A60DA601A611020FEF79CFE2020FEF715
:101C2C0099FE0420FEF796FE0820FEF793FE4FF275
:101C3C00F0037B600123BB600223FB6000233B614C
:101C4C003B1D19466B4801F076FE6B4B7B60012304
:101C5C00BB600223FB6000233B613B1D19466748B8
:101C6C0001F069FE664B7B600123BB600123FB60C6
:101C7C0000233B613B1D1946624801F05CFE48F2B3
:101C8C0080037B600823BB6001237B613B1D1946ED
:101C9C005C4801F050FE5C4B7B600823BB60012369
:101CAC007B613B1D1946534801F045FE5749012005
:101CBC00FFF722F856490020FFF71EF8554900207F
:101CCC00FFF71AF854490020FFF716F84023BB61C0
:101CDC0001233B7700237B770223BB7707F11803A3
:101CEC00184601F0EFFC4FF48073BB6101233B7786
:101CFC0000237B770223BB7707F11803184601F00A
:101D0C00E1FC4FF40063BB6101233B7700237B773D
:101D1C000223BB7707F11803184601F0D3FC4FF4EC
:101D2C008053BB6101233B7700237B770223BB7776
:101D3C0007F11803184601F0C5FC012244F24001DA
:101D4C003048FEF794FF012234492A48FEF78FFFF2
:101D5C00012233492748FEF78AFF012231492548E1
:101D6C00FEF785FF082244F240012648FEF74DFF9E
:101D7C0008222A491F48FEF748FF082228491D4817
:101D8C00FEF743FF082227491A48FEF73EFFFEF7ED
:101D9C00FBF90346002200211846FEF749FA0346D8
:101DAC0019461720FEF71AFA1720FEF7FBF9FEF773
:101DBC00EBF90346002200211846FEF739FA0346D8
:101DCC0019462820FEF70AFA2820FEF7EBF94FF205
:101DDC00F0010848FEF76DFF40F202210948FEF7BA
:101DEC0068FF07490748FEF764FF00BF2037BD4670
:101DFC0080BD00BF000801402000200400100140FD
:101E0C001C001C04000C0140020002040100000F25
:101E1C0002000F00020000F003000F00010001049B
:101E2C00080008041000100480B400AF00BFBD46C9
:101E3C0080BC704780B483B000AF78607B689B68CF
:101E4C0003F00203022B01D1012300E0002318460A
:101E5C000C37BD4680BC704780B483B000AF78604F
:101E6C007B689B6803F08003802B01D1012300E089
:101E7C00002318460C37BD4680BC704780B485B033
:101E8C0000AF78600B46FB707B680C33FB60FB6823
:101E9C00FA781A7000BF1437BD4680BC704780B406
:101EAC0083B000AF786039603B681B0A9AB27B68DC
:101EBC001A6100BF0C37BD4680BC704780B483B03C
:101ECC0000AF786039603B681B0A9AB27B685A6134
:101EDC0000BF0C37BD4680BC7047000080B500AF1A
:101EEC0002490348FFF7EAFF00BF80BD1000100451
:101EFC00000C014080B500AF02490348FFF7CFFF4B
:101F0C0000BF80BD10001004000C014080B500AF74
:101F1C0002490348FFF7D2FF00BF80BD0400040450
:101F2C00000C014080B500AF02490348FFF7B7FF32
:101F3C0000BF80BD04000404000C014080B500AF5C
:101F4C0006490748FFF7BAFF012002F085F803495C
:101F5C000348FFF7A4FF00BF80BD00BF08000804C2
:101F6C00000C014080B582B000AF0346FB71FFF757
:101F7C00B5FF00BF1248FFF75DFF0346002BF9D0F9
:101F8C0000BF0F48FFF768FF0346012BF9D0FB7920
:101F9C0019460B48FFF772FF00BF0948FFF74AFFCD
:101FAC000346002BF9D000BF0548FFF755FF034649
:101FBC00012BF9D0FFF79EFF00BF0837BD4680BD4F
:101FCC000038004080B582B000AF0346FB71FFF7CC
:101FDC009DFFFB791846FFF7C5FF00BF0837BD46CC
:101FEC0080BD80B584B000AF78603960FFF79AFF90
:101FFC000023FB7309E0FB7B5A1CFA731A467B68BF
:10200C0013441B781846FFF7ADFFFB7B3A689A42E6
:10201C00F1D800BF00BF1037BD4680BD80B584B07D
:10202C0000AF78607B685A1C7A601B78FB7334E0D5
:10203C007B685A1C7A601B78FB72FB7A1846FFF798
:10204C00C1FF7B685A1C7A601B78BB72BB7A9BB24F
:10205C0003F08003BB81BB7A03F07F03BB72BB7AB6
:10206C00002B08D0BB7A19467868FFF7BAFFBB7A09
:10207C007A6813447B60BB89002B0ED07B685A1C9A
:10208C007A601B78BB81BB89FF2B02D14FF4FA73AA
:10209C00BB81BB89184601F0DFFFFB7B5A1EFA732C
:1020AC00002BC5D100BF00BF1037BD4680BD90B519
:1020BC0085B000AF0446084611461A462346FB710C
:1020CC000346BB710B467B7113463B712A20FFF70D
:1020DC0079FF00233B73FB797B730023BB737B7904
:1020EC00FB7307F10C0304211846FFF77AFF2B2032
:1020FC00FFF768FFBB797B733B79FB7307F10C032C
:10210C0004211846FFF76DFF2C20FFF75BFF00BF83
:10211C001437BD4690BD000080B500AFFFF7DEFE62
:10212C00FFF70CFF0648FFF779FF0648FFF776FF2D
:10213C000548FFF773FFFFF7DDFE00BF80BD00BF52
:10214C0088490008C4490008D449000880B584B007
:10215C0000AF0346FB800B46BB8013467B807B881D
:10216C001B0A9BB2FB737B88BB73FB889F2B1FD80E
:10217C00BB887F2B1CD8FFF7B1FEFB88D8B2BB887D
:10218C00D9B2FB88DBB20133DAB2BB88DBB20133E4
:10219C00DBB2FFF78CFFFFF7C5FEFB7B1846FFF7A2
:1021AC00E1FEBB7B1846FFF7DDFEFFF7A3FE00E068
:1021BC0000BF1037BD4680BD90B585B000AF04465A
:1021CC00084611461A462346FB800346BB800B4645
:1021DC007B8013463B803B881B0A9BB27B733B88FE
:1021EC003B73FB889F2B38D8BB889F2B35D87B88BB
:1021FC007F2B32D8FFF772FEFA88BB889A420AD23C
:10220C00FB88D8B27B88D9B2BB88DAB27B88DBB2C8
:10221C00FFF74DFF09E0BB88D8B27B88D9B2FB88A9
:10222C00DAB27B88DBB2FFF742FFFFF77BFEBA889E
:10223C00FB88D31AFB810AE07B7B1846FFF792FEE2
:10224C003B7B1846FFF78EFEFB89013BFB81FB892C
:10225C00002BF1D1FFF74EFE00E000BF1437BD4656
:10226C0090BD90B585B000AF0446084611461A469D
:10227C002346FB800346BB800B467B8013463B808A
:10228C003B881B0A9BB27B733B883B73FFF726FE94
:10229C00BA887B889A420AD2FB88D8B2BB88D9B25A
:1022AC00FB88DAB27B88DBB2FFF701FF09E0FB8821
:1022BC00D8B27B88D9B2FB88DAB2BB88DBB2FFF725
:1022CC00F6FEFFF72FFE0023FB810AE07B7B18460E
:1022DC00FFF748FE3B7B1846FFF744FEFB890133B2
:1022EC00FB81FA897988BB88CB1A9A42EEDDFFF71D
:1022FC0001FE00BF1437BD4690BD90B587B000AF4E
:10230C000446084611461A462346FB800346BB800A
:10231C000B467B8013463B807A88FB88D31A9BB292
:10232C00BB823A88BB88D31A9BB27B82B7F9143034
:10233C00002B01DD012301E04FF0FF333B82B7F9A5
:10234C001230002B01DD012301E04FF0FF33FB8144
:10235C00B7F91430002B13D1B7F90020B7F90430BA
:10236C009A4206DDF888B9883A883B8DFFF779FFE9
:10237C009BE0F8883988BA883B8DFFF772FF94E0B0
:10238C00B7F91230002B13D1B7F90220B7F9063088
:10239C009A4206DDF8887988BA883B8DFFF70CFFE6
:1023AC0083E07888F988BA883B8DFFF705FF7CE0DD
:1023BC00BB8A3A8A02FB03F39BB2BB827B8AFA8903
:1023CC0002FB03F39BB27B82B7F914305B00BB8139
:1023DC00B7F912305B007B81B7F91420B7F91230D2
:1023EC009A422EDB7A89BB8AD31A9BB2FB8221E0FC
:1023FC00FB88B9883A8D1846FFF7A8FEFA883B8A05
:10240C0013449BB2FB80B7F91630002B05DAFA8A1D
:10241C007B8913449BB2FB820CE07A89BB89D31A6B
:10242C009AB2FB8A13449BB2FB82BA88FB89134491
:10243C009BB2BB80B7F90620B7F902309A42D7D1CC
:10244C002DE0BA897B8AD31A9BB2FB8221E0FB88F0
:10245C00B9883A8D1846FFF779FEBA88FB89134480
:10246C009BB2BB80B7F91630002B05DAFA8ABB8910
:10247C0013449BB2FB820CE0BA897B89D31A9AB2C3
:10248C00FB8A13449BB2FB82FA883B8A13449BB2AF
:10249C00FB80B7F90420B7F900309A42D7D1FB88FA
:1024AC00B9883A8D1846FFF751FE1C37BD4690BDD2
:1024BC0082B090B589B000AF7B630346FB800B46BE
:1024CC00BB801346FB70FB88D8B2BB88D9B2FB88A3
:1024DC00DAB297F834301344DBB2013BDCB2BB8880
:1024EC00DAB297F835301344DBB2013BDBB222464B
:1024FC00FFF7DDFD0023FB6143E0BA6BFB78203B6B
:10250C0097F8351001FB03F31946FB690B445B008C
:10251C0013441B887B610023BB6129E07A69BB698A
:10252C0002FA03F303F40043002B0ED0BB8F1B0AFB
:10253C009BB2DBB23B74BB8FDBB27B7407F1100335
:10254C0002211846FFF74DFD0FE0B7F840301B0A8B
:10255C009BB2DBB23B73B7F84030DBB27B7307F155
:10256C000C0302211846FFF73CFDBB690133BB612C
:10257C0097F834301A46BB699342CFD3FB690133C9
:10258C00FB6197F835301A46FB699342B5D300BF0F
:10259C0000BF2437BD46BDE8904002B0704782B002
:1025AC0080B586B004AF3A607B610346FB800B4676
:1025BC00BB80FFF793FC2DE0FB883A7D13449F2BE7
:1025CC0013DD0023FB807B7D9AB2BB881344BB8058
:1025DC00BB887A7D13447F2B21DC3B681B78202B36
:1025EC0003D13B6801333B6014E03B681A78B9882F
:1025FC00F8883B8C0293BB8B0193BB6900937B697E
:10260C00FFF756FF3B7D9AB2FB881344FB803B6877
:10261C0001333B603B681B78002BCDD100E000BF41
:10262C00FFF768FC00BF0837BD46BDE8804002B02C
:10263C00704790B585B000AF0446084611461A465F
:10264C002346FB800346BB800B467B8013463B80B6
:10265C003B8C1B0A9BB2FB733B8CBB73FB889F2B85
:10266C004CD8BB887F2B49D8FA887B881344A02B85
:10267C0003DDFB88C3F1A0037B80BA883B8813443D
:10268C00802B03DDBB88C3F180033B80FFF726FC66
:10269C00FB88D8B2BB88D9B2FB88DAB27B88DBB2B4
:1026AC001344DBB2013BDCB2BB88DAB23B88DBB251
:1026BC001344DBB2013BDBB22246FFF7F8FCFFF719
:1026CC0031FC3B88BB8013E07B88FB800AE0FB7B02
:1026DC001846FFF747FCBB7B1846FFF743FCFB880B
:1026EC00013BFB80FB88002BF1D1BB88013BBB80FD
:1026FC00BB88002BE8D1FFF7FDFB00E000BF1437CF
:10270C00BD4690BD80B584B002AF0346FB80FB880C
:10271C0000938023A02200210020FFF78AFF00BF36
:10272C000837BD4680BD80B483B000AF78607B684D
:10273C001B6803F00203022B0CBF01230023DBB246
:10274C0018460C37BD4680BC704780B483B000AFD0
:10275C0078607B6802225A6000BF0C37BD4680BC93
:10276C007047000080B483B000AF7860054B1A68E6
:10277C0004497B6813430B6000BF0C37BD4680BC1B
:10278C00704700BF0004014080B483B000AF786094
:10279C00054B1A687B68DB43034913400B6000BF91
:1027AC000C37BD4680BC70470004014080B483B038
:1027BC0000AF7860074B5A697B6813407A689A427D
:1027CC000CBF01230023DBB218460C37BD4680BC7E
:1027DC00704700BF0004014080B483B000AF786044
:1027EC00034A7B68536100BF0C37BD4680BC704701
:1027FC000004014080B400AF044B1B68034A43F053
:10280C000203136000BFBD4680BC704710E000E0BF
:10281C0080B400AF044B1B68034A23F0020313601F
:10282C0000BFBD4680BC704710E000E080B483B0B0
:10283C0000AF78607B681B6823F001027B681A602C
:10284C0000BF0C37BD4680BC704780B483B000AF6E
:10285C00786039607B683A689A6200BF0C37BD4675
:10286C0080BC704780B483B000AF786039607B68FF
:10287C003A68DA6200BF0C37BD4680BC704780B442
:10288C0083B000AF786039607B683A68DA6300BF68
:10289C000C37BD4680BC704780B483B000AF786005
:1028AC007B686FF001021A6100BF0C37BD4680BC1B
:1028BC00704780B483B000AF78607B681B6903F00D
:1028CC000103012B01D1012300E0002318460C3732
:1028DC00BD4680BC704780B483B000AF78607B6825
:1028EC00DB6843F001027B68DA6000BF0C37BD4641
:1028FC0080BC704780B483B000AF78607B68DB68C5
:10290C0023F001027B68DA6000BF0C37BD4680BC47
:10291C00704780B483B000AF786039607B689B6887
:10292C00DA433B681B0A13409BB2002B0CBF0123FC
:10293C000023DBB218460C37BD4680BC704780B410
:10294C0083B000AF786039603B681B0A9AB27B6831
:10295C001A6100BF0C37BD4680BC704780B483B091
:10296C0000AF786039603B681B0A9AB27B685A6189
:10297C0000BF0C37BD4680BC704780B400AF00BFB1
:10298C00BD4680BC704780B400AFFEE780B400AF9A
:10299C00FEE780B400AFFEE780B400AFFEE780B482
:1029AC0000AF00BFBD4680BC704780B400AF00BF15
:1029BC00BD4680BC704780B400AF00BFBD4680BC34
:1029CC007047000080B500AF124B1B881BB2002B68
:1029DC0009DD104B1B881BB29BB2013B9BB21AB298
:1029EC000C4B1A8014E04FF08040FFF783FF40201F
:1029FC00FFF7B8FE4FF48070FFF7B4FE4FF40060A1
:102A0C00FFF7B0FE4FF48050FFF7ACFEFFF700FF6E
:102A1C0000BF80BD400F002080B500AF0B48FFF712
:102A2C0005FF0B48FFF77FFE0346002B0CD002E09E
:102A3C000748FFF78AFE0648FFF775FE0346002B92
:102A4C00F6D1044B01221A7000BF80BD0004004077
:102A5C0000000240280F002080B500AF4FF08040EE
:102A6C00FFF727FF0346002B00F08D8203E04FF0A9
:102A7C008040FFF711FF4FF08040FFF71AFF03462D
:102A8C00002BF4D1A34B00221A70A34B00221A7016
:102A9C00A24B1B785B00DAB2A04B1A70A04B1B78D0
:102AAC005B00DAB29E4B1A709E4B1B785B00DAB25D
:102ABC009C4B1A709C4B1B785B00DAB29A4B1A70C9
:102ACC009A499B48FFF725FF0346002B05D1934BF2
:102ADC001B780133DAB2914B1A7096499448FFF780
:102AEC0018FF0346002B05D18D4B1B780133DAB24E
:102AFC008B4B1A7044F240018F48FFF70AFF0346D4
:102B0C00002B05D1874B1B780133DAB2854B1A7039
:102B1C0048F280018848FFF7FCFE0346002B05D1E4
:102B2C00814B1B780133DAB27F4B1A707B4B1B78CD
:102B3C00802B0DD17A4B1B78002B02D1754BFF22C9
:102B4C001A70774B1B78FF2B02D1724B01221A7033
:102B5C00744B1B78802B0DD1734B1B78002B02D13F
:102B6C006D4BFF221A70704B1B78FF2B02D16A4BF6
:102B7C0001221A70714B1B785BB2002B40F0E48081
:102B8C00644B1B785BB2DAB26D4B1B785BB2DBB279
:102B9C001344DBB25AB26A4B1A70694B1B785BB2A6
:102BAC00002B02DA664B00221A70654B1B785BB265
:102BBC000C2B02DD624B0C221A70614B1B785BB242
:102BCC000C2B00F29D8001A252F823F00D2C000872
:102BDC00212C0008352C0008492C00085D2C00081D
:102BEC00712C0008852C0008992C0008AD2C0008CD
:102BFC00C12C0008D52C0008E92C0008FB2C00087F
:102C0C0063215048FFF721FE41F64B514D48FFF729
:102C1C0029FEDAE063214B48FFF717FE40F6A56169
:102C2C004848FFF71FFED0E063214648FFF70DFE32
:102C3C0040F252714348FFF715FEC6E0632141484C
:102C4C00FFF703FE40F2ED213E48FFF70BFEBCE020
:102C5C0000213C48FFF7F9FD49F27B213948FFF789
:102C6C0001FEB2E000213748FFF7EFFD44F63D11BD
:102C7C003448FFF7F7FDA8E000213248FFF7E5FDE7
:102C8C0041F64B512F48FFF7EDFD9EE000212D48FA
:102C9C00FFF7DBFD40F6A5612A48FFF7E3FD94E062
:102CAC0000212848FFF7D1FD40F252712548FFF76B
:102CBC00D9FD8AE000212348FFF7C7FD40F2ED2142
:102CCC002048FFF7CFFD80E000211E48FFF7BDFD37
:102CDC004FF4BB711B48FFF7C5FD76E00021194886
:102CEC00FFF7B3FDBB211748FFF7BCFD6DE00021DA
:102CFC001448FFF7AAFD4A211248FFF7B3FD64E020
:102D0C0000211048FFF7A1FD40F2CF710D48FFF7ED
:102D1C00A9FD5AE0420F0020430F0020440F002071
:102D2C00450F0020460F0020470F00200100010432
:102D3C000008014002000204000C0140290F002091
:102D4C002B0F002000040040904B1B785BB2012B32
:102D5C001ED18F4B1B785BB299008E4B1B881BB21C
:102D6C009AB28BB2D31A9BB21AB28A4B1A80894B85
:102D7C001B881BB2032B02DC864B04221A80854B6A
:102D8C001B881BB27C2B20DD824B7C221A801CE022
:102D9C007F4B1B785BB2DAB27F4B1B785BB2DBB23A
:102DAC001344DBB25AB27C4B1A707B4B1B785BB270
:102DBC00012B02DD784B01221A70774B1B785BB22A
:102DCC00002B02DA744B00221A70744B1B785BB226
:102DDC00002B54D1724B1B785BB2DAB2714B1B785F
:102DEC005BB2DBB21344DBB25AB26E4B1A706D4B52
:102DFC001B785BB2002B02DA6A4B00221A70694B0B
:102E0C001B785BB2022B02DD664B02221A70654BFB
:102E1C001B785BB2022B1CD0022B25DC002B02D0C2
:102E2C00012B0BD020E041F210015F48FFF787FD2A
:102E3C0042F220015C48FFF782FDA4E041F2100150
:102E4C005948FFF77CFD42F220015748FFF786FDF9
:102E5C0099E041F210015448FFF780FD42F2200145
:102E6C005148FFF77BFD8EE041F210014E48FFF711
:102E7C0066FD42F220014C48FFF761FD83E0474BB1
:102E8C001B785BB2012B54D1454B1B785BB2DAB289
:102E9C00464B1B785BB2DBB21344DBB25AB2434BEA
:102EAC001A70424B1B785BB2002B02DA3F4B0022AC
:102EBC001A703E4B1B785BB2022B02DD3B4B02229D
:102ECC001A703A4B1B785BB2022B1CD0022B25DC00
:102EDC00002B02D0012B0BD020E044F240013248F1
:102EEC00FFF72DFD48F280012F48FFF728FD4AE03F
:102EFC0044F240012C48FFF722FD48F280012A4899
:102F0C00FFF72CFD3FE044F240012748FFF726FD78
:102F1C0048F280012448FFF721FD34E044F24001DF
:102F2C002148FFF70CFD48F280011F48FFF707FD11
:102F3C0029E01B4B1B785BB29AB21D4B1B881BB252
:102F4C009BB213449BB21AB2194B1A80184B1B88B4
:102F5C001BB2002B02DC164B01221A80144B1B886F
:102F6C001BB27E2B02DD124B7E221A80104B1B886B
:102F7C001BB21A4613469B0013445B0019460D48BE
:102F8C00FFF77DFCFFE700BF80BD00BF290F0020CD
:102F9C00420F00202C0F00202E0F00202A0F0020A3
:102FAC00430F00202F0F002000080140300F00209D
:102FBC00320F00200008004080B500AF4020FFF722
:102FCC00F5FB0346002B16D04020FFF7DDFB02E09B
:102FDC004020FFF701FC4020FFF7E8FB0346002BE5
:102FEC00F6D14FF08040FFF776FC144B4FF49672FD
:102FFC001A80FFF7FFFB4FF48070FFF7D7FB0346F7
:10300C00002B19D04FF48070FFF7BEFB03E04FF498
:10301C008070FFF7E1FB4FF48070FFF7C7FB0346AE
:10302C00002BF4D14FF08040FFF755FC034B4FF4CD
:10303C0096721A80FFF7DEFB00BF80BD400F0020A8
:10304C0080B500AF4FF40060FFF7B0FB0346002BD8
:10305C004ED04FF40060FFF797FB03E04FF4006095
:10306C00FFF7BAFB4FF40060FFF7A0FB0346002B01
:10307C00F4D14B4B1B785BB2002B0FD1484B012288
:10308C001A70484B4FF6FF721A80474B4FF6E0729E
:10309C001A80464B4FF6FF721A8023E0404B1B7888
:1030AC005BB2012B0FD13E4B02221A703D4B4FF6F7
:1030BC00FF721A803C4B4FF6FF721A803B4B4FF657
:1030CC00E0721A800EE0364B00221A70354B4FF628
:1030DC00E0721A80344B4FF6FF721A80334B4FF666
:1030EC00FF721A80324B4FF496721A80FFF782FBF4
:1030FC004FF48050FFF75AFB0346002B4ED04FF491
:10310C008050FFF741FB03E04FF48050FFF764FB66
:10311C004FF48050FFF74AFB0346002BF4D1254BAC
:10312C001B785BB2002B0FD1224B01221A70224B61
:10313C004FF6FF721A80214B4FF6E0721A80204B2B
:10314C004FF6FF721A8023E01A4B1B785BB2012BEF
:10315C000FD1184B02221A70174B4FF6FF721A80C0
:10316C00164B4FF6FF721A80154B4FF6E0721A8011
:10317C000EE0104B00221A700F4B4FF6E0721A80C3
:10318C000E4B4FF6FF721A800D4B4FF6FF721A80E2
:10319C00074B4FF496721A80FFF72CFB00BF80BDD3
:1031AC00290F0020380F00203A0F00203C0F002080
:1031BC00400F00202A0F0020340F0020360F002073
:1031CC003E0F002080B483B000AF78607B681B6832
:1031DC0003F02003202B0CBF01230023DBB2184685
:1031EC000C37BD4680BC704780B483B000AF7860AC
:1031FC007B681B6803F08003802B0CBF012300232A
:10320C00DBB218460C37BD4680BC704780B483B027
:10321C0000AF78607B686FF040021A6000BF0C371B
:10322C00BD4680BC704780B483B000AF78607B68CB
:10323C006FF020021A6000BF0C37BD4680BC70478F
:10324C0080B483B000AF78607B68DB6823F08002C9
:10325C007B68DA6000BF0C37BD4680BC704780B419
:10326C0083B000AF78607B685B68DBB218460C37C4
:10327C00BD4680BC704780B483B000AF78600B460D
:10328C00FB70FA787B685A6000BF0C37BD4680BC77
:10329C007047000080B582B000AF2B48FFF792FF5B
:1032AC000346002B23D0294B00221A702648FFF727
:1032BC00D6FF0346FB71264B1B78DBB20133DBB226
:1032CC0003F03F03BB71234B1B78DBB2BA799A42F4
:1032DC0003D11E4B01221A7006E0BB791E49FA7904
:1032EC00CA541B4ABB7913701748FFF79CFF16484A
:1032FC00FFF77AFF0346002B21D0184B1B78DAB26C
:10330C00174B1B78DBB29A4203D10F48FFF798FF9B
:10331C0012E0134B1B78DBB20133DBB203F03F033B
:10332C00BB710F4ABB791370BB790E4AD35CDBB20D
:10333C0019460548FFF79FFF0348FFF767FF00BFDB
:10334C000837BD4680BD00BF00380140CC0F0020BF
:10335C00C80F0020C90F0020480F0020CA0F002002
:10336C00CB0F0020880F002080B400AF154B1B68DA
:10337C00144A43F001031360124B5A681149124B63
:10338C0013404B600F4B1B680E4A23F0847323F4DD
:10339C00803313600B4B1B680A4A23F480231360A1
:1033AC00084B5B68074A23F4FE035360054B4FF44C
:1033BC001F029A60054B4FF000629A6000BFBD4639
:1033CC0080BC7047001002400000FFF800ED00E0E8
:1033DC00002103E00B4B5B58435004310A480B4B64
:1033EC0042189A42F6D30A4A02E0002342F8043B00
:1033FC00084B9A42F9D3FFF7B7FF00F05FFEFDF7D9
:10340C00A9FC7047084A0008000000200C000020AE
:10341C000C000020D00F0020FEE780B483B000AF7A
:10342C00786039607B68DB6A23F470023B681A436E
:10343C007B68DA6200BF0C37BD4680BC704780B435
:10344C0083B000AF78607B689B6803F00103012BAD
:10345C000CBF01230023DBB218460C37BD4680BCE1
:10346C007047000090B585B000AF786039600023DC
:10347C00FB731348FFF7E3FF04461248FFF7DFFF27
:10348C0003462343002B14D13B681B68002B09D047
:10349C007B685B6823F470223B681B681A437B686B
:1034AC005A6008E07B685B6823F470227B685A6082
:1034BC0001E00123FB73FB7B18461437BD4690BD1E
:1034CC00002401400028014080B584B000AF786032
:1034DC0039600023FB737868FFF7B1FF0346002BBC
:1034EC0012D17B685B6823F480723B685B681A437B
:1034FC007B685A607B689B6823F400623B681B689E
:10350C001A437B689A6001E00123FB73FB7B18462E
:10351C001037BD4680BD80B584B000AF786039608F
:10352C000023FB737868FFF78AFF0346002B31D129
:10353C003B685B68002B0CD07B685B6823F46842AB
:10354C003B6859683B689B680B431A437B685A601D
:10355C0008E07B685B6823F468423B685B681A434D
:10356C007B685A607B689B6823F4602323F4817327
:10357C003A6811683A68D26811433A6812690A438A
:10358C001A437B689A603B685B6819467868FFF75A
:10359C0044FF01E00123FB73FB7B18461037BD464B
:1035AC0080BD000080B483B000AF7860054B1A6812
:1035BC0004497B6813430B6000BF0C37BD4680BCCD
:1035CC00704700BF0004014080B483B000AF786046
:1035DC00054B1A687B68DB43034913400B6000BF43
:1035EC000C37BD4680BC70470004014080B483B0EA
:1035FC0000AF7860054B5A6804497B6813434B60F5
:10360C0000BF0C37BD4680BC704700BF00040140B2
:10361C0080B483B000AF7860054B5A687B68DB439D
:10362C00034913404B6000BF0C37BD4680BC70474C
:10363C000004014080B483B000AF7860054B9A68F9
:10364C0004497B6813438B6000BF0C37BD4680BCBC
:10365C00704700BF0004014080B483B000AF7860B5
:10366C00054B9A687B68DB43034913408B6000BFB2
:10367C000C37BD4680BC70470004014080B483B059
:10368C0000AF7860054BDA6804497B681343CB6064
:10369C0000BF0C37BD4680BC704700BF0004014022
:1036AC0080B483B000AF7860054BDA687B68DB438D
:1036BC0003491340CB6000BF0C37BD4680BC70473C
:1036CC000004014080B584B000AF78600023FB7328
:1036DC007B681B79002B65D07B681B68002B6CD03A
:1036EC007B685B79022B1CD0022B25DC002B02D0D3
:1036FC00012B0BD020E07B681B681846FFF788FF76
:10370C007B681B681846FFF74DFF18E07B681B6849
:10371C001846FFF759FF7B681B681846FFF766FFD2
:10372C000DE07B681B681846FFF73CFF7B681B6845
:10373C001846FFF75BFF02E00123FB7300BF7B68B9
:10374C009B79002B39D07B689B79032B1CD0032BE6
:10375C0025DC012B02D0022B0BD020E07B681B68F0
:10376C001846FFF79DFF7B681B681846FFF762FF42
:10377C0024E07B681B681846FFF76EFF7B681B68AC
:10378C001846FFF77BFF19E07B681B681846FFF7AC
:10379C0051FF7B681B681846FFF770FF0EE0012392
:1037AC00FB730BE07B681B681846FFF70DFF7B680B
:1037BC001B681846FFF72CFF00E000BFFB7B184688
:1037CC001037BD4680BD90B488B000AFF860B960CA
:1037DC007A60FB681A46BB681B0E13441C462268B1
:1037EC00BB687B617B6993FAA3F33B613B69B3FADA
:1037FC0083F3DBB29B000F2101FA03F3DB431A4086
:10380C00BB68FB61FB6993FAA3F3BB61BB69B3FAB9
:10381C0083F3DBB29B00796801FA03F31343236053
:10382C0000BF2037BD4690BC704790B488B000AF45
:10383C00F860B9607A60FB681A46BB681B0E1344CB
:10384C001C462268BB687B617B6993FAA3F33B61DE
:10385C003B69B3FA83F3DBB29B00032101FA03F358
:10386C00DB431A40BB68FB61FB6993FAA3F3BB61B2
:10387C00BB69B3FA83F3DBB29B00796801FA03F3FB
:10388C001343236000BF2037BD4690BC704790B4F3
:10389C0088B000AFF860B9607A60FB681A46BB6804
:1038AC001B0E13441C462268BB687B617B6993FA30
:1038BC00A3F33B613B69B3FA83F3DBB29B000421B6
:1038CC0001FA03F3DB431A40BB68FB61FB6993FA13
:1038DC00A3F3BB61BB69B3FA83F3DBB29B007968DA
:1038EC0001FA03F31343236000BF2037BD4690BC9D
:1038FC00704780B487B000AFF860B9607A60FB683D
:10390C00DA68BB681B0ADB431A40BB681B0A7B6185
:10391C007B6993FAA3F33B613B69B3FA83F3DBB2A4
:10392C0019467B688B401A43FB68DA6000BF1C3772
:10393C00BD4680BC704780B588B000AF78603960F8
:10394C003B681B681B021B0C7B617B693B613B6901
:10395C0093FAA3F3FB60FB68B3FA83F3DBB2FB616E
:10396C0044E00122FB699A407B691340002B3AD05A
:10397C00FB69072B06D840F20112FB6902FA03F32C
:10398C00BB6108E0FB69083B4FF0011202FA03F33C
:10399C0043F08063BB613B685B68082B06D13B68D6
:1039AC001B691A46B9697868FFF7A3FF3B685B6827
:1039BC001A46B9697868FFF706FF3B685B68012B0C
:1039CC0003D03B685B68092B0DD13B689B681A469A
:1039DC00B9697868FFF729FF3B68DB681A46B96953
:1039EC007868FFF754FFFB690133FB617A69FB6967
:1039FC0022FA03F3002BB4D1002318462037BD461E
:103A0C0080BD80B483B000AF78607B681B6803F026
:103A1C004003402B01D1012300E0002318460C3752
:103A2C00BD4680BC704780B483B000AF786039600D
:103A3C003B689BB21A467B681A6100BF0C37BD46C7
:103A4C0080BC704780B584B000AF786039600123CA
:103A5C00FB737868FFF7D5FF0346002B39D17B68E1
:103A6C001B6823F47F4323F0BF033A6811683A685C
:103A7C00526811433A68926811433A68D26811430C
:103A8C003A68126911433A68526911433A6892696B
:103A9C0011433A68D26911433A68126A0A431A43CD
:103AAC007B681A607B685B6823F004023B685B6987
:103ABC001B0C1A437B685A603B681B6AB3F5005FAA
:103ACC0005D13B685B6A19467868FFF7ACFF0023A9
:103ADC00FB73FB7B18461037BD4680BD80B483B0AA
:103AEC0000AF786039607B683A689A6200BF0C3727
:103AFC00BD4680BC704780B483B000AF786039603D
:103B0C007B683A68DA6200BF0C37BD4680BC7047F0
:103B1C0080B483B000AF786039607B683A681A6310
:103B2C0000BF0C37BD4680BC704780B483B000AF7B
:103B3C00786039607B683A685A6300BF0C37BD46C1
:103B4C0080BC704780B483B000AF786039607B680C
:103B5C003A689A6300BF0C37BD4680BC704780B48E
:103B6C0083B000AF786039607B683A68DA6300BF75
:103B7C000C37BD4680BC704780B483B000AF786012
:103B8C0039607B683A681A6400BF0C37BD4680BC4C
:103B9C00704780B483B000AF78607B685B6943F09A
:103BAC0001027B685A6100BF0C37BD4680BC704770
:103BBC0080B584B000AF786039607B681B68FB60AF
:103BCC007B68274A93420BD07B68B3F1804F07D0B8
:103BDC007B68244A934203D07B68234A934206D1E4
:103BEC00FB6823F070023B685B681343FB607B68E7
:103BFC001B4A93420BD07B68B3F1804F07D07B6894
:103C0C00184A934203D07B68174A934206D1FB684B
:103C1C0023F440723B68DB681343FB607B68FA68F3
:103C2C001A603B689B6819467868FFF764FF3B682D
:103C3C001B8819467868FFF751FF7B68084A934246
:103C4C0005D13B681B6919467868FFF761FF7868F6
:103C5C00FFF79FFF002318461037BD4680BD00BFFD
:103C6C00002C0140000400400008004080B586B0E4
:103C7C0000AFF860B9607A600123FB75BB68B3F5DF
:103C8C00805F27D0BB68B3F5805F2AD8BB68B3F5DB
:103C9C00807F18D0BB68B3F5807F22D8BB68012B1E
:103CAC0003D0BB68102B07D01BE07968F86800F0D4
:103CBC001FF80346FB7515E07968F86800F07EF88C
:103CCC000346FB750EE07968F86800F0E1F80346EE
:103CDC00FB7507E07968F86800F044F90346FB755A
:103CEC0000E000BFFB7D18461837BD4680BD0000C4
:103CFC0080B586B000AF786039607B681B6A23F0B2
:103D0C0001027B681A627B681B6A7B617B685B685B
:103D1C003B617B689B69FB60FB6823F00303FB60E2
:103D2C00FB6823F070023B681B681343FB607B69E4
:103D3C0023F002023B681B6913437B617B6923F010
:103D4C0001023B685B6813437B617B681A4A9342B0
:103D5C001ED17B6923F008023B685B699B0013430F
:103D6C007B617B6923F004023B689B689B001343D7
:103D7C007B613B6923F480723B689B6913433B6115
:103D8C003B6923F400723B68DB695B0013433B61C6
:103D9C007B683A695A607B68FA689A613B68DB68B1
:103DAC0019467868FFF7C1FE7B687A691A620023AE
:103DBC0018461837BD4680BD002C014080B586B032
:103DCC0000AF786039607B681B6A23F010027B6857
:103DDC001A627B681B6A7B617B685B683B617B68F2
:103DEC009B69FB60FB6823F44073FB60FB6823F466
:103DFC00E0423B681B681B021343FB607B6923F0AA
:103E0C0020023B681B691B0113437B617B6923F018
:103E1C0010023B685B681B0113437B617B681B4A88
:103E2C0093421FD17B6923F080023B685B699B0145
:103E3C0013437B617B6923F040023B689B689B01C9
:103E4C0013437B613B6923F480623B689B699B0055
:103E5C0013433B613B6923F400623B68DB69DB0085
:103E6C0013433B617B683A695A607B68FA689A61D4
:103E7C003B68DB6819467868FFF764FE7B687A69F3
:103E8C001A62002318461837BD4680BD002C01402D
:103E9C0080B586B000AF786039607B681B6A23F40C
:103EAC0080727B681A627B681B6A7B617B685B68CB
:103EBC003B617B68DB69FB60FB6823F00303FB6001
:103ECC00FB6823F070023B681B681343FB607B6943
:103EDC0023F400723B681B691B0213437B617B69F3
:103EEC0023F480723B685B681B0213437B617B6825
:103EFC001B4A93421FD17B6923F400623B685B69C8
:103F0C009B0213437B617B6923F480623B689B6853
:103F1C009B0213437B613B6923F480523B689B6992
:103F2C001B0113433B613B6923F400523B68DB6983
:103F3C005B0113433B617B683A695A607B68FA68A2
:103F4C00DA613B68DB6819467868FFF708FE7B6826
:103F5C007A691A62002318461837BD4680BD00BF27
:103F6C00002C014080B586B000AF786039607B686A
:103F7C001B6A23F480527B681A627B681B6A3B6164
:103F8C007B685B687B617B68DB69FB60FB6823F4A7
:103F9C004073FB60FB6823F4E0423B681B681B0228
:103FAC001343FB603B6923F400523B681B691B0302
:103FBC0013433B613B6923F480523B685B681B03F2
:103FCC0013433B617B680F4A934207D17B6923F40F
:103FDC0080423B689B699B0113437B617B687A69D8
:103FEC005A607B68FA68DA613B68DB681946786866
:103FFC00FFF7C2FD7B683A691A620023184618372E
:10400C00BD4680BD002C014080B483B000AF786009
:10401C0039607A683B68B2FBF3F3074A013B5360A3
:10402C00054B00229A60044B05221A6000BF0C3726
:10403C00BD4680BC704700BF10E000E080B582B088
:10404C0000AF78604FF47A717868FFF7DDFF00BF3E
:10405C000837BD4680BD000080B485B000AF7860E5
:10406C000E4B1B68FB60FB687B68B3F1FF3F0CD009
:10407C007B6801337B6008E0084B1B6803F48033DA
:10408C00002B02D07B68013B7B607B68002BF3D15B
:10409C0000BF00BF1437BD4680BC704710E000E085
:1040AC0080B483B000AF7860034A7B68136000BFB4
:1040BC000C37BD4680BC70470800002070B5002648
:1040CC000C4D0D4C641BA410A64209D100F022F833
:1040DC0000260A4D0A4C641BA410A64205D170BDE3
:1040EC0055F8043B98470136EEE755F8043B9847E2
:1040FC000136F2E7004A0008004A0008004A0008AE
:10410C00044A000803460244934200D1704703F866
:10411C00011BF9E7F8B500BFF8BC08BC9E46704718
:0C412C00F8B500BFF8BC08BC9E46704708
:1041380043483120325620202000000043483120D7
:104148003156202020000000434831203530306DA2
:10415800560000003230306D730000003130306D91
:104168007300000035306D732000000032306D732D
:104178002000000031306D7320000000356D732081
:1041880020000000326D732020000000316D732084
:104198002000000035303075730000003230307573
:1041A80073000000313030757300000035307573CE
:1041B800200000003230757320000000545F43482F
:1041C80031000000545F4348320000004348322069
:1041D800325620202000000043483220315620204B
:1041E80020000000434832203530306D5600000072
:1041F800474E4400545F4C564C000000000000003D
:1042080000000000000000000000000000000000A6
:104218000010001000100010001000100000001026
:10422800000000000028002800280000000000000E
:10423800000000000000000000240024007C00248E
:104248000048007C00480048000000000038005486
:1042580000500038001400540054003800100000CA
:1042680000200054005800300028005400140008B2
:10427800000000000010002800280010003400484A
:10428800004800340000000000100010001000007A
:1042980000000000000000000000000000080010FE
:1042A800002000200020002000200020001000082E
:1042B8000020001000080008000800080008000896
:1042C8000010002000100038001000280000000036
:1042D80000000000000000000000000000100010B6
:1042E800007C00100010000000000000000000002A
:1042F8000000000000000000000000100010001086
:10430800000000000000000000000038000000006D
:104318000000000000000000000000000000000095
:104328000000001000000000000800080010001045
:104338000010001000200020000000000038004499
:1043480000440054004400440044003800000000C9
:104358000010003000500010001000100010001075
:104368000000000000380044004400040008001069
:104378000020007C00000000003800440004001801
:104388000004000400440038000000000008001881
:10439800002800280048007C0008000800000000F1
:1043A800007C00400040007800040004004400380D
:1043B8000000000000380044004000780044004439
:1043C8000044003800000000007C000400080010D1
:1043D80000100020002000200000000000380044E9
:1043E8000044003800440044004400380000000045
:1043F8000038004400440044003C000400440038F5
:104408000000000000000000001000000000000094
:104418000000001000000000000000000000001074
:104428000000000000000010001000100000000054
:10443800000C003000400030000C000000000000BC
:10444800000000000000007C0000007C000000006C
:1044580000000000000000000060001800040018C0
:10446800006000000000000000380044000400085C
:104478000010001000000010000000000038004488
:10448800004C0054005C0040004000380000000070
:1044980000100028002800280028007C0044004460
:1044A8000000000000780044004400780044004404
:1044B800004400780000000000380044004000403C
:1044C8000040004000440038000000000070004830
:1044D800004400440044004400480070000000000C
:1044E800007C00400040007C004000400040007C10
:1044F80000000000007C00400040007800400040C0
:104508000040004000000000003800440040004027
:10451800005C0044004400380000000000440044EF
:104528000044007C004400440044004400000000B3
:1045380000380010001000100010001000100038A3
:10454800000000000004000400040004000400044B
:10455800004400380000000000440048005000609B
:10456800005000480048004400000000004000409F
:1045780000400040004000400040007C0000000077
:104588000044006C006C00540044004400440044A3
:104598000000000000440064006400540054004C13
:1045A800004C00440000000000380044004400446F
:1045B8000044004400440038000000000078004433
:1045C8000044004400780040004000400000000023
:1045D80000380044004400440044004400540038BB
:1045E80000040000007800440044004400780048BB
:1045F800004800440000000000380044004000303B
:10460800000800040044003800000000007C00108E
:104618000010001000100010001000100000000032
:10462800004400440044004400440044004400386E
:10463800000000000044004400440028002800282E
:104648000010001000000000004400440054005412
:104658000054006C002800280000000000440028D6
:104668000028001000100028002800440000000066
:10467800004400440028002800100010001000101A
:1046880000000000007C000400080010001000205A
:104698000040007C0000000000180010001000100E
:1046A800001000100010001000100018002000205A
:1046B80000100010001000100008000800000000A2
:1046C8000030001000100010001000100010001042
:1046D80000100030001000280028004400000000EE
:1046E80000000000000000000000000000000000C2
:1046F8000000000000000000000000FE0020001084
:1047080000000000000000000000000000000000A1
:104718000000000000380044003C0044004C003415
:1047280000000000004000400058006400440044BD
:104738000064005800000000000000000038004439
:10474800004000400044003800000000000400045D
:104758000034004C00440044004C003400000000C9
:104768000000000000380044007C0040004400388D
:1047780000000000000C0010007C00100010001069
:104788000010001000000000000000000034004C81
:1047980000440044004C003400040078004000400D
:1047A8000058006400440044004400440000000035
:1047B8000010000000700010001000100010001021
:1047C8000000000000100000007000100010001031
:1047D80000100010001000E00040004000480050A9
:1047E8000060005000480044000000000070001005
:1047F8000010001000100010001000100000000051
:104808000000000000780054005400540054005484
:10481800000000000000000000580064004400444C
:10482800004400440000000000000000003800447C
:10483800004400440044003800000000000000006C
:1048480000580064004400440064005800400040E0
:10485800000000000034004C00440044004C0034C8
:1048680000040004000000000058006400400040FC
:104878000040004000000000000000000038004434
:10488800003000080044003800000000002000202C
:104898000078002000200020002000180000000000
:1048A800000000000044004400440044004C003470
:1048B8000000000000000000004400440028002818
:1048C8000028001000000000000000000054005400
:1048D8000054006C002800280000000000000000C0
:1048E80000440028001000100028004400000000C8
:1048F80000000000004400440028002800100010B8
:104908000010006000000000007C0008001000207B
:104918000040007C0000000000180010001000108B
:1049280000200020001000100010001800100010D7
:1049380000100010001000100010001000100010EF
:1049480000300010001000100008000800100010CF
:10495800001000300000000000000074004C00004F
:104968000000000000000000081C3044586C800063
:104978000000000004040400000008000000080013
:104988000F0180961180FFB103012C2DB203012C79
:104998002DB306012C2D012C2DB40107C003A20252
:1049A80084C101C5C2020A00C3028A2AC4028AEE6F
:1049B800C5010E20003601A03A010500022A0400B4
:1049C80000007F2B040000007F00000004E01002BC
:1049D8001C07123732292D29252B3900010310E134
:1049E80010031D07062E2C292D2E2E373F000002FE
:0849F8001013800A29806400FD
:044A00003101000878
:044A04000D01000898
:0C4A0800070A0000044200080024F4002B
:04000005080033DDDF
:00000001FF
